{
  "_format": "hh-sol-artifact-1",
  "contractName": "BonusFunder",
  "sourceName": "contracts/BonusFunder.sol",
  "abi": [
    {
      "inputs": [
        {
          "internalType": "address",
          "name": "factory",
          "type": "address"
        }
      ],
      "stateMutability": "nonpayable",
      "type": "constructor"
    },
    {
      "inputs": [
        {
          "internalType": "address",
          "name": "have",
          "type": "address"
        },
        {
          "internalType": "address",
          "name": "want",
          "type": "address"
        }
      ],
      "name": "OnlyCoordinatorCanFulfill",
      "type": "error"
    },
    {
      "inputs": [],
      "name": "COORDINATOR",
      "outputs": [
        {
          "internalType": "contract VRFCoordinatorV2Interface",
          "name": "",
          "type": "address"
        }
      ],
      "stateMutability": "view",
      "type": "function"
    },
    {
      "inputs": [],
      "name": "LINKTOKEN",
      "outputs": [
        {
          "internalType": "contract LinkTokenInterface",
          "name": "",
          "type": "address"
        }
      ],
      "stateMutability": "view",
      "type": "function"
    },
    {
      "inputs": [],
      "name": "callbackGasLimit",
      "outputs": [
        {
          "internalType": "uint32",
          "name": "",
          "type": "uint32"
        }
      ],
      "stateMutability": "view",
      "type": "function"
    },
    {
      "inputs": [
        {
          "internalType": "uint256",
          "name": "",
          "type": "uint256"
        }
      ],
      "name": "eligibleProjects",
      "outputs": [
        {
          "internalType": "address",
          "name": "",
          "type": "address"
        }
      ],
      "stateMutability": "view",
      "type": "function"
    },
    {
      "inputs": [],
      "name": "factoryAddress",
      "outputs": [
        {
          "internalType": "address",
          "name": "",
          "type": "address"
        }
      ],
      "stateMutability": "view",
      "type": "function"
    },
    {
      "inputs": [],
      "name": "keyHash",
      "outputs": [
        {
          "internalType": "bytes32",
          "name": "",
          "type": "bytes32"
        }
      ],
      "stateMutability": "view",
      "type": "function"
    },
    {
      "inputs": [],
      "name": "link",
      "outputs": [
        {
          "internalType": "address",
          "name": "",
          "type": "address"
        }
      ],
      "stateMutability": "view",
      "type": "function"
    },
    {
      "inputs": [],
      "name": "numWords",
      "outputs": [
        {
          "internalType": "uint32",
          "name": "",
          "type": "uint32"
        }
      ],
      "stateMutability": "view",
      "type": "function"
    },
    {
      "inputs": [
        {
          "internalType": "uint256",
          "name": "requestId",
          "type": "uint256"
        },
        {
          "internalType": "uint256[]",
          "name": "randomWords",
          "type": "uint256[]"
        }
      ],
      "name": "rawFulfillRandomWords",
      "outputs": [],
      "stateMutability": "nonpayable",
      "type": "function"
    },
    {
      "inputs": [],
      "name": "requestConfirmations",
      "outputs": [
        {
          "internalType": "uint16",
          "name": "",
          "type": "uint16"
        }
      ],
      "stateMutability": "view",
      "type": "function"
    },
    {
      "inputs": [],
      "name": "requestRandomWords",
      "outputs": [],
      "stateMutability": "nonpayable",
      "type": "function"
    },
    {
      "inputs": [],
      "name": "s_owner",
      "outputs": [
        {
          "internalType": "address",
          "name": "",
          "type": "address"
        }
      ],
      "stateMutability": "view",
      "type": "function"
    },
    {
      "inputs": [
        {
          "internalType": "uint256",
          "name": "",
          "type": "uint256"
        }
      ],
      "name": "s_randomWords",
      "outputs": [
        {
          "internalType": "uint256",
          "name": "",
          "type": "uint256"
        }
      ],
      "stateMutability": "view",
      "type": "function"
    },
    {
      "inputs": [],
      "name": "s_requestId",
      "outputs": [
        {
          "internalType": "uint256",
          "name": "",
          "type": "uint256"
        }
      ],
      "stateMutability": "view",
      "type": "function"
    },
    {
      "inputs": [],
      "name": "s_subscriptionId",
      "outputs": [
        {
          "internalType": "uint64",
          "name": "",
          "type": "uint64"
        }
      ],
      "stateMutability": "view",
      "type": "function"
    },
    {
      "inputs": [],
      "name": "sendFundsToWinningProject",
      "outputs": [
        {
          "internalType": "address",
          "name": "",
          "type": "address"
        }
      ],
      "stateMutability": "payable",
      "type": "function"
    },
    {
      "inputs": [],
      "name": "vrfCoordinator",
      "outputs": [
        {
          "internalType": "address",
          "name": "",
          "type": "address"
        }
      ],
      "stateMutability": "view",
      "type": "function"
    }
  ],
  "bytecode": "0x60a06040526101986000806101000a81548167ffffffffffffffff021916908367ffffffffffffffff160217905550736168499c0cffcacd319c818142124b7a15e857ab600060086101000a81548173ffffffffffffffffffffffffffffffffffffffff021916908373ffffffffffffffffffffffffffffffffffffffff160217905550600060089054906101000a900473ffffffffffffffffffffffffffffffffffffffff16600160006101000a81548173ffffffffffffffffffffffffffffffffffffffff021916908373ffffffffffffffffffffffffffffffffffffffff1602179055507301be23585060835e02b77ef475b0cc51aa1e0709600260006101000a81548173ffffffffffffffffffffffffffffffffffffffff021916908373ffffffffffffffffffffffffffffffffffffffff160217905550600260009054906101000a900473ffffffffffffffffffffffffffffffffffffffff16600360006101000a81548173ffffffffffffffffffffffffffffffffffffffff021916908373ffffffffffffffffffffffffffffffffffffffff1602179055507fd89b2bf150e3b9e13446986e571fb9cab24b13cea0a43ea20a6049a85cc807cc60001b600455620186a0600560006101000a81548163ffffffff021916908363ffffffff1602179055506003600560046101000a81548161ffff021916908361ffff1602179055506001600560066101000a81548163ffffffff021916908363ffffffff1602179055503480156200023657600080fd5b50604051620016893803806200168983398181016040528101906200025c919062000357565b600060089054906101000a900473ffffffffffffffffffffffffffffffffffffffff168073ffffffffffffffffffffffffffffffffffffffff1660808173ffffffffffffffffffffffffffffffffffffffff1660601b815250505033600860006101000a81548173ffffffffffffffffffffffffffffffffffffffff021916908373ffffffffffffffffffffffffffffffffffffffff16021790555080600960006101000a81548173ffffffffffffffffffffffffffffffffffffffff021916908373ffffffffffffffffffffffffffffffffffffffff16021790555050620003dc565b6000815190506200035181620003c2565b92915050565b60006020828403121562000370576200036f620003bd565b5b6000620003808482850162000340565b91505092915050565b600062000396826200039d565b9050919050565b600073ffffffffffffffffffffffffffffffffffffffff82169050919050565b600080fd5b620003cd8162000389565b8114620003d957600080fd5b50565b60805160601c6112876200040260003960008181610407015261045b01526112876000f3fe6080604052600436106100fe5760003560e01c80638ac0002111610095578063b0fb162f11610064578063b0fb162f1461030a578063e0c8628914610335578063e39782401461034c578063e89e106a14610377578063f6eaffc8146103a2576100fe565b80638ac000211461026b578063966dae0e14610296578063a2a9c223146102c1578063a3e56fa8146102df576100fe565b80634b4a99c3116100d15780634b4a99c3146101ad57806355380dfb146101ea57806361728f39146102155780637ccfd7fc14610240576100fe565b80631c4695f4146101035780631fe543e31461012e57806324f74697146101575780633b2bcbf114610182575b600080fd5b34801561010f57600080fd5b506101186103df565b6040516101259190610df0565b60405180910390f35b34801561013a57600080fd5b5061015560048036038101906101509190610cc1565b610405565b005b34801561016357600080fd5b5061016c6104c5565b6040516101799190610f2e565b60405180910390f35b34801561018e57600080fd5b506101976104db565b6040516101a49190610ebd565b60405180910390f35b3480156101b957600080fd5b506101d460048036038101906101cf9190610c67565b610501565b6040516101e19190610df0565b60405180910390f35b3480156101f657600080fd5b506101ff610540565b60405161020c9190610ea2565b60405180910390f35b34801561022157600080fd5b5061022a610566565b6040516102379190610e34565b60405180910390f35b34801561024c57600080fd5b5061025561056c565b6040516102629190610f2e565b60405180910390f35b34801561027757600080fd5b50610280610582565b60405161028d9190610f49565b60405180910390f35b3480156102a257600080fd5b506102ab61059a565b6040516102b89190610df0565b60405180910390f35b6102c96105c0565b6040516102d69190610df0565b60405180910390f35b3480156102eb57600080fd5b506102f46107a9565b6040516103019190610df0565b60405180910390f35b34801561031657600080fd5b5061031f6107cf565b60405161032c9190610ef8565b60405180910390f35b34801561034157600080fd5b5061034a6107e3565b005b34801561035857600080fd5b50610361610944565b60405161036e9190610df0565b60405180910390f35b34801561038357600080fd5b5061038c61096a565b6040516103999190610f13565b60405180910390f35b3480156103ae57600080fd5b506103c960048036038101906103c49190610c67565b610970565b6040516103d69190610f13565b60405180910390f35b600260009054906101000a900473ffffffffffffffffffffffffffffffffffffffff1681565b7f000000000000000000000000000000000000000000000000000000000000000073ffffffffffffffffffffffffffffffffffffffff163373ffffffffffffffffffffffffffffffffffffffff16146104b757337f00000000000000000000000000000000000000000000000000000000000000006040517f1cf993f40000000000000000000000000000000000000000000000000000000081526004016104ae929190610e0b565b60405180910390fd5b6104c18282610994565b5050565b600560009054906101000a900463ffffffff1681565b600160009054906101000a900473ffffffffffffffffffffffffffffffffffffffff1681565b600a818154811061051157600080fd5b906000526020600020016000915054906101000a900473ffffffffffffffffffffffffffffffffffffffff1681565b600360009054906101000a900473ffffffffffffffffffffffffffffffffffffffff1681565b60045481565b600560069054906101000a900463ffffffff1681565b60008054906101000a900467ffffffffffffffff1681565b600960009054906101000a900473ffffffffffffffffffffffffffffffffffffffff1681565b6000600960009054906101000a900473ffffffffffffffffffffffffffffffffffffffff1673ffffffffffffffffffffffffffffffffffffffff16637fa236b36040518163ffffffff1660e01b8152600401600060405180830381600087803b15801561062c57600080fd5b505af1158015610640573d6000803e3d6000fd5b505050506040513d6000823e3d601f19601f820116820180604052508101906106699190610c1e565b600a908051906020019061067e9291906109af565b506000600a8080549050600660008154811061069d5761069c61114e565b5b90600052602060002001546106b291906110ee565b815481106106c3576106c261114e565b5b9060005260206000200160009054906101000a900473ffffffffffffffffffffffffffffffffffffffff16905060008173ffffffffffffffffffffffffffffffffffffffff16346175309060405161071a90610ddb565b600060405180830381858888f193505050503d8060008114610758576040519150601f19603f3d011682016040523d82523d6000602084013e61075d565b606091505b50509050806107a1576040517f08c379a000000000000000000000000000000000000000000000000000000000815260040161079890610ed8565b60405180910390fd5b819250505090565b600060089054906101000a900473ffffffffffffffffffffffffffffffffffffffff1681565b600560049054906101000a900461ffff1681565b600860009054906101000a900473ffffffffffffffffffffffffffffffffffffffff1673ffffffffffffffffffffffffffffffffffffffff163373ffffffffffffffffffffffffffffffffffffffff161461083d57600080fd5b600160009054906101000a900473ffffffffffffffffffffffffffffffffffffffff1673ffffffffffffffffffffffffffffffffffffffff16635d3b1d3060045460008054906101000a900467ffffffffffffffff16600560049054906101000a900461ffff16600560009054906101000a900463ffffffff16600560069054906101000a900463ffffffff166040518663ffffffff1660e01b81526004016108ea959493929190610e4f565b602060405180830381600087803b15801561090457600080fd5b505af1158015610918573d6000803e3d6000fd5b505050506040513d601f19601f8201168201806040525081019061093c9190610c94565b600781905550565b600860009054906101000a900473ffffffffffffffffffffffffffffffffffffffff1681565b60075481565b6006818154811061098057600080fd5b906000526020600020016000915090505481565b80600690805190602001906109aa929190610a39565b505050565b828054828255906000526020600020908101928215610a28579160200282015b82811115610a275782518260006101000a81548173ffffffffffffffffffffffffffffffffffffffff021916908373ffffffffffffffffffffffffffffffffffffffff160217905550916020019190600101906109cf565b5b509050610a359190610a86565b5090565b828054828255906000526020600020908101928215610a75579160200282015b82811115610a74578251825591602001919060010190610a59565b5b509050610a829190610a86565b5090565b5b80821115610a9f576000816000905550600101610a87565b5090565b6000610ab6610ab184610f89565b610f64565b90508083825260208201905082856020860282011115610ad957610ad86111b1565b5b60005b85811015610b095781610aef8882610b83565b845260208401935060208301925050600181019050610adc565b5050509392505050565b6000610b26610b2184610fb5565b610f64565b90508083825260208201905082856020860282011115610b4957610b486111b1565b5b60005b85811015610b795781610b5f8882610bf4565b845260208401935060208301925050600181019050610b4c565b5050509392505050565b600081519050610b9281611223565b92915050565b600082601f830112610bad57610bac6111ac565b5b8151610bbd848260208601610aa3565b91505092915050565b600082601f830112610bdb57610bda6111ac565b5b8135610beb848260208601610b13565b91505092915050565b600081359050610c038161123a565b92915050565b600081519050610c188161123a565b92915050565b600060208284031215610c3457610c336111bb565b5b600082015167ffffffffffffffff811115610c5257610c516111b6565b5b610c5e84828501610b98565b91505092915050565b600060208284031215610c7d57610c7c6111bb565b5b6000610c8b84828501610bf4565b91505092915050565b600060208284031215610caa57610ca96111bb565b5b6000610cb884828501610c09565b91505092915050565b60008060408385031215610cd857610cd76111bb565b5b6000610ce685828601610bf4565b925050602083013567ffffffffffffffff811115610d0757610d066111b6565b5b610d1385828601610bc6565b9150509250929050565b610d2681610ffd565b82525050565b610d358161100f565b82525050565b610d4481611075565b82525050565b610d5381611087565b82525050565b6000610d66602483610fec565b9150610d71826111d1565b604082019050919050565b6000610d89600083610fe1565b9150610d9482611220565b600082019050919050565b610da881611019565b82525050565b610db781611047565b82525050565b610dc681611051565b82525050565b610dd581611061565b82525050565b6000610de682610d7c565b9150819050919050565b6000602082019050610e056000830184610d1d565b92915050565b6000604082019050610e206000830185610d1d565b610e2d6020830184610d1d565b9392505050565b6000602082019050610e496000830184610d2c565b92915050565b600060a082019050610e646000830188610d2c565b610e716020830187610dcc565b610e7e6040830186610d9f565b610e8b6060830185610dbd565b610e986080830184610dbd565b9695505050505050565b6000602082019050610eb76000830184610d3b565b92915050565b6000602082019050610ed26000830184610d4a565b92915050565b60006020820190508181036000830152610ef181610d59565b9050919050565b6000602082019050610f0d6000830184610d9f565b92915050565b6000602082019050610f286000830184610dae565b92915050565b6000602082019050610f436000830184610dbd565b92915050565b6000602082019050610f5e6000830184610dcc565b92915050565b6000610f6e610f7f565b9050610f7a82826110bd565b919050565b6000604051905090565b600067ffffffffffffffff821115610fa457610fa361117d565b5b602082029050602081019050919050565b600067ffffffffffffffff821115610fd057610fcf61117d565b5b602082029050602081019050919050565b600081905092915050565b600082825260208201905092915050565b600061100882611027565b9050919050565b6000819050919050565b600061ffff82169050919050565b600073ffffffffffffffffffffffffffffffffffffffff82169050919050565b6000819050919050565b600063ffffffff82169050919050565b600067ffffffffffffffff82169050919050565b600061108082611099565b9050919050565b600061109282611099565b9050919050565b60006110a4826110ab565b9050919050565b60006110b682611027565b9050919050565b6110c6826111c0565b810181811067ffffffffffffffff821117156110e5576110e461117d565b5b80604052505050565b60006110f982611047565b915061110483611047565b9250826111145761111361111f565b5b828206905092915050565b7f4e487b7100000000000000000000000000000000000000000000000000000000600052601260045260246000fd5b7f4e487b7100000000000000000000000000000000000000000000000000000000600052603260045260246000fd5b7f4e487b7100000000000000000000000000000000000000000000000000000000600052604160045260246000fd5b600080fd5b600080fd5b600080fd5b600080fd5b6000601f19601f8301169050919050565b7f426f6e75732066756e64732077657265206e6f742073656e7420746f2070726f60008201527f6a65637400000000000000000000000000000000000000000000000000000000602082015250565b50565b61122c81610ffd565b811461123757600080fd5b50565b61124381611047565b811461124e57600080fd5b5056fea2646970667358221220ef285e305b018f486a26649974018236eab2a23c066c1a9ad83aed727fa9eca864736f6c63430008070033",
  "linkReferences": {},
  "deployedLinkReferences": {}
}