{
  "_format": "hh-sol-artifact-1",
  "contractName": "CallForFundsLogic",
  "sourceName": "contracts/CallForFundsLogic.sol",
  "abi": [
    {
      "inputs": [
        {
          "internalType": "address",
          "name": "crowdCommission_",
          "type": "address"
        },
        {
          "internalType": "address",
          "name": "smartArt_",
          "type": "address"
        }
      ],
      "stateMutability": "nonpayable",
      "type": "constructor"
    },
    {
      "anonymous": false,
      "inputs": [
        {
          "indexed": true,
          "internalType": "uint256",
          "name": "amountMatched",
          "type": "uint256"
        }
      ],
      "name": "CallMatched",
      "type": "event"
    },
    {
      "anonymous": false,
      "inputs": [
        {
          "indexed": true,
          "internalType": "address",
          "name": "donator",
          "type": "address"
        },
        {
          "indexed": false,
          "internalType": "uint256",
          "name": "amount",
          "type": "uint256"
        }
      ],
      "name": "ContributionReceivedETH",
      "type": "event"
    },
    {
      "anonymous": false,
      "inputs": [
        {
          "indexed": true,
          "internalType": "enum CallForFundsStorage.FundingState",
          "name": "newFundingState",
          "type": "uint8"
        }
      ],
      "name": "FundingStateChanged",
      "type": "event"
    },
    {
      "anonymous": false,
      "inputs": [
        {
          "indexed": true,
          "internalType": "address[]",
          "name": "addresses",
          "type": "address[]"
        },
        {
          "indexed": true,
          "internalType": "uint256[]",
          "name": "amounts",
          "type": "uint256[]"
        }
      ],
      "name": "RefundCompleted",
      "type": "event"
    },
    {
      "anonymous": false,
      "inputs": [],
      "name": "StreamStarted",
      "type": "event"
    },
    {
      "anonymous": false,
      "inputs": [
        {
          "indexed": false,
          "internalType": "string",
          "name": "deliverableURI",
          "type": "string"
        }
      ],
      "name": "WorkDelivered",
      "type": "event"
    },
    {
      "inputs": [],
      "name": "_cfa",
      "outputs": [
        {
          "internalType": "contract IConstantFlowAgreementV1",
          "name": "",
          "type": "address"
        }
      ],
      "stateMutability": "view",
      "type": "function"
    },
    {
      "inputs": [],
      "name": "_ethx",
      "outputs": [
        {
          "internalType": "contract ISETH",
          "name": "",
          "type": "address"
        }
      ],
      "stateMutability": "view",
      "type": "function"
    },
    {
      "inputs": [],
      "name": "_host",
      "outputs": [
        {
          "internalType": "contract ISuperfluid",
          "name": "",
          "type": "address"
        }
      ],
      "stateMutability": "view",
      "type": "function"
    },
    {
      "inputs": [],
      "name": "category",
      "outputs": [
        {
          "internalType": "string",
          "name": "",
          "type": "string"
        }
      ],
      "stateMutability": "view",
      "type": "function"
    },
    {
      "inputs": [],
      "name": "creator",
      "outputs": [
        {
          "internalType": "address",
          "name": "",
          "type": "address"
        }
      ],
      "stateMutability": "view",
      "type": "function"
    },
    {
      "inputs": [],
      "name": "crowdCommission",
      "outputs": [
        {
          "internalType": "address",
          "name": "",
          "type": "address"
        }
      ],
      "stateMutability": "view",
      "type": "function"
    },
    {
      "inputs": [
        {
          "internalType": "string",
          "name": "deliverableURI_",
          "type": "string"
        }
      ],
      "name": "deliver",
      "outputs": [],
      "stateMutability": "nonpayable",
      "type": "function"
    },
    {
      "inputs": [],
      "name": "deliverableMedium",
      "outputs": [
        {
          "internalType": "string",
          "name": "",
          "type": "string"
        }
      ],
      "stateMutability": "view",
      "type": "function"
    },
    {
      "inputs": [],
      "name": "deliverableURI",
      "outputs": [
        {
          "internalType": "string",
          "name": "",
          "type": "string"
        }
      ],
      "stateMutability": "view",
      "type": "function"
    },
    {
      "inputs": [],
      "name": "description",
      "outputs": [
        {
          "internalType": "string",
          "name": "",
          "type": "string"
        }
      ],
      "stateMutability": "view",
      "type": "function"
    },
    {
      "inputs": [],
      "name": "factory",
      "outputs": [
        {
          "internalType": "address",
          "name": "",
          "type": "address"
        }
      ],
      "stateMutability": "view",
      "type": "function"
    },
    {
      "inputs": [],
      "name": "fundingState",
      "outputs": [
        {
          "internalType": "enum CallForFundsStorage.FundingState",
          "name": "",
          "type": "uint8"
        }
      ],
      "stateMutability": "view",
      "type": "function"
    },
    {
      "inputs": [],
      "name": "genre",
      "outputs": [
        {
          "internalType": "string",
          "name": "",
          "type": "string"
        }
      ],
      "stateMutability": "view",
      "type": "function"
    },
    {
      "inputs": [],
      "name": "image",
      "outputs": [
        {
          "internalType": "string",
          "name": "",
          "type": "string"
        }
      ],
      "stateMutability": "view",
      "type": "function"
    },
    {
      "inputs": [],
      "name": "loudverseAdmin",
      "outputs": [
        {
          "internalType": "address",
          "name": "",
          "type": "address"
        }
      ],
      "stateMutability": "view",
      "type": "function"
    },
    {
      "inputs": [
        {
          "internalType": "address[]",
          "name": "funders",
          "type": "address[]"
        },
        {
          "internalType": "uint256",
          "name": "id",
          "type": "uint256"
        },
        {
          "internalType": "bytes",
          "name": "data",
          "type": "bytes"
        }
      ],
      "name": "matchCallForFunds",
      "outputs": [],
      "stateMutability": "payable",
      "type": "function"
    },
    {
      "inputs": [],
      "name": "minFundingAmount",
      "outputs": [
        {
          "internalType": "uint256",
          "name": "",
          "type": "uint256"
        }
      ],
      "stateMutability": "view",
      "type": "function"
    },
    {
      "inputs": [
        {
          "internalType": "address[]",
          "name": "funders",
          "type": "address[]"
        },
        {
          "internalType": "uint256",
          "name": "id",
          "type": "uint256"
        },
        {
          "internalType": "bytes",
          "name": "data",
          "type": "bytes"
        }
      ],
      "name": "mintCrowdCommission",
      "outputs": [],
      "stateMutability": "nonpayable",
      "type": "function"
    },
    {
      "inputs": [
        {
          "internalType": "address",
          "name": "to",
          "type": "address"
        },
        {
          "internalType": "address",
          "name": "royaltyRecipient",
          "type": "address"
        },
        {
          "internalType": "uint256",
          "name": "royaltyValue",
          "type": "uint256"
        },
        {
          "internalType": "string",
          "name": "uri",
          "type": "string"
        }
      ],
      "name": "mintSmartArt",
      "outputs": [],
      "stateMutability": "nonpayable",
      "type": "function"
    },
    {
      "inputs": [
        {
          "internalType": "address[]",
          "name": "addresses",
          "type": "address[]"
        },
        {
          "internalType": "uint256[]",
          "name": "amounts",
          "type": "uint256[]"
        }
      ],
      "name": "refund",
      "outputs": [],
      "stateMutability": "nonpayable",
      "type": "function"
    },
    {
      "inputs": [
        {
          "internalType": "address",
          "name": "factoryAddress",
          "type": "address"
        }
      ],
      "name": "setFactory",
      "outputs": [],
      "stateMutability": "nonpayable",
      "type": "function"
    },
    {
      "inputs": [],
      "name": "smartArt",
      "outputs": [
        {
          "internalType": "address",
          "name": "",
          "type": "address"
        }
      ],
      "stateMutability": "view",
      "type": "function"
    },
    {
      "inputs": [],
      "name": "startStream",
      "outputs": [],
      "stateMutability": "payable",
      "type": "function"
    },
    {
      "inputs": [],
      "name": "subgenre",
      "outputs": [
        {
          "internalType": "string",
          "name": "",
          "type": "string"
        }
      ],
      "stateMutability": "view",
      "type": "function"
    },
    {
      "inputs": [],
      "name": "timelineInDays",
      "outputs": [
        {
          "internalType": "uint96",
          "name": "",
          "type": "uint96"
        }
      ],
      "stateMutability": "view",
      "type": "function"
    },
    {
      "inputs": [],
      "name": "title",
      "outputs": [
        {
          "internalType": "string",
          "name": "",
          "type": "string"
        }
      ],
      "stateMutability": "view",
      "type": "function"
    },
    {
      "stateMutability": "payable",
      "type": "receive"
    }
  ],
  "bytecode": "0x60c06040523480156200001157600080fd5b50604051620030ed380380620030ed8339818101604052810190620000379190620000c4565b8173ffffffffffffffffffffffffffffffffffffffff1660808173ffffffffffffffffffffffffffffffffffffffff1660601b815250508073ffffffffffffffffffffffffffffffffffffffff1660a08173ffffffffffffffffffffffffffffffffffffffff1660601b81525050505062000153565b600081519050620000be8162000139565b92915050565b60008060408385031215620000d857600080fd5b6000620000e885828601620000ad565b9250506020620000fb85828601620000ad565b9150509250929050565b6000620001128262000119565b9050919050565b600073ffffffffffffffffffffffffffffffffffffffff82169050919050565b620001448162000105565b81146200015057600080fd5b50565b60805160601c60a05160601c612f606200018d60003960008181610e3601526118e001526000818161171201526119bf0152612f606000f3fe6080604052600436106101855760003560e01c8063b25cdccf116100d1578063d00127231161008a578063ef430aa611610064578063ef430aa614610559578063f3ccaac014610584578063f66c3ff4146105af578063fe5a6fd1146105da576101da565b8063d0012723146104d8578063d2ac318214610503578063e68511271461052e576101da565b8063b25cdccf146103fb578063b49ab7f614610426578063b574d0711461044f578063c091c43514610459578063c45a015514610482578063c791316e146104ad576101da565b80637cb4d6d71161013e57806391098ee41161011857806391098ee4146103515780639699119d1461037a5780639cf0bd0d146103a5578063ab115d72146103d0576101da565b80637cb4d6d7146102d0578063852e5a0a146102fb5780638e22ce1d14610326576101da565b806302d05d3f146101df5780630e212fad1461020a57806317de3a41146102265780634a79d50c146102515780635bb478081461027c5780637284e416146102a5576101da565b366101da573373ffffffffffffffffffffffffffffffffffffffff167f2f0f1ca72899668d93500f451ad66c0a4e9f7f3f4974f3206c27069fb2c7f2b1346040516101d0919061281f565b60405180910390a2005b600080fd5b3480156101eb57600080fd5b506101f4610603565b60405161020191906125e6565b60405180910390f35b610224600480360381019061021f9190611fe7565b610629565b005b34801561023257600080fd5b5061023b6107d1565b60405161024891906127db565b60405180910390f35b34801561025d57600080fd5b5061026661085f565b60405161027391906127db565b60405180910390f35b34801561028857600080fd5b506102a3600480360381019061029e9190611f43565b6108ed565b005b3480156102b157600080fd5b506102ba61097d565b6040516102c791906127db565b60405180910390f35b3480156102dc57600080fd5b506102e5610a0b565b6040516102f291906126e0565b60405180910390f35b34801561030757600080fd5b50610310610a23565b60405161031d91906127a5565b60405180910390f35b34801561033257600080fd5b5061033b610a3b565b60405161034891906125e6565b60405180910390f35b34801561035d57600080fd5b50610378600480360381019061037391906121a4565b610a53565b005b34801561038657600080fd5b5061038f610c2c565b60405161039c919061283a565b60405180910390f35b3480156103b157600080fd5b506103ba610c4a565b6040516103c791906127db565b60405180910390f35b3480156103dc57600080fd5b506103e5610cd8565b6040516103f291906127db565b60405180910390f35b34801561040757600080fd5b50610410610d66565b60405161041d91906127c0565b60405180910390f35b34801561043257600080fd5b5061044d60048036038101906104489190611f6c565b610d79565b005b610457610ecc565b005b34801561046557600080fd5b50610480600480360381019061047b919061206b565b6114cf565b005b34801561048e57600080fd5b506104976116cc565b6040516104a491906125e6565b60405180910390f35b3480156104b957600080fd5b506104c26116f2565b6040516104cf919061281f565b60405180910390f35b3480156104e457600080fd5b506104ed6116f8565b6040516104fa919061273e565b60405180910390f35b34801561050f57600080fd5b50610518611710565b60405161052591906125e6565b60405180910390f35b34801561053a57600080fd5b50610543611734565b60405161055091906127db565b60405180910390f35b34801561056557600080fd5b5061056e6117c2565b60405161057b91906127db565b60405180910390f35b34801561059057600080fd5b50610599611850565b6040516105a691906127db565b60405180910390f35b3480156105bb57600080fd5b506105c46118de565b6040516105d191906125e6565b60405180910390f35b3480156105e657600080fd5b5061060160048036038101906105fc9190611fe7565b611902565b005b600160009054906101000a900473ffffffffffffffffffffffffffffffffffffffff1681565b73a4e987fb3808d9fc206112967477793ea838945073ffffffffffffffffffffffffffffffffffffffff163373ffffffffffffffffffffffffffffffffffffffff161461067557600080fd5b60008060048111156106b0577f4e487b7100000000000000000000000000000000000000000000000000000000600052602160045260246000fd5b600c60009054906101000a900460ff1660048111156106f8577f4e487b7100000000000000000000000000000000000000000000000000000000600052602160045260246000fd5b1461070257600080fd5b347f2731c7491ce2f19381bc96e6c488a4e45d345b5efa893b339dd94e549f26477c60405160405180910390a260008054906101000a900473ffffffffffffffffffffffffffffffffffffffff1673ffffffffffffffffffffffffffffffffffffffff1663fe5a6fd1868686866040518563ffffffff1660e01b815260040161078e9493929190612699565b600060405180830381600087803b1580156107a857600080fd5b505af11580156107bc573d6000803e3d6000fd5b505050506107ca6002611a55565b5050505050565b600680546107de90612ce6565b80601f016020809104026020016040519081016040528092919081815260200182805461080a90612ce6565b80156108575780601f1061082c57610100808354040283529160200191610857565b820191906000526020600020905b81548152906001019060200180831161083a57829003601f168201915b505050505081565b6002805461086c90612ce6565b80601f016020809104026020016040519081016040528092919081815260200182805461089890612ce6565b80156108e55780601f106108ba576101008083540402835291602001916108e5565b820191906000526020600020905b8154815290600101906020018083116108c857829003601f168201915b505050505081565b73a4e987fb3808d9fc206112967477793ea838945073ffffffffffffffffffffffffffffffffffffffff163373ffffffffffffffffffffffffffffffffffffffff161461093957600080fd5b80600c60016101000a81548173ffffffffffffffffffffffffffffffffffffffff021916908373ffffffffffffffffffffffffffffffffffffffff16021790555050565b6003805461098a90612ce6565b80601f01602080910402602001604051908101604052809291908181526020018280546109b690612ce6565b8015610a035780601f106109d857610100808354040283529160200191610a03565b820191906000526020600020905b8154815290600101906020018083116109e657829003601f168201915b505050505081565b73f4c5310e51f6079f601a5fb7120bc72a70b96e2a81565b73ed5b5b32110c3ded02a07c8b8e97513fafb883b681565b73a4e987fb3808d9fc206112967477793ea838945081565b600160009054906101000a900473ffffffffffffffffffffffffffffffffffffffff1673ffffffffffffffffffffffffffffffffffffffff163373ffffffffffffffffffffffffffffffffffffffff1614610aad57600080fd5b6003806004811115610ae8577f4e487b7100000000000000000000000000000000000000000000000000000000600052602160045260246000fd5b600c60009054906101000a900460ff166004811115610b30577f4e487b7100000000000000000000000000000000000000000000000000000000600052602160045260246000fd5b14610b3a57600080fd5b81600b9080519060200190610b50929190611b89565b507fcb7230e908facd21b119ab7a11e0247b8d5374e49d8cc50fa9a53b7601f237c9600b604051610b8191906127fd565b60405180910390a16000808054906101000a900473ffffffffffffffffffffffffffffffffffffffff1673ffffffffffffffffffffffffffffffffffffffff1663b49ab7f633836103e8876040518563ffffffff1660e01b8152600401610beb9493929190612601565b600060405180830381600087803b158015610c0557600080fd5b505af1158015610c19573d6000803e3d6000fd5b50505050610c276004611a55565b505050565b600960009054906101000a90046bffffffffffffffffffffffff1681565b60088054610c5790612ce6565b80601f0160208091040260200160405190810160405280929190818152602001828054610c8390612ce6565b8015610cd05780601f10610ca557610100808354040283529160200191610cd0565b820191906000526020600020905b815481529060010190602001808311610cb357829003601f168201915b505050505081565b60078054610ce590612ce6565b80601f0160208091040260200160405190810160405280929190818152602001828054610d1190612ce6565b8015610d5e5780601f10610d3357610100808354040283529160200191610d5e565b820191906000526020600020905b815481529060010190602001808311610d4157829003601f168201915b505050505081565b600c60009054906101000a900460ff1681565b6000600c60019054906101000a900473ffffffffffffffffffffffffffffffffffffffff1673ffffffffffffffffffffffffffffffffffffffff1663c4552791336040518263ffffffff1660e01b8152600401610dd691906125e6565b602060405180830381600087803b158015610df057600080fd5b505af1158015610e04573d6000803e3d6000fd5b505050506040513d601f19601f82011682018060405250810190610e2891906120d7565b905080610e3457600080fd5b7f000000000000000000000000000000000000000000000000000000000000000073ffffffffffffffffffffffffffffffffffffffff1663b85cbc79868686866040518563ffffffff1660e01b8152600401610e93949392919061264d565b600060405180830381600087803b158015610ead57600080fd5b505af1158015610ec1573d6000803e3d6000fd5b505050505050505050565b600160009054906101000a900473ffffffffffffffffffffffffffffffffffffffff1673ffffffffffffffffffffffffffffffffffffffff163373ffffffffffffffffffffffffffffffffffffffff1614610f2657600080fd5b6002806004811115610f61577f4e487b7100000000000000000000000000000000000000000000000000000000600052602160045260246000fd5b600c60009054906101000a900460ff166004811115610fa9577f4e487b7100000000000000000000000000000000000000000000000000000000600052602160045260246000fd5b14610fb357600080fd5b6000479050600073a623b2dd931c5162b7a0b25852f4024db48bb1a073ffffffffffffffffffffffffffffffffffffffff16825a906040516024016040516020818303038152906040527fcf81464b000000000000000000000000000000000000000000000000000000007bffffffffffffffffffffffffffffffffffffffffffffffffffffffff19166020820180517bffffffffffffffffffffffffffffffffffffffffffffffffffffffff838183161783525050505060405161107891906125ba565b600060405180830381858888f193505050503d80600081146110b6576040519150601f19603f3d011682016040523d82523d6000602084013e6110bb565b606091505b50509050806110c957600080fd5b6000309050600073a623b2dd931c5162b7a0b25852f4024db48bb1a073ffffffffffffffffffffffffffffffffffffffff166370a08231836040518263ffffffff1660e01b815260040161111d91906125e6565b60206040518083038186803b15801561113557600080fd5b505afa158015611149573d6000803e3d6000fd5b505050506040513d601f19601f8201168201806040525081019061116d91906121e5565b9050600073a623b2dd931c5162b7a0b25852f4024db48bb1a073ffffffffffffffffffffffffffffffffffffffff166370a08231846040518263ffffffff1660e01b81526004016111be91906125e6565b60206040518083038186803b1580156111d657600080fd5b505afa1580156111ea573d6000803e3d6000fd5b505050506040513d601f19601f8201168201806040525081019061120e91906121e5565b9050600073a623b2dd931c5162b7a0b25852f4024db48bb1a073ffffffffffffffffffffffffffffffffffffffff16632ec8eec7856040518263ffffffff1660e01b815260040161125f91906125e6565b60806040518083038186803b15801561127757600080fd5b505afa15801561128b573d6000803e3d6000fd5b505050506040513d601f19601f820116820180604052508101906112af9190612141565b50505090506000829050600062015180600960009054906101000a90046bffffffffffffffffffffffff166112e49190612a9b565b90506000829050600082826112f99190612a31565b905073ed5b5b32110c3ded02a07c8b8e97513fafb883b673ffffffffffffffffffffffffffffffffffffffff166339255d5b73f4c5310e51f6079f601a5fb7120bc72a70b96e2a6362fc305e60e01b73a623b2dd931c5162b7a0b25852f4024db48bb1a03386600067ffffffffffffffff8111156113a0577f4e487b7100000000000000000000000000000000000000000000000000000000600052604160045260246000fd5b6040519080825280601f01601f1916602001820160405280156113d25781602001600182028036833780820191505090505b506040516024016113e69493929190612759565b604051602081830303815290604052907bffffffffffffffffffffffffffffffffffffffffffffffffffffffff19166020820180517bffffffffffffffffffffffffffffffffffffffffffffffffffffffff83818316178352505050506040518363ffffffff1660e01b81526004016114609291906126fb565b600060405180830381600087803b15801561147a57600080fd5b505af115801561148e573d6000803e3d6000fd5b505050506040513d6000823e3d601f19601f820116820180604052508101906114b79190612100565b506114c26003611a55565b5050505050505050505050565b73a4e987fb3808d9fc206112967477793ea838945073ffffffffffffffffffffffffffffffffffffffff163373ffffffffffffffffffffffffffffffffffffffff161461151b57600080fd5b6000806004811115611556577f4e487b7100000000000000000000000000000000000000000000000000000000600052602160045260246000fd5b600c60009054906101000a900460ff16600481111561159e577f4e487b7100000000000000000000000000000000000000000000000000000000600052602160045260246000fd5b146115a857600080fd5b6000600190505b83518110156116645760006116448583815181106115f6577f4e487b7100000000000000000000000000000000000000000000000000000000600052603260045260246000fd5b6020026020010151858481518110611637577f4e487b7100000000000000000000000000000000000000000000000000000000600052603260045260246000fd5b6020026020010151611b0d565b90508061165057600080fd5b50808061165c90612d49565b9150506115af565b508160405161167391906125a3565b604051809103902083604051611689919061258c565b60405180910390207f598d84241bfe93913995b638c1692ad8e8d01110f5bd1af00f0c68e095044c3d60405160405180910390a36116c76001611a55565b505050565b600c60019054906101000a900473ffffffffffffffffffffffffffffffffffffffff1681565b600a5481565b73a623b2dd931c5162b7a0b25852f4024db48bb1a081565b7f000000000000000000000000000000000000000000000000000000000000000081565b600b805461174190612ce6565b80601f016020809104026020016040519081016040528092919081815260200182805461176d90612ce6565b80156117ba5780601f1061178f576101008083540402835291602001916117ba565b820191906000526020600020905b81548152906001019060200180831161179d57829003601f168201915b505050505081565b600580546117cf90612ce6565b80601f01602080910402602001604051908101604052809291908181526020018280546117fb90612ce6565b80156118485780601f1061181d57610100808354040283529160200191611848565b820191906000526020600020905b81548152906001019060200180831161182b57829003601f168201915b505050505081565b6004805461185d90612ce6565b80601f016020809104026020016040519081016040528092919081815260200182805461188990612ce6565b80156118d65780601f106118ab576101008083540402835291602001916118d6565b820191906000526020600020905b8154815290600101906020018083116118b957829003601f168201915b505050505081565b7f000000000000000000000000000000000000000000000000000000000000000081565b6000600c60019054906101000a900473ffffffffffffffffffffffffffffffffffffffff1673ffffffffffffffffffffffffffffffffffffffff1663c4552791336040518263ffffffff1660e01b815260040161195f91906125e6565b602060405180830381600087803b15801561197957600080fd5b505af115801561198d573d6000803e3d6000fd5b505050506040513d601f19601f820116820180604052508101906119b191906120d7565b9050806119bd57600080fd5b7f000000000000000000000000000000000000000000000000000000000000000073ffffffffffffffffffffffffffffffffffffffff16630e61295f868686866040518563ffffffff1660e01b8152600401611a1c9493929190612699565b600060405180830381600087803b158015611a3657600080fd5b505af1158015611a4a573d6000803e3d6000fd5b505050505050505050565b80600c60006101000a81548160ff02191690836004811115611aa0577f4e487b7100000000000000000000000000000000000000000000000000000000600052602160045260246000fd5b0217905550806004811115611ade577f4e487b7100000000000000000000000000000000000000000000000000000000600052602160045260246000fd5b7f9a0a9fbc5661a10573bae4de0b7535a3629b80dfd45bca03da02e07950f17c9a60405160405180910390a250565b6000808373ffffffffffffffffffffffffffffffffffffffff168361753090604051611b38906125d1565b600060405180830381858888f193505050503d8060008114611b76576040519150601f19603f3d011682016040523d82523d6000602084013e611b7b565b606091505b505090508091505092915050565b828054611b9590612ce6565b90600052602060002090601f016020900481019282611bb75760008555611bfe565b82601f10611bd057805160ff1916838001178555611bfe565b82800160010185558215611bfe579182015b82811115611bfd578251825591602001919060010190611be2565b5b509050611c0b9190611c0f565b5090565b5b80821115611c28576000816000905550600101611c10565b5090565b6000611c3f611c3a8461287a565b612855565b90508083825260208201905082856020860282011115611c5e57600080fd5b60005b85811015611c8e5781611c748882611dbe565b845260208401935060208301925050600181019050611c61565b5050509392505050565b6000611cab611ca6846128a6565b612855565b90508083825260208201905082856020860282011115611cca57600080fd5b60005b85811015611cfa5781611ce08882611f19565b845260208401935060208301925050600181019050611ccd565b5050509392505050565b6000611d17611d12846128d2565b612855565b905082815260208101848484011115611d2f57600080fd5b611d3a848285612ca4565b509392505050565b6000611d55611d50846128d2565b612855565b905082815260208101848484011115611d6d57600080fd5b611d78848285612cb3565b509392505050565b6000611d93611d8e84612903565b612855565b905082815260208101848484011115611dab57600080fd5b611db6848285612ca4565b509392505050565b600081359050611dcd81612ece565b92915050565b60008083601f840112611de557600080fd5b8235905067ffffffffffffffff811115611dfe57600080fd5b602083019150836020820283011115611e1657600080fd5b9250929050565b600082601f830112611e2e57600080fd5b8135611e3e848260208601611c2c565b91505092915050565b600082601f830112611e5857600080fd5b8135611e68848260208601611c98565b91505092915050565b600081519050611e8081612ee5565b92915050565b600082601f830112611e9757600080fd5b8135611ea7848260208601611d04565b91505092915050565b600082601f830112611ec157600080fd5b8151611ed1848260208601611d42565b91505092915050565b600081519050611ee981612efc565b92915050565b600082601f830112611f0057600080fd5b8135611f10848260208601611d80565b91505092915050565b600081359050611f2881612f13565b92915050565b600081519050611f3d81612f13565b92915050565b600060208284031215611f5557600080fd5b6000611f6384828501611dbe565b91505092915050565b60008060008060808587031215611f8257600080fd5b6000611f9087828801611dbe565b9450506020611fa187828801611dbe565b9350506040611fb287828801611f19565b925050606085013567ffffffffffffffff811115611fcf57600080fd5b611fdb87828801611eef565b91505092959194509250565b60008060008060608587031215611ffd57600080fd5b600085013567ffffffffffffffff81111561201757600080fd5b61202387828801611dd3565b9450945050602061203687828801611f19565b925050604085013567ffffffffffffffff81111561205357600080fd5b61205f87828801611e86565b91505092959194509250565b6000806040838503121561207e57600080fd5b600083013567ffffffffffffffff81111561209857600080fd5b6120a485828601611e1d565b925050602083013567ffffffffffffffff8111156120c157600080fd5b6120cd85828601611e47565b9150509250929050565b6000602082840312156120e957600080fd5b60006120f784828501611e71565b91505092915050565b60006020828403121561211257600080fd5b600082015167ffffffffffffffff81111561212c57600080fd5b61213884828501611eb0565b91505092915050565b6000806000806080858703121561215757600080fd5b600061216587828801611eda565b945050602061217687828801611f2e565b935050604061218787828801611f2e565b925050606061219887828801611f2e565b91505092959194509250565b6000602082840312156121b657600080fd5b600082013567ffffffffffffffff8111156121d057600080fd5b6121dc84828501611eef565b91505092915050565b6000602082840312156121f757600080fd5b600061220584828501611f2e565b91505092915050565b600061221a8383612256565b60208301905092915050565b60006122328383612274565b60208301905092915050565b600061224a838361256e565b60208301905092915050565b61225f81612b8a565b82525050565b61226e81612b8a565b82525050565b61227d81612b8a565b82525050565b600061228f83856129c6565b935061229a82612934565b8060005b858110156122d3576122b08284612a1a565b6122ba888261220e565b97506122c58361299f565b92505060018101905061229e565b5085925050509392505050565b60006122eb82612973565b6122f581856129d7565b93506123008361293e565b8060005b838110156123315781516123188882612226565b9750612323836129ac565b925050600181019050612304565b5085935050505092915050565b60006123498261297e565b61235381856129e2565b935061235e8361294e565b8060005b8381101561238f578151612376888261223e565b9750612381836129b9565b925050600181019050612362565b5085935050505092915050565b60006123a782612989565b6123b181856129ed565b93506123c1818560208601612cb3565b6123ca81612e7d565b840191505092915050565b60006123e082612989565b6123ea81856129fe565b93506123fa818560208601612cb3565b80840191505092915050565b61240f81612c14565b82525050565b61241e81612c38565b82525050565b61242d81612c5c565b82525050565b61243c81612c80565b82525050565b61244b81612bc5565b82525050565b61245a81612c92565b82525050565b600061246b82612994565b6124758185612a09565b9350612485818560208601612cb3565b61248e81612e7d565b840191505092915050565b600081546124a681612ce6565b6124b08186612a09565b945060018216600081146124cb57600181146124dd57612510565b60ff1983168652602086019350612510565b6124e68561295e565b60005b83811015612508578154818901526001820191506020810190506124e9565b808801955050505b50505092915050565b60006125266002836129ed565b915061253182612e8e565b602082019050919050565b60006125496000836129fe565b915061255482612eb7565b600082019050919050565b61256881612bf2565b82525050565b61257781612bf2565b82525050565b61258681612bfc565b82525050565b600061259882846122e0565b915081905092915050565b60006125af828461233e565b915081905092915050565b60006125c682846123d5565b915081905092915050565b60006125dc8261253c565b9150819050919050565b60006020820190506125fb6000830184612265565b92915050565b60006080820190506126166000830187612265565b6126236020830186612265565b6126306040830185612451565b81810360608301526126428184612460565b905095945050505050565b60006080820190506126626000830187612265565b61266f6020830186612265565b61267c604083018561255f565b818103606083015261268e8184612460565b905095945050505050565b600060608201905081810360008301526126b4818688612283565b90506126c3602083018561255f565b81810360408301526126d5818461239c565b905095945050505050565b60006020820190506126f56000830184612406565b92915050565b60006060820190506127106000830185612406565b8181036020830152612722818461239c565b9050818103604083015261273581612519565b90509392505050565b60006020820190506127536000830184612415565b92915050565b600060808201905061276e6000830187612415565b61277b6020830186612265565b6127886040830185612442565b818103606083015261279a818461239c565b905095945050505050565b60006020820190506127ba6000830184612424565b92915050565b60006020820190506127d56000830184612433565b92915050565b600060208201905081810360008301526127f58184612460565b905092915050565b600060208201905081810360008301526128178184612499565b905092915050565b6000602082019050612834600083018461255f565b92915050565b600060208201905061284f600083018461257d565b92915050565b600061285f612870565b905061286b8282612d18565b919050565b6000604051905090565b600067ffffffffffffffff82111561289557612894612e4e565b5b602082029050602081019050919050565b600067ffffffffffffffff8211156128c1576128c0612e4e565b5b602082029050602081019050919050565b600067ffffffffffffffff8211156128ed576128ec612e4e565b5b6128f682612e7d565b9050602081019050919050565b600067ffffffffffffffff82111561291e5761291d612e4e565b5b61292782612e7d565b9050602081019050919050565b6000819050919050565b6000819050602082019050919050565b6000819050602082019050919050565b60008190508160005260206000209050919050565b600081519050919050565b600081519050919050565b600081519050919050565b600081519050919050565b6000602082019050919050565b6000602082019050919050565b6000602082019050919050565b600082825260208201905092915050565b600081905092915050565b600081905092915050565b600082825260208201905092915050565b600081905092915050565b600082825260208201905092915050565b6000612a296020840184611dbe565b905092915050565b6000612a3c82612bc5565b9150612a4783612bc5565b925082612a5757612a56612dc1565b5b600160000383147fffffffffffffffffffffffffffffffffffffffff80000000000000000000000083141615612a9057612a8f612d92565b5b828205905092915050565b6000612aa682612bc5565b9150612ab183612bc5565b9250826b7fffffffffffffffffffffff0482116000841360008413161615612adc57612adb612d92565b5b817fffffffffffffffffffffffffffffffffffffffff8000000000000000000000000583126000841260008413161615612b1957612b18612d92565b5b827fffffffffffffffffffffffffffffffffffffffff8000000000000000000000000582126000841360008412161615612b5657612b55612d92565b5b826b7fffffffffffffffffffffff0582126000841260008412161615612b7f57612b7e612d92565b5b828202905092915050565b6000612b9582612bd2565b9050919050565b60008115159050919050565b6000819050612bb682612eba565b919050565b6000819050919050565b600081600b0b9050919050565b600073ffffffffffffffffffffffffffffffffffffffff82169050919050565b6000819050919050565b60006bffffffffffffffffffffffff82169050919050565b6000612c1f82612c26565b9050919050565b6000612c3182612bd2565b9050919050565b6000612c4382612c4a565b9050919050565b6000612c5582612bd2565b9050919050565b6000612c6782612c6e565b9050919050565b6000612c7982612bd2565b9050919050565b6000612c8b82612ba8565b9050919050565b6000612c9d82612bf2565b9050919050565b82818337600083830152505050565b60005b83811015612cd1578082015181840152602081019050612cb6565b83811115612ce0576000848401525b50505050565b60006002820490506001821680612cfe57607f821691505b60208210811415612d1257612d11612e1f565b5b50919050565b612d2182612e7d565b810181811067ffffffffffffffff82111715612d4057612d3f612e4e565b5b80604052505050565b6000612d5482612bf2565b91507fffffffffffffffffffffffffffffffffffffffffffffffffffffffffffffffff821415612d8757612d86612d92565b5b600182019050919050565b7f4e487b7100000000000000000000000000000000000000000000000000000000600052601160045260246000fd5b7f4e487b7100000000000000000000000000000000000000000000000000000000600052601260045260246000fd5b7f4e487b7100000000000000000000000000000000000000000000000000000000600052602160045260246000fd5b7f4e487b7100000000000000000000000000000000000000000000000000000000600052602260045260246000fd5b7f4e487b7100000000000000000000000000000000000000000000000000000000600052604160045260246000fd5b6000601f19601f8301169050919050565b7f3078000000000000000000000000000000000000000000000000000000000000600082015250565b50565b60058110612ecb57612eca612df0565b5b50565b612ed781612b8a565b8114612ee257600080fd5b50565b612eee81612b9c565b8114612ef957600080fd5b50565b612f0581612bbb565b8114612f1057600080fd5b50565b612f1c81612bf2565b8114612f2757600080fd5b5056fea2646970667358221220398eac55030596ec24f2d5c9468ea4e07d3f5ffed36c7f3b8f9b46850678170564736f6c63430008040033",
  "linkReferences": {},
  "deployedLinkReferences": {}
}