{
  "_format": "hh-sol-artifact-1",
  "contractName": "CallForFundsStorage",
  "sourceName": "contracts/CallForFundsStorage.sol",
  "abi": [
    {
      "inputs": [],
      "name": "_cfa",
      "outputs": [
        {
          "internalType": "contract IConstantFlowAgreementV1",
          "name": "",
          "type": "address"
        }
      ],
      "stateMutability": "view",
      "type": "function"
    },
    {
      "inputs": [],
      "name": "_dai",
      "outputs": [
        {
          "internalType": "contract ERC20WithTokenInfo",
          "name": "",
          "type": "address"
        }
      ],
      "stateMutability": "view",
      "type": "function"
    },
    {
      "inputs": [],
      "name": "_daix",
      "outputs": [
        {
          "internalType": "contract ISuperToken",
          "name": "",
          "type": "address"
        }
      ],
      "stateMutability": "view",
      "type": "function"
    },
    {
      "inputs": [],
      "name": "_ethx",
      "outputs": [
        {
          "internalType": "contract ISETH",
          "name": "",
          "type": "address"
        }
      ],
      "stateMutability": "view",
      "type": "function"
    },
    {
      "inputs": [],
      "name": "_host",
      "outputs": [
        {
          "internalType": "contract ISuperfluid",
          "name": "",
          "type": "address"
        }
      ],
      "stateMutability": "view",
      "type": "function"
    },
    {
      "inputs": [],
      "name": "category",
      "outputs": [
        {
          "internalType": "string",
          "name": "",
          "type": "string"
        }
      ],
      "stateMutability": "view",
      "type": "function"
    },
    {
      "inputs": [],
      "name": "creator",
      "outputs": [
        {
          "internalType": "address",
          "name": "",
          "type": "address"
        }
      ],
      "stateMutability": "view",
      "type": "function"
    },
    {
      "inputs": [],
      "name": "deliverableMedium",
      "outputs": [
        {
          "internalType": "string",
          "name": "",
          "type": "string"
        }
      ],
      "stateMutability": "view",
      "type": "function"
    },
    {
      "inputs": [],
      "name": "deliverableURI",
      "outputs": [
        {
          "internalType": "string",
          "name": "",
          "type": "string"
        }
      ],
      "stateMutability": "view",
      "type": "function"
    },
    {
      "inputs": [],
      "name": "description",
      "outputs": [
        {
          "internalType": "string",
          "name": "",
          "type": "string"
        }
      ],
      "stateMutability": "view",
      "type": "function"
    },
    {
      "inputs": [],
      "name": "fundingState",
      "outputs": [
        {
          "internalType": "enum CallForFundsStorage.FundingState",
          "name": "",
          "type": "uint8"
        }
      ],
      "stateMutability": "view",
      "type": "function"
    },
    {
      "inputs": [],
      "name": "genre",
      "outputs": [
        {
          "internalType": "string",
          "name": "",
          "type": "string"
        }
      ],
      "stateMutability": "view",
      "type": "function"
    },
    {
      "inputs": [],
      "name": "image",
      "outputs": [
        {
          "internalType": "string",
          "name": "",
          "type": "string"
        }
      ],
      "stateMutability": "view",
      "type": "function"
    },
    {
      "inputs": [],
      "name": "loudverseAdmin",
      "outputs": [
        {
          "internalType": "address",
          "name": "",
          "type": "address"
        }
      ],
      "stateMutability": "view",
      "type": "function"
    },
    {
      "inputs": [],
      "name": "minFundingAmount",
      "outputs": [
        {
          "internalType": "uint256",
          "name": "",
          "type": "uint256"
        }
      ],
      "stateMutability": "view",
      "type": "function"
    },
    {
      "inputs": [],
      "name": "subgenre",
      "outputs": [
        {
          "internalType": "string",
          "name": "",
          "type": "string"
        }
      ],
      "stateMutability": "view",
      "type": "function"
    },
    {
      "inputs": [],
      "name": "timelineInDays",
      "outputs": [
        {
          "internalType": "uint96",
          "name": "",
          "type": "uint96"
        }
      ],
      "stateMutability": "view",
      "type": "function"
    },
    {
      "inputs": [],
      "name": "title",
      "outputs": [
        {
          "internalType": "string",
          "name": "",
          "type": "string"
        }
      ],
      "stateMutability": "view",
      "type": "function"
    }
  ],
  "bytecode": "0x608060405234801561001057600080fd5b50610c9a806100206000396000f3fe608060405234801561001057600080fd5b50600436106101165760003560e01c80639699119d116100a2578063c791316e11610071578063c791316e146102a1578063d0012723146102bf578063e6851127146102dd578063ef430aa6146102fb578063f3ccaac01461031957610116565b80639699119d146102295780639cf0bd0d14610247578063ab115d7214610265578063b25cdccf1461028357610116565b806377f78ad3116100e957806377f78ad3146101935780637cb4d6d7146101b15780637e52b6ab146101cf578063852e5a0a146101ed5780638e22ce1d1461020b57610116565b806302d05d3f1461011b57806317de3a41146101395780634a79d50c146101575780637284e41614610175575b600080fd5b610123610337565b6040516101309190610954565b60405180910390f35b61014161035d565b60405161014e9190610a11565b60405180910390f35b61015f6103eb565b60405161016c9190610a11565b60405180910390f35b61017d610479565b60405161018a9190610a11565b60405180910390f35b61019b610507565b6040516101a8919061096f565b60405180910390f35b6101b961051f565b6040516101c6919061098a565b60405180910390f35b6101d7610537565b6040516101e491906109c0565b60405180910390f35b6101f561054f565b60405161020291906109db565b60405180910390f35b610213610567565b6040516102209190610954565b60405180910390f35b61023161057f565b60405161023e9190610a4e565b60405180910390f35b61024f61059d565b60405161025c9190610a11565b60405180910390f35b61026d61062b565b60405161027a9190610a11565b60405180910390f35b61028b6106b9565b60405161029891906109f6565b60405180910390f35b6102a96106cc565b6040516102b69190610a33565b60405180910390f35b6102c76106d2565b6040516102d491906109a5565b60405180910390f35b6102e56106ea565b6040516102f29190610a11565b60405180910390f35b610303610778565b6040516103109190610a11565b60405180910390f35b610321610806565b60405161032e9190610a11565b60405180910390f35b600160009054906101000a900473ffffffffffffffffffffffffffffffffffffffff1681565b6006805461036a90610baf565b80601f016020809104026020016040519081016040528092919081815260200182805461039690610baf565b80156103e35780601f106103b8576101008083540402835291602001916103e3565b820191906000526020600020905b8154815290600101906020018083116103c657829003601f168201915b505050505081565b600280546103f890610baf565b80601f016020809104026020016040519081016040528092919081815260200182805461042490610baf565b80156104715780601f1061044657610100808354040283529160200191610471565b820191906000526020600020905b81548152906001019060200180831161045457829003601f168201915b505050505081565b6003805461048690610baf565b80601f01602080910402602001604051908101604052809291908181526020018280546104b290610baf565b80156104ff5780601f106104d4576101008083540402835291602001916104ff565b820191906000526020600020905b8154815290600101906020018083116104e257829003601f168201915b505050505081565b7315f0ca26781c3852f8166ed2ebce5d18265cceb781565b7349e565ed1bdc17f3d220f72df0857c26fa83f87381565b735d8b4c2554aeb7e86f387b4d6c00ac33499ed01f81565b73eb796bdb90ffa0f28255275e16936d25d341860381565b73a4e987fb3808d9fc206112967477793ea838945081565b600960009054906101000a90046bffffffffffffffffffffffff1681565b600880546105aa90610baf565b80601f01602080910402602001604051908101604052809291908181526020018280546105d690610baf565b80156106235780601f106105f857610100808354040283529160200191610623565b820191906000526020600020905b81548152906001019060200180831161060657829003601f168201915b505050505081565b6007805461063890610baf565b80601f016020809104026020016040519081016040528092919081815260200182805461066490610baf565b80156106b15780601f10610686576101008083540402835291602001916106b1565b820191906000526020600020905b81548152906001019060200180831161069457829003601f168201915b505050505081565b600c60009054906101000a900460ff1681565b600a5481565b7396b82b65acf7072efeb00502f45757f254c2a0d481565b600b80546106f790610baf565b80601f016020809104026020016040519081016040528092919081815260200182805461072390610baf565b80156107705780601f1061074557610100808354040283529160200191610770565b820191906000526020600020905b81548152906001019060200180831161075357829003601f168201915b505050505081565b6005805461078590610baf565b80601f01602080910402602001604051908101604052809291908181526020018280546107b190610baf565b80156107fe5780601f106107d3576101008083540402835291602001916107fe565b820191906000526020600020905b8154815290600101906020018083116107e157829003601f168201915b505050505081565b6004805461081390610baf565b80601f016020809104026020016040519081016040528092919081815260200182805461083f90610baf565b801561088c5780601f106108615761010080835404028352916020019161088c565b820191906000526020600020905b81548152906001019060200180831161086f57829003601f168201915b505050505081565b61089d81610a85565b82525050565b6108ac81610aec565b82525050565b6108bb81610afe565b82525050565b6108ca81610b10565b82525050565b6108d981610b22565b82525050565b6108e881610b34565b82525050565b6108f781610b46565b82525050565b600061090882610a69565b6109128185610a74565b9350610922818560208601610b7c565b61092b81610c3f565b840191505092915050565b61093f81610aca565b82525050565b61094e81610ad4565b82525050565b60006020820190506109696000830184610894565b92915050565b600060208201905061098460008301846108a3565b92915050565b600060208201905061099f60008301846108b2565b92915050565b60006020820190506109ba60008301846108c1565b92915050565b60006020820190506109d560008301846108d0565b92915050565b60006020820190506109f060008301846108df565b92915050565b6000602082019050610a0b60008301846108ee565b92915050565b60006020820190508181036000830152610a2b81846108fd565b905092915050565b6000602082019050610a486000830184610936565b92915050565b6000602082019050610a636000830184610945565b92915050565b600081519050919050565b600082825260208201905092915050565b6000610a9082610aaa565b9050919050565b6000819050610aa582610c50565b919050565b600073ffffffffffffffffffffffffffffffffffffffff82169050919050565b6000819050919050565b60006bffffffffffffffffffffffff82169050919050565b6000610af782610b58565b9050919050565b6000610b0982610b58565b9050919050565b6000610b1b82610b58565b9050919050565b6000610b2d82610b58565b9050919050565b6000610b3f82610b58565b9050919050565b6000610b5182610a97565b9050919050565b6000610b6382610b6a565b9050919050565b6000610b7582610aaa565b9050919050565b60005b83811015610b9a578082015181840152602081019050610b7f565b83811115610ba9576000848401525b50505050565b60006002820490506001821680610bc757607f821691505b60208210811415610bdb57610bda610c10565b5b50919050565b7f4e487b7100000000000000000000000000000000000000000000000000000000600052602160045260246000fd5b7f4e487b7100000000000000000000000000000000000000000000000000000000600052602260045260246000fd5b6000601f19601f8301169050919050565b60058110610c6157610c60610be1565b5b5056fea2646970667358221220777a13025c4c9ca658360cdeb8c594d8d6e1e87dee8642bdb87bff910ab0e45064736f6c63430008070033",
  "linkReferences": {},
  "deployedLinkReferences": {}
}