{
  "_format": "hh-sol-artifact-1",
  "contractName": "CallForFundsLogic",
  "sourceName": "contracts/CallForFundsLogic.sol",
  "abi": [
    {
      "anonymous": false,
      "inputs": [
        {
          "indexed": true,
          "internalType": "address",
          "name": "donator",
          "type": "address"
        },
        {
          "indexed": true,
          "internalType": "uint256",
          "name": "amount",
          "type": "uint256"
        }
      ],
      "name": "ContributionReceivedETH",
      "type": "event"
    },
    {
      "inputs": [],
      "name": "category",
      "outputs": [
        {
          "internalType": "string",
          "name": "",
          "type": "string"
        }
      ],
      "stateMutability": "view",
      "type": "function"
    },
    {
      "inputs": [],
      "name": "creator",
      "outputs": [
        {
          "internalType": "address",
          "name": "",
          "type": "address"
        }
      ],
      "stateMutability": "view",
      "type": "function"
    },
    {
      "inputs": [],
      "name": "deliverableMedium",
      "outputs": [
        {
          "internalType": "string",
          "name": "",
          "type": "string"
        }
      ],
      "stateMutability": "view",
      "type": "function"
    },
    {
      "inputs": [],
      "name": "description",
      "outputs": [
        {
          "internalType": "string",
          "name": "",
          "type": "string"
        }
      ],
      "stateMutability": "view",
      "type": "function"
    },
    {
      "inputs": [],
      "name": "fundingState",
      "outputs": [
        {
          "internalType": "enum CallForFundsStorage.FundingState",
          "name": "",
          "type": "uint8"
        }
      ],
      "stateMutability": "view",
      "type": "function"
    },
    {
      "inputs": [],
      "name": "genre",
      "outputs": [
        {
          "internalType": "string",
          "name": "",
          "type": "string"
        }
      ],
      "stateMutability": "view",
      "type": "function"
    },
    {
      "inputs": [],
      "name": "image",
      "outputs": [
        {
          "internalType": "string",
          "name": "",
          "type": "string"
        }
      ],
      "stateMutability": "view",
      "type": "function"
    },
    {
      "inputs": [],
      "name": "logicAddress",
      "outputs": [
        {
          "internalType": "address",
          "name": "",
          "type": "address"
        }
      ],
      "stateMutability": "view",
      "type": "function"
    },
    {
      "inputs": [],
      "name": "minFundingAmount",
      "outputs": [
        {
          "internalType": "uint256",
          "name": "",
          "type": "uint256"
        }
      ],
      "stateMutability": "view",
      "type": "function"
    },
    {
      "inputs": [],
      "name": "subgenre",
      "outputs": [
        {
          "internalType": "string",
          "name": "",
          "type": "string"
        }
      ],
      "stateMutability": "view",
      "type": "function"
    },
    {
      "inputs": [],
      "name": "timelineInDays",
      "outputs": [
        {
          "internalType": "uint8",
          "name": "",
          "type": "uint8"
        }
      ],
      "stateMutability": "view",
      "type": "function"
    },
    {
      "inputs": [],
      "name": "title",
      "outputs": [
        {
          "internalType": "string",
          "name": "",
          "type": "string"
        }
      ],
      "stateMutability": "view",
      "type": "function"
    },
    {
      "stateMutability": "payable",
      "type": "receive"
    }
  ],
  "bytecode": "0x608060405234801561001057600080fd5b50610a02806100206000396000f3fe6080604052600436106100ab5760003560e01c80639cf0bd0d116100645780639cf0bd0d146101fd578063ab115d7214610228578063b25cdccf14610253578063c791316e1461027e578063ef430aa6146102a9578063f3ccaac0146102d4576100f6565b806302d05d3f146100fb57806317de3a41146101265780634a79d50c146101515780637284e4161461017c5780639699119d146101a75780639c1fcc4c146101d2576100f6565b366100f657343373ffffffffffffffffffffffffffffffffffffffff167f2f0f1ca72899668d93500f451ad66c0a4e9f7f3f4974f3206c27069fb2c7f2b160405160405180910390a3005b600080fd5b34801561010757600080fd5b506101106102ff565b60405161011d91906107cc565b60405180910390f35b34801561013257600080fd5b5061013b610325565b6040516101489190610802565b60405180910390f35b34801561015d57600080fd5b506101666103b3565b6040516101739190610802565b60405180910390f35b34801561018857600080fd5b50610191610441565b60405161019e9190610802565b60405180910390f35b3480156101b357600080fd5b506101bc6104cf565b6040516101c9919061083f565b60405180910390f35b3480156101de57600080fd5b506101e76104e2565b6040516101f491906107cc565b60405180910390f35b34801561020957600080fd5b50610212610506565b60405161021f9190610802565b60405180910390f35b34801561023457600080fd5b5061023d610594565b60405161024a9190610802565b60405180910390f35b34801561025f57600080fd5b50610268610622565b60405161027591906107e7565b60405180910390f35b34801561028a57600080fd5b50610293610635565b6040516102a09190610824565b60405180910390f35b3480156102b557600080fd5b506102be61063b565b6040516102cb9190610802565b60405180910390f35b3480156102e057600080fd5b506102e96106c9565b6040516102f69190610802565b60405180910390f35b600160009054906101000a900473ffffffffffffffffffffffffffffffffffffffff1681565b6006805461033290610917565b80601f016020809104026020016040519081016040528092919081815260200182805461035e90610917565b80156103ab5780601f10610380576101008083540402835291602001916103ab565b820191906000526020600020905b81548152906001019060200180831161038e57829003601f168201915b505050505081565b600280546103c090610917565b80601f01602080910402602001604051908101604052809291908181526020018280546103ec90610917565b80156104395780601f1061040e57610100808354040283529160200191610439565b820191906000526020600020905b81548152906001019060200180831161041c57829003601f168201915b505050505081565b6003805461044e90610917565b80601f016020809104026020016040519081016040528092919081815260200182805461047a90610917565b80156104c75780601f1061049c576101008083540402835291602001916104c7565b820191906000526020600020905b8154815290600101906020018083116104aa57829003601f168201915b505050505081565b600960009054906101000a900460ff1681565b60008054906101000a900473ffffffffffffffffffffffffffffffffffffffff1681565b6008805461051390610917565b80601f016020809104026020016040519081016040528092919081815260200182805461053f90610917565b801561058c5780601f106105615761010080835404028352916020019161058c565b820191906000526020600020905b81548152906001019060200180831161056f57829003601f168201915b505050505081565b600780546105a190610917565b80601f01602080910402602001604051908101604052809291908181526020018280546105cd90610917565b801561061a5780601f106105ef5761010080835404028352916020019161061a565b820191906000526020600020905b8154815290600101906020018083116105fd57829003601f168201915b505050505081565b600b60009054906101000a900460ff1681565b600a5481565b6005805461064890610917565b80601f016020809104026020016040519081016040528092919081815260200182805461067490610917565b80156106c15780601f10610696576101008083540402835291602001916106c1565b820191906000526020600020905b8154815290600101906020018083116106a457829003601f168201915b505050505081565b600480546106d690610917565b80601f016020809104026020016040519081016040528092919081815260200182805461070290610917565b801561074f5780601f106107245761010080835404028352916020019161074f565b820191906000526020600020905b81548152906001019060200180831161073257829003601f168201915b505050505081565b61076081610876565b82525050565b61076f816108d2565b82525050565b60006107808261085a565b61078a8185610865565b935061079a8185602086016108e4565b6107a3816109a7565b840191505092915050565b6107b7816108bb565b82525050565b6107c6816108c5565b82525050565b60006020820190506107e16000830184610757565b92915050565b60006020820190506107fc6000830184610766565b92915050565b6000602082019050818103600083015261081c8184610775565b905092915050565b600060208201905061083960008301846107ae565b92915050565b600060208201905061085460008301846107bd565b92915050565b600081519050919050565b600082825260208201905092915050565b60006108818261089b565b9050919050565b6000819050610896826109b8565b919050565b600073ffffffffffffffffffffffffffffffffffffffff82169050919050565b6000819050919050565b600060ff82169050919050565b60006108dd82610888565b9050919050565b60005b838110156109025780820151818401526020810190506108e7565b83811115610911576000848401525b50505050565b6000600282049050600182168061092f57607f821691505b6020821081141561094357610942610978565b5b50919050565b7f4e487b7100000000000000000000000000000000000000000000000000000000600052602160045260246000fd5b7f4e487b7100000000000000000000000000000000000000000000000000000000600052602260045260246000fd5b6000601f19601f8301169050919050565b600481106109c9576109c8610949565b5b5056fea2646970667358221220dd485582ba4befcb13e1eafd4008ea58f3980e5b055d4b66f03c3a829f8ad40f64736f6c63430008040033",
  "linkReferences": {},
  "deployedLinkReferences": {}
}