{
  "_format": "hh-sol-artifact-1",
  "contractName": "CallForFundsLogic",
  "sourceName": "contracts/CallForFundsLogic.sol",
  "abi": [
    {
      "inputs": [
        {
          "internalType": "address",
          "name": "crowdCommission_",
          "type": "address"
        },
        {
          "internalType": "address",
          "name": "smartArt_",
          "type": "address"
        }
      ],
      "stateMutability": "nonpayable",
      "type": "constructor"
    },
    {
      "anonymous": false,
      "inputs": [
        {
          "indexed": true,
          "internalType": "uint256",
          "name": "amountMatched",
          "type": "uint256"
        }
      ],
      "name": "CallMatched",
      "type": "event"
    },
    {
      "anonymous": false,
      "inputs": [
        {
          "indexed": true,
          "internalType": "address",
          "name": "donator",
          "type": "address"
        },
        {
          "indexed": false,
          "internalType": "uint256",
          "name": "amount",
          "type": "uint256"
        }
      ],
      "name": "ContributionReceivedETH",
      "type": "event"
    },
    {
      "anonymous": false,
      "inputs": [
        {
          "indexed": true,
          "internalType": "enum CallForFundsStorage.FundingState",
          "name": "newFundingState",
          "type": "uint8"
        }
      ],
      "name": "FundingStateChanged",
      "type": "event"
    },
    {
      "anonymous": false,
      "inputs": [
        {
          "indexed": true,
          "internalType": "address[]",
          "name": "addresses",
          "type": "address[]"
        },
        {
          "indexed": true,
          "internalType": "uint256[]",
          "name": "amounts",
          "type": "uint256[]"
        }
      ],
      "name": "RefundCompleted",
      "type": "event"
    },
    {
      "anonymous": false,
      "inputs": [],
      "name": "StreamStarted",
      "type": "event"
    },
    {
      "anonymous": false,
      "inputs": [
        {
          "indexed": false,
          "internalType": "string",
          "name": "deliverableURI",
          "type": "string"
        }
      ],
      "name": "WorkDelivered",
      "type": "event"
    },
    {
      "inputs": [],
      "name": "_cfa",
      "outputs": [
        {
          "internalType": "contract IConstantFlowAgreementV1",
          "name": "",
          "type": "address"
        }
      ],
      "stateMutability": "view",
      "type": "function"
    },
    {
      "inputs": [],
      "name": "_ethx",
      "outputs": [
        {
          "internalType": "contract ISETH",
          "name": "",
          "type": "address"
        }
      ],
      "stateMutability": "view",
      "type": "function"
    },
    {
      "inputs": [],
      "name": "_host",
      "outputs": [
        {
          "internalType": "contract ISuperfluid",
          "name": "",
          "type": "address"
        }
      ],
      "stateMutability": "view",
      "type": "function"
    },
    {
      "inputs": [],
      "name": "category",
      "outputs": [
        {
          "internalType": "string",
          "name": "",
          "type": "string"
        }
      ],
      "stateMutability": "view",
      "type": "function"
    },
    {
      "inputs": [],
      "name": "creator",
      "outputs": [
        {
          "internalType": "address",
          "name": "",
          "type": "address"
        }
      ],
      "stateMutability": "view",
      "type": "function"
    },
    {
      "inputs": [],
      "name": "crowdCommission",
      "outputs": [
        {
          "internalType": "address",
          "name": "",
          "type": "address"
        }
      ],
      "stateMutability": "view",
      "type": "function"
    },
    {
      "inputs": [
        {
          "internalType": "string",
          "name": "deliverableURI_",
          "type": "string"
        },
        {
          "internalType": "address",
          "name": "slicerAddress",
          "type": "address"
        }
      ],
      "name": "deliver",
      "outputs": [],
      "stateMutability": "nonpayable",
      "type": "function"
    },
    {
      "inputs": [],
      "name": "deliverableMedium",
      "outputs": [
        {
          "internalType": "string",
          "name": "",
          "type": "string"
        }
      ],
      "stateMutability": "view",
      "type": "function"
    },
    {
      "inputs": [],
      "name": "deliverableURI",
      "outputs": [
        {
          "internalType": "string",
          "name": "",
          "type": "string"
        }
      ],
      "stateMutability": "view",
      "type": "function"
    },
    {
      "inputs": [],
      "name": "description",
      "outputs": [
        {
          "internalType": "string",
          "name": "",
          "type": "string"
        }
      ],
      "stateMutability": "view",
      "type": "function"
    },
    {
      "inputs": [],
      "name": "factory",
      "outputs": [
        {
          "internalType": "address",
          "name": "",
          "type": "address"
        }
      ],
      "stateMutability": "view",
      "type": "function"
    },
    {
      "inputs": [],
      "name": "fundingState",
      "outputs": [
        {
          "internalType": "enum CallForFundsStorage.FundingState",
          "name": "",
          "type": "uint8"
        }
      ],
      "stateMutability": "view",
      "type": "function"
    },
    {
      "inputs": [],
      "name": "genre",
      "outputs": [
        {
          "internalType": "string",
          "name": "",
          "type": "string"
        }
      ],
      "stateMutability": "view",
      "type": "function"
    },
    {
      "inputs": [],
      "name": "image",
      "outputs": [
        {
          "internalType": "string",
          "name": "",
          "type": "string"
        }
      ],
      "stateMutability": "view",
      "type": "function"
    },
    {
      "inputs": [],
      "name": "loudverseAdmin",
      "outputs": [
        {
          "internalType": "address",
          "name": "",
          "type": "address"
        }
      ],
      "stateMutability": "view",
      "type": "function"
    },
    {
      "inputs": [
        {
          "internalType": "address[]",
          "name": "funders",
          "type": "address[]"
        },
        {
          "internalType": "uint256",
          "name": "id",
          "type": "uint256"
        },
        {
          "internalType": "bytes",
          "name": "data",
          "type": "bytes"
        }
      ],
      "name": "matchCallForFunds",
      "outputs": [],
      "stateMutability": "payable",
      "type": "function"
    },
    {
      "inputs": [],
      "name": "minFundingAmount",
      "outputs": [
        {
          "internalType": "uint256",
          "name": "",
          "type": "uint256"
        }
      ],
      "stateMutability": "view",
      "type": "function"
    },
    {
      "inputs": [
        {
          "internalType": "address[]",
          "name": "funders",
          "type": "address[]"
        },
        {
          "internalType": "uint256",
          "name": "id",
          "type": "uint256"
        },
        {
          "internalType": "bytes",
          "name": "data",
          "type": "bytes"
        }
      ],
      "name": "mintCrowdCommission",
      "outputs": [],
      "stateMutability": "nonpayable",
      "type": "function"
    },
    {
      "inputs": [
        {
          "internalType": "address",
          "name": "to",
          "type": "address"
        },
        {
          "internalType": "address",
          "name": "royaltyRecipient",
          "type": "address"
        },
        {
          "internalType": "uint256",
          "name": "royaltyValue",
          "type": "uint256"
        },
        {
          "internalType": "string",
          "name": "uri",
          "type": "string"
        }
      ],
      "name": "mintSmartArt",
      "outputs": [],
      "stateMutability": "nonpayable",
      "type": "function"
    },
    {
      "inputs": [
        {
          "internalType": "address[]",
          "name": "addresses",
          "type": "address[]"
        },
        {
          "internalType": "uint256[]",
          "name": "amounts",
          "type": "uint256[]"
        }
      ],
      "name": "refund",
      "outputs": [],
      "stateMutability": "nonpayable",
      "type": "function"
    },
    {
      "inputs": [
        {
          "internalType": "address",
          "name": "factoryAddress",
          "type": "address"
        }
      ],
      "name": "setFactory",
      "outputs": [],
      "stateMutability": "nonpayable",
      "type": "function"
    },
    {
      "inputs": [],
      "name": "smartArt",
      "outputs": [
        {
          "internalType": "address",
          "name": "",
          "type": "address"
        }
      ],
      "stateMutability": "view",
      "type": "function"
    },
    {
      "inputs": [],
      "name": "startStream",
      "outputs": [],
      "stateMutability": "payable",
      "type": "function"
    },
    {
      "inputs": [],
      "name": "subgenre",
      "outputs": [
        {
          "internalType": "string",
          "name": "",
          "type": "string"
        }
      ],
      "stateMutability": "view",
      "type": "function"
    },
    {
      "inputs": [],
      "name": "timelineInDays",
      "outputs": [
        {
          "internalType": "uint96",
          "name": "",
          "type": "uint96"
        }
      ],
      "stateMutability": "view",
      "type": "function"
    },
    {
      "inputs": [],
      "name": "title",
      "outputs": [
        {
          "internalType": "string",
          "name": "",
          "type": "string"
        }
      ],
      "stateMutability": "view",
      "type": "function"
    },
    {
      "stateMutability": "payable",
      "type": "receive"
    }
  ],
  "bytecode": "0x60c06040523480156200001157600080fd5b50604051620030ff380380620030ff8339818101604052810190620000379190620000c4565b8173ffffffffffffffffffffffffffffffffffffffff1660808173ffffffffffffffffffffffffffffffffffffffff1660601b815250508073ffffffffffffffffffffffffffffffffffffffff1660a08173ffffffffffffffffffffffffffffffffffffffff1660601b81525050505062000153565b600081519050620000be8162000139565b92915050565b60008060408385031215620000d857600080fd5b6000620000e885828601620000ad565b9250506020620000fb85828601620000ad565b9150509250929050565b6000620001128262000119565b9050919050565b600073ffffffffffffffffffffffffffffffffffffffff82169050919050565b620001448162000105565b81146200015057600080fd5b50565b60805160601c60a05160601c612f726200018d60003960008181610e3501526118df01526000818161171101526119be0152612f726000f3fe6080604052600436106101855760003560e01c8063b25cdccf116100d1578063d00127231161008a578063ef430aa611610064578063ef430aa614610559578063f3ccaac014610584578063f66c3ff4146105af578063fe5a6fd1146105da576101da565b8063d0012723146104d8578063d2ac318214610503578063e68511271461052e576101da565b8063b25cdccf146103fb578063b49ab7f614610426578063b574d0711461044f578063c091c43514610459578063c45a015514610482578063c791316e146104ad576101da565b80637284e4161161013e5780638e22ce1d116101185780638e22ce1d1461034f5780639699119d1461037a5780639cf0bd0d146103a5578063ab115d72146103d0576101da565b80637284e416146102ce5780637cb4d6d7146102f9578063852e5a0a14610324576101da565b806302d05d3f146101df5780630abcf6781461020a5780630e212fad1461023357806317de3a411461024f5780634a79d50c1461027a5780635bb47808146102a5576101da565b366101da573373ffffffffffffffffffffffffffffffffffffffff167f2f0f1ca72899668d93500f451ad66c0a4e9f7f3f4974f3206c27069fb2c7f2b1346040516101d09190612831565b60405180910390a2005b600080fd5b3480156101eb57600080fd5b506101f4610603565b60405161020191906125f8565b60405180910390f35b34801561021657600080fd5b50610231600480360381019061022c91906121a3565b610629565b005b61024d60048036038101906102489190611fe6565b610801565b005b34801561025b57600080fd5b506102646109a9565b60405161027191906127ed565b60405180910390f35b34801561028657600080fd5b5061028f610a37565b60405161029c91906127ed565b60405180910390f35b3480156102b157600080fd5b506102cc60048036038101906102c79190611f42565b610ac5565b005b3480156102da57600080fd5b506102e3610b55565b6040516102f091906127ed565b60405180910390f35b34801561030557600080fd5b5061030e610be3565b60405161031b91906126f2565b60405180910390f35b34801561033057600080fd5b50610339610bfb565b60405161034691906127b7565b60405180910390f35b34801561035b57600080fd5b50610364610c13565b60405161037191906125f8565b60405180910390f35b34801561038657600080fd5b5061038f610c2b565b60405161039c919061284c565b60405180910390f35b3480156103b157600080fd5b506103ba610c49565b6040516103c791906127ed565b60405180910390f35b3480156103dc57600080fd5b506103e5610cd7565b6040516103f291906127ed565b60405180910390f35b34801561040757600080fd5b50610410610d65565b60405161041d91906127d2565b60405180910390f35b34801561043257600080fd5b5061044d60048036038101906104489190611f6b565b610d78565b005b610457610ecb565b005b34801561046557600080fd5b50610480600480360381019061047b919061206a565b6114ce565b005b34801561048e57600080fd5b506104976116cb565b6040516104a491906125f8565b60405180910390f35b3480156104b957600080fd5b506104c26116f1565b6040516104cf9190612831565b60405180910390f35b3480156104e457600080fd5b506104ed6116f7565b6040516104fa9190612750565b60405180910390f35b34801561050f57600080fd5b5061051861170f565b60405161052591906125f8565b60405180910390f35b34801561053a57600080fd5b50610543611733565b60405161055091906127ed565b60405180910390f35b34801561056557600080fd5b5061056e6117c1565b60405161057b91906127ed565b60405180910390f35b34801561059057600080fd5b5061059961184f565b6040516105a691906127ed565b60405180910390f35b3480156105bb57600080fd5b506105c46118dd565b6040516105d191906125f8565b60405180910390f35b3480156105e657600080fd5b5061060160048036038101906105fc9190611fe6565b611901565b005b600160009054906101000a900473ffffffffffffffffffffffffffffffffffffffff1681565b600160009054906101000a900473ffffffffffffffffffffffffffffffffffffffff1673ffffffffffffffffffffffffffffffffffffffff163373ffffffffffffffffffffffffffffffffffffffff161461068357600080fd5b60038060048111156106be577f4e487b7100000000000000000000000000000000000000000000000000000000600052602160045260246000fd5b600c60009054906101000a900460ff166004811115610706577f4e487b7100000000000000000000000000000000000000000000000000000000600052602160045260246000fd5b1461071057600080fd5b82600b9080519060200190610726929190611b88565b507fcb7230e908facd21b119ab7a11e0247b8d5374e49d8cc50fa9a53b7601f237c9600b604051610757919061280f565b60405180910390a160008054906101000a900473ffffffffffffffffffffffffffffffffffffffff1673ffffffffffffffffffffffffffffffffffffffff1663b49ab7f633846103e8876040518563ffffffff1660e01b81526004016107c09493929190612613565b600060405180830381600087803b1580156107da57600080fd5b505af11580156107ee573d6000803e3d6000fd5b505050506107fc6004611a54565b505050565b73a4e987fb3808d9fc206112967477793ea838945073ffffffffffffffffffffffffffffffffffffffff163373ffffffffffffffffffffffffffffffffffffffff161461084d57600080fd5b6000806004811115610888577f4e487b7100000000000000000000000000000000000000000000000000000000600052602160045260246000fd5b600c60009054906101000a900460ff1660048111156108d0577f4e487b7100000000000000000000000000000000000000000000000000000000600052602160045260246000fd5b146108da57600080fd5b347f2731c7491ce2f19381bc96e6c488a4e45d345b5efa893b339dd94e549f26477c60405160405180910390a260008054906101000a900473ffffffffffffffffffffffffffffffffffffffff1673ffffffffffffffffffffffffffffffffffffffff1663fe5a6fd1868686866040518563ffffffff1660e01b815260040161096694939291906126ab565b600060405180830381600087803b15801561098057600080fd5b505af1158015610994573d6000803e3d6000fd5b505050506109a26002611a54565b5050505050565b600680546109b690612cf8565b80601f01602080910402602001604051908101604052809291908181526020018280546109e290612cf8565b8015610a2f5780601f10610a0457610100808354040283529160200191610a2f565b820191906000526020600020905b815481529060010190602001808311610a1257829003601f168201915b505050505081565b60028054610a4490612cf8565b80601f0160208091040260200160405190810160405280929190818152602001828054610a7090612cf8565b8015610abd5780601f10610a9257610100808354040283529160200191610abd565b820191906000526020600020905b815481529060010190602001808311610aa057829003601f168201915b505050505081565b73a4e987fb3808d9fc206112967477793ea838945073ffffffffffffffffffffffffffffffffffffffff163373ffffffffffffffffffffffffffffffffffffffff1614610b1157600080fd5b80600c60016101000a81548173ffffffffffffffffffffffffffffffffffffffff021916908373ffffffffffffffffffffffffffffffffffffffff16021790555050565b60038054610b6290612cf8565b80601f0160208091040260200160405190810160405280929190818152602001828054610b8e90612cf8565b8015610bdb5780601f10610bb057610100808354040283529160200191610bdb565b820191906000526020600020905b815481529060010190602001808311610bbe57829003601f168201915b505050505081565b73f4c5310e51f6079f601a5fb7120bc72a70b96e2a81565b73ed5b5b32110c3ded02a07c8b8e97513fafb883b681565b73a4e987fb3808d9fc206112967477793ea838945081565b600960009054906101000a90046bffffffffffffffffffffffff1681565b60088054610c5690612cf8565b80601f0160208091040260200160405190810160405280929190818152602001828054610c8290612cf8565b8015610ccf5780601f10610ca457610100808354040283529160200191610ccf565b820191906000526020600020905b815481529060010190602001808311610cb257829003601f168201915b505050505081565b60078054610ce490612cf8565b80601f0160208091040260200160405190810160405280929190818152602001828054610d1090612cf8565b8015610d5d5780601f10610d3257610100808354040283529160200191610d5d565b820191906000526020600020905b815481529060010190602001808311610d4057829003601f168201915b505050505081565b600c60009054906101000a900460ff1681565b6000600c60019054906101000a900473ffffffffffffffffffffffffffffffffffffffff1673ffffffffffffffffffffffffffffffffffffffff1663c4552791336040518263ffffffff1660e01b8152600401610dd591906125f8565b602060405180830381600087803b158015610def57600080fd5b505af1158015610e03573d6000803e3d6000fd5b505050506040513d601f19601f82011682018060405250810190610e2791906120d6565b905080610e3357600080fd5b7f000000000000000000000000000000000000000000000000000000000000000073ffffffffffffffffffffffffffffffffffffffff1663b85cbc79868686866040518563ffffffff1660e01b8152600401610e92949392919061265f565b600060405180830381600087803b158015610eac57600080fd5b505af1158015610ec0573d6000803e3d6000fd5b505050505050505050565b600160009054906101000a900473ffffffffffffffffffffffffffffffffffffffff1673ffffffffffffffffffffffffffffffffffffffff163373ffffffffffffffffffffffffffffffffffffffff1614610f2557600080fd5b6002806004811115610f60577f4e487b7100000000000000000000000000000000000000000000000000000000600052602160045260246000fd5b600c60009054906101000a900460ff166004811115610fa8577f4e487b7100000000000000000000000000000000000000000000000000000000600052602160045260246000fd5b14610fb257600080fd5b6000479050600073a623b2dd931c5162b7a0b25852f4024db48bb1a073ffffffffffffffffffffffffffffffffffffffff16825a906040516024016040516020818303038152906040527fcf81464b000000000000000000000000000000000000000000000000000000007bffffffffffffffffffffffffffffffffffffffffffffffffffffffff19166020820180517bffffffffffffffffffffffffffffffffffffffffffffffffffffffff838183161783525050505060405161107791906125cc565b600060405180830381858888f193505050503d80600081146110b5576040519150601f19603f3d011682016040523d82523d6000602084013e6110ba565b606091505b50509050806110c857600080fd5b6000309050600073a623b2dd931c5162b7a0b25852f4024db48bb1a073ffffffffffffffffffffffffffffffffffffffff166370a08231836040518263ffffffff1660e01b815260040161111c91906125f8565b60206040518083038186803b15801561113457600080fd5b505afa158015611148573d6000803e3d6000fd5b505050506040513d601f19601f8201168201806040525081019061116c91906121f7565b9050600073a623b2dd931c5162b7a0b25852f4024db48bb1a073ffffffffffffffffffffffffffffffffffffffff166370a08231846040518263ffffffff1660e01b81526004016111bd91906125f8565b60206040518083038186803b1580156111d557600080fd5b505afa1580156111e9573d6000803e3d6000fd5b505050506040513d601f19601f8201168201806040525081019061120d91906121f7565b9050600073a623b2dd931c5162b7a0b25852f4024db48bb1a073ffffffffffffffffffffffffffffffffffffffff16632ec8eec7856040518263ffffffff1660e01b815260040161125e91906125f8565b60806040518083038186803b15801561127657600080fd5b505afa15801561128a573d6000803e3d6000fd5b505050506040513d601f19601f820116820180604052508101906112ae9190612140565b50505090506000829050600062015180600960009054906101000a90046bffffffffffffffffffffffff166112e39190612aad565b90506000829050600082826112f89190612a43565b905073ed5b5b32110c3ded02a07c8b8e97513fafb883b673ffffffffffffffffffffffffffffffffffffffff166339255d5b73f4c5310e51f6079f601a5fb7120bc72a70b96e2a6362fc305e60e01b73a623b2dd931c5162b7a0b25852f4024db48bb1a03386600067ffffffffffffffff81111561139f577f4e487b7100000000000000000000000000000000000000000000000000000000600052604160045260246000fd5b6040519080825280601f01601f1916602001820160405280156113d15781602001600182028036833780820191505090505b506040516024016113e5949392919061276b565b604051602081830303815290604052907bffffffffffffffffffffffffffffffffffffffffffffffffffffffff19166020820180517bffffffffffffffffffffffffffffffffffffffffffffffffffffffff83818316178352505050506040518363ffffffff1660e01b815260040161145f92919061270d565b600060405180830381600087803b15801561147957600080fd5b505af115801561148d573d6000803e3d6000fd5b505050506040513d6000823e3d601f19601f820116820180604052508101906114b691906120ff565b506114c16003611a54565b5050505050505050505050565b73a4e987fb3808d9fc206112967477793ea838945073ffffffffffffffffffffffffffffffffffffffff163373ffffffffffffffffffffffffffffffffffffffff161461151a57600080fd5b6000806004811115611555577f4e487b7100000000000000000000000000000000000000000000000000000000600052602160045260246000fd5b600c60009054906101000a900460ff16600481111561159d577f4e487b7100000000000000000000000000000000000000000000000000000000600052602160045260246000fd5b146115a757600080fd5b6000600190505b83518110156116635760006116438583815181106115f5577f4e487b7100000000000000000000000000000000000000000000000000000000600052603260045260246000fd5b6020026020010151858481518110611636577f4e487b7100000000000000000000000000000000000000000000000000000000600052603260045260246000fd5b6020026020010151611b0c565b90508061164f57600080fd5b50808061165b90612d5b565b9150506115ae565b508160405161167291906125b5565b604051809103902083604051611688919061259e565b60405180910390207f598d84241bfe93913995b638c1692ad8e8d01110f5bd1af00f0c68e095044c3d60405160405180910390a36116c66001611a54565b505050565b600c60019054906101000a900473ffffffffffffffffffffffffffffffffffffffff1681565b600a5481565b73a623b2dd931c5162b7a0b25852f4024db48bb1a081565b7f000000000000000000000000000000000000000000000000000000000000000081565b600b805461174090612cf8565b80601f016020809104026020016040519081016040528092919081815260200182805461176c90612cf8565b80156117b95780601f1061178e576101008083540402835291602001916117b9565b820191906000526020600020905b81548152906001019060200180831161179c57829003601f168201915b505050505081565b600580546117ce90612cf8565b80601f01602080910402602001604051908101604052809291908181526020018280546117fa90612cf8565b80156118475780601f1061181c57610100808354040283529160200191611847565b820191906000526020600020905b81548152906001019060200180831161182a57829003601f168201915b505050505081565b6004805461185c90612cf8565b80601f016020809104026020016040519081016040528092919081815260200182805461188890612cf8565b80156118d55780601f106118aa576101008083540402835291602001916118d5565b820191906000526020600020905b8154815290600101906020018083116118b857829003601f168201915b505050505081565b7f000000000000000000000000000000000000000000000000000000000000000081565b6000600c60019054906101000a900473ffffffffffffffffffffffffffffffffffffffff1673ffffffffffffffffffffffffffffffffffffffff1663c4552791336040518263ffffffff1660e01b815260040161195e91906125f8565b602060405180830381600087803b15801561197857600080fd5b505af115801561198c573d6000803e3d6000fd5b505050506040513d601f19601f820116820180604052508101906119b091906120d6565b9050806119bc57600080fd5b7f000000000000000000000000000000000000000000000000000000000000000073ffffffffffffffffffffffffffffffffffffffff16630e61295f868686866040518563ffffffff1660e01b8152600401611a1b94939291906126ab565b600060405180830381600087803b158015611a3557600080fd5b505af1158015611a49573d6000803e3d6000fd5b505050505050505050565b80600c60006101000a81548160ff02191690836004811115611a9f577f4e487b7100000000000000000000000000000000000000000000000000000000600052602160045260246000fd5b0217905550806004811115611add577f4e487b7100000000000000000000000000000000000000000000000000000000600052602160045260246000fd5b7f9a0a9fbc5661a10573bae4de0b7535a3629b80dfd45bca03da02e07950f17c9a60405160405180910390a250565b6000808373ffffffffffffffffffffffffffffffffffffffff168361753090604051611b37906125e3565b600060405180830381858888f193505050503d8060008114611b75576040519150601f19603f3d011682016040523d82523d6000602084013e611b7a565b606091505b505090508091505092915050565b828054611b9490612cf8565b90600052602060002090601f016020900481019282611bb65760008555611bfd565b82601f10611bcf57805160ff1916838001178555611bfd565b82800160010185558215611bfd579182015b82811115611bfc578251825591602001919060010190611be1565b5b509050611c0a9190611c0e565b5090565b5b80821115611c27576000816000905550600101611c0f565b5090565b6000611c3e611c398461288c565b612867565b90508083825260208201905082856020860282011115611c5d57600080fd5b60005b85811015611c8d5781611c738882611dbd565b845260208401935060208301925050600181019050611c60565b5050509392505050565b6000611caa611ca5846128b8565b612867565b90508083825260208201905082856020860282011115611cc957600080fd5b60005b85811015611cf95781611cdf8882611f18565b845260208401935060208301925050600181019050611ccc565b5050509392505050565b6000611d16611d11846128e4565b612867565b905082815260208101848484011115611d2e57600080fd5b611d39848285612cb6565b509392505050565b6000611d54611d4f846128e4565b612867565b905082815260208101848484011115611d6c57600080fd5b611d77848285612cc5565b509392505050565b6000611d92611d8d84612915565b612867565b905082815260208101848484011115611daa57600080fd5b611db5848285612cb6565b509392505050565b600081359050611dcc81612ee0565b92915050565b60008083601f840112611de457600080fd5b8235905067ffffffffffffffff811115611dfd57600080fd5b602083019150836020820283011115611e1557600080fd5b9250929050565b600082601f830112611e2d57600080fd5b8135611e3d848260208601611c2b565b91505092915050565b600082601f830112611e5757600080fd5b8135611e67848260208601611c97565b91505092915050565b600081519050611e7f81612ef7565b92915050565b600082601f830112611e9657600080fd5b8135611ea6848260208601611d03565b91505092915050565b600082601f830112611ec057600080fd5b8151611ed0848260208601611d41565b91505092915050565b600081519050611ee881612f0e565b92915050565b600082601f830112611eff57600080fd5b8135611f0f848260208601611d7f565b91505092915050565b600081359050611f2781612f25565b92915050565b600081519050611f3c81612f25565b92915050565b600060208284031215611f5457600080fd5b6000611f6284828501611dbd565b91505092915050565b60008060008060808587031215611f8157600080fd5b6000611f8f87828801611dbd565b9450506020611fa087828801611dbd565b9350506040611fb187828801611f18565b925050606085013567ffffffffffffffff811115611fce57600080fd5b611fda87828801611eee565b91505092959194509250565b60008060008060608587031215611ffc57600080fd5b600085013567ffffffffffffffff81111561201657600080fd5b61202287828801611dd2565b9450945050602061203587828801611f18565b925050604085013567ffffffffffffffff81111561205257600080fd5b61205e87828801611e85565b91505092959194509250565b6000806040838503121561207d57600080fd5b600083013567ffffffffffffffff81111561209757600080fd5b6120a385828601611e1c565b925050602083013567ffffffffffffffff8111156120c057600080fd5b6120cc85828601611e46565b9150509250929050565b6000602082840312156120e857600080fd5b60006120f684828501611e70565b91505092915050565b60006020828403121561211157600080fd5b600082015167ffffffffffffffff81111561212b57600080fd5b61213784828501611eaf565b91505092915050565b6000806000806080858703121561215657600080fd5b600061216487828801611ed9565b945050602061217587828801611f2d565b935050604061218687828801611f2d565b925050606061219787828801611f2d565b91505092959194509250565b600080604083850312156121b657600080fd5b600083013567ffffffffffffffff8111156121d057600080fd5b6121dc85828601611eee565b92505060206121ed85828601611dbd565b9150509250929050565b60006020828403121561220957600080fd5b600061221784828501611f2d565b91505092915050565b600061222c8383612268565b60208301905092915050565b60006122448383612286565b60208301905092915050565b600061225c8383612580565b60208301905092915050565b61227181612b9c565b82525050565b61228081612b9c565b82525050565b61228f81612b9c565b82525050565b60006122a183856129d8565b93506122ac82612946565b8060005b858110156122e5576122c28284612a2c565b6122cc8882612220565b97506122d7836129b1565b9250506001810190506122b0565b5085925050509392505050565b60006122fd82612985565b61230781856129e9565b935061231283612950565b8060005b8381101561234357815161232a8882612238565b9750612335836129be565b925050600181019050612316565b5085935050505092915050565b600061235b82612990565b61236581856129f4565b935061237083612960565b8060005b838110156123a15781516123888882612250565b9750612393836129cb565b925050600181019050612374565b5085935050505092915050565b60006123b98261299b565b6123c381856129ff565b93506123d3818560208601612cc5565b6123dc81612e8f565b840191505092915050565b60006123f28261299b565b6123fc8185612a10565b935061240c818560208601612cc5565b80840191505092915050565b61242181612c26565b82525050565b61243081612c4a565b82525050565b61243f81612c6e565b82525050565b61244e81612c92565b82525050565b61245d81612bd7565b82525050565b61246c81612ca4565b82525050565b600061247d826129a6565b6124878185612a1b565b9350612497818560208601612cc5565b6124a081612e8f565b840191505092915050565b600081546124b881612cf8565b6124c28186612a1b565b945060018216600081146124dd57600181146124ef57612522565b60ff1983168652602086019350612522565b6124f885612970565b60005b8381101561251a578154818901526001820191506020810190506124fb565b808801955050505b50505092915050565b60006125386002836129ff565b915061254382612ea0565b602082019050919050565b600061255b600083612a10565b915061256682612ec9565b600082019050919050565b61257a81612c04565b82525050565b61258981612c04565b82525050565b61259881612c0e565b82525050565b60006125aa82846122f2565b915081905092915050565b60006125c18284612350565b915081905092915050565b60006125d882846123e7565b915081905092915050565b60006125ee8261254e565b9150819050919050565b600060208201905061260d6000830184612277565b92915050565b60006080820190506126286000830187612277565b6126356020830186612277565b6126426040830185612463565b81810360608301526126548184612472565b905095945050505050565b60006080820190506126746000830187612277565b6126816020830186612277565b61268e6040830185612571565b81810360608301526126a08184612472565b905095945050505050565b600060608201905081810360008301526126c6818688612295565b90506126d56020830185612571565b81810360408301526126e781846123ae565b905095945050505050565b60006020820190506127076000830184612418565b92915050565b60006060820190506127226000830185612418565b818103602083015261273481846123ae565b905081810360408301526127478161252b565b90509392505050565b60006020820190506127656000830184612427565b92915050565b60006080820190506127806000830187612427565b61278d6020830186612277565b61279a6040830185612454565b81810360608301526127ac81846123ae565b905095945050505050565b60006020820190506127cc6000830184612436565b92915050565b60006020820190506127e76000830184612445565b92915050565b600060208201905081810360008301526128078184612472565b905092915050565b6000602082019050818103600083015261282981846124ab565b905092915050565b60006020820190506128466000830184612571565b92915050565b6000602082019050612861600083018461258f565b92915050565b6000612871612882565b905061287d8282612d2a565b919050565b6000604051905090565b600067ffffffffffffffff8211156128a7576128a6612e60565b5b602082029050602081019050919050565b600067ffffffffffffffff8211156128d3576128d2612e60565b5b602082029050602081019050919050565b600067ffffffffffffffff8211156128ff576128fe612e60565b5b61290882612e8f565b9050602081019050919050565b600067ffffffffffffffff8211156129305761292f612e60565b5b61293982612e8f565b9050602081019050919050565b6000819050919050565b6000819050602082019050919050565b6000819050602082019050919050565b60008190508160005260206000209050919050565b600081519050919050565b600081519050919050565b600081519050919050565b600081519050919050565b6000602082019050919050565b6000602082019050919050565b6000602082019050919050565b600082825260208201905092915050565b600081905092915050565b600081905092915050565b600082825260208201905092915050565b600081905092915050565b600082825260208201905092915050565b6000612a3b6020840184611dbd565b905092915050565b6000612a4e82612bd7565b9150612a5983612bd7565b925082612a6957612a68612dd3565b5b600160000383147fffffffffffffffffffffffffffffffffffffffff80000000000000000000000083141615612aa257612aa1612da4565b5b828205905092915050565b6000612ab882612bd7565b9150612ac383612bd7565b9250826b7fffffffffffffffffffffff0482116000841360008413161615612aee57612aed612da4565b5b817fffffffffffffffffffffffffffffffffffffffff8000000000000000000000000583126000841260008413161615612b2b57612b2a612da4565b5b827fffffffffffffffffffffffffffffffffffffffff8000000000000000000000000582126000841360008412161615612b6857612b67612da4565b5b826b7fffffffffffffffffffffff0582126000841260008412161615612b9157612b90612da4565b5b828202905092915050565b6000612ba782612be4565b9050919050565b60008115159050919050565b6000819050612bc882612ecc565b919050565b6000819050919050565b600081600b0b9050919050565b600073ffffffffffffffffffffffffffffffffffffffff82169050919050565b6000819050919050565b60006bffffffffffffffffffffffff82169050919050565b6000612c3182612c38565b9050919050565b6000612c4382612be4565b9050919050565b6000612c5582612c5c565b9050919050565b6000612c6782612be4565b9050919050565b6000612c7982612c80565b9050919050565b6000612c8b82612be4565b9050919050565b6000612c9d82612bba565b9050919050565b6000612caf82612c04565b9050919050565b82818337600083830152505050565b60005b83811015612ce3578082015181840152602081019050612cc8565b83811115612cf2576000848401525b50505050565b60006002820490506001821680612d1057607f821691505b60208210811415612d2457612d23612e31565b5b50919050565b612d3382612e8f565b810181811067ffffffffffffffff82111715612d5257612d51612e60565b5b80604052505050565b6000612d6682612c04565b91507fffffffffffffffffffffffffffffffffffffffffffffffffffffffffffffffff821415612d9957612d98612da4565b5b600182019050919050565b7f4e487b7100000000000000000000000000000000000000000000000000000000600052601160045260246000fd5b7f4e487b7100000000000000000000000000000000000000000000000000000000600052601260045260246000fd5b7f4e487b7100000000000000000000000000000000000000000000000000000000600052602160045260246000fd5b7f4e487b7100000000000000000000000000000000000000000000000000000000600052602260045260246000fd5b7f4e487b7100000000000000000000000000000000000000000000000000000000600052604160045260246000fd5b6000601f19601f8301169050919050565b7f3078000000000000000000000000000000000000000000000000000000000000600082015250565b50565b60058110612edd57612edc612e02565b5b50565b612ee981612b9c565b8114612ef457600080fd5b50565b612f0081612bae565b8114612f0b57600080fd5b50565b612f1781612bcd565b8114612f2257600080fd5b50565b612f2e81612c04565b8114612f3957600080fd5b5056fea2646970667358221220c2c395fa49be5fdb359f0c1a40c2d4f5dcf05e271c91d5274bca0b692c01c5b464736f6c63430008040033",
  "linkReferences": {},
  "deployedLinkReferences": {}
}