{
  "_format": "hh-sol-artifact-1",
  "contractName": "CallForFundsFactory",
  "sourceName": "contracts/CallForFundsFactory.sol",
  "abi": [
    {
      "inputs": [
        {
          "internalType": "address",
          "name": "logicAddress_",
          "type": "address"
        }
      ],
      "stateMutability": "nonpayable",
      "type": "constructor"
    },
    {
      "anonymous": false,
      "inputs": [
        {
          "indexed": true,
          "internalType": "address",
          "name": "CallForFunds",
          "type": "address"
        },
        {
          "indexed": true,
          "internalType": "address",
          "name": "creator",
          "type": "address"
        },
        {
          "indexed": false,
          "internalType": "string",
          "name": "title",
          "type": "string"
        },
        {
          "indexed": false,
          "internalType": "string",
          "name": "description",
          "type": "string"
        },
        {
          "indexed": false,
          "internalType": "string",
          "name": "image",
          "type": "string"
        },
        {
          "indexed": false,
          "internalType": "string",
          "name": "category",
          "type": "string"
        },
        {
          "indexed": false,
          "internalType": "string",
          "name": "genre",
          "type": "string"
        },
        {
          "indexed": false,
          "internalType": "string",
          "name": "subgenre",
          "type": "string"
        },
        {
          "indexed": false,
          "internalType": "uint8",
          "name": "timelineInDays",
          "type": "uint8"
        },
        {
          "indexed": false,
          "internalType": "uint256",
          "name": "minFundingAmount",
          "type": "uint256"
        },
        {
          "indexed": false,
          "internalType": "string",
          "name": "deliverableMedium",
          "type": "string"
        }
      ],
      "name": "CallForFundsCreated",
      "type": "event"
    },
    {
      "inputs": [
        {
          "internalType": "string",
          "name": "title_",
          "type": "string"
        },
        {
          "internalType": "string",
          "name": "description_",
          "type": "string"
        },
        {
          "internalType": "string",
          "name": "image_",
          "type": "string"
        },
        {
          "internalType": "string",
          "name": "category_",
          "type": "string"
        },
        {
          "internalType": "string",
          "name": "genre_",
          "type": "string"
        },
        {
          "internalType": "string",
          "name": "subgenre_",
          "type": "string"
        },
        {
          "internalType": "uint8",
          "name": "timelineInDays_",
          "type": "uint8"
        },
        {
          "internalType": "uint256",
          "name": "minFundingAmount_",
          "type": "uint256"
        },
        {
          "internalType": "string",
          "name": "deliverableMedium_",
          "type": "string"
        }
      ],
      "name": "createCallForFunds",
      "outputs": [
        {
          "internalType": "address",
          "name": "proxy",
          "type": "address"
        }
      ],
      "stateMutability": "nonpayable",
      "type": "function"
    },
    {
      "inputs": [],
      "name": "logicAddress",
      "outputs": [
        {
          "internalType": "address",
          "name": "",
          "type": "address"
        }
      ],
      "stateMutability": "view",
      "type": "function"
    },
    {
      "inputs": [
        {
          "internalType": "address",
          "name": "",
          "type": "address"
        }
      ],
      "name": "proxies",
      "outputs": [
        {
          "internalType": "bool",
          "name": "",
          "type": "bool"
        }
      ],
      "stateMutability": "view",
      "type": "function"
    }
  ],
  "bytecode": "0x60a060405234801561001057600080fd5b50604051611d68380380611d6883398181016040528101906100329190610084565b8073ffffffffffffffffffffffffffffffffffffffff1660808173ffffffffffffffffffffffffffffffffffffffff1660601b81525050506100f6565b60008151905061007e816100df565b92915050565b60006020828403121561009657600080fd5b60006100a48482850161006f565b91505092915050565b60006100b8826100bf565b9050919050565b600073ffffffffffffffffffffffffffffffffffffffff82169050919050565b6100e8816100ad565b81146100f357600080fd5b50565b60805160601c611c5461011460003960006102340152611c546000f3fe60806040523480156200001157600080fd5b5060043610620000465760003560e01c80631912d37d146200004b5780639c1fcc4c1462000081578063c455279114620000a3575b600080fd5b62000069600480360381019062000063919062000367565b620000d9565b60405162000078919062000574565b60405180910390f35b6200008b62000232565b6040516200009a919062000574565b60405180910390f35b620000c16004803603810190620000bb91906200033b565b62000256565b604051620000d09190620006a6565b60405180910390f35b6000338a604051602001620000f092919062000591565b60405160208183030381529060405280519060200120338b8b8b8b8b8b898c8c6040516200011e9062000276565b620001339a99989796959493929190620005c5565b8190604051809103906000f590508015801562000154573d6000803e3d6000fd5b5090503373ffffffffffffffffffffffffffffffffffffffff168173ffffffffffffffffffffffffffffffffffffffff167f25d863c4e6e60e0de879c494f280ce86e712fe860ebb0431f906ef6a4d6a28e58c8c8c8c8c8c8c8c8c604051620001c699989796959493929190620006c3565b60405180910390a360016000808373ffffffffffffffffffffffffffffffffffffffff1673ffffffffffffffffffffffffffffffffffffffff16815260200190815260200160002060006101000a81548160ff0219169083151502179055509998505050505050505050565b7f000000000000000000000000000000000000000000000000000000000000000081565b60006020528060005260406000206000915054906101000a900460ff1681565b6112b0806200096f83390190565b60006200029b6200029584620007bc565b62000793565b905082815260208101848484011115620002b457600080fd5b620002c184828562000865565b509392505050565b600081359050620002da8162000920565b92915050565b600082601f830112620002f257600080fd5b81356200030484826020860162000284565b91505092915050565b6000813590506200031e816200093a565b92915050565b600081359050620003358162000954565b92915050565b6000602082840312156200034e57600080fd5b60006200035e84828501620002c9565b91505092915050565b60008060008060008060008060006101208a8c0312156200038757600080fd5b60008a013567ffffffffffffffff811115620003a257600080fd5b620003b08c828d01620002e0565b99505060208a013567ffffffffffffffff811115620003ce57600080fd5b620003dc8c828d01620002e0565b98505060408a013567ffffffffffffffff811115620003fa57600080fd5b620004088c828d01620002e0565b97505060608a013567ffffffffffffffff8111156200042657600080fd5b620004348c828d01620002e0565b96505060808a013567ffffffffffffffff8111156200045257600080fd5b620004608c828d01620002e0565b95505060a08a013567ffffffffffffffff8111156200047e57600080fd5b6200048c8c828d01620002e0565b94505060c06200049f8c828d0162000324565b93505060e0620004b28c828d016200030d565b9250506101008a013567ffffffffffffffff811115620004d157600080fd5b620004df8c828d01620002e0565b9150509295985092959850929598565b620004fa816200080e565b82525050565b6200050b8162000822565b82525050565b60006200051e82620007f2565b6200052a8185620007fd565b93506200053c81856020860162000874565b62000547816200090f565b840191505092915050565b6200055d816200084e565b82525050565b6200056e8162000858565b82525050565b60006020820190506200058b6000830184620004ef565b92915050565b6000604082019050620005a86000830185620004ef565b8181036020830152620005bc818462000511565b90509392505050565b600061014082019050620005dd600083018d620004ef565b8181036020830152620005f1818c62000511565b9050818103604083015262000607818b62000511565b905081810360608301526200061d818a62000511565b9050818103608083015262000633818962000511565b905081810360a083015262000649818862000511565b905081810360c08301526200065f818762000511565b905081810360e083015262000675818662000511565b90506200068761010083018562000563565b6200069761012083018462000552565b9b9a5050505050505050505050565b6000602082019050620006bd600083018462000500565b92915050565b6000610120820190508181036000830152620006e0818c62000511565b90508181036020830152620006f6818b62000511565b905081810360408301526200070c818a62000511565b9050818103606083015262000722818962000511565b9050818103608083015262000738818862000511565b905081810360a08301526200074e818762000511565b90506200075f60c083018662000563565b6200076e60e083018562000552565b81810361010083015262000783818462000511565b90509a9950505050505050505050565b60006200079f620007b2565b9050620007ad8282620008aa565b919050565b6000604051905090565b600067ffffffffffffffff821115620007da57620007d9620008e0565b5b620007e5826200090f565b9050602081019050919050565b600081519050919050565b600082825260208201905092915050565b60006200081b826200082e565b9050919050565b60008115159050919050565b600073ffffffffffffffffffffffffffffffffffffffff82169050919050565b6000819050919050565b600060ff82169050919050565b82818337600083830152505050565b60005b838110156200089457808201518184015260208101905062000877565b83811115620008a4576000848401525b50505050565b620008b5826200090f565b810181811067ffffffffffffffff82111715620008d757620008d6620008e0565b5b80604052505050565b7f4e487b7100000000000000000000000000000000000000000000000000000000600052604160045260246000fd5b6000601f19601f8301169050919050565b6200092b816200080e565b81146200093757600080fd5b50565b62000945816200084e565b81146200095157600080fd5b50565b6200095f8162000858565b81146200096b57600080fd5b5056fe60806040523480156200001157600080fd5b50604051620012b0380380620012b083398181016040528101906200003791906200041a565b3373ffffffffffffffffffffffffffffffffffffffff16639c1fcc4c6040518163ffffffff1660e01b8152600401602060405180830381600087803b1580156200008057600080fd5b505af115801562000095573d6000803e3d6000fd5b505050506040513d601f19601f82011682018060405250810190620000bb9190620003ee565b6000806101000a81548173ffffffffffffffffffffffffffffffffffffffff021916908373ffffffffffffffffffffffffffffffffffffffff16021790555089600160006101000a81548173ffffffffffffffffffffffffffffffffffffffff021916908373ffffffffffffffffffffffffffffffffffffffff16021790555088600290805190602001906200015392919062000287565b5087600390805190602001906200016c92919062000287565b5086600490805190602001906200018592919062000287565b5085600590805190602001906200019e92919062000287565b508460069080519060200190620001b792919062000287565b508360079080519060200190620001d092919062000287565b508260089080519060200190620001e992919062000287565b508160ff16600960006101000a8154816bffffffffffffffffffffffff02191690836bffffffffffffffffffffffff16021790555080600a819055506000600c60006101000a81548160ff0219169083600481111562000272577f4e487b7100000000000000000000000000000000000000000000000000000000600052602160045260246000fd5b021790555050505050505050505050620007c2565b828054620002959062000699565b90600052602060002090601f016020900481019282620002b9576000855562000305565b82601f10620002d457805160ff191683800117855562000305565b8280016001018555821562000305579182015b8281111562000304578251825591602001919060010190620002e7565b5b50905062000314919062000318565b5090565b5b808211156200033357600081600090555060010162000319565b5090565b60006200034e6200034884620005e2565b620005b9565b9050828152602081018484840111156200036757600080fd5b6200037484828562000663565b509392505050565b6000815190506200038d8162000774565b92915050565b600082601f830112620003a557600080fd5b8151620003b784826020860162000337565b91505092915050565b600081519050620003d1816200078e565b92915050565b600081519050620003e881620007a8565b92915050565b6000602082840312156200040157600080fd5b600062000411848285016200037c565b91505092915050565b6000806000806000806000806000806101408b8d0312156200043b57600080fd5b60006200044b8d828e016200037c565b9a505060208b015167ffffffffffffffff8111156200046957600080fd5b620004778d828e0162000393565b99505060408b015167ffffffffffffffff8111156200049557600080fd5b620004a38d828e0162000393565b98505060608b015167ffffffffffffffff811115620004c157600080fd5b620004cf8d828e0162000393565b97505060808b015167ffffffffffffffff811115620004ed57600080fd5b620004fb8d828e0162000393565b96505060a08b015167ffffffffffffffff8111156200051957600080fd5b620005278d828e0162000393565b95505060c08b015167ffffffffffffffff8111156200054557600080fd5b620005538d828e0162000393565b94505060e08b015167ffffffffffffffff8111156200057157600080fd5b6200057f8d828e0162000393565b935050610100620005938d828e01620003d7565b925050610120620005a78d828e01620003c0565b9150509295989b9194979a5092959850565b6000620005c5620005d8565b9050620005d38282620006cf565b919050565b6000604051905090565b600067ffffffffffffffff8211156200060057620005ff62000734565b5b6200060b8262000763565b9050602081019050919050565b600062000625826200062c565b9050919050565b600073ffffffffffffffffffffffffffffffffffffffff82169050919050565b6000819050919050565b600060ff82169050919050565b60005b838110156200068357808201518184015260208101905062000666565b8381111562000693576000848401525b50505050565b60006002820490506001821680620006b257607f821691505b60208210811415620006c957620006c862000705565b5b50919050565b620006da8262000763565b810181811067ffffffffffffffff82111715620006fc57620006fb62000734565b5b80604052505050565b7f4e487b7100000000000000000000000000000000000000000000000000000000600052602260045260246000fd5b7f4e487b7100000000000000000000000000000000000000000000000000000000600052604160045260246000fd5b6000601f19601f8301169050919050565b6200077f8162000618565b81146200078b57600080fd5b50565b62000799816200064c565b8114620007a557600080fd5b50565b620007b38162000656565b8114620007bf57600080fd5b50565b610ade80620007d26000396000f3fe6080604052600436106100c65760003560e01c80639cf0bd0d1161007f578063c791316e11610059578063c791316e14610297578063e6851127146102c2578063ef430aa6146102ed578063f3ccaac014610318576100c7565b80639cf0bd0d14610216578063ab115d7214610241578063b25cdccf1461026c576100c7565b806302d05d3f1461011457806317de3a411461013f5780634a79d50c1461016a5780637284e416146101955780638e22ce1d146101c05780639699119d146101eb576100c7565b5b60008060009054906101000a900473ffffffffffffffffffffffffffffffffffffffff16905060405136600082376000803683855af43d806000843e8160008114610110578184f35b8184fd5b34801561012057600080fd5b50610129610343565b604051610136919061089d565b60405180910390f35b34801561014b57600080fd5b50610154610369565b60405161016191906108d3565b60405180910390f35b34801561017657600080fd5b5061017f6103f7565b60405161018c91906108d3565b60405180910390f35b3480156101a157600080fd5b506101aa610485565b6040516101b791906108d3565b60405180910390f35b3480156101cc57600080fd5b506101d5610513565b6040516101e2919061089d565b60405180910390f35b3480156101f757600080fd5b5061020061052b565b60405161020d9190610910565b60405180910390f35b34801561022257600080fd5b5061022b610549565b60405161023891906108d3565b60405180910390f35b34801561024d57600080fd5b506102566105d7565b60405161026391906108d3565b60405180910390f35b34801561027857600080fd5b50610281610665565b60405161028e91906108b8565b60405180910390f35b3480156102a357600080fd5b506102ac610678565b6040516102b991906108f5565b60405180910390f35b3480156102ce57600080fd5b506102d761067e565b6040516102e491906108d3565b60405180910390f35b3480156102f957600080fd5b5061030261070c565b60405161030f91906108d3565b60405180910390f35b34801561032457600080fd5b5061032d61079a565b60405161033a91906108d3565b60405180910390f35b600160009054906101000a900473ffffffffffffffffffffffffffffffffffffffff1681565b60068054610376906109f3565b80601f01602080910402602001604051908101604052809291908181526020018280546103a2906109f3565b80156103ef5780601f106103c4576101008083540402835291602001916103ef565b820191906000526020600020905b8154815290600101906020018083116103d257829003601f168201915b505050505081565b60028054610404906109f3565b80601f0160208091040260200160405190810160405280929190818152602001828054610430906109f3565b801561047d5780601f106104525761010080835404028352916020019161047d565b820191906000526020600020905b81548152906001019060200180831161046057829003601f168201915b505050505081565b60038054610492906109f3565b80601f01602080910402602001604051908101604052809291908181526020018280546104be906109f3565b801561050b5780601f106104e05761010080835404028352916020019161050b565b820191906000526020600020905b8154815290600101906020018083116104ee57829003601f168201915b505050505081565b73a4e987fb3808d9fc206112967477793ea838945081565b600960009054906101000a90046bffffffffffffffffffffffff1681565b60088054610556906109f3565b80601f0160208091040260200160405190810160405280929190818152602001828054610582906109f3565b80156105cf5780601f106105a4576101008083540402835291602001916105cf565b820191906000526020600020905b8154815290600101906020018083116105b257829003601f168201915b505050505081565b600780546105e4906109f3565b80601f0160208091040260200160405190810160405280929190818152602001828054610610906109f3565b801561065d5780601f106106325761010080835404028352916020019161065d565b820191906000526020600020905b81548152906001019060200180831161064057829003601f168201915b505050505081565b600c60009054906101000a900460ff1681565b600a5481565b600b805461068b906109f3565b80601f01602080910402602001604051908101604052809291908181526020018280546106b7906109f3565b80156107045780601f106106d957610100808354040283529160200191610704565b820191906000526020600020905b8154815290600101906020018083116106e757829003601f168201915b505050505081565b60058054610719906109f3565b80601f0160208091040260200160405190810160405280929190818152602001828054610745906109f3565b80156107925780601f1061076757610100808354040283529160200191610792565b820191906000526020600020905b81548152906001019060200180831161077557829003601f168201915b505050505081565b600480546107a7906109f3565b80601f01602080910402602001604051908101604052809291908181526020018280546107d3906109f3565b80156108205780601f106107f557610100808354040283529160200191610820565b820191906000526020600020905b81548152906001019060200180831161080357829003601f168201915b505050505081565b61083181610947565b82525050565b610840816109ae565b82525050565b60006108518261092b565b61085b8185610936565b935061086b8185602086016109c0565b61087481610a83565b840191505092915050565b6108888161098c565b82525050565b61089781610996565b82525050565b60006020820190506108b26000830184610828565b92915050565b60006020820190506108cd6000830184610837565b92915050565b600060208201905081810360008301526108ed8184610846565b905092915050565b600060208201905061090a600083018461087f565b92915050565b6000602082019050610925600083018461088e565b92915050565b600081519050919050565b600082825260208201905092915050565b60006109528261096c565b9050919050565b600081905061096782610a94565b919050565b600073ffffffffffffffffffffffffffffffffffffffff82169050919050565b6000819050919050565b60006bffffffffffffffffffffffff82169050919050565b60006109b982610959565b9050919050565b60005b838110156109de5780820151818401526020810190506109c3565b838111156109ed576000848401525b50505050565b60006002820490506001821680610a0b57607f821691505b60208210811415610a1f57610a1e610a54565b5b50919050565b7f4e487b7100000000000000000000000000000000000000000000000000000000600052602160045260246000fd5b7f4e487b7100000000000000000000000000000000000000000000000000000000600052602260045260246000fd5b6000601f19601f8301169050919050565b60058110610aa557610aa4610a25565b5b5056fea2646970667358221220a5380e14f060ace0e710baeadfd746b5d0ce2dc5fb4b821d45a690b7e06bf52764736f6c63430008040033a2646970667358221220c0bd1d262d3cd05e47f7f2758d0ca972181945686faae6b9d460ff7ac822113a64736f6c63430008040033",
  "linkReferences": {},
  "deployedLinkReferences": {}
}