{
  "_format": "hh-sol-artifact-1",
  "contractName": "CallForFundsLogic",
  "sourceName": "contracts/CallForFundsLogic.sol",
  "abi": [
    {
      "inputs": [
        {
          "internalType": "address",
          "name": "crowdCommission_",
          "type": "address"
        },
        {
          "internalType": "address",
          "name": "smartArt_",
          "type": "address"
        },
        {
          "internalType": "contract ISuperfluid",
          "name": "host",
          "type": "address"
        },
        {
          "internalType": "contract IConstantFlowAgreementV1",
          "name": "cfa",
          "type": "address"
        },
        {
          "internalType": "contract ISETH",
          "name": "ethx",
          "type": "address"
        }
      ],
      "stateMutability": "nonpayable",
      "type": "constructor"
    },
    {
      "anonymous": false,
      "inputs": [
        {
          "indexed": true,
          "internalType": "uint256",
          "name": "amountMatched",
          "type": "uint256"
        }
      ],
      "name": "CallMatched",
      "type": "event"
    },
    {
      "anonymous": false,
      "inputs": [
        {
          "indexed": true,
          "internalType": "address",
          "name": "donator",
          "type": "address"
        },
        {
          "indexed": false,
          "internalType": "uint256",
          "name": "amount",
          "type": "uint256"
        }
      ],
      "name": "ContributionReceivedETH",
      "type": "event"
    },
    {
      "anonymous": false,
      "inputs": [
        {
          "indexed": true,
          "internalType": "enum CallForFundsStorage.FundingState",
          "name": "newFundingState",
          "type": "uint8"
        }
      ],
      "name": "FundingStateChanged",
      "type": "event"
    },
    {
      "anonymous": false,
      "inputs": [
        {
          "indexed": true,
          "internalType": "address[]",
          "name": "addresses",
          "type": "address[]"
        },
        {
          "indexed": true,
          "internalType": "uint256[]",
          "name": "amounts",
          "type": "uint256[]"
        }
      ],
      "name": "RefundCompleted",
      "type": "event"
    },
    {
      "anonymous": false,
      "inputs": [],
      "name": "StreamStarted",
      "type": "event"
    },
    {
      "anonymous": false,
      "inputs": [
        {
          "indexed": false,
          "internalType": "string",
          "name": "deliverableURI",
          "type": "string"
        }
      ],
      "name": "WorkDelivered",
      "type": "event"
    },
    {
      "inputs": [],
      "name": "category",
      "outputs": [
        {
          "internalType": "string",
          "name": "",
          "type": "string"
        }
      ],
      "stateMutability": "view",
      "type": "function"
    },
    {
      "inputs": [],
      "name": "creator",
      "outputs": [
        {
          "internalType": "address",
          "name": "",
          "type": "address"
        }
      ],
      "stateMutability": "view",
      "type": "function"
    },
    {
      "inputs": [],
      "name": "crowdCommission",
      "outputs": [
        {
          "internalType": "address",
          "name": "",
          "type": "address"
        }
      ],
      "stateMutability": "view",
      "type": "function"
    },
    {
      "inputs": [
        {
          "internalType": "string",
          "name": "deliverableURI_",
          "type": "string"
        }
      ],
      "name": "deliver",
      "outputs": [],
      "stateMutability": "nonpayable",
      "type": "function"
    },
    {
      "inputs": [],
      "name": "deliverableMedium",
      "outputs": [
        {
          "internalType": "string",
          "name": "",
          "type": "string"
        }
      ],
      "stateMutability": "view",
      "type": "function"
    },
    {
      "inputs": [],
      "name": "deliverableURI",
      "outputs": [
        {
          "internalType": "string",
          "name": "",
          "type": "string"
        }
      ],
      "stateMutability": "view",
      "type": "function"
    },
    {
      "inputs": [],
      "name": "description",
      "outputs": [
        {
          "internalType": "string",
          "name": "",
          "type": "string"
        }
      ],
      "stateMutability": "view",
      "type": "function"
    },
    {
      "inputs": [],
      "name": "factory",
      "outputs": [
        {
          "internalType": "address",
          "name": "",
          "type": "address"
        }
      ],
      "stateMutability": "view",
      "type": "function"
    },
    {
      "inputs": [],
      "name": "fundingState",
      "outputs": [
        {
          "internalType": "enum CallForFundsStorage.FundingState",
          "name": "",
          "type": "uint8"
        }
      ],
      "stateMutability": "view",
      "type": "function"
    },
    {
      "inputs": [],
      "name": "genre",
      "outputs": [
        {
          "internalType": "string",
          "name": "",
          "type": "string"
        }
      ],
      "stateMutability": "view",
      "type": "function"
    },
    {
      "inputs": [],
      "name": "image",
      "outputs": [
        {
          "internalType": "string",
          "name": "",
          "type": "string"
        }
      ],
      "stateMutability": "view",
      "type": "function"
    },
    {
      "inputs": [],
      "name": "loudverseAdmin",
      "outputs": [
        {
          "internalType": "address",
          "name": "",
          "type": "address"
        }
      ],
      "stateMutability": "view",
      "type": "function"
    },
    {
      "inputs": [
        {
          "internalType": "address[]",
          "name": "funders",
          "type": "address[]"
        },
        {
          "internalType": "uint256",
          "name": "id",
          "type": "uint256"
        },
        {
          "internalType": "bytes",
          "name": "data",
          "type": "bytes"
        }
      ],
      "name": "matchCallForFunds",
      "outputs": [],
      "stateMutability": "payable",
      "type": "function"
    },
    {
      "inputs": [],
      "name": "minFundingAmount",
      "outputs": [
        {
          "internalType": "uint256",
          "name": "",
          "type": "uint256"
        }
      ],
      "stateMutability": "view",
      "type": "function"
    },
    {
      "inputs": [
        {
          "internalType": "address[]",
          "name": "funders",
          "type": "address[]"
        },
        {
          "internalType": "uint256",
          "name": "id",
          "type": "uint256"
        },
        {
          "internalType": "bytes",
          "name": "data",
          "type": "bytes"
        }
      ],
      "name": "mintCrowdCommission",
      "outputs": [],
      "stateMutability": "nonpayable",
      "type": "function"
    },
    {
      "inputs": [
        {
          "internalType": "address",
          "name": "to",
          "type": "address"
        },
        {
          "internalType": "address",
          "name": "royaltyRecipient",
          "type": "address"
        },
        {
          "internalType": "uint256",
          "name": "royaltyValue",
          "type": "uint256"
        },
        {
          "internalType": "string",
          "name": "uri",
          "type": "string"
        }
      ],
      "name": "mintSmartArt",
      "outputs": [],
      "stateMutability": "nonpayable",
      "type": "function"
    },
    {
      "inputs": [
        {
          "internalType": "address[]",
          "name": "addresses",
          "type": "address[]"
        },
        {
          "internalType": "uint256[]",
          "name": "amounts",
          "type": "uint256[]"
        }
      ],
      "name": "refund",
      "outputs": [],
      "stateMutability": "nonpayable",
      "type": "function"
    },
    {
      "inputs": [
        {
          "internalType": "address",
          "name": "factoryAddress",
          "type": "address"
        }
      ],
      "name": "setFactory",
      "outputs": [],
      "stateMutability": "nonpayable",
      "type": "function"
    },
    {
      "inputs": [],
      "name": "smartArt",
      "outputs": [
        {
          "internalType": "address",
          "name": "",
          "type": "address"
        }
      ],
      "stateMutability": "view",
      "type": "function"
    },
    {
      "inputs": [],
      "name": "startStream",
      "outputs": [],
      "stateMutability": "nonpayable",
      "type": "function"
    },
    {
      "inputs": [],
      "name": "subgenre",
      "outputs": [
        {
          "internalType": "string",
          "name": "",
          "type": "string"
        }
      ],
      "stateMutability": "view",
      "type": "function"
    },
    {
      "inputs": [],
      "name": "timelineInDays",
      "outputs": [
        {
          "internalType": "uint96",
          "name": "",
          "type": "uint96"
        }
      ],
      "stateMutability": "view",
      "type": "function"
    },
    {
      "inputs": [],
      "name": "title",
      "outputs": [
        {
          "internalType": "string",
          "name": "",
          "type": "string"
        }
      ],
      "stateMutability": "view",
      "type": "function"
    },
    {
      "stateMutability": "payable",
      "type": "receive"
    }
  ],
  "bytecode": "0x60c06040523480156200001157600080fd5b5060405162002f1938038062002f198339818101604052810190620000379190620001cf565b8473ffffffffffffffffffffffffffffffffffffffff1660808173ffffffffffffffffffffffffffffffffffffffff1660601b815250508373ffffffffffffffffffffffffffffffffffffffff1660a08173ffffffffffffffffffffffffffffffffffffffff1660601b8152505082600d60006101000a81548173ffffffffffffffffffffffffffffffffffffffff021916908373ffffffffffffffffffffffffffffffffffffffff16021790555081600e60006101000a81548173ffffffffffffffffffffffffffffffffffffffff021916908373ffffffffffffffffffffffffffffffffffffffff16021790555080600f60006101000a81548173ffffffffffffffffffffffffffffffffffffffff021916908373ffffffffffffffffffffffffffffffffffffffff160217905550505050505062000329565b6000815190506200018481620002c1565b92915050565b6000815190506200019b81620002db565b92915050565b600081519050620001b281620002f5565b92915050565b600081519050620001c9816200030f565b92915050565b600080600080600060a08688031215620001e857600080fd5b6000620001f88882890162000173565b95505060206200020b8882890162000173565b94505060406200021e88828901620001b8565b935050606062000231888289016200018a565b92505060806200024488828901620001a1565b9150509295509295909350565b60006200025e82620002a1565b9050919050565b6000620002728262000251565b9050919050565b6000620002868262000251565b9050919050565b60006200029a8262000251565b9050919050565b600073ffffffffffffffffffffffffffffffffffffffff82169050919050565b620002cc8162000251565b8114620002d857600080fd5b50565b620002e68162000265565b8114620002f257600080fd5b50565b620003008162000279565b81146200030c57600080fd5b50565b6200031a816200028d565b81146200032657600080fd5b50565b60805160601c60a05160601c612bb66200036360003960008181610dd3015261162b01526000818161145d015261170a0152612bb66000f3fe6080604052600436106101445760003560e01c8063b25cdccf116100b6578063d2ac31821161006f578063d2ac3182146104d0578063e6851127146104fb578063ef430aa614610526578063f3ccaac014610551578063f66c3ff41461057c578063fe5a6fd1146105a75761021b565b8063b25cdccf146103e6578063b49ab7f614610411578063b574d0711461043a578063c091c43514610451578063c45a01551461047a578063c791316e146104a55761021b565b80637284e416116101085780637284e416146102e65780638e22ce1d1461031157806391098ee41461033c5780639699119d146103655780639cf0bd0d14610390578063ab115d72146103bb5761021b565b806302d05d3f146102205780630e212fad1461024b57806317de3a41146102675780634a79d50c146102925780635bb47808146102bd5761021b565b3661021b573373ffffffffffffffffffffffffffffffffffffffff167f2f0f1ca72899668d93500f451ad66c0a4e9f7f3f4974f3206c27069fb2c7f2b13460405161018f9190612499565b60405180910390a2600f60009054906101000a900473ffffffffffffffffffffffffffffffffffffffff1673ffffffffffffffffffffffffffffffffffffffff1663cf81464b6040518163ffffffff1660e01b8152600401600060405180830381600087803b15801561020157600080fd5b505af1158015610215573d6000803e3d6000fd5b50505050005b600080fd5b34801561022c57600080fd5b506102356105d0565b60405161024291906122b1565b60405180910390f35b61026560048036038101906102609190611d32565b6105f6565b005b34801561027357600080fd5b5061027c61079e565b6040516102899190612455565b60405180910390f35b34801561029e57600080fd5b506102a761082c565b6040516102b49190612455565b60405180910390f35b3480156102c957600080fd5b506102e460048036038101906102df9190611c8e565b6108ba565b005b3480156102f257600080fd5b506102fb61094a565b6040516103089190612455565b60405180910390f35b34801561031d57600080fd5b506103266109d8565b60405161033391906122b1565b60405180910390f35b34801561034857600080fd5b50610363600480360381019061035e9190611eef565b6109f0565b005b34801561037157600080fd5b5061037a610bc9565b60405161038791906124b4565b60405180910390f35b34801561039c57600080fd5b506103a5610be7565b6040516103b29190612455565b60405180910390f35b3480156103c757600080fd5b506103d0610c75565b6040516103dd9190612455565b60405180910390f35b3480156103f257600080fd5b506103fb610d03565b604051610408919061243a565b60405180910390f35b34801561041d57600080fd5b5061043860048036038101906104339190611cb7565b610d16565b005b34801561044657600080fd5b5061044f610e69565b005b34801561045d57600080fd5b5061047860048036038101906104739190611db6565b61123c565b005b34801561048657600080fd5b5061048f61142f565b60405161049c91906122b1565b60405180910390f35b3480156104b157600080fd5b506104ba611455565b6040516104c79190612499565b60405180910390f35b3480156104dc57600080fd5b506104e561145b565b6040516104f291906122b1565b60405180910390f35b34801561050757600080fd5b5061051061147f565b60405161051d9190612455565b60405180910390f35b34801561053257600080fd5b5061053b61150d565b6040516105489190612455565b60405180910390f35b34801561055d57600080fd5b5061056661159b565b6040516105739190612455565b60405180910390f35b34801561058857600080fd5b50610591611629565b60405161059e91906122b1565b60405180910390f35b3480156105b357600080fd5b506105ce60048036038101906105c99190611d32565b61164d565b005b600160009054906101000a900473ffffffffffffffffffffffffffffffffffffffff1681565b73a4e987fb3808d9fc206112967477793ea838945073ffffffffffffffffffffffffffffffffffffffff163373ffffffffffffffffffffffffffffffffffffffff161461064257600080fd5b600080600481111561067d577f4e487b7100000000000000000000000000000000000000000000000000000000600052602160045260246000fd5b600c60009054906101000a900460ff1660048111156106c5577f4e487b7100000000000000000000000000000000000000000000000000000000600052602160045260246000fd5b146106cf57600080fd5b6106d960026117a0565b347f2731c7491ce2f19381bc96e6c488a4e45d345b5efa893b339dd94e549f26477c60405160405180910390a260008054906101000a900473ffffffffffffffffffffffffffffffffffffffff1673ffffffffffffffffffffffffffffffffffffffff1663fe5a6fd1868686866040518563ffffffff1660e01b81526004016107659493929190612364565b600060405180830381600087803b15801561077f57600080fd5b505af1158015610793573d6000803e3d6000fd5b505050505050505050565b600680546107ab9061293c565b80601f01602080910402602001604051908101604052809291908181526020018280546107d79061293c565b80156108245780601f106107f957610100808354040283529160200191610824565b820191906000526020600020905b81548152906001019060200180831161080757829003601f168201915b505050505081565b600280546108399061293c565b80601f01602080910402602001604051908101604052809291908181526020018280546108659061293c565b80156108b25780601f10610887576101008083540402835291602001916108b2565b820191906000526020600020905b81548152906001019060200180831161089557829003601f168201915b505050505081565b73a4e987fb3808d9fc206112967477793ea838945073ffffffffffffffffffffffffffffffffffffffff163373ffffffffffffffffffffffffffffffffffffffff161461090657600080fd5b80600c60016101000a81548173ffffffffffffffffffffffffffffffffffffffff021916908373ffffffffffffffffffffffffffffffffffffffff16021790555050565b600380546109579061293c565b80601f01602080910402602001604051908101604052809291908181526020018280546109839061293c565b80156109d05780601f106109a5576101008083540402835291602001916109d0565b820191906000526020600020905b8154815290600101906020018083116109b357829003601f168201915b505050505081565b73a4e987fb3808d9fc206112967477793ea838945081565b600160009054906101000a900473ffffffffffffffffffffffffffffffffffffffff1673ffffffffffffffffffffffffffffffffffffffff163373ffffffffffffffffffffffffffffffffffffffff1614610a4a57600080fd5b6003806004811115610a85577f4e487b7100000000000000000000000000000000000000000000000000000000600052602160045260246000fd5b600c60009054906101000a900460ff166004811115610acd577f4e487b7100000000000000000000000000000000000000000000000000000000600052602160045260246000fd5b14610ad757600080fd5b81600b9080519060200190610aed9291906118d4565b50610af860046117a0565b7fcb7230e908facd21b119ab7a11e0247b8d5374e49d8cc50fa9a53b7601f237c9600b604051610b289190612477565b60405180910390a16000808054906101000a900473ffffffffffffffffffffffffffffffffffffffff1673ffffffffffffffffffffffffffffffffffffffff1663b49ab7f633836103e8876040518563ffffffff1660e01b8152600401610b9294939291906122cc565b600060405180830381600087803b158015610bac57600080fd5b505af1158015610bc0573d6000803e3d6000fd5b50505050505050565b600960009054906101000a90046bffffffffffffffffffffffff1681565b60088054610bf49061293c565b80601f0160208091040260200160405190810160405280929190818152602001828054610c209061293c565b8015610c6d5780601f10610c4257610100808354040283529160200191610c6d565b820191906000526020600020905b815481529060010190602001808311610c5057829003601f168201915b505050505081565b60078054610c829061293c565b80601f0160208091040260200160405190810160405280929190818152602001828054610cae9061293c565b8015610cfb5780601f10610cd057610100808354040283529160200191610cfb565b820191906000526020600020905b815481529060010190602001808311610cde57829003601f168201915b505050505081565b600c60009054906101000a900460ff1681565b6000600c60019054906101000a900473ffffffffffffffffffffffffffffffffffffffff1673ffffffffffffffffffffffffffffffffffffffff1663c4552791336040518263ffffffff1660e01b8152600401610d7391906122b1565b602060405180830381600087803b158015610d8d57600080fd5b505af1158015610da1573d6000803e3d6000fd5b505050506040513d601f19601f82011682018060405250810190610dc59190611e22565b905080610dd157600080fd5b7f000000000000000000000000000000000000000000000000000000000000000073ffffffffffffffffffffffffffffffffffffffff1663b85cbc79868686866040518563ffffffff1660e01b8152600401610e309493929190612318565b600060405180830381600087803b158015610e4a57600080fd5b505af1158015610e5e573d6000803e3d6000fd5b505050505050505050565b600160009054906101000a900473ffffffffffffffffffffffffffffffffffffffff1673ffffffffffffffffffffffffffffffffffffffff163373ffffffffffffffffffffffffffffffffffffffff1614610ec357600080fd5b6002806004811115610efe577f4e487b7100000000000000000000000000000000000000000000000000000000600052602160045260246000fd5b600c60009054906101000a900460ff166004811115610f46577f4e487b7100000000000000000000000000000000000000000000000000000000600052602160045260246000fd5b14610f5057600080fd5b6000600f60009054906101000a900473ffffffffffffffffffffffffffffffffffffffff1673ffffffffffffffffffffffffffffffffffffffff16632ec8eec7306040518263ffffffff1660e01b8152600401610fad91906122b1565b60806040518083038186803b158015610fc557600080fd5b505afa158015610fd9573d6000803e3d6000fd5b505050506040513d601f19601f82011682018060405250810190610ffd9190611e8c565b5050509050600062015180600960009054906101000a90046bffffffffffffffffffffffff1661102d9190612715565b905060008290506000828261104291906126ab565b9050600d60009054906101000a900473ffffffffffffffffffffffffffffffffffffffff1673ffffffffffffffffffffffffffffffffffffffff166339255d5b600e60009054906101000a900473ffffffffffffffffffffffffffffffffffffffff166362fc305e60e01b600f60009054906101000a900473ffffffffffffffffffffffffffffffffffffffff163386600067ffffffffffffffff811115611113577f4e487b7100000000000000000000000000000000000000000000000000000000600052604160045260246000fd5b6040519080825280601f01601f1916602001820160405280156111455781602001600182028036833780820191505090505b5060405160240161115994939291906123ee565b604051602081830303815290604052907bffffffffffffffffffffffffffffffffffffffffffffffffffffffff19166020820180517bffffffffffffffffffffffffffffffffffffffffffffffffffffffff83818316178352505050506040518363ffffffff1660e01b81526004016111d39291906123ab565b600060405180830381600087803b1580156111ed57600080fd5b505af1158015611201573d6000803e3d6000fd5b505050506040513d6000823e3d601f19601f8201168201806040525081019061122a9190611e4b565b5061123560036117a0565b5050505050565b73a4e987fb3808d9fc206112967477793ea838945073ffffffffffffffffffffffffffffffffffffffff163373ffffffffffffffffffffffffffffffffffffffff161461128857600080fd5b60018060048111156112c3577f4e487b7100000000000000000000000000000000000000000000000000000000600052602160045260246000fd5b600c60009054906101000a900460ff16600481111561130b577f4e487b7100000000000000000000000000000000000000000000000000000000600052602160045260246000fd5b1461131557600080fd5b6000600190505b83518110156113d15760006113b1858381518110611363577f4e487b7100000000000000000000000000000000000000000000000000000000600052603260045260246000fd5b60200260200101518584815181106113a4577f4e487b7100000000000000000000000000000000000000000000000000000000600052603260045260246000fd5b6020026020010151611858565b9050806113bd57600080fd5b5080806113c99061299f565b91505061131c565b50816040516113e09190612285565b6040518091039020836040516113f6919061226e565b60405180910390207f598d84241bfe93913995b638c1692ad8e8d01110f5bd1af00f0c68e095044c3d60405160405180910390a3505050565b600c60019054906101000a900473ffffffffffffffffffffffffffffffffffffffff1681565b600a5481565b7f000000000000000000000000000000000000000000000000000000000000000081565b600b805461148c9061293c565b80601f01602080910402602001604051908101604052809291908181526020018280546114b89061293c565b80156115055780601f106114da57610100808354040283529160200191611505565b820191906000526020600020905b8154815290600101906020018083116114e857829003601f168201915b505050505081565b6005805461151a9061293c565b80601f01602080910402602001604051908101604052809291908181526020018280546115469061293c565b80156115935780601f1061156857610100808354040283529160200191611593565b820191906000526020600020905b81548152906001019060200180831161157657829003601f168201915b505050505081565b600480546115a89061293c565b80601f01602080910402602001604051908101604052809291908181526020018280546115d49061293c565b80156116215780601f106115f657610100808354040283529160200191611621565b820191906000526020600020905b81548152906001019060200180831161160457829003601f168201915b505050505081565b7f000000000000000000000000000000000000000000000000000000000000000081565b6000600c60019054906101000a900473ffffffffffffffffffffffffffffffffffffffff1673ffffffffffffffffffffffffffffffffffffffff1663c4552791336040518263ffffffff1660e01b81526004016116aa91906122b1565b602060405180830381600087803b1580156116c457600080fd5b505af11580156116d8573d6000803e3d6000fd5b505050506040513d601f19601f820116820180604052508101906116fc9190611e22565b90508061170857600080fd5b7f000000000000000000000000000000000000000000000000000000000000000073ffffffffffffffffffffffffffffffffffffffff16630e61295f868686866040518563ffffffff1660e01b81526004016117679493929190612364565b600060405180830381600087803b15801561178157600080fd5b505af1158015611795573d6000803e3d6000fd5b505050505050505050565b80600c60006101000a81548160ff021916908360048111156117eb577f4e487b7100000000000000000000000000000000000000000000000000000000600052602160045260246000fd5b0217905550806004811115611829577f4e487b7100000000000000000000000000000000000000000000000000000000600052602160045260246000fd5b7f9a0a9fbc5661a10573bae4de0b7535a3629b80dfd45bca03da02e07950f17c9a60405160405180910390a250565b6000808373ffffffffffffffffffffffffffffffffffffffff1683617530906040516118839061229c565b600060405180830381858888f193505050503d80600081146118c1576040519150601f19603f3d011682016040523d82523d6000602084013e6118c6565b606091505b505090508091505092915050565b8280546118e09061293c565b90600052602060002090601f0160209004810192826119025760008555611949565b82601f1061191b57805160ff1916838001178555611949565b82800160010185558215611949579182015b8281111561194857825182559160200191906001019061192d565b5b509050611956919061195a565b5090565b5b8082111561197357600081600090555060010161195b565b5090565b600061198a611985846124f4565b6124cf565b905080838252602082019050828560208602820111156119a957600080fd5b60005b858110156119d957816119bf8882611b09565b8452602084019350602083019250506001810190506119ac565b5050509392505050565b60006119f66119f184612520565b6124cf565b90508083825260208201905082856020860282011115611a1557600080fd5b60005b85811015611a455781611a2b8882611c64565b845260208401935060208301925050600181019050611a18565b5050509392505050565b6000611a62611a5d8461254c565b6124cf565b905082815260208101848484011115611a7a57600080fd5b611a858482856128fa565b509392505050565b6000611aa0611a9b8461254c565b6124cf565b905082815260208101848484011115611ab857600080fd5b611ac3848285612909565b509392505050565b6000611ade611ad98461257d565b6124cf565b905082815260208101848484011115611af657600080fd5b611b018482856128fa565b509392505050565b600081359050611b1881612b24565b92915050565b60008083601f840112611b3057600080fd5b8235905067ffffffffffffffff811115611b4957600080fd5b602083019150836020820283011115611b6157600080fd5b9250929050565b600082601f830112611b7957600080fd5b8135611b89848260208601611977565b91505092915050565b600082601f830112611ba357600080fd5b8135611bb38482602086016119e3565b91505092915050565b600081519050611bcb81612b3b565b92915050565b600082601f830112611be257600080fd5b8135611bf2848260208601611a4f565b91505092915050565b600082601f830112611c0c57600080fd5b8151611c1c848260208601611a8d565b91505092915050565b600081519050611c3481612b52565b92915050565b600082601f830112611c4b57600080fd5b8135611c5b848260208601611acb565b91505092915050565b600081359050611c7381612b69565b92915050565b600081519050611c8881612b69565b92915050565b600060208284031215611ca057600080fd5b6000611cae84828501611b09565b91505092915050565b60008060008060808587031215611ccd57600080fd5b6000611cdb87828801611b09565b9450506020611cec87828801611b09565b9350506040611cfd87828801611c64565b925050606085013567ffffffffffffffff811115611d1a57600080fd5b611d2687828801611c3a565b91505092959194509250565b60008060008060608587031215611d4857600080fd5b600085013567ffffffffffffffff811115611d6257600080fd5b611d6e87828801611b1e565b94509450506020611d8187828801611c64565b925050604085013567ffffffffffffffff811115611d9e57600080fd5b611daa87828801611bd1565b91505092959194509250565b60008060408385031215611dc957600080fd5b600083013567ffffffffffffffff811115611de357600080fd5b611def85828601611b68565b925050602083013567ffffffffffffffff811115611e0c57600080fd5b611e1885828601611b92565b9150509250929050565b600060208284031215611e3457600080fd5b6000611e4284828501611bbc565b91505092915050565b600060208284031215611e5d57600080fd5b600082015167ffffffffffffffff811115611e7757600080fd5b611e8384828501611bfb565b91505092915050565b60008060008060808587031215611ea257600080fd5b6000611eb087828801611c25565b9450506020611ec187828801611c79565b9350506040611ed287828801611c79565b9250506060611ee387828801611c79565b91505092959194509250565b600060208284031215611f0157600080fd5b600082013567ffffffffffffffff811115611f1b57600080fd5b611f2784828501611c3a565b91505092915050565b6000611f3c8383611f78565b60208301905092915050565b6000611f548383611f96565b60208301905092915050565b6000611f6c8383612250565b60208301905092915050565b611f8181612804565b82525050565b611f9081612804565b82525050565b611f9f81612804565b82525050565b6000611fb18385612640565b9350611fbc826125ae565b8060005b85811015611ff557611fd28284612694565b611fdc8882611f30565b9750611fe783612619565b925050600181019050611fc0565b5085925050509392505050565b600061200d826125ed565b6120178185612651565b9350612022836125b8565b8060005b8381101561205357815161203a8882611f48565b975061204583612626565b925050600181019050612026565b5085935050505092915050565b600061206b826125f8565b612075818561265c565b9350612080836125c8565b8060005b838110156120b15781516120988882611f60565b97506120a383612633565b925050600181019050612084565b5085935050505092915050565b60006120c982612603565b6120d38185612667565b93506120e3818560208601612909565b6120ec81612ad3565b840191505092915050565b6121008161288e565b82525050565b61210f816128b2565b82525050565b61211e816128d6565b82525050565b61212d8161283f565b82525050565b61213c816128e8565b82525050565b600061214d8261260e565b6121578185612683565b9350612167818560208601612909565b61217081612ad3565b840191505092915050565b600081546121888161293c565b6121928186612683565b945060018216600081146121ad57600181146121bf576121f2565b60ff19831686526020860193506121f2565b6121c8856125d8565b60005b838110156121ea578154818901526001820191506020810190506121cb565b808801955050505b50505092915050565b6000612208600283612667565b915061221382612ae4565b602082019050919050565b600061222b600083612678565b915061223682612b0d565b600082019050919050565b61224a8161286c565b82525050565b6122598161286c565b82525050565b61226881612876565b82525050565b600061227a8284612002565b915081905092915050565b60006122918284612060565b915081905092915050565b60006122a78261221e565b9150819050919050565b60006020820190506122c66000830184611f87565b92915050565b60006080820190506122e16000830187611f87565b6122ee6020830186611f87565b6122fb6040830185612133565b818103606083015261230d8184612142565b905095945050505050565b600060808201905061232d6000830187611f87565b61233a6020830186611f87565b6123476040830185612241565b81810360608301526123598184612142565b905095945050505050565b6000606082019050818103600083015261237f818688611fa5565b905061238e6020830185612241565b81810360408301526123a081846120be565b905095945050505050565b60006060820190506123c060008301856120f7565b81810360208301526123d281846120be565b905081810360408301526123e5816121fb565b90509392505050565b60006080820190506124036000830187612106565b6124106020830186611f87565b61241d6040830185612124565b818103606083015261242f81846120be565b905095945050505050565b600060208201905061244f6000830184612115565b92915050565b6000602082019050818103600083015261246f8184612142565b905092915050565b60006020820190508181036000830152612491818461217b565b905092915050565b60006020820190506124ae6000830184612241565b92915050565b60006020820190506124c9600083018461225f565b92915050565b60006124d96124ea565b90506124e5828261296e565b919050565b6000604051905090565b600067ffffffffffffffff82111561250f5761250e612aa4565b5b602082029050602081019050919050565b600067ffffffffffffffff82111561253b5761253a612aa4565b5b602082029050602081019050919050565b600067ffffffffffffffff82111561256757612566612aa4565b5b61257082612ad3565b9050602081019050919050565b600067ffffffffffffffff82111561259857612597612aa4565b5b6125a182612ad3565b9050602081019050919050565b6000819050919050565b6000819050602082019050919050565b6000819050602082019050919050565b60008190508160005260206000209050919050565b600081519050919050565b600081519050919050565b600081519050919050565b600081519050919050565b6000602082019050919050565b6000602082019050919050565b6000602082019050919050565b600082825260208201905092915050565b600081905092915050565b600081905092915050565b600082825260208201905092915050565b600081905092915050565b600082825260208201905092915050565b60006126a36020840184611b09565b905092915050565b60006126b68261283f565b91506126c18361283f565b9250826126d1576126d0612a17565b5b600160000383147fffffffffffffffffffffffffffffffffffffffff8000000000000000000000008314161561270a576127096129e8565b5b828205905092915050565b60006127208261283f565b915061272b8361283f565b9250826b7fffffffffffffffffffffff0482116000841360008413161615612756576127556129e8565b5b817fffffffffffffffffffffffffffffffffffffffff8000000000000000000000000583126000841260008413161615612793576127926129e8565b5b827fffffffffffffffffffffffffffffffffffffffff80000000000000000000000005821260008413600084121616156127d0576127cf6129e8565b5b826b7fffffffffffffffffffffff05821260008412600084121616156127f9576127f86129e8565b5b828202905092915050565b600061280f8261284c565b9050919050565b60008115159050919050565b600081905061283082612b10565b919050565b6000819050919050565b600081600b0b9050919050565b600073ffffffffffffffffffffffffffffffffffffffff82169050919050565b6000819050919050565b60006bffffffffffffffffffffffff82169050919050565b6000612899826128a0565b9050919050565b60006128ab8261284c565b9050919050565b60006128bd826128c4565b9050919050565b60006128cf8261284c565b9050919050565b60006128e182612822565b9050919050565b60006128f38261286c565b9050919050565b82818337600083830152505050565b60005b8381101561292757808201518184015260208101905061290c565b83811115612936576000848401525b50505050565b6000600282049050600182168061295457607f821691505b6020821081141561296857612967612a75565b5b50919050565b61297782612ad3565b810181811067ffffffffffffffff8211171561299657612995612aa4565b5b80604052505050565b60006129aa8261286c565b91507fffffffffffffffffffffffffffffffffffffffffffffffffffffffffffffffff8214156129dd576129dc6129e8565b5b600182019050919050565b7f4e487b7100000000000000000000000000000000000000000000000000000000600052601160045260246000fd5b7f4e487b7100000000000000000000000000000000000000000000000000000000600052601260045260246000fd5b7f4e487b7100000000000000000000000000000000000000000000000000000000600052602160045260246000fd5b7f4e487b7100000000000000000000000000000000000000000000000000000000600052602260045260246000fd5b7f4e487b7100000000000000000000000000000000000000000000000000000000600052604160045260246000fd5b6000601f19601f8301169050919050565b7f3078000000000000000000000000000000000000000000000000000000000000600082015250565b50565b60058110612b2157612b20612a46565b5b50565b612b2d81612804565b8114612b3857600080fd5b50565b612b4481612816565b8114612b4f57600080fd5b50565b612b5b81612835565b8114612b6657600080fd5b50565b612b728161286c565b8114612b7d57600080fd5b5056fea2646970667358221220c80faaf4320b5edacdfbc63999e8c3be07c98f029ed56a905c0ae45cd1826b7b64736f6c63430008040033",
  "linkReferences": {},
  "deployedLinkReferences": {}
}