{
  "_format": "hh-sol-artifact-1",
  "contractName": "CallForFundsLogic",
  "sourceName": "contracts/CallForFundsLogic.sol",
  "abi": [
    {
      "inputs": [
        {
          "internalType": "address",
          "name": "crowdCommission_",
          "type": "address"
        },
        {
          "internalType": "address",
          "name": "smartArt_",
          "type": "address"
        }
      ],
      "stateMutability": "nonpayable",
      "type": "constructor"
    },
    {
      "anonymous": false,
      "inputs": [
        {
          "indexed": true,
          "internalType": "uint256",
          "name": "amountMatched",
          "type": "uint256"
        }
      ],
      "name": "CallMatched",
      "type": "event"
    },
    {
      "anonymous": false,
      "inputs": [
        {
          "indexed": true,
          "internalType": "address",
          "name": "donator",
          "type": "address"
        },
        {
          "indexed": false,
          "internalType": "uint256",
          "name": "amount",
          "type": "uint256"
        }
      ],
      "name": "ContributionReceivedETH",
      "type": "event"
    },
    {
      "anonymous": false,
      "inputs": [
        {
          "indexed": true,
          "internalType": "enum CallForFundsStorage.FundingState",
          "name": "newFundingState",
          "type": "uint8"
        }
      ],
      "name": "FundingStateChanged",
      "type": "event"
    },
    {
      "anonymous": false,
      "inputs": [
        {
          "indexed": true,
          "internalType": "address[]",
          "name": "addresses",
          "type": "address[]"
        },
        {
          "indexed": true,
          "internalType": "uint256[]",
          "name": "amounts",
          "type": "uint256[]"
        }
      ],
      "name": "RefundCompleted",
      "type": "event"
    },
    {
      "anonymous": false,
      "inputs": [],
      "name": "StreamStarted",
      "type": "event"
    },
    {
      "anonymous": false,
      "inputs": [
        {
          "indexed": false,
          "internalType": "string",
          "name": "deliverableURI",
          "type": "string"
        }
      ],
      "name": "WorkDelivered",
      "type": "event"
    },
    {
      "inputs": [],
      "name": "_cfa",
      "outputs": [
        {
          "internalType": "contract IConstantFlowAgreementV1",
          "name": "",
          "type": "address"
        }
      ],
      "stateMutability": "view",
      "type": "function"
    },
    {
      "inputs": [],
      "name": "_dai",
      "outputs": [
        {
          "internalType": "contract ERC20WithTokenInfo",
          "name": "",
          "type": "address"
        }
      ],
      "stateMutability": "view",
      "type": "function"
    },
    {
      "inputs": [],
      "name": "_daix",
      "outputs": [
        {
          "internalType": "contract ISuperToken",
          "name": "",
          "type": "address"
        }
      ],
      "stateMutability": "view",
      "type": "function"
    },
    {
      "inputs": [],
      "name": "_ethx",
      "outputs": [
        {
          "internalType": "contract ISETH",
          "name": "",
          "type": "address"
        }
      ],
      "stateMutability": "view",
      "type": "function"
    },
    {
      "inputs": [],
      "name": "_host",
      "outputs": [
        {
          "internalType": "contract ISuperfluid",
          "name": "",
          "type": "address"
        }
      ],
      "stateMutability": "view",
      "type": "function"
    },
    {
      "inputs": [],
      "name": "category",
      "outputs": [
        {
          "internalType": "string",
          "name": "",
          "type": "string"
        }
      ],
      "stateMutability": "view",
      "type": "function"
    },
    {
      "inputs": [],
      "name": "creator",
      "outputs": [
        {
          "internalType": "address",
          "name": "",
          "type": "address"
        }
      ],
      "stateMutability": "view",
      "type": "function"
    },
    {
      "inputs": [],
      "name": "crowdCommission",
      "outputs": [
        {
          "internalType": "address",
          "name": "",
          "type": "address"
        }
      ],
      "stateMutability": "view",
      "type": "function"
    },
    {
      "inputs": [
        {
          "internalType": "string",
          "name": "deliverableURI_",
          "type": "string"
        },
        {
          "internalType": "address",
          "name": "slicerAddress",
          "type": "address"
        }
      ],
      "name": "deliver",
      "outputs": [],
      "stateMutability": "nonpayable",
      "type": "function"
    },
    {
      "inputs": [],
      "name": "deliverableMedium",
      "outputs": [
        {
          "internalType": "string",
          "name": "",
          "type": "string"
        }
      ],
      "stateMutability": "view",
      "type": "function"
    },
    {
      "inputs": [],
      "name": "deliverableURI",
      "outputs": [
        {
          "internalType": "string",
          "name": "",
          "type": "string"
        }
      ],
      "stateMutability": "view",
      "type": "function"
    },
    {
      "inputs": [],
      "name": "description",
      "outputs": [
        {
          "internalType": "string",
          "name": "",
          "type": "string"
        }
      ],
      "stateMutability": "view",
      "type": "function"
    },
    {
      "inputs": [],
      "name": "factory",
      "outputs": [
        {
          "internalType": "address",
          "name": "",
          "type": "address"
        }
      ],
      "stateMutability": "view",
      "type": "function"
    },
    {
      "inputs": [],
      "name": "fundingState",
      "outputs": [
        {
          "internalType": "enum CallForFundsStorage.FundingState",
          "name": "",
          "type": "uint8"
        }
      ],
      "stateMutability": "view",
      "type": "function"
    },
    {
      "inputs": [],
      "name": "genre",
      "outputs": [
        {
          "internalType": "string",
          "name": "",
          "type": "string"
        }
      ],
      "stateMutability": "view",
      "type": "function"
    },
    {
      "inputs": [],
      "name": "image",
      "outputs": [
        {
          "internalType": "string",
          "name": "",
          "type": "string"
        }
      ],
      "stateMutability": "view",
      "type": "function"
    },
    {
      "inputs": [],
      "name": "loudverseAdmin",
      "outputs": [
        {
          "internalType": "address",
          "name": "",
          "type": "address"
        }
      ],
      "stateMutability": "view",
      "type": "function"
    },
    {
      "inputs": [
        {
          "internalType": "address[]",
          "name": "funders",
          "type": "address[]"
        },
        {
          "internalType": "uint256",
          "name": "id",
          "type": "uint256"
        },
        {
          "internalType": "bytes",
          "name": "data",
          "type": "bytes"
        }
      ],
      "name": "matchCallForFunds",
      "outputs": [],
      "stateMutability": "payable",
      "type": "function"
    },
    {
      "inputs": [],
      "name": "minFundingAmount",
      "outputs": [
        {
          "internalType": "uint256",
          "name": "",
          "type": "uint256"
        }
      ],
      "stateMutability": "view",
      "type": "function"
    },
    {
      "inputs": [
        {
          "internalType": "address[]",
          "name": "funders",
          "type": "address[]"
        },
        {
          "internalType": "uint256",
          "name": "id",
          "type": "uint256"
        },
        {
          "internalType": "bytes",
          "name": "data",
          "type": "bytes"
        }
      ],
      "name": "mintCrowdCommission",
      "outputs": [],
      "stateMutability": "nonpayable",
      "type": "function"
    },
    {
      "inputs": [
        {
          "internalType": "address",
          "name": "to",
          "type": "address"
        },
        {
          "internalType": "address",
          "name": "royaltyRecipient",
          "type": "address"
        },
        {
          "internalType": "uint256",
          "name": "royaltyValue",
          "type": "uint256"
        },
        {
          "internalType": "string",
          "name": "uri",
          "type": "string"
        }
      ],
      "name": "mintSmartArt",
      "outputs": [],
      "stateMutability": "nonpayable",
      "type": "function"
    },
    {
      "inputs": [
        {
          "internalType": "address[]",
          "name": "addresses",
          "type": "address[]"
        },
        {
          "internalType": "uint256[]",
          "name": "amounts",
          "type": "uint256[]"
        }
      ],
      "name": "refund",
      "outputs": [],
      "stateMutability": "nonpayable",
      "type": "function"
    },
    {
      "inputs": [
        {
          "internalType": "address",
          "name": "factoryAddress",
          "type": "address"
        }
      ],
      "name": "setFactory",
      "outputs": [],
      "stateMutability": "nonpayable",
      "type": "function"
    },
    {
      "inputs": [],
      "name": "smartArt",
      "outputs": [
        {
          "internalType": "address",
          "name": "",
          "type": "address"
        }
      ],
      "stateMutability": "view",
      "type": "function"
    },
    {
      "inputs": [],
      "name": "startStream",
      "outputs": [],
      "stateMutability": "payable",
      "type": "function"
    },
    {
      "inputs": [],
      "name": "subgenre",
      "outputs": [
        {
          "internalType": "string",
          "name": "",
          "type": "string"
        }
      ],
      "stateMutability": "view",
      "type": "function"
    },
    {
      "inputs": [],
      "name": "timelineInDays",
      "outputs": [
        {
          "internalType": "uint96",
          "name": "",
          "type": "uint96"
        }
      ],
      "stateMutability": "view",
      "type": "function"
    },
    {
      "inputs": [],
      "name": "title",
      "outputs": [
        {
          "internalType": "string",
          "name": "",
          "type": "string"
        }
      ],
      "stateMutability": "view",
      "type": "function"
    },
    {
      "stateMutability": "payable",
      "type": "receive"
    }
  ],
  "bytecode": "0x60c06040523480156200001157600080fd5b5060405162002fc038038062002fc08339818101604052810190620000379190620000c4565b8173ffffffffffffffffffffffffffffffffffffffff1660808173ffffffffffffffffffffffffffffffffffffffff1660601b815250508073ffffffffffffffffffffffffffffffffffffffff1660a08173ffffffffffffffffffffffffffffffffffffffff1660601b8152505050506200015e565b600081519050620000be8162000144565b92915050565b60008060408385031215620000de57620000dd6200013f565b5b6000620000ee85828601620000ad565b92505060206200010185828601620000ad565b9150509250929050565b600062000118826200011f565b9050919050565b600073ffffffffffffffffffffffffffffffffffffffff82169050919050565b600080fd5b6200014f816200010b565b81146200015b57600080fd5b50565b60805160601c60a05160601c612e286200019860003960008181610e59015261175701526000818161158901526118360152612e286000f3fe6080604052600436106101bb5760003560e01c8063ab115d72116100ec578063d00127231161008a578063ef430aa611610064578063ef430aa6146105e5578063f3ccaac014610610578063f66c3ff41461063b578063fe5a6fd11461066657610210565b8063d001272314610564578063d2ac31821461058f578063e6851127146105ba57610210565b8063b574d071116100c6578063b574d071146104db578063c091c435146104e5578063c45a01551461050e578063c791316e1461053957610210565b8063ab115d721461045c578063b25cdccf14610487578063b49ab7f6146104b257610210565b806377f78ad311610159578063852e5a0a11610133578063852e5a0a146103b05780638e22ce1d146103db5780639699119d146104065780639cf0bd0d1461043157610210565b806377f78ad31461032f5780637cb4d6d71461035a5780637e52b6ab1461038557610210565b806317de3a411161019557806317de3a41146102855780634a79d50c146102b05780635bb47808146102db5780637284e4161461030457610210565b806302d05d3f146102155780630abcf678146102405780630e212fad1461026957610210565b36610210573373ffffffffffffffffffffffffffffffffffffffff167f2f0f1ca72899668d93500f451ad66c0a4e9f7f3f4974f3206c27069fb2c7f2b13460405161020691906126a9565b60405180910390a2005b600080fd5b34801561022157600080fd5b5061022a61068f565b604051610237919061243a565b60405180910390f35b34801561024c57600080fd5b5061026760048036038101906102629190611fbb565b6106b5565b005b610283600480360381019061027e9190611e3d565b610841565b005b34801561029157600080fd5b5061029a61099d565b6040516102a79190612665565b60405180910390f35b3480156102bc57600080fd5b506102c5610a2b565b6040516102d29190612665565b60405180910390f35b3480156102e757600080fd5b5061030260048036038101906102fd9190611d8d565b610ab9565b005b34801561031057600080fd5b50610319610b49565b6040516103269190612665565b60405180910390f35b34801561033b57600080fd5b50610344610bd7565b6040516103519190612534565b60405180910390f35b34801561036657600080fd5b5061036f610bef565b60405161037c919061254f565b60405180910390f35b34801561039157600080fd5b5061039a610c07565b6040516103a791906125c8565b60405180910390f35b3480156103bc57600080fd5b506103c5610c1f565b6040516103d2919061262f565b60405180910390f35b3480156103e757600080fd5b506103f0610c37565b6040516103fd919061243a565b60405180910390f35b34801561041257600080fd5b5061041b610c4f565b60405161042891906126c4565b60405180910390f35b34801561043d57600080fd5b50610446610c6d565b6040516104539190612665565b60405180910390f35b34801561046857600080fd5b50610471610cfb565b60405161047e9190612665565b60405180910390f35b34801561049357600080fd5b5061049c610d89565b6040516104a9919061264a565b60405180910390f35b3480156104be57600080fd5b506104d960048036038101906104d49190611dba565b610d9c565b005b6104e3610eef565b005b3480156104f157600080fd5b5061050c60048036038101906105079190611ecd565b6113de565b005b34801561051a57600080fd5b50610523611543565b604051610530919061243a565b60405180910390f35b34801561054557600080fd5b5061054e611569565b60405161055b91906126a9565b60405180910390f35b34801561057057600080fd5b5061057961156f565b60405161058691906125ad565b60405180910390f35b34801561059b57600080fd5b506105a4611587565b6040516105b1919061243a565b60405180910390f35b3480156105c657600080fd5b506105cf6115ab565b6040516105dc9190612665565b60405180910390f35b3480156105f157600080fd5b506105fa611639565b6040516106079190612665565b60405180910390f35b34801561061c57600080fd5b506106256116c7565b6040516106329190612665565b60405180910390f35b34801561064757600080fd5b50610650611755565b60405161065d919061243a565b60405180910390f35b34801561067257600080fd5b5061068d60048036038101906106889190611e3d565b611779565b005b600160009054906101000a900473ffffffffffffffffffffffffffffffffffffffff1681565b600160009054906101000a900473ffffffffffffffffffffffffffffffffffffffff1673ffffffffffffffffffffffffffffffffffffffff163373ffffffffffffffffffffffffffffffffffffffff161461070f57600080fd5b600380600481111561072457610723612c82565b5b600c60009054906101000a900460ff16600481111561074657610745612c82565b5b1461075057600080fd5b82600b90805190602001906107669291906119b4565b507fcb7230e908facd21b119ab7a11e0247b8d5374e49d8cc50fa9a53b7601f237c9600b6040516107979190612687565b60405180910390a160008054906101000a900473ffffffffffffffffffffffffffffffffffffffff1673ffffffffffffffffffffffffffffffffffffffff1663b49ab7f633846103e8876040518563ffffffff1660e01b81526004016108009493929190612455565b600060405180830381600087803b15801561081a57600080fd5b505af115801561082e573d6000803e3d6000fd5b5050505061083c60046118cc565b505050565b73a4e987fb3808d9fc206112967477793ea838945073ffffffffffffffffffffffffffffffffffffffff163373ffffffffffffffffffffffffffffffffffffffff161461088d57600080fd5b60008060048111156108a2576108a1612c82565b5b600c60009054906101000a900460ff1660048111156108c4576108c3612c82565b5b146108ce57600080fd5b347f2731c7491ce2f19381bc96e6c488a4e45d345b5efa893b339dd94e549f26477c60405160405180910390a260008054906101000a900473ffffffffffffffffffffffffffffffffffffffff1673ffffffffffffffffffffffffffffffffffffffff1663fe5a6fd1868686866040518563ffffffff1660e01b815260040161095a94939291906124ed565b600060405180830381600087803b15801561097457600080fd5b505af1158015610988573d6000803e3d6000fd5b5050505061099660026118cc565b5050505050565b600680546109aa90612b78565b80601f01602080910402602001604051908101604052809291908181526020018280546109d690612b78565b8015610a235780601f106109f857610100808354040283529160200191610a23565b820191906000526020600020905b815481529060010190602001808311610a0657829003601f168201915b505050505081565b60028054610a3890612b78565b80601f0160208091040260200160405190810160405280929190818152602001828054610a6490612b78565b8015610ab15780601f10610a8657610100808354040283529160200191610ab1565b820191906000526020600020905b815481529060010190602001808311610a9457829003601f168201915b505050505081565b73a4e987fb3808d9fc206112967477793ea838945073ffffffffffffffffffffffffffffffffffffffff163373ffffffffffffffffffffffffffffffffffffffff1614610b0557600080fd5b80600c60016101000a81548173ffffffffffffffffffffffffffffffffffffffff021916908373ffffffffffffffffffffffffffffffffffffffff16021790555050565b60038054610b5690612b78565b80601f0160208091040260200160405190810160405280929190818152602001828054610b8290612b78565b8015610bcf5780601f10610ba457610100808354040283529160200191610bcf565b820191906000526020600020905b815481529060010190602001808311610bb257829003601f168201915b505050505081565b7315f0ca26781c3852f8166ed2ebce5d18265cceb781565b7349e565ed1bdc17f3d220f72df0857c26fa83f87381565b735d8b4c2554aeb7e86f387b4d6c00ac33499ed01f81565b73eb796bdb90ffa0f28255275e16936d25d341860381565b73a4e987fb3808d9fc206112967477793ea838945081565b600960009054906101000a90046bffffffffffffffffffffffff1681565b60088054610c7a90612b78565b80601f0160208091040260200160405190810160405280929190818152602001828054610ca690612b78565b8015610cf35780601f10610cc857610100808354040283529160200191610cf3565b820191906000526020600020905b815481529060010190602001808311610cd657829003601f168201915b505050505081565b60078054610d0890612b78565b80601f0160208091040260200160405190810160405280929190818152602001828054610d3490612b78565b8015610d815780601f10610d5657610100808354040283529160200191610d81565b820191906000526020600020905b815481529060010190602001808311610d6457829003601f168201915b505050505081565b600c60009054906101000a900460ff1681565b6000600c60019054906101000a900473ffffffffffffffffffffffffffffffffffffffff1673ffffffffffffffffffffffffffffffffffffffff1663c4552791336040518263ffffffff1660e01b8152600401610df9919061243a565b602060405180830381600087803b158015610e1357600080fd5b505af1158015610e27573d6000803e3d6000fd5b505050506040513d601f19601f82011682018060405250810190610e4b9190611f45565b905080610e5757600080fd5b7f000000000000000000000000000000000000000000000000000000000000000073ffffffffffffffffffffffffffffffffffffffff1663b85cbc79868686866040518563ffffffff1660e01b8152600401610eb694939291906124a1565b600060405180830381600087803b158015610ed057600080fd5b505af1158015610ee4573d6000803e3d6000fd5b505050505050505050565b600160009054906101000a900473ffffffffffffffffffffffffffffffffffffffff1673ffffffffffffffffffffffffffffffffffffffff163373ffffffffffffffffffffffffffffffffffffffff1614610f4957600080fd5b6002806004811115610f5e57610f5d612c82565b5b600c60009054906101000a900460ff166004811115610f8057610f7f612c82565b5b14610f8a57600080fd5b600030905060007315f0ca26781c3852f8166ed2ebce5d18265cceb773ffffffffffffffffffffffffffffffffffffffff166370a08231836040518263ffffffff1660e01b8152600401610fde919061243a565b60206040518083038186803b158015610ff657600080fd5b505afa15801561100a573d6000803e3d6000fd5b505050506040513d601f19601f8201168201806040525081019061102e9190612017565b90506000735d8b4c2554aeb7e86f387b4d6c00ac33499ed01f73ffffffffffffffffffffffffffffffffffffffff165a8360405160240161106f91906126a9565b6040516020818303038152906040527f45977d03000000000000000000000000000000000000000000000000000000007bffffffffffffffffffffffffffffffffffffffffffffffffffffffff19166020820180517bffffffffffffffffffffffffffffffffffffffffffffffffffffffff83818316178352505050506040516110f9919061240e565b60006040518083038160008787f1925050503d8060008114611137576040519150601f19603f3d011682016040523d82523d6000602084013e61113c565b606091505b505090508061114a57600080fd5b6000735d8b4c2554aeb7e86f387b4d6c00ac33499ed01f73ffffffffffffffffffffffffffffffffffffffff166370a08231856040518263ffffffff1660e01b8152600401611199919061243a565b60206040518083038186803b1580156111b157600080fd5b505afa1580156111c5573d6000803e3d6000fd5b505050506040513d601f19601f820116820180604052508101906111e99190612017565b90506000819050600062015180600960009054906101000a90046bffffffffffffffffffffffff1661121b9190612925565b905060008290506000828261123091906128bb565b905073eb796bdb90ffa0f28255275e16936d25d341860373ffffffffffffffffffffffffffffffffffffffff166339255d5b7349e565ed1bdc17f3d220f72df0857c26fa83f8736362fc305e60e01b735d8b4c2554aeb7e86f387b4d6c00ac33499ed01f3386600067ffffffffffffffff8111156112b1576112b0612d0f565b5b6040519080825280601f01601f1916602001820160405280156112e35781602001600182028036833780820191505090505b506040516024016112f794939291906125e3565b604051602081830303815290604052907bffffffffffffffffffffffffffffffffffffffffffffffffffffffff19166020820180517bffffffffffffffffffffffffffffffffffffffffffffffffffffffff83818316178352505050506040518363ffffffff1660e01b815260040161137192919061256a565b600060405180830381600087803b15801561138b57600080fd5b505af115801561139f573d6000803e3d6000fd5b505050506040513d6000823e3d601f19601f820116820180604052508101906113c89190611f72565b506113d360036118cc565b505050505050505050565b73a4e987fb3808d9fc206112967477793ea838945073ffffffffffffffffffffffffffffffffffffffff163373ffffffffffffffffffffffffffffffffffffffff161461142a57600080fd5b600080600481111561143f5761143e612c82565b5b600c60009054906101000a900460ff16600481111561146157611460612c82565b5b1461146b57600080fd5b6000600190505b83518110156114db5760006114bb85838151811061149357611492612ce0565b5b60200260200101518584815181106114ae576114ad612ce0565b5b6020026020010151611938565b9050806114c757600080fd5b5080806114d390612bdb565b915050611472565b50816040516114ea91906123f7565b60405180910390208360405161150091906123e0565b60405180910390207f598d84241bfe93913995b638c1692ad8e8d01110f5bd1af00f0c68e095044c3d60405160405180910390a361153e60016118cc565b505050565b600c60019054906101000a900473ffffffffffffffffffffffffffffffffffffffff1681565b600a5481565b7396b82b65acf7072efeb00502f45757f254c2a0d481565b7f000000000000000000000000000000000000000000000000000000000000000081565b600b80546115b890612b78565b80601f01602080910402602001604051908101604052809291908181526020018280546115e490612b78565b80156116315780601f1061160657610100808354040283529160200191611631565b820191906000526020600020905b81548152906001019060200180831161161457829003601f168201915b505050505081565b6005805461164690612b78565b80601f016020809104026020016040519081016040528092919081815260200182805461167290612b78565b80156116bf5780601f10611694576101008083540402835291602001916116bf565b820191906000526020600020905b8154815290600101906020018083116116a257829003601f168201915b505050505081565b600480546116d490612b78565b80601f016020809104026020016040519081016040528092919081815260200182805461170090612b78565b801561174d5780601f106117225761010080835404028352916020019161174d565b820191906000526020600020905b81548152906001019060200180831161173057829003601f168201915b505050505081565b7f000000000000000000000000000000000000000000000000000000000000000081565b6000600c60019054906101000a900473ffffffffffffffffffffffffffffffffffffffff1673ffffffffffffffffffffffffffffffffffffffff1663c4552791336040518263ffffffff1660e01b81526004016117d6919061243a565b602060405180830381600087803b1580156117f057600080fd5b505af1158015611804573d6000803e3d6000fd5b505050506040513d601f19601f820116820180604052508101906118289190611f45565b90508061183457600080fd5b7f000000000000000000000000000000000000000000000000000000000000000073ffffffffffffffffffffffffffffffffffffffff16630e61295f868686866040518563ffffffff1660e01b815260040161189394939291906124ed565b600060405180830381600087803b1580156118ad57600080fd5b505af11580156118c1573d6000803e3d6000fd5b505050505050505050565b80600c60006101000a81548160ff021916908360048111156118f1576118f0612c82565b5b021790555080600481111561190957611908612c82565b5b7f9a0a9fbc5661a10573bae4de0b7535a3629b80dfd45bca03da02e07950f17c9a60405160405180910390a250565b6000808373ffffffffffffffffffffffffffffffffffffffff16836175309060405161196390612425565b600060405180830381858888f193505050503d80600081146119a1576040519150601f19603f3d011682016040523d82523d6000602084013e6119a6565b606091505b505090508091505092915050565b8280546119c090612b78565b90600052602060002090601f0160209004810192826119e25760008555611a29565b82601f106119fb57805160ff1916838001178555611a29565b82800160010185558215611a29579182015b82811115611a28578251825591602001919060010190611a0d565b5b509050611a369190611a3a565b5090565b5b80821115611a53576000816000905550600101611a3b565b5090565b6000611a6a611a6584612704565b6126df565b90508083825260208201905082856020860282011115611a8d57611a8c612d48565b5b60005b85811015611abd5781611aa38882611bfd565b845260208401935060208301925050600181019050611a90565b5050509392505050565b6000611ada611ad584612730565b6126df565b90508083825260208201905082856020860282011115611afd57611afc612d48565b5b60005b85811015611b2d5781611b138882611d63565b845260208401935060208301925050600181019050611b00565b5050509392505050565b6000611b4a611b458461275c565b6126df565b905082815260208101848484011115611b6657611b65612d4d565b5b611b71848285612b36565b509392505050565b6000611b8c611b878461275c565b6126df565b905082815260208101848484011115611ba857611ba7612d4d565b5b611bb3848285612b45565b509392505050565b6000611bce611bc98461278d565b6126df565b905082815260208101848484011115611bea57611be9612d4d565b5b611bf5848285612b36565b509392505050565b600081359050611c0c81612dad565b92915050565b60008083601f840112611c2857611c27612d43565b5b8235905067ffffffffffffffff811115611c4557611c44612d3e565b5b602083019150836020820283011115611c6157611c60612d48565b5b9250929050565b600082601f830112611c7d57611c7c612d43565b5b8135611c8d848260208601611a57565b91505092915050565b600082601f830112611cab57611caa612d43565b5b8135611cbb848260208601611ac7565b91505092915050565b600081519050611cd381612dc4565b92915050565b600082601f830112611cee57611ced612d43565b5b8135611cfe848260208601611b37565b91505092915050565b600082601f830112611d1c57611d1b612d43565b5b8151611d2c848260208601611b79565b91505092915050565b600082601f830112611d4a57611d49612d43565b5b8135611d5a848260208601611bbb565b91505092915050565b600081359050611d7281612ddb565b92915050565b600081519050611d8781612ddb565b92915050565b600060208284031215611da357611da2612d57565b5b6000611db184828501611bfd565b91505092915050565b60008060008060808587031215611dd457611dd3612d57565b5b6000611de287828801611bfd565b9450506020611df387828801611bfd565b9350506040611e0487828801611d63565b925050606085013567ffffffffffffffff811115611e2557611e24612d52565b5b611e3187828801611d35565b91505092959194509250565b60008060008060608587031215611e5757611e56612d57565b5b600085013567ffffffffffffffff811115611e7557611e74612d52565b5b611e8187828801611c12565b94509450506020611e9487828801611d63565b925050604085013567ffffffffffffffff811115611eb557611eb4612d52565b5b611ec187828801611cd9565b91505092959194509250565b60008060408385031215611ee457611ee3612d57565b5b600083013567ffffffffffffffff811115611f0257611f01612d52565b5b611f0e85828601611c68565b925050602083013567ffffffffffffffff811115611f2f57611f2e612d52565b5b611f3b85828601611c96565b9150509250929050565b600060208284031215611f5b57611f5a612d57565b5b6000611f6984828501611cc4565b91505092915050565b600060208284031215611f8857611f87612d57565b5b600082015167ffffffffffffffff811115611fa657611fa5612d52565b5b611fb284828501611d07565b91505092915050565b60008060408385031215611fd257611fd1612d57565b5b600083013567ffffffffffffffff811115611ff057611fef612d52565b5b611ffc85828601611d35565b925050602061200d85828601611bfd565b9150509250929050565b60006020828403121561202d5761202c612d57565b5b600061203b84828501611d78565b91505092915050565b6000612050838361208c565b60208301905092915050565b600061206883836120aa565b60208301905092915050565b600061208083836123c2565b60208301905092915050565b61209581612a14565b82525050565b6120a481612a14565b82525050565b6120b381612a14565b82525050565b60006120c58385612850565b93506120d0826127be565b8060005b85811015612109576120e682846128a4565b6120f08882612044565b97506120fb83612829565b9250506001810190506120d4565b5085925050509392505050565b6000612121826127fd565b61212b8185612861565b9350612136836127c8565b8060005b8381101561216757815161214e888261205c565b975061215983612836565b92505060018101905061213a565b5085935050505092915050565b600061217f82612808565b612189818561286c565b9350612194836127d8565b8060005b838110156121c55781516121ac8882612074565b97506121b783612843565b925050600181019050612198565b5085935050505092915050565b60006121dd82612813565b6121e78185612877565b93506121f7818560208601612b45565b61220081612d5c565b840191505092915050565b600061221682612813565b6122208185612888565b9350612230818560208601612b45565b80840191505092915050565b61224581612a94565b82525050565b61225481612aa6565b82525050565b61226381612ab8565b82525050565b61227281612aca565b82525050565b61228181612adc565b82525050565b61229081612aee565b82525050565b61229f81612a45565b82525050565b6122ae81612b00565b82525050565b60006122bf8261281e565b6122c98185612893565b93506122d9818560208601612b45565b6122e281612d5c565b840191505092915050565b600081546122fa81612b78565b6123048186612893565b9450600182166000811461231f576001811461233157612364565b60ff1983168652602086019350612364565b61233a856127e8565b60005b8381101561235c5781548189015260018201915060208101905061233d565b808801955050505b50505092915050565b600061237a600283612877565b915061238582612d6d565b602082019050919050565b600061239d600083612888565b91506123a882612d96565b600082019050919050565b6123bc81612a72565b82525050565b6123cb81612a72565b82525050565b6123da81612a7c565b82525050565b60006123ec8284612116565b915081905092915050565b60006124038284612174565b915081905092915050565b600061241a828461220b565b915081905092915050565b600061243082612390565b9150819050919050565b600060208201905061244f600083018461209b565b92915050565b600060808201905061246a600083018761209b565b612477602083018661209b565b61248460408301856122a5565b818103606083015261249681846122b4565b905095945050505050565b60006080820190506124b6600083018761209b565b6124c3602083018661209b565b6124d060408301856123b3565b81810360608301526124e281846122b4565b905095945050505050565b600060608201905081810360008301526125088186886120b9565b905061251760208301856123b3565b818103604083015261252981846121d2565b905095945050505050565b6000602082019050612549600083018461223c565b92915050565b6000602082019050612564600083018461224b565b92915050565b600060608201905061257f600083018561224b565b818103602083015261259181846121d2565b905081810360408301526125a48161236d565b90509392505050565b60006020820190506125c2600083018461225a565b92915050565b60006020820190506125dd6000830184612269565b92915050565b60006080820190506125f86000830187612269565b612605602083018661209b565b6126126040830185612296565b818103606083015261262481846121d2565b905095945050505050565b60006020820190506126446000830184612278565b92915050565b600060208201905061265f6000830184612287565b92915050565b6000602082019050818103600083015261267f81846122b4565b905092915050565b600060208201905081810360008301526126a181846122ed565b905092915050565b60006020820190506126be60008301846123b3565b92915050565b60006020820190506126d960008301846123d1565b92915050565b60006126e96126fa565b90506126f58282612baa565b919050565b6000604051905090565b600067ffffffffffffffff82111561271f5761271e612d0f565b5b602082029050602081019050919050565b600067ffffffffffffffff82111561274b5761274a612d0f565b5b602082029050602081019050919050565b600067ffffffffffffffff82111561277757612776612d0f565b5b61278082612d5c565b9050602081019050919050565b600067ffffffffffffffff8211156127a8576127a7612d0f565b5b6127b182612d5c565b9050602081019050919050565b6000819050919050565b6000819050602082019050919050565b6000819050602082019050919050565b60008190508160005260206000209050919050565b600081519050919050565b600081519050919050565b600081519050919050565b600081519050919050565b6000602082019050919050565b6000602082019050919050565b6000602082019050919050565b600082825260208201905092915050565b600081905092915050565b600081905092915050565b600082825260208201905092915050565b600081905092915050565b600082825260208201905092915050565b60006128b36020840184611bfd565b905092915050565b60006128c682612a45565b91506128d183612a45565b9250826128e1576128e0612c53565b5b600160000383147fffffffffffffffffffffffffffffffffffffffff8000000000000000000000008314161561291a57612919612c24565b5b828205905092915050565b600061293082612a45565b915061293b83612a45565b9250826b7fffffffffffffffffffffff048211600084136000841316161561296657612965612c24565b5b817fffffffffffffffffffffffffffffffffffffffff80000000000000000000000005831260008412600084131616156129a3576129a2612c24565b5b827fffffffffffffffffffffffffffffffffffffffff80000000000000000000000005821260008413600084121616156129e0576129df612c24565b5b826b7fffffffffffffffffffffff0582126000841260008412161615612a0957612a08612c24565b5b828202905092915050565b6000612a1f82612a52565b9050919050565b60008115159050919050565b6000819050612a4082612d99565b919050565b600081600b0b9050919050565b600073ffffffffffffffffffffffffffffffffffffffff82169050919050565b6000819050919050565b60006bffffffffffffffffffffffff82169050919050565b6000612a9f82612b12565b9050919050565b6000612ab182612b12565b9050919050565b6000612ac382612b12565b9050919050565b6000612ad582612b12565b9050919050565b6000612ae782612b12565b9050919050565b6000612af982612a32565b9050919050565b6000612b0b82612a72565b9050919050565b6000612b1d82612b24565b9050919050565b6000612b2f82612a52565b9050919050565b82818337600083830152505050565b60005b83811015612b63578082015181840152602081019050612b48565b83811115612b72576000848401525b50505050565b60006002820490506001821680612b9057607f821691505b60208210811415612ba457612ba3612cb1565b5b50919050565b612bb382612d5c565b810181811067ffffffffffffffff82111715612bd257612bd1612d0f565b5b80604052505050565b6000612be682612a72565b91507fffffffffffffffffffffffffffffffffffffffffffffffffffffffffffffffff821415612c1957612c18612c24565b5b600182019050919050565b7f4e487b7100000000000000000000000000000000000000000000000000000000600052601160045260246000fd5b7f4e487b7100000000000000000000000000000000000000000000000000000000600052601260045260246000fd5b7f4e487b7100000000000000000000000000000000000000000000000000000000600052602160045260246000fd5b7f4e487b7100000000000000000000000000000000000000000000000000000000600052602260045260246000fd5b7f4e487b7100000000000000000000000000000000000000000000000000000000600052603260045260246000fd5b7f4e487b7100000000000000000000000000000000000000000000000000000000600052604160045260246000fd5b600080fd5b600080fd5b600080fd5b600080fd5b600080fd5b600080fd5b6000601f19601f8301169050919050565b7f3078000000000000000000000000000000000000000000000000000000000000600082015250565b50565b60058110612daa57612da9612c82565b5b50565b612db681612a14565b8114612dc157600080fd5b50565b612dcd81612a26565b8114612dd857600080fd5b50565b612de481612a72565b8114612def57600080fd5b5056fea2646970667358221220aa2c0afdd1ef8203a9fd693444c6b691533267a56c7b5ef985e924c690b86fad64736f6c63430008070033",
  "linkReferences": {},
  "deployedLinkReferences": {}
}