{
  "_format": "hh-sol-artifact-1",
  "contractName": "CallForFundsStorage",
  "sourceName": "contracts/CallForFundsStorage.sol",
  "abi": [
    {
      "inputs": [],
      "name": "_cfa",
      "outputs": [
        {
          "internalType": "contract IConstantFlowAgreementV1",
          "name": "",
          "type": "address"
        }
      ],
      "stateMutability": "view",
      "type": "function"
    },
    {
      "inputs": [],
      "name": "_dai",
      "outputs": [
        {
          "internalType": "contract ERC20WithTokenInfo",
          "name": "",
          "type": "address"
        }
      ],
      "stateMutability": "view",
      "type": "function"
    },
    {
      "inputs": [],
      "name": "_daix",
      "outputs": [
        {
          "internalType": "contract ISuperToken",
          "name": "",
          "type": "address"
        }
      ],
      "stateMutability": "view",
      "type": "function"
    },
    {
      "inputs": [],
      "name": "_ethx",
      "outputs": [
        {
          "internalType": "contract ISETH",
          "name": "",
          "type": "address"
        }
      ],
      "stateMutability": "view",
      "type": "function"
    },
    {
      "inputs": [],
      "name": "_host",
      "outputs": [
        {
          "internalType": "contract ISuperfluid",
          "name": "",
          "type": "address"
        }
      ],
      "stateMutability": "view",
      "type": "function"
    },
    {
      "inputs": [],
      "name": "category",
      "outputs": [
        {
          "internalType": "string",
          "name": "",
          "type": "string"
        }
      ],
      "stateMutability": "view",
      "type": "function"
    },
    {
      "inputs": [],
      "name": "creator",
      "outputs": [
        {
          "internalType": "address",
          "name": "",
          "type": "address"
        }
      ],
      "stateMutability": "view",
      "type": "function"
    },
    {
      "inputs": [],
      "name": "deliverableMedium",
      "outputs": [
        {
          "internalType": "string",
          "name": "",
          "type": "string"
        }
      ],
      "stateMutability": "view",
      "type": "function"
    },
    {
      "inputs": [],
      "name": "deliverableURI",
      "outputs": [
        {
          "internalType": "string",
          "name": "",
          "type": "string"
        }
      ],
      "stateMutability": "view",
      "type": "function"
    },
    {
      "inputs": [],
      "name": "description",
      "outputs": [
        {
          "internalType": "string",
          "name": "",
          "type": "string"
        }
      ],
      "stateMutability": "view",
      "type": "function"
    },
    {
      "inputs": [],
      "name": "fundingState",
      "outputs": [
        {
          "internalType": "enum CallForFundsStorage.FundingState",
          "name": "",
          "type": "uint8"
        }
      ],
      "stateMutability": "view",
      "type": "function"
    },
    {
      "inputs": [],
      "name": "genre",
      "outputs": [
        {
          "internalType": "string",
          "name": "",
          "type": "string"
        }
      ],
      "stateMutability": "view",
      "type": "function"
    },
    {
      "inputs": [],
      "name": "image",
      "outputs": [
        {
          "internalType": "string",
          "name": "",
          "type": "string"
        }
      ],
      "stateMutability": "view",
      "type": "function"
    },
    {
      "inputs": [],
      "name": "loudverseAdmin",
      "outputs": [
        {
          "internalType": "address",
          "name": "",
          "type": "address"
        }
      ],
      "stateMutability": "view",
      "type": "function"
    },
    {
      "inputs": [],
      "name": "minFundingAmount",
      "outputs": [
        {
          "internalType": "uint256",
          "name": "",
          "type": "uint256"
        }
      ],
      "stateMutability": "view",
      "type": "function"
    },
    {
      "inputs": [],
      "name": "subgenre",
      "outputs": [
        {
          "internalType": "string",
          "name": "",
          "type": "string"
        }
      ],
      "stateMutability": "view",
      "type": "function"
    },
    {
      "inputs": [],
      "name": "timelineInDays",
      "outputs": [
        {
          "internalType": "uint96",
          "name": "",
          "type": "uint96"
        }
      ],
      "stateMutability": "view",
      "type": "function"
    },
    {
      "inputs": [],
      "name": "title",
      "outputs": [
        {
          "internalType": "string",
          "name": "",
          "type": "string"
        }
      ],
      "stateMutability": "view",
      "type": "function"
    },
    {
      "inputs": [],
      "name": "videoUri",
      "outputs": [
        {
          "internalType": "string",
          "name": "",
          "type": "string"
        }
      ],
      "stateMutability": "view",
      "type": "function"
    }
  ],
  "bytecode": "0x608060405234801561001057600080fd5b50610d51806100206000396000f3fe608060405234801561001057600080fd5b50600436106101215760003560e01c80638e22ce1d116100ad578063c791316e11610071578063c791316e146102ca578063d0012723146102e8578063e685112714610306578063ef430aa614610324578063f3ccaac01461034257610121565b80638e22ce1d146102345780639699119d146102525780639cf0bd0d14610270578063ab115d721461028e578063b25cdccf146102ac57610121565b80637284e416116100f45780637284e4161461019e57806377f78ad3146101bc5780637cb4d6d7146101da5780637e52b6ab146101f8578063852e5a0a1461021657610121565b806302d05d3f14610126578063055268781461014457806317de3a41146101625780634a79d50c14610180575b600080fd5b61012e610360565b60405161013b9190610a0b565b60405180910390f35b61014c610386565b6040516101599190610ac8565b60405180910390f35b61016a610414565b6040516101779190610ac8565b60405180910390f35b6101886104a2565b6040516101959190610ac8565b60405180910390f35b6101a6610530565b6040516101b39190610ac8565b60405180910390f35b6101c46105be565b6040516101d19190610a26565b60405180910390f35b6101e26105d6565b6040516101ef9190610a41565b60405180910390f35b6102006105ee565b60405161020d9190610a77565b60405180910390f35b61021e610606565b60405161022b9190610a92565b60405180910390f35b61023c61061e565b6040516102499190610a0b565b60405180910390f35b61025a610636565b6040516102679190610b05565b60405180910390f35b610278610654565b6040516102859190610ac8565b60405180910390f35b6102966106e2565b6040516102a39190610ac8565b60405180910390f35b6102b4610770565b6040516102c19190610aad565b60405180910390f35b6102d2610783565b6040516102df9190610aea565b60405180910390f35b6102f0610789565b6040516102fd9190610a5c565b60405180910390f35b61030e6107a1565b60405161031b9190610ac8565b60405180910390f35b61032c61082f565b6040516103399190610ac8565b60405180910390f35b61034a6108bd565b6040516103579190610ac8565b60405180910390f35b600160009054906101000a900473ffffffffffffffffffffffffffffffffffffffff1681565b600b805461039390610c66565b80601f01602080910402602001604051908101604052809291908181526020018280546103bf90610c66565b801561040c5780601f106103e15761010080835404028352916020019161040c565b820191906000526020600020905b8154815290600101906020018083116103ef57829003601f168201915b505050505081565b6006805461042190610c66565b80601f016020809104026020016040519081016040528092919081815260200182805461044d90610c66565b801561049a5780601f1061046f5761010080835404028352916020019161049a565b820191906000526020600020905b81548152906001019060200180831161047d57829003601f168201915b505050505081565b600280546104af90610c66565b80601f01602080910402602001604051908101604052809291908181526020018280546104db90610c66565b80156105285780601f106104fd57610100808354040283529160200191610528565b820191906000526020600020905b81548152906001019060200180831161050b57829003601f168201915b505050505081565b6003805461053d90610c66565b80601f016020809104026020016040519081016040528092919081815260200182805461056990610c66565b80156105b65780601f1061058b576101008083540402835291602001916105b6565b820191906000526020600020905b81548152906001019060200180831161059957829003601f168201915b505050505081565b7315f0ca26781c3852f8166ed2ebce5d18265cceb781565b7349e565ed1bdc17f3d220f72df0857c26fa83f87381565b735d8b4c2554aeb7e86f387b4d6c00ac33499ed01f81565b73eb796bdb90ffa0f28255275e16936d25d341860381565b73a4e987fb3808d9fc206112967477793ea838945081565b600960009054906101000a90046bffffffffffffffffffffffff1681565b6008805461066190610c66565b80601f016020809104026020016040519081016040528092919081815260200182805461068d90610c66565b80156106da5780601f106106af576101008083540402835291602001916106da565b820191906000526020600020905b8154815290600101906020018083116106bd57829003601f168201915b505050505081565b600780546106ef90610c66565b80601f016020809104026020016040519081016040528092919081815260200182805461071b90610c66565b80156107685780601f1061073d57610100808354040283529160200191610768565b820191906000526020600020905b81548152906001019060200180831161074b57829003601f168201915b505050505081565b600d60009054906101000a900460ff1681565b600a5481565b7396b82b65acf7072efeb00502f45757f254c2a0d481565b600c80546107ae90610c66565b80601f01602080910402602001604051908101604052809291908181526020018280546107da90610c66565b80156108275780601f106107fc57610100808354040283529160200191610827565b820191906000526020600020905b81548152906001019060200180831161080a57829003601f168201915b505050505081565b6005805461083c90610c66565b80601f016020809104026020016040519081016040528092919081815260200182805461086890610c66565b80156108b55780601f1061088a576101008083540402835291602001916108b5565b820191906000526020600020905b81548152906001019060200180831161089857829003601f168201915b505050505081565b600480546108ca90610c66565b80601f01602080910402602001604051908101604052809291908181526020018280546108f690610c66565b80156109435780601f1061091857610100808354040283529160200191610943565b820191906000526020600020905b81548152906001019060200180831161092657829003601f168201915b505050505081565b61095481610b3c565b82525050565b61096381610ba3565b82525050565b61097281610bb5565b82525050565b61098181610bc7565b82525050565b61099081610bd9565b82525050565b61099f81610beb565b82525050565b6109ae81610bfd565b82525050565b60006109bf82610b20565b6109c98185610b2b565b93506109d9818560208601610c33565b6109e281610cf6565b840191505092915050565b6109f681610b81565b82525050565b610a0581610b8b565b82525050565b6000602082019050610a20600083018461094b565b92915050565b6000602082019050610a3b600083018461095a565b92915050565b6000602082019050610a566000830184610969565b92915050565b6000602082019050610a716000830184610978565b92915050565b6000602082019050610a8c6000830184610987565b92915050565b6000602082019050610aa76000830184610996565b92915050565b6000602082019050610ac260008301846109a5565b92915050565b60006020820190508181036000830152610ae281846109b4565b905092915050565b6000602082019050610aff60008301846109ed565b92915050565b6000602082019050610b1a60008301846109fc565b92915050565b600081519050919050565b600082825260208201905092915050565b6000610b4782610b61565b9050919050565b6000819050610b5c82610d07565b919050565b600073ffffffffffffffffffffffffffffffffffffffff82169050919050565b6000819050919050565b60006bffffffffffffffffffffffff82169050919050565b6000610bae82610c0f565b9050919050565b6000610bc082610c0f565b9050919050565b6000610bd282610c0f565b9050919050565b6000610be482610c0f565b9050919050565b6000610bf682610c0f565b9050919050565b6000610c0882610b4e565b9050919050565b6000610c1a82610c21565b9050919050565b6000610c2c82610b61565b9050919050565b60005b83811015610c51578082015181840152602081019050610c36565b83811115610c60576000848401525b50505050565b60006002820490506001821680610c7e57607f821691505b60208210811415610c9257610c91610cc7565b5b50919050565b7f4e487b7100000000000000000000000000000000000000000000000000000000600052602160045260246000fd5b7f4e487b7100000000000000000000000000000000000000000000000000000000600052602260045260246000fd5b6000601f19601f8301169050919050565b60058110610d1857610d17610c98565b5b5056fea2646970667358221220b510922c4de2510e731c4fa6ba1a5d00a724625b276164f65c0c795df9d2f85d64736f6c63430008070033",
  "linkReferences": {},
  "deployedLinkReferences": {}
}