{
  "_format": "hh-sol-artifact-1",
  "contractName": "CallForFundsLogic",
  "sourceName": "contracts/CallForFundsLogic.sol",
  "abi": [
    {
      "inputs": [
        {
          "internalType": "address",
          "name": "crowdCommission_",
          "type": "address"
        },
        {
          "internalType": "address",
          "name": "smartArt_",
          "type": "address"
        }
      ],
      "stateMutability": "nonpayable",
      "type": "constructor"
    },
    {
      "anonymous": false,
      "inputs": [
        {
          "indexed": true,
          "internalType": "uint256",
          "name": "amountMatched",
          "type": "uint256"
        }
      ],
      "name": "CallMatched",
      "type": "event"
    },
    {
      "anonymous": false,
      "inputs": [
        {
          "indexed": true,
          "internalType": "address",
          "name": "donator",
          "type": "address"
        },
        {
          "indexed": false,
          "internalType": "uint256",
          "name": "amount",
          "type": "uint256"
        }
      ],
      "name": "ContributionReceivedETH",
      "type": "event"
    },
    {
      "anonymous": false,
      "inputs": [
        {
          "indexed": true,
          "internalType": "enum CallForFundsStorage.FundingState",
          "name": "newFundingState",
          "type": "uint8"
        }
      ],
      "name": "FundingStateChanged",
      "type": "event"
    },
    {
      "anonymous": false,
      "inputs": [
        {
          "indexed": true,
          "internalType": "address[]",
          "name": "addresses",
          "type": "address[]"
        },
        {
          "indexed": true,
          "internalType": "uint256[]",
          "name": "amounts",
          "type": "uint256[]"
        }
      ],
      "name": "RefundCompleted",
      "type": "event"
    },
    {
      "anonymous": false,
      "inputs": [],
      "name": "StreamStarted",
      "type": "event"
    },
    {
      "anonymous": false,
      "inputs": [
        {
          "indexed": false,
          "internalType": "string",
          "name": "deliverableURI",
          "type": "string"
        }
      ],
      "name": "WorkDelivered",
      "type": "event"
    },
    {
      "inputs": [],
      "name": "_cfa",
      "outputs": [
        {
          "internalType": "contract IConstantFlowAgreementV1",
          "name": "",
          "type": "address"
        }
      ],
      "stateMutability": "view",
      "type": "function"
    },
    {
      "inputs": [],
      "name": "_ethx",
      "outputs": [
        {
          "internalType": "contract ISETH",
          "name": "",
          "type": "address"
        }
      ],
      "stateMutability": "view",
      "type": "function"
    },
    {
      "inputs": [],
      "name": "_host",
      "outputs": [
        {
          "internalType": "contract ISuperfluid",
          "name": "",
          "type": "address"
        }
      ],
      "stateMutability": "view",
      "type": "function"
    },
    {
      "inputs": [],
      "name": "category",
      "outputs": [
        {
          "internalType": "string",
          "name": "",
          "type": "string"
        }
      ],
      "stateMutability": "view",
      "type": "function"
    },
    {
      "inputs": [],
      "name": "creator",
      "outputs": [
        {
          "internalType": "address",
          "name": "",
          "type": "address"
        }
      ],
      "stateMutability": "view",
      "type": "function"
    },
    {
      "inputs": [],
      "name": "crowdCommission",
      "outputs": [
        {
          "internalType": "address",
          "name": "",
          "type": "address"
        }
      ],
      "stateMutability": "view",
      "type": "function"
    },
    {
      "inputs": [
        {
          "internalType": "string",
          "name": "deliverableURI_",
          "type": "string"
        },
        {
          "internalType": "address",
          "name": "slicerAddress",
          "type": "address"
        }
      ],
      "name": "deliver",
      "outputs": [],
      "stateMutability": "nonpayable",
      "type": "function"
    },
    {
      "inputs": [],
      "name": "deliverableMedium",
      "outputs": [
        {
          "internalType": "string",
          "name": "",
          "type": "string"
        }
      ],
      "stateMutability": "view",
      "type": "function"
    },
    {
      "inputs": [],
      "name": "deliverableURI",
      "outputs": [
        {
          "internalType": "string",
          "name": "",
          "type": "string"
        }
      ],
      "stateMutability": "view",
      "type": "function"
    },
    {
      "inputs": [],
      "name": "description",
      "outputs": [
        {
          "internalType": "string",
          "name": "",
          "type": "string"
        }
      ],
      "stateMutability": "view",
      "type": "function"
    },
    {
      "inputs": [],
      "name": "factory",
      "outputs": [
        {
          "internalType": "address",
          "name": "",
          "type": "address"
        }
      ],
      "stateMutability": "view",
      "type": "function"
    },
    {
      "inputs": [],
      "name": "fundingState",
      "outputs": [
        {
          "internalType": "enum CallForFundsStorage.FundingState",
          "name": "",
          "type": "uint8"
        }
      ],
      "stateMutability": "view",
      "type": "function"
    },
    {
      "inputs": [],
      "name": "genre",
      "outputs": [
        {
          "internalType": "string",
          "name": "",
          "type": "string"
        }
      ],
      "stateMutability": "view",
      "type": "function"
    },
    {
      "inputs": [],
      "name": "image",
      "outputs": [
        {
          "internalType": "string",
          "name": "",
          "type": "string"
        }
      ],
      "stateMutability": "view",
      "type": "function"
    },
    {
      "inputs": [],
      "name": "loudverseAdmin",
      "outputs": [
        {
          "internalType": "address",
          "name": "",
          "type": "address"
        }
      ],
      "stateMutability": "view",
      "type": "function"
    },
    {
      "inputs": [
        {
          "internalType": "address[]",
          "name": "funders",
          "type": "address[]"
        },
        {
          "internalType": "uint256",
          "name": "id",
          "type": "uint256"
        },
        {
          "internalType": "bytes",
          "name": "data",
          "type": "bytes"
        }
      ],
      "name": "matchCallForFunds",
      "outputs": [],
      "stateMutability": "payable",
      "type": "function"
    },
    {
      "inputs": [],
      "name": "minFundingAmount",
      "outputs": [
        {
          "internalType": "uint256",
          "name": "",
          "type": "uint256"
        }
      ],
      "stateMutability": "view",
      "type": "function"
    },
    {
      "inputs": [
        {
          "internalType": "address[]",
          "name": "funders",
          "type": "address[]"
        },
        {
          "internalType": "uint256",
          "name": "id",
          "type": "uint256"
        },
        {
          "internalType": "bytes",
          "name": "data",
          "type": "bytes"
        }
      ],
      "name": "mintCrowdCommission",
      "outputs": [],
      "stateMutability": "nonpayable",
      "type": "function"
    },
    {
      "inputs": [
        {
          "internalType": "address",
          "name": "to",
          "type": "address"
        },
        {
          "internalType": "address",
          "name": "royaltyRecipient",
          "type": "address"
        },
        {
          "internalType": "uint256",
          "name": "royaltyValue",
          "type": "uint256"
        },
        {
          "internalType": "string",
          "name": "uri",
          "type": "string"
        }
      ],
      "name": "mintSmartArt",
      "outputs": [],
      "stateMutability": "nonpayable",
      "type": "function"
    },
    {
      "inputs": [
        {
          "internalType": "address[]",
          "name": "addresses",
          "type": "address[]"
        },
        {
          "internalType": "uint256[]",
          "name": "amounts",
          "type": "uint256[]"
        }
      ],
      "name": "refund",
      "outputs": [],
      "stateMutability": "nonpayable",
      "type": "function"
    },
    {
      "inputs": [
        {
          "internalType": "address",
          "name": "factoryAddress",
          "type": "address"
        }
      ],
      "name": "setFactory",
      "outputs": [],
      "stateMutability": "nonpayable",
      "type": "function"
    },
    {
      "inputs": [],
      "name": "smartArt",
      "outputs": [
        {
          "internalType": "address",
          "name": "",
          "type": "address"
        }
      ],
      "stateMutability": "view",
      "type": "function"
    },
    {
      "inputs": [],
      "name": "startStream",
      "outputs": [],
      "stateMutability": "payable",
      "type": "function"
    },
    {
      "inputs": [],
      "name": "subgenre",
      "outputs": [
        {
          "internalType": "string",
          "name": "",
          "type": "string"
        }
      ],
      "stateMutability": "view",
      "type": "function"
    },
    {
      "inputs": [],
      "name": "timelineInDays",
      "outputs": [
        {
          "internalType": "uint96",
          "name": "",
          "type": "uint96"
        }
      ],
      "stateMutability": "view",
      "type": "function"
    },
    {
      "inputs": [],
      "name": "title",
      "outputs": [
        {
          "internalType": "string",
          "name": "",
          "type": "string"
        }
      ],
      "stateMutability": "view",
      "type": "function"
    },
    {
      "inputs": [],
      "name": "videoUri",
      "outputs": [
        {
          "internalType": "string",
          "name": "",
          "type": "string"
        }
      ],
      "stateMutability": "view",
      "type": "function"
    },
    {
      "stateMutability": "payable",
      "type": "receive"
    }
  ],
  "bytecode": "0x60c06040523480156200001157600080fd5b5060405162002ebb38038062002ebb8339818101604052810190620000379190620000c4565b8173ffffffffffffffffffffffffffffffffffffffff1660808173ffffffffffffffffffffffffffffffffffffffff1660601b815250508073ffffffffffffffffffffffffffffffffffffffff1660a08173ffffffffffffffffffffffffffffffffffffffff1660601b8152505050506200015e565b600081519050620000be8162000144565b92915050565b60008060408385031215620000de57620000dd6200013f565b5b6000620000ee85828601620000ad565b92505060206200010185828601620000ad565b9150509250929050565b600062000118826200011f565b9050919050565b600073ffffffffffffffffffffffffffffffffffffffff82169050919050565b600080fd5b6200014f816200010b565b81146200015b57600080fd5b50565b60805160601c60a05160601c612d236200019860003960008181610e7101526116ca0152600081816114fc01526117a90152612d236000f3fe6080604052600436106101a05760003560e01c8063ab115d72116100ec578063d00127231161008a578063ef430aa611610064578063ef430aa61461059f578063f3ccaac0146105ca578063f66c3ff4146105f5578063fe5a6fd114610620576101f5565b8063d00127231461051e578063d2ac318214610549578063e685112714610574576101f5565b8063b574d071116100c6578063b574d07114610495578063c091c4351461049f578063c45a0155146104c8578063c791316e146104f3576101f5565b8063ab115d7214610416578063b25cdccf14610441578063b49ab7f61461046c576101f5565b80635bb4780811610159578063852e5a0a11610133578063852e5a0a1461036a5780638e22ce1d146103955780639699119d146103c05780639cf0bd0d146103eb576101f5565b80635bb47808146102eb5780637284e416146103145780637cb4d6d71461033f576101f5565b806302d05d3f146101fa57806305526878146102255780630abcf678146102505780630e212fad1461027957806317de3a41146102955780634a79d50c146102c0576101f5565b366101f5573373ffffffffffffffffffffffffffffffffffffffff167f2f0f1ca72899668d93500f451ad66c0a4e9f7f3f4974f3206c27069fb2c7f2b1346040516101eb91906125c8565b60405180910390a2005b600080fd5b34801561020657600080fd5b5061020f610649565b60405161021c919061238f565b60405180910390f35b34801561023157600080fd5b5061023a61066f565b6040516102479190612584565b60405180910390f35b34801561025c57600080fd5b5061027760048036038101906102729190611f2e565b6106fd565b005b610293600480360381019061028e9190611db0565b610889565b005b3480156102a157600080fd5b506102aa6109e5565b6040516102b79190612584565b60405180910390f35b3480156102cc57600080fd5b506102d5610a73565b6040516102e29190612584565b60405180910390f35b3480156102f757600080fd5b50610312600480360381019061030d9190611d00565b610b01565b005b34801561032057600080fd5b50610329610b91565b6040516103369190612584565b60405180910390f35b34801561034b57600080fd5b50610354610c1f565b6040516103619190612489565b60405180910390f35b34801561037657600080fd5b5061037f610c37565b60405161038c919061254e565b60405180910390f35b3480156103a157600080fd5b506103aa610c4f565b6040516103b7919061238f565b60405180910390f35b3480156103cc57600080fd5b506103d5610c67565b6040516103e291906125e3565b60405180910390f35b3480156103f757600080fd5b50610400610c85565b60405161040d9190612584565b60405180910390f35b34801561042257600080fd5b5061042b610d13565b6040516104389190612584565b60405180910390f35b34801561044d57600080fd5b50610456610da1565b6040516104639190612569565b60405180910390f35b34801561047857600080fd5b50610493600480360381019061048e9190611d2d565b610db4565b005b61049d610f07565b005b3480156104ab57600080fd5b506104c660048036038101906104c19190611e40565b611351565b005b3480156104d457600080fd5b506104dd6114b6565b6040516104ea919061238f565b60405180910390f35b3480156104ff57600080fd5b506105086114dc565b60405161051591906125c8565b60405180910390f35b34801561052a57600080fd5b506105336114e2565b60405161054091906124e7565b60405180910390f35b34801561055557600080fd5b5061055e6114fa565b60405161056b919061238f565b60405180910390f35b34801561058057600080fd5b5061058961151e565b6040516105969190612584565b60405180910390f35b3480156105ab57600080fd5b506105b46115ac565b6040516105c19190612584565b60405180910390f35b3480156105d657600080fd5b506105df61163a565b6040516105ec9190612584565b60405180910390f35b34801561060157600080fd5b5061060a6116c8565b604051610617919061238f565b60405180910390f35b34801561062c57600080fd5b5061064760048036038101906106429190611db0565b6116ec565b005b600160009054906101000a900473ffffffffffffffffffffffffffffffffffffffff1681565b600b805461067c90612a73565b80601f01602080910402602001604051908101604052809291908181526020018280546106a890612a73565b80156106f55780601f106106ca576101008083540402835291602001916106f5565b820191906000526020600020905b8154815290600101906020018083116106d857829003601f168201915b505050505081565b600160009054906101000a900473ffffffffffffffffffffffffffffffffffffffff1673ffffffffffffffffffffffffffffffffffffffff163373ffffffffffffffffffffffffffffffffffffffff161461075757600080fd5b600380600481111561076c5761076b612b7d565b5b600d60009054906101000a900460ff16600481111561078e5761078d612b7d565b5b1461079857600080fd5b82600c90805190602001906107ae929190611927565b507fcb7230e908facd21b119ab7a11e0247b8d5374e49d8cc50fa9a53b7601f237c9600c6040516107df91906125a6565b60405180910390a160008054906101000a900473ffffffffffffffffffffffffffffffffffffffff1673ffffffffffffffffffffffffffffffffffffffff1663b49ab7f633846103e8876040518563ffffffff1660e01b815260040161084894939291906123aa565b600060405180830381600087803b15801561086257600080fd5b505af1158015610876573d6000803e3d6000fd5b50505050610884600461183f565b505050565b73a4e987fb3808d9fc206112967477793ea838945073ffffffffffffffffffffffffffffffffffffffff163373ffffffffffffffffffffffffffffffffffffffff16146108d557600080fd5b60008060048111156108ea576108e9612b7d565b5b600d60009054906101000a900460ff16600481111561090c5761090b612b7d565b5b1461091657600080fd5b347f2731c7491ce2f19381bc96e6c488a4e45d345b5efa893b339dd94e549f26477c60405160405180910390a260008054906101000a900473ffffffffffffffffffffffffffffffffffffffff1673ffffffffffffffffffffffffffffffffffffffff1663fe5a6fd1868686866040518563ffffffff1660e01b81526004016109a29493929190612442565b600060405180830381600087803b1580156109bc57600080fd5b505af11580156109d0573d6000803e3d6000fd5b505050506109de600261183f565b5050505050565b600680546109f290612a73565b80601f0160208091040260200160405190810160405280929190818152602001828054610a1e90612a73565b8015610a6b5780601f10610a4057610100808354040283529160200191610a6b565b820191906000526020600020905b815481529060010190602001808311610a4e57829003601f168201915b505050505081565b60028054610a8090612a73565b80601f0160208091040260200160405190810160405280929190818152602001828054610aac90612a73565b8015610af95780601f10610ace57610100808354040283529160200191610af9565b820191906000526020600020905b815481529060010190602001808311610adc57829003601f168201915b505050505081565b73a4e987fb3808d9fc206112967477793ea838945073ffffffffffffffffffffffffffffffffffffffff163373ffffffffffffffffffffffffffffffffffffffff1614610b4d57600080fd5b80600d60016101000a81548173ffffffffffffffffffffffffffffffffffffffff021916908373ffffffffffffffffffffffffffffffffffffffff16021790555050565b60038054610b9e90612a73565b80601f0160208091040260200160405190810160405280929190818152602001828054610bca90612a73565b8015610c175780601f10610bec57610100808354040283529160200191610c17565b820191906000526020600020905b815481529060010190602001808311610bfa57829003601f168201915b505050505081565b73f4c5310e51f6079f601a5fb7120bc72a70b96e2a81565b73ed5b5b32110c3ded02a07c8b8e97513fafb883b681565b73a4e987fb3808d9fc206112967477793ea838945081565b600960009054906101000a90046bffffffffffffffffffffffff1681565b60088054610c9290612a73565b80601f0160208091040260200160405190810160405280929190818152602001828054610cbe90612a73565b8015610d0b5780601f10610ce057610100808354040283529160200191610d0b565b820191906000526020600020905b815481529060010190602001808311610cee57829003601f168201915b505050505081565b60078054610d2090612a73565b80601f0160208091040260200160405190810160405280929190818152602001828054610d4c90612a73565b8015610d995780601f10610d6e57610100808354040283529160200191610d99565b820191906000526020600020905b815481529060010190602001808311610d7c57829003601f168201915b505050505081565b600d60009054906101000a900460ff1681565b6000600d60019054906101000a900473ffffffffffffffffffffffffffffffffffffffff1673ffffffffffffffffffffffffffffffffffffffff1663c4552791336040518263ffffffff1660e01b8152600401610e11919061238f565b602060405180830381600087803b158015610e2b57600080fd5b505af1158015610e3f573d6000803e3d6000fd5b505050506040513d601f19601f82011682018060405250810190610e639190611eb8565b905080610e6f57600080fd5b7f000000000000000000000000000000000000000000000000000000000000000073ffffffffffffffffffffffffffffffffffffffff1663b85cbc79868686866040518563ffffffff1660e01b8152600401610ece94939291906123f6565b600060405180830381600087803b158015610ee857600080fd5b505af1158015610efc573d6000803e3d6000fd5b505050505050505050565b600160009054906101000a900473ffffffffffffffffffffffffffffffffffffffff1673ffffffffffffffffffffffffffffffffffffffff163373ffffffffffffffffffffffffffffffffffffffff1614610f6157600080fd5b6002806004811115610f7657610f75612b7d565b5b600d60009054906101000a900460ff166004811115610f9857610f97612b7d565b5b14610fa257600080fd5b6000479050600073a623b2dd931c5162b7a0b25852f4024db48bb1a073ffffffffffffffffffffffffffffffffffffffff16825a906040516024016040516020818303038152906040527fcf81464b000000000000000000000000000000000000000000000000000000007bffffffffffffffffffffffffffffffffffffffffffffffffffffffff19166020820180517bffffffffffffffffffffffffffffffffffffffffffffffffffffffff83818316178352505050506040516110679190612363565b600060405180830381858888f193505050503d80600081146110a5576040519150601f19603f3d011682016040523d82523d6000602084013e6110aa565b606091505b50509050806110b857600080fd5b6000309050600073a623b2dd931c5162b7a0b25852f4024db48bb1a073ffffffffffffffffffffffffffffffffffffffff166370a08231836040518263ffffffff1660e01b815260040161110c919061238f565b60206040518083038186803b15801561112457600080fd5b505afa158015611138573d6000803e3d6000fd5b505050506040513d601f19601f8201168201806040525081019061115c9190611f8a565b90506000819050600062015180600960009054906101000a90046bffffffffffffffffffffffff1661118e9190612844565b90506000829050600082826111a391906127da565b905073ed5b5b32110c3ded02a07c8b8e97513fafb883b673ffffffffffffffffffffffffffffffffffffffff166339255d5b73f4c5310e51f6079f601a5fb7120bc72a70b96e2a6362fc305e60e01b73a623b2dd931c5162b7a0b25852f4024db48bb1a03386600067ffffffffffffffff81111561122457611223612c0a565b5b6040519080825280601f01601f1916602001820160405280156112565781602001600182028036833780820191505090505b5060405160240161126a9493929190612502565b604051602081830303815290604052907bffffffffffffffffffffffffffffffffffffffffffffffffffffffff19166020820180517bffffffffffffffffffffffffffffffffffffffffffffffffffffffff83818316178352505050506040518363ffffffff1660e01b81526004016112e49291906124a4565b600060405180830381600087803b1580156112fe57600080fd5b505af1158015611312573d6000803e3d6000fd5b505050506040513d6000823e3d601f19601f8201168201806040525081019061133b9190611ee5565b50611346600361183f565b505050505050505050565b73a4e987fb3808d9fc206112967477793ea838945073ffffffffffffffffffffffffffffffffffffffff163373ffffffffffffffffffffffffffffffffffffffff161461139d57600080fd5b60008060048111156113b2576113b1612b7d565b5b600d60009054906101000a900460ff1660048111156113d4576113d3612b7d565b5b146113de57600080fd5b6000600190505b835181101561144e57600061142e85838151811061140657611405612bdb565b5b602002602001015185848151811061142157611420612bdb565b5b60200260200101516118ab565b90508061143a57600080fd5b50808061144690612ad6565b9150506113e5565b508160405161145d919061234c565b6040518091039020836040516114739190612335565b60405180910390207f598d84241bfe93913995b638c1692ad8e8d01110f5bd1af00f0c68e095044c3d60405160405180910390a36114b1600161183f565b505050565b600d60019054906101000a900473ffffffffffffffffffffffffffffffffffffffff1681565b600a5481565b73a623b2dd931c5162b7a0b25852f4024db48bb1a081565b7f000000000000000000000000000000000000000000000000000000000000000081565b600c805461152b90612a73565b80601f016020809104026020016040519081016040528092919081815260200182805461155790612a73565b80156115a45780601f10611579576101008083540402835291602001916115a4565b820191906000526020600020905b81548152906001019060200180831161158757829003601f168201915b505050505081565b600580546115b990612a73565b80601f01602080910402602001604051908101604052809291908181526020018280546115e590612a73565b80156116325780601f1061160757610100808354040283529160200191611632565b820191906000526020600020905b81548152906001019060200180831161161557829003601f168201915b505050505081565b6004805461164790612a73565b80601f016020809104026020016040519081016040528092919081815260200182805461167390612a73565b80156116c05780601f10611695576101008083540402835291602001916116c0565b820191906000526020600020905b8154815290600101906020018083116116a357829003601f168201915b505050505081565b7f000000000000000000000000000000000000000000000000000000000000000081565b6000600d60019054906101000a900473ffffffffffffffffffffffffffffffffffffffff1673ffffffffffffffffffffffffffffffffffffffff1663c4552791336040518263ffffffff1660e01b8152600401611749919061238f565b602060405180830381600087803b15801561176357600080fd5b505af1158015611777573d6000803e3d6000fd5b505050506040513d601f19601f8201168201806040525081019061179b9190611eb8565b9050806117a757600080fd5b7f000000000000000000000000000000000000000000000000000000000000000073ffffffffffffffffffffffffffffffffffffffff16630e61295f868686866040518563ffffffff1660e01b81526004016118069493929190612442565b600060405180830381600087803b15801561182057600080fd5b505af1158015611834573d6000803e3d6000fd5b505050505050505050565b80600d60006101000a81548160ff0219169083600481111561186457611863612b7d565b5b021790555080600481111561187c5761187b612b7d565b5b7f9a0a9fbc5661a10573bae4de0b7535a3629b80dfd45bca03da02e07950f17c9a60405160405180910390a250565b6000808373ffffffffffffffffffffffffffffffffffffffff1683617530906040516118d69061237a565b600060405180830381858888f193505050503d8060008114611914576040519150601f19603f3d011682016040523d82523d6000602084013e611919565b606091505b505090508091505092915050565b82805461193390612a73565b90600052602060002090601f016020900481019282611955576000855561199c565b82601f1061196e57805160ff191683800117855561199c565b8280016001018555821561199c579182015b8281111561199b578251825591602001919060010190611980565b5b5090506119a991906119ad565b5090565b5b808211156119c65760008160009055506001016119ae565b5090565b60006119dd6119d884612623565b6125fe565b90508083825260208201905082856020860282011115611a00576119ff612c43565b5b60005b85811015611a305781611a168882611b70565b845260208401935060208301925050600181019050611a03565b5050509392505050565b6000611a4d611a488461264f565b6125fe565b90508083825260208201905082856020860282011115611a7057611a6f612c43565b5b60005b85811015611aa05781611a868882611cd6565b845260208401935060208301925050600181019050611a73565b5050509392505050565b6000611abd611ab88461267b565b6125fe565b905082815260208101848484011115611ad957611ad8612c48565b5b611ae4848285612a31565b509392505050565b6000611aff611afa8461267b565b6125fe565b905082815260208101848484011115611b1b57611b1a612c48565b5b611b26848285612a40565b509392505050565b6000611b41611b3c846126ac565b6125fe565b905082815260208101848484011115611b5d57611b5c612c48565b5b611b68848285612a31565b509392505050565b600081359050611b7f81612ca8565b92915050565b60008083601f840112611b9b57611b9a612c3e565b5b8235905067ffffffffffffffff811115611bb857611bb7612c39565b5b602083019150836020820283011115611bd457611bd3612c43565b5b9250929050565b600082601f830112611bf057611bef612c3e565b5b8135611c008482602086016119ca565b91505092915050565b600082601f830112611c1e57611c1d612c3e565b5b8135611c2e848260208601611a3a565b91505092915050565b600081519050611c4681612cbf565b92915050565b600082601f830112611c6157611c60612c3e565b5b8135611c71848260208601611aaa565b91505092915050565b600082601f830112611c8f57611c8e612c3e565b5b8151611c9f848260208601611aec565b91505092915050565b600082601f830112611cbd57611cbc612c3e565b5b8135611ccd848260208601611b2e565b91505092915050565b600081359050611ce581612cd6565b92915050565b600081519050611cfa81612cd6565b92915050565b600060208284031215611d1657611d15612c52565b5b6000611d2484828501611b70565b91505092915050565b60008060008060808587031215611d4757611d46612c52565b5b6000611d5587828801611b70565b9450506020611d6687828801611b70565b9350506040611d7787828801611cd6565b925050606085013567ffffffffffffffff811115611d9857611d97612c4d565b5b611da487828801611ca8565b91505092959194509250565b60008060008060608587031215611dca57611dc9612c52565b5b600085013567ffffffffffffffff811115611de857611de7612c4d565b5b611df487828801611b85565b94509450506020611e0787828801611cd6565b925050604085013567ffffffffffffffff811115611e2857611e27612c4d565b5b611e3487828801611c4c565b91505092959194509250565b60008060408385031215611e5757611e56612c52565b5b600083013567ffffffffffffffff811115611e7557611e74612c4d565b5b611e8185828601611bdb565b925050602083013567ffffffffffffffff811115611ea257611ea1612c4d565b5b611eae85828601611c09565b9150509250929050565b600060208284031215611ece57611ecd612c52565b5b6000611edc84828501611c37565b91505092915050565b600060208284031215611efb57611efa612c52565b5b600082015167ffffffffffffffff811115611f1957611f18612c4d565b5b611f2584828501611c7a565b91505092915050565b60008060408385031215611f4557611f44612c52565b5b600083013567ffffffffffffffff811115611f6357611f62612c4d565b5b611f6f85828601611ca8565b9250506020611f8085828601611b70565b9150509250929050565b600060208284031215611fa057611f9f612c52565b5b6000611fae84828501611ceb565b91505092915050565b6000611fc38383611fff565b60208301905092915050565b6000611fdb838361201d565b60208301905092915050565b6000611ff38383612317565b60208301905092915050565b61200881612933565b82525050565b61201781612933565b82525050565b61202681612933565b82525050565b6000612038838561276f565b9350612043826126dd565b8060005b8581101561207c5761205982846127c3565b6120638882611fb7565b975061206e83612748565b925050600181019050612047565b5085925050509392505050565b60006120948261271c565b61209e8185612780565b93506120a9836126e7565b8060005b838110156120da5781516120c18882611fcf565b97506120cc83612755565b9250506001810190506120ad565b5085935050505092915050565b60006120f282612727565b6120fc818561278b565b9350612107836126f7565b8060005b8381101561213857815161211f8882611fe7565b975061212a83612762565b92505060018101905061210b565b5085935050505092915050565b600061215082612732565b61215a8185612796565b935061216a818560208601612a40565b61217381612c57565b840191505092915050565b600061218982612732565b61219381856127a7565b93506121a3818560208601612a40565b80840191505092915050565b6121b8816129b3565b82525050565b6121c7816129c5565b82525050565b6121d6816129d7565b82525050565b6121e5816129e9565b82525050565b6121f481612964565b82525050565b612203816129fb565b82525050565b60006122148261273d565b61221e81856127b2565b935061222e818560208601612a40565b61223781612c57565b840191505092915050565b6000815461224f81612a73565b61225981866127b2565b945060018216600081146122745760018114612286576122b9565b60ff19831686526020860193506122b9565b61228f85612707565b60005b838110156122b157815481890152600182019150602081019050612292565b808801955050505b50505092915050565b60006122cf600283612796565b91506122da82612c68565b602082019050919050565b60006122f26000836127a7565b91506122fd82612c91565b600082019050919050565b61231181612991565b82525050565b61232081612991565b82525050565b61232f8161299b565b82525050565b60006123418284612089565b915081905092915050565b600061235882846120e7565b915081905092915050565b600061236f828461217e565b915081905092915050565b6000612385826122e5565b9150819050919050565b60006020820190506123a4600083018461200e565b92915050565b60006080820190506123bf600083018761200e565b6123cc602083018661200e565b6123d960408301856121fa565b81810360608301526123eb8184612209565b905095945050505050565b600060808201905061240b600083018761200e565b612418602083018661200e565b6124256040830185612308565b81810360608301526124378184612209565b905095945050505050565b6000606082019050818103600083015261245d81868861202c565b905061246c6020830185612308565b818103604083015261247e8184612145565b905095945050505050565b600060208201905061249e60008301846121af565b92915050565b60006060820190506124b960008301856121af565b81810360208301526124cb8184612145565b905081810360408301526124de816122c2565b90509392505050565b60006020820190506124fc60008301846121be565b92915050565b600060808201905061251760008301876121be565b612524602083018661200e565b61253160408301856121eb565b81810360608301526125438184612145565b905095945050505050565b600060208201905061256360008301846121cd565b92915050565b600060208201905061257e60008301846121dc565b92915050565b6000602082019050818103600083015261259e8184612209565b905092915050565b600060208201905081810360008301526125c08184612242565b905092915050565b60006020820190506125dd6000830184612308565b92915050565b60006020820190506125f86000830184612326565b92915050565b6000612608612619565b90506126148282612aa5565b919050565b6000604051905090565b600067ffffffffffffffff82111561263e5761263d612c0a565b5b602082029050602081019050919050565b600067ffffffffffffffff82111561266a57612669612c0a565b5b602082029050602081019050919050565b600067ffffffffffffffff82111561269657612695612c0a565b5b61269f82612c57565b9050602081019050919050565b600067ffffffffffffffff8211156126c7576126c6612c0a565b5b6126d082612c57565b9050602081019050919050565b6000819050919050565b6000819050602082019050919050565b6000819050602082019050919050565b60008190508160005260206000209050919050565b600081519050919050565b600081519050919050565b600081519050919050565b600081519050919050565b6000602082019050919050565b6000602082019050919050565b6000602082019050919050565b600082825260208201905092915050565b600081905092915050565b600081905092915050565b600082825260208201905092915050565b600081905092915050565b600082825260208201905092915050565b60006127d26020840184611b70565b905092915050565b60006127e582612964565b91506127f083612964565b925082612800576127ff612b4e565b5b600160000383147fffffffffffffffffffffffffffffffffffffffff8000000000000000000000008314161561283957612838612b1f565b5b828205905092915050565b600061284f82612964565b915061285a83612964565b9250826b7fffffffffffffffffffffff048211600084136000841316161561288557612884612b1f565b5b817fffffffffffffffffffffffffffffffffffffffff80000000000000000000000005831260008412600084131616156128c2576128c1612b1f565b5b827fffffffffffffffffffffffffffffffffffffffff80000000000000000000000005821260008413600084121616156128ff576128fe612b1f565b5b826b7fffffffffffffffffffffff058212600084126000841216161561292857612927612b1f565b5b828202905092915050565b600061293e82612971565b9050919050565b60008115159050919050565b600081905061295f82612c94565b919050565b600081600b0b9050919050565b600073ffffffffffffffffffffffffffffffffffffffff82169050919050565b6000819050919050565b60006bffffffffffffffffffffffff82169050919050565b60006129be82612a0d565b9050919050565b60006129d082612a0d565b9050919050565b60006129e282612a0d565b9050919050565b60006129f482612951565b9050919050565b6000612a0682612991565b9050919050565b6000612a1882612a1f565b9050919050565b6000612a2a82612971565b9050919050565b82818337600083830152505050565b60005b83811015612a5e578082015181840152602081019050612a43565b83811115612a6d576000848401525b50505050565b60006002820490506001821680612a8b57607f821691505b60208210811415612a9f57612a9e612bac565b5b50919050565b612aae82612c57565b810181811067ffffffffffffffff82111715612acd57612acc612c0a565b5b80604052505050565b6000612ae182612991565b91507fffffffffffffffffffffffffffffffffffffffffffffffffffffffffffffffff821415612b1457612b13612b1f565b5b600182019050919050565b7f4e487b7100000000000000000000000000000000000000000000000000000000600052601160045260246000fd5b7f4e487b7100000000000000000000000000000000000000000000000000000000600052601260045260246000fd5b7f4e487b7100000000000000000000000000000000000000000000000000000000600052602160045260246000fd5b7f4e487b7100000000000000000000000000000000000000000000000000000000600052602260045260246000fd5b7f4e487b7100000000000000000000000000000000000000000000000000000000600052603260045260246000fd5b7f4e487b7100000000000000000000000000000000000000000000000000000000600052604160045260246000fd5b600080fd5b600080fd5b600080fd5b600080fd5b600080fd5b600080fd5b6000601f19601f8301169050919050565b7f3078000000000000000000000000000000000000000000000000000000000000600082015250565b50565b60058110612ca557612ca4612b7d565b5b50565b612cb181612933565b8114612cbc57600080fd5b50565b612cc881612945565b8114612cd357600080fd5b50565b612cdf81612991565b8114612cea57600080fd5b5056fea26469706673582212202b5b1031add594dd3beb0910be02dfa330359ffd3758700c6107bd54512d56a564736f6c63430008070033",
  "linkReferences": {},
  "deployedLinkReferences": {}
}