{
  "_format": "hh-sol-artifact-1",
  "contractName": "CallForFundsFactory",
  "sourceName": "contracts/CallForFundsFactory.sol",
  "abi": [
    {
      "inputs": [
        {
          "internalType": "address",
          "name": "_logicAddress",
          "type": "address"
        }
      ],
      "stateMutability": "nonpayable",
      "type": "constructor"
    },
    {
      "anonymous": false,
      "inputs": [
        {
          "indexed": true,
          "internalType": "address",
          "name": "CallForFunds",
          "type": "address"
        },
        {
          "indexed": true,
          "internalType": "address",
          "name": "creator",
          "type": "address"
        },
        {
          "indexed": false,
          "internalType": "string",
          "name": "title",
          "type": "string"
        },
        {
          "indexed": false,
          "internalType": "string",
          "name": "description",
          "type": "string"
        },
        {
          "indexed": true,
          "internalType": "string",
          "name": "image",
          "type": "string"
        },
        {
          "indexed": false,
          "internalType": "string",
          "name": "category",
          "type": "string"
        },
        {
          "indexed": false,
          "internalType": "string",
          "name": "genre",
          "type": "string"
        },
        {
          "indexed": false,
          "internalType": "string",
          "name": "subgenre",
          "type": "string"
        },
        {
          "indexed": false,
          "internalType": "uint8",
          "name": "timelineInDays",
          "type": "uint8"
        },
        {
          "indexed": false,
          "internalType": "uint256",
          "name": "minFundingAmount",
          "type": "uint256"
        },
        {
          "indexed": false,
          "internalType": "string",
          "name": "deliverableMedium",
          "type": "string"
        }
      ],
      "name": "CallForFundsCreated",
      "type": "event"
    },
    {
      "inputs": [
        {
          "internalType": "string",
          "name": "_title",
          "type": "string"
        },
        {
          "internalType": "string",
          "name": "_description",
          "type": "string"
        },
        {
          "internalType": "string",
          "name": "_image",
          "type": "string"
        },
        {
          "internalType": "string",
          "name": "_category",
          "type": "string"
        },
        {
          "internalType": "string",
          "name": "_genre",
          "type": "string"
        },
        {
          "internalType": "string",
          "name": "_subgenre",
          "type": "string"
        },
        {
          "internalType": "uint8",
          "name": "_timelineInDays",
          "type": "uint8"
        },
        {
          "internalType": "uint256",
          "name": "_minFundingAmount",
          "type": "uint256"
        },
        {
          "internalType": "string",
          "name": "_deliverableMedium",
          "type": "string"
        }
      ],
      "name": "createCallForFunds",
      "outputs": [
        {
          "internalType": "address",
          "name": "proxy",
          "type": "address"
        }
      ],
      "stateMutability": "nonpayable",
      "type": "function"
    },
    {
      "inputs": [],
      "name": "logicAddress",
      "outputs": [
        {
          "internalType": "address",
          "name": "",
          "type": "address"
        }
      ],
      "stateMutability": "view",
      "type": "function"
    }
  ],
  "bytecode": "0x60a060405234801561001057600080fd5b50604051611b7a380380611b7a83398181016040528101906100329190610084565b8073ffffffffffffffffffffffffffffffffffffffff1660808173ffffffffffffffffffffffffffffffffffffffff1660601b81525050506100f6565b60008151905061007e816100df565b92915050565b60006020828403121561009657600080fd5b60006100a48482850161006f565b91505092915050565b60006100b8826100bf565b9050919050565b600073ffffffffffffffffffffffffffffffffffffffff82169050919050565b6100e8816100ad565b81146100f357600080fd5b50565b60805160601c611a6661011460003960006101b10152611a666000f3fe60806040523480156200001157600080fd5b50600436106200003a5760003560e01c80631912d37d146200003f5780639c1fcc4c1462000075575b600080fd5b6200005d600480360381019062000057919062000281565b62000097565b6040516200006c9190620004cd565b60405180910390f35b6200007f620001af565b6040516200008e9190620004cd565b60405180910390f35b6000338a604051602001620000ae929190620004ea565b60405160208183030381529060405280519060200120338b8b8b8b8b8b898c8c604051620000dc90620001d3565b620000f19a999897969594939291906200051e565b8190604051809103906000f590508015801562000112573d6000803e3d6000fd5b50905087604051620001259190620004b4565b60405180910390203373ffffffffffffffffffffffffffffffffffffffff168273ffffffffffffffffffffffffffffffffffffffff167f25d863c4e6e60e0de879c494f280ce86e712fe860ebb0431f906ef6a4d6a28e58d8d8c8c8c8c8c8c6040516200019a989796959493929190620005ff565b60405180910390a49998505050505050505050565b7f000000000000000000000000000000000000000000000000000000000000000081565b6111b9806200087883390190565b6000620001f8620001f284620006e0565b620006b7565b9050828152602081018484840111156200021157600080fd5b6200021e84828562000788565b509392505050565b600082601f8301126200023857600080fd5b81356200024a848260208601620001e1565b91505092915050565b600081359050620002648162000843565b92915050565b6000813590506200027b816200085d565b92915050565b60008060008060008060008060006101208a8c031215620002a157600080fd5b60008a013567ffffffffffffffff811115620002bc57600080fd5b620002ca8c828d0162000226565b99505060208a013567ffffffffffffffff811115620002e857600080fd5b620002f68c828d0162000226565b98505060408a013567ffffffffffffffff8111156200031457600080fd5b620003228c828d0162000226565b97505060608a013567ffffffffffffffff8111156200034057600080fd5b6200034e8c828d0162000226565b96505060808a013567ffffffffffffffff8111156200036c57600080fd5b6200037a8c828d0162000226565b95505060a08a013567ffffffffffffffff8111156200039857600080fd5b620003a68c828d0162000226565b94505060c0620003b98c828d016200026a565b93505060e0620003cc8c828d0162000253565b9250506101008a013567ffffffffffffffff811115620003eb57600080fd5b620003f98c828d0162000226565b9150509295985092959850929598565b62000414816200073d565b82525050565b6000620004278262000716565b62000433818562000721565b93506200044581856020860162000797565b620004508162000832565b840191505092915050565b6000620004688262000716565b62000474818562000732565b93506200048681856020860162000797565b80840191505092915050565b6200049d8162000771565b82525050565b620004ae816200077b565b82525050565b6000620004c282846200045b565b915081905092915050565b6000602082019050620004e4600083018462000409565b92915050565b600060408201905062000501600083018562000409565b81810360208301526200051581846200041a565b90509392505050565b60006101408201905062000536600083018d62000409565b81810360208301526200054a818c6200041a565b9050818103604083015262000560818b6200041a565b9050818103606083015262000576818a6200041a565b905081810360808301526200058c81896200041a565b905081810360a0830152620005a281886200041a565b905081810360c0830152620005b881876200041a565b905081810360e0830152620005ce81866200041a565b9050620005e0610100830185620004a3565b620005f061012083018462000492565b9b9a5050505050505050505050565b60006101008201905081810360008301526200061c818b6200041a565b9050818103602083015262000632818a6200041a565b905081810360408301526200064881896200041a565b905081810360608301526200065e81886200041a565b905081810360808301526200067481876200041a565b90506200068560a0830186620004a3565b6200069460c083018562000492565b81810360e0830152620006a881846200041a565b90509998505050505050505050565b6000620006c3620006d6565b9050620006d18282620007cd565b919050565b6000604051905090565b600067ffffffffffffffff821115620006fe57620006fd62000803565b5b620007098262000832565b9050602081019050919050565b600081519050919050565b600082825260208201905092915050565b600081905092915050565b60006200074a8262000751565b9050919050565b600073ffffffffffffffffffffffffffffffffffffffff82169050919050565b6000819050919050565b600060ff82169050919050565b82818337600083830152505050565b60005b83811015620007b75780820151818401526020810190506200079a565b83811115620007c7576000848401525b50505050565b620007d88262000832565b810181811067ffffffffffffffff82111715620007fa57620007f962000803565b5b80604052505050565b7f4e487b7100000000000000000000000000000000000000000000000000000000600052604160045260246000fd5b6000601f19601f8301169050919050565b6200084e8162000771565b81146200085a57600080fd5b50565b62000868816200077b565b81146200087457600080fd5b5056fe60806040523480156200001157600080fd5b50604051620011b9380380620011b9833981810160405281019062000037919062000401565b3373ffffffffffffffffffffffffffffffffffffffff16639c1fcc4c6040518163ffffffff1660e01b8152600401602060405180830381600087803b1580156200008057600080fd5b505af115801562000095573d6000803e3d6000fd5b505050506040513d601f19601f82011682018060405250810190620000bb9190620003d5565b6000806101000a81548173ffffffffffffffffffffffffffffffffffffffff021916908373ffffffffffffffffffffffffffffffffffffffff16021790555089600160006101000a81548173ffffffffffffffffffffffffffffffffffffffff021916908373ffffffffffffffffffffffffffffffffffffffff1602179055508860029080519060200190620001539291906200026e565b5087600390805190602001906200016c9291906200026e565b508660049080519060200190620001859291906200026e565b5085600590805190602001906200019e9291906200026e565b508460069080519060200190620001b79291906200026e565b508360079080519060200190620001d09291906200026e565b508260089080519060200190620001e99291906200026e565b5081600960006101000a81548160ff021916908360ff16021790555080600a819055506000600b60006101000a81548160ff0219169083600381111562000259577f4e487b7100000000000000000000000000000000000000000000000000000000600052602160045260246000fd5b021790555050505050505050505050620007a9565b8280546200027c9062000680565b90600052602060002090601f016020900481019282620002a05760008555620002ec565b82601f10620002bb57805160ff1916838001178555620002ec565b82800160010185558215620002ec579182015b82811115620002eb578251825591602001919060010190620002ce565b5b509050620002fb9190620002ff565b5090565b5b808211156200031a57600081600090555060010162000300565b5090565b6000620003356200032f84620005c9565b620005a0565b9050828152602081018484840111156200034e57600080fd5b6200035b8482856200064a565b509392505050565b60008151905062000374816200075b565b92915050565b600082601f8301126200038c57600080fd5b81516200039e8482602086016200031e565b91505092915050565b600081519050620003b88162000775565b92915050565b600081519050620003cf816200078f565b92915050565b600060208284031215620003e857600080fd5b6000620003f88482850162000363565b91505092915050565b6000806000806000806000806000806101408b8d0312156200042257600080fd5b6000620004328d828e0162000363565b9a505060208b015167ffffffffffffffff8111156200045057600080fd5b6200045e8d828e016200037a565b99505060408b015167ffffffffffffffff8111156200047c57600080fd5b6200048a8d828e016200037a565b98505060608b015167ffffffffffffffff811115620004a857600080fd5b620004b68d828e016200037a565b97505060808b015167ffffffffffffffff811115620004d457600080fd5b620004e28d828e016200037a565b96505060a08b015167ffffffffffffffff8111156200050057600080fd5b6200050e8d828e016200037a565b95505060c08b015167ffffffffffffffff8111156200052c57600080fd5b6200053a8d828e016200037a565b94505060e08b015167ffffffffffffffff8111156200055857600080fd5b620005668d828e016200037a565b9350506101006200057a8d828e01620003be565b9250506101206200058e8d828e01620003a7565b9150509295989b9194979a5092959850565b6000620005ac620005bf565b9050620005ba8282620006b6565b919050565b6000604051905090565b600067ffffffffffffffff821115620005e757620005e66200071b565b5b620005f2826200074a565b9050602081019050919050565b60006200060c8262000613565b9050919050565b600073ffffffffffffffffffffffffffffffffffffffff82169050919050565b6000819050919050565b600060ff82169050919050565b60005b838110156200066a5780820151818401526020810190506200064d565b838111156200067a576000848401525b50505050565b600060028204905060018216806200069957607f821691505b60208210811415620006b057620006af620006ec565b5b50919050565b620006c1826200074a565b810181811067ffffffffffffffff82111715620006e357620006e26200071b565b5b80604052505050565b7f4e487b7100000000000000000000000000000000000000000000000000000000600052602260045260246000fd5b7f4e487b7100000000000000000000000000000000000000000000000000000000600052604160045260246000fd5b6000601f19601f8301169050919050565b6200076681620005ff565b81146200077257600080fd5b50565b620007808162000633565b81146200078c57600080fd5b50565b6200079a816200063d565b8114620007a657600080fd5b50565b610a0080620007b96000396000f3fe6080604052600436106100ab5760003560e01c80639cf0bd0d116100645780639cf0bd0d146101fb578063ab115d7214610226578063b25cdccf14610251578063c791316e1461027c578063ef430aa6146102a7578063f3ccaac0146102d2576100ac565b806302d05d3f146100f957806317de3a41146101245780634a79d50c1461014f5780637284e4161461017a5780639699119d146101a55780639c1fcc4c146101d0576100ac565b5b60008060009054906101000a900473ffffffffffffffffffffffffffffffffffffffff16905060405136600082376000803683855af43d806000843e81600081146100f5578184f35b8184fd5b34801561010557600080fd5b5061010e6102fd565b60405161011b91906107ca565b60405180910390f35b34801561013057600080fd5b50610139610323565b6040516101469190610800565b60405180910390f35b34801561015b57600080fd5b506101646103b1565b6040516101719190610800565b60405180910390f35b34801561018657600080fd5b5061018f61043f565b60405161019c9190610800565b60405180910390f35b3480156101b157600080fd5b506101ba6104cd565b6040516101c7919061083d565b60405180910390f35b3480156101dc57600080fd5b506101e56104e0565b6040516101f291906107ca565b60405180910390f35b34801561020757600080fd5b50610210610504565b60405161021d9190610800565b60405180910390f35b34801561023257600080fd5b5061023b610592565b6040516102489190610800565b60405180910390f35b34801561025d57600080fd5b50610266610620565b60405161027391906107e5565b60405180910390f35b34801561028857600080fd5b50610291610633565b60405161029e9190610822565b60405180910390f35b3480156102b357600080fd5b506102bc610639565b6040516102c99190610800565b60405180910390f35b3480156102de57600080fd5b506102e76106c7565b6040516102f49190610800565b60405180910390f35b600160009054906101000a900473ffffffffffffffffffffffffffffffffffffffff1681565b6006805461033090610915565b80601f016020809104026020016040519081016040528092919081815260200182805461035c90610915565b80156103a95780601f1061037e576101008083540402835291602001916103a9565b820191906000526020600020905b81548152906001019060200180831161038c57829003601f168201915b505050505081565b600280546103be90610915565b80601f01602080910402602001604051908101604052809291908181526020018280546103ea90610915565b80156104375780601f1061040c57610100808354040283529160200191610437565b820191906000526020600020905b81548152906001019060200180831161041a57829003601f168201915b505050505081565b6003805461044c90610915565b80601f016020809104026020016040519081016040528092919081815260200182805461047890610915565b80156104c55780601f1061049a576101008083540402835291602001916104c5565b820191906000526020600020905b8154815290600101906020018083116104a857829003601f168201915b505050505081565b600960009054906101000a900460ff1681565b60008054906101000a900473ffffffffffffffffffffffffffffffffffffffff1681565b6008805461051190610915565b80601f016020809104026020016040519081016040528092919081815260200182805461053d90610915565b801561058a5780601f1061055f5761010080835404028352916020019161058a565b820191906000526020600020905b81548152906001019060200180831161056d57829003601f168201915b505050505081565b6007805461059f90610915565b80601f01602080910402602001604051908101604052809291908181526020018280546105cb90610915565b80156106185780601f106105ed57610100808354040283529160200191610618565b820191906000526020600020905b8154815290600101906020018083116105fb57829003601f168201915b505050505081565b600b60009054906101000a900460ff1681565b600a5481565b6005805461064690610915565b80601f016020809104026020016040519081016040528092919081815260200182805461067290610915565b80156106bf5780601f10610694576101008083540402835291602001916106bf565b820191906000526020600020905b8154815290600101906020018083116106a257829003601f168201915b505050505081565b600480546106d490610915565b80601f016020809104026020016040519081016040528092919081815260200182805461070090610915565b801561074d5780601f106107225761010080835404028352916020019161074d565b820191906000526020600020905b81548152906001019060200180831161073057829003601f168201915b505050505081565b61075e81610874565b82525050565b61076d816108d0565b82525050565b600061077e82610858565b6107888185610863565b93506107988185602086016108e2565b6107a1816109a5565b840191505092915050565b6107b5816108b9565b82525050565b6107c4816108c3565b82525050565b60006020820190506107df6000830184610755565b92915050565b60006020820190506107fa6000830184610764565b92915050565b6000602082019050818103600083015261081a8184610773565b905092915050565b600060208201905061083760008301846107ac565b92915050565b600060208201905061085260008301846107bb565b92915050565b600081519050919050565b600082825260208201905092915050565b600061087f82610899565b9050919050565b6000819050610894826109b6565b919050565b600073ffffffffffffffffffffffffffffffffffffffff82169050919050565b6000819050919050565b600060ff82169050919050565b60006108db82610886565b9050919050565b60005b838110156109005780820151818401526020810190506108e5565b8381111561090f576000848401525b50505050565b6000600282049050600182168061092d57607f821691505b6020821081141561094157610940610976565b5b50919050565b7f4e487b7100000000000000000000000000000000000000000000000000000000600052602160045260246000fd5b7f4e487b7100000000000000000000000000000000000000000000000000000000600052602260045260246000fd5b6000601f19601f8301169050919050565b600481106109c7576109c6610947565b5b5056fea2646970667358221220f0201469f24f73237eeac34bfda1b7f88c00f9050027432b92afb762f18b4c1f64736f6c63430008040033a2646970667358221220c040412695641c7484515cdc1a7b3d58539389957bfc8e3fd89fe3fe92f33aaa64736f6c63430008040033",
  "linkReferences": {},
  "deployedLinkReferences": {}
}