{
  "_format": "hh-sol-artifact-1",
  "contractName": "CallForFundsFactory",
  "sourceName": "contracts/CallForFundsFactory.sol",
  "abi": [
    {
      "inputs": [
        {
          "internalType": "address",
          "name": "logicAddress_",
          "type": "address"
        }
      ],
      "stateMutability": "nonpayable",
      "type": "constructor"
    },
    {
      "anonymous": false,
      "inputs": [
        {
          "indexed": true,
          "internalType": "address",
          "name": "CallForFunds",
          "type": "address"
        },
        {
          "indexed": true,
          "internalType": "address",
          "name": "creator",
          "type": "address"
        },
        {
          "indexed": false,
          "internalType": "string",
          "name": "title",
          "type": "string"
        },
        {
          "indexed": false,
          "internalType": "string",
          "name": "description",
          "type": "string"
        },
        {
          "indexed": false,
          "internalType": "string",
          "name": "image",
          "type": "string"
        },
        {
          "indexed": false,
          "internalType": "string",
          "name": "category",
          "type": "string"
        },
        {
          "indexed": false,
          "internalType": "string",
          "name": "genre",
          "type": "string"
        },
        {
          "indexed": false,
          "internalType": "string",
          "name": "subgenre",
          "type": "string"
        },
        {
          "indexed": false,
          "internalType": "uint96",
          "name": "timelineInDays",
          "type": "uint96"
        },
        {
          "indexed": false,
          "internalType": "uint256",
          "name": "minFundingAmount",
          "type": "uint256"
        },
        {
          "indexed": false,
          "internalType": "string",
          "name": "deliverableMedium",
          "type": "string"
        }
      ],
      "name": "CallForFundsCreated",
      "type": "event"
    },
    {
      "inputs": [
        {
          "internalType": "string",
          "name": "title_",
          "type": "string"
        },
        {
          "internalType": "string",
          "name": "description_",
          "type": "string"
        },
        {
          "internalType": "string",
          "name": "image_",
          "type": "string"
        },
        {
          "internalType": "string",
          "name": "category_",
          "type": "string"
        },
        {
          "internalType": "string",
          "name": "genre_",
          "type": "string"
        },
        {
          "internalType": "string",
          "name": "subgenre_",
          "type": "string"
        },
        {
          "internalType": "uint96",
          "name": "timelineInDays_",
          "type": "uint96"
        },
        {
          "internalType": "uint256",
          "name": "minFundingAmount_",
          "type": "uint256"
        },
        {
          "internalType": "string",
          "name": "deliverableMedium_",
          "type": "string"
        }
      ],
      "name": "createCallForFunds",
      "outputs": [
        {
          "internalType": "address",
          "name": "proxy",
          "type": "address"
        }
      ],
      "stateMutability": "nonpayable",
      "type": "function"
    },
    {
      "inputs": [],
      "name": "logicAddress",
      "outputs": [
        {
          "internalType": "address",
          "name": "",
          "type": "address"
        }
      ],
      "stateMutability": "view",
      "type": "function"
    },
    {
      "inputs": [
        {
          "internalType": "address",
          "name": "",
          "type": "address"
        }
      ],
      "name": "proxies",
      "outputs": [
        {
          "internalType": "bool",
          "name": "",
          "type": "bool"
        }
      ],
      "stateMutability": "view",
      "type": "function"
    },
    {
      "inputs": [
        {
          "internalType": "uint256",
          "name": "",
          "type": "uint256"
        }
      ],
      "name": "proxiesList",
      "outputs": [
        {
          "internalType": "address",
          "name": "",
          "type": "address"
        }
      ],
      "stateMutability": "view",
      "type": "function"
    }
  ],
  "bytecode": "0x60a060405234801561001057600080fd5b5060405161223838038061223883398181016040528101906100329190610084565b8073ffffffffffffffffffffffffffffffffffffffff1660808173ffffffffffffffffffffffffffffffffffffffff1660601b81525050506100ff565b60008151905061007e816100e8565b92915050565b60006020828403121561009a576100996100e3565b5b60006100a88482850161006f565b91505092915050565b60006100bc826100c3565b9050919050565b600073ffffffffffffffffffffffffffffffffffffffff82169050919050565b600080fd5b6100f1816100b1565b81146100fc57600080fd5b50565b60805160601c61211b61011d60003960006102d9015261211b6000f3fe60806040523480156200001157600080fd5b5060043610620000525760003560e01c806350ff5ec314620000575780639c1fcc4c146200008d578063adec742d14620000af578063c455279114620000e5575b600080fd5b6200007560048036038101906200006f91906200045e565b6200011b565b604051620000849190620006cd565b60405180910390f35b62000097620002d7565b604051620000a69190620006cd565b60405180910390f35b620000cd6004803603810190620000c7919062000616565b620002fb565b604051620000dc9190620006cd565b60405180910390f35b620001036004803603810190620000fd91906200042c565b6200033b565b604051620001129190620007ff565b60405180910390f35b6000338a60405160200162000132929190620006ea565b60405160208183030381529060405280519060200120338b8b8b8b8b8b898c8c60405162000160906200035b565b620001759a999897969594939291906200071e565b8190604051809103906000f590508015801562000196573d6000803e3d6000fd5b5090503373ffffffffffffffffffffffffffffffffffffffff168173ffffffffffffffffffffffffffffffffffffffff167f3446c863e8e2d85c590927bd22f88146e8586b73a83d7b7fbb69e348bd6b5ece8c8c8c8c8c8c8c8c8c60405162000208999897969594939291906200081c565b60405180910390a360016000808373ffffffffffffffffffffffffffffffffffffffff1673ffffffffffffffffffffffffffffffffffffffff16815260200190815260200160002060006101000a81548160ff0219169083151502179055506001819080600181540180825580915050600190039060005260206000200160009091909190916101000a81548173ffffffffffffffffffffffffffffffffffffffff021916908373ffffffffffffffffffffffffffffffffffffffff1602179055509998505050505050505050565b7f000000000000000000000000000000000000000000000000000000000000000081565b600181815481106200030c57600080fd5b906000526020600020016000915054906101000a900473ffffffffffffffffffffffffffffffffffffffff1681565b60006020528060005260406000206000915054906101000a900460ff1681565b6115ff8062000ae783390190565b6000620003806200037a8462000915565b620008ec565b9050828152602081018484840111156200039f576200039e62000a78565b5b620003ac848285620009c9565b509392505050565b600081359050620003c58162000a98565b92915050565b600082601f830112620003e357620003e262000a73565b5b8135620003f584826020860162000369565b91505092915050565b6000813590506200040f8162000ab2565b92915050565b600081359050620004268162000acc565b92915050565b60006020828403121562000445576200044462000a82565b5b60006200045584828501620003b4565b91505092915050565b60008060008060008060008060006101208a8c03121562000484576200048362000a82565b5b60008a013567ffffffffffffffff811115620004a557620004a462000a7d565b5b620004b38c828d01620003cb565b99505060208a013567ffffffffffffffff811115620004d757620004d662000a7d565b5b620004e58c828d01620003cb565b98505060408a013567ffffffffffffffff81111562000509576200050862000a7d565b5b620005178c828d01620003cb565b97505060608a013567ffffffffffffffff8111156200053b576200053a62000a7d565b5b620005498c828d01620003cb565b96505060808a013567ffffffffffffffff8111156200056d576200056c62000a7d565b5b6200057b8c828d01620003cb565b95505060a08a013567ffffffffffffffff8111156200059f576200059e62000a7d565b5b620005ad8c828d01620003cb565b94505060c0620005c08c828d0162000415565b93505060e0620005d38c828d01620003fe565b9250506101008a013567ffffffffffffffff811115620005f857620005f762000a7d565b5b620006068c828d01620003cb565b9150509295985092959850929598565b6000602082840312156200062f576200062e62000a82565b5b60006200063f84828501620003fe565b91505092915050565b620006538162000967565b82525050565b62000664816200097b565b82525050565b600062000677826200094b565b62000683818562000956565b935062000695818560208601620009d8565b620006a08162000a87565b840191505092915050565b620006b681620009a7565b82525050565b620006c781620009b1565b82525050565b6000602082019050620006e4600083018462000648565b92915050565b600060408201905062000701600083018562000648565b81810360208301526200071581846200066a565b90509392505050565b60006101408201905062000736600083018d62000648565b81810360208301526200074a818c6200066a565b9050818103604083015262000760818b6200066a565b9050818103606083015262000776818a6200066a565b905081810360808301526200078c81896200066a565b905081810360a0830152620007a281886200066a565b905081810360c0830152620007b881876200066a565b905081810360e0830152620007ce81866200066a565b9050620007e0610100830185620006bc565b620007f0610120830184620006ab565b9b9a5050505050505050505050565b600060208201905062000816600083018462000659565b92915050565b600061012082019050818103600083015262000839818c6200066a565b905081810360208301526200084f818b6200066a565b9050818103604083015262000865818a6200066a565b905081810360608301526200087b81896200066a565b905081810360808301526200089181886200066a565b905081810360a0830152620008a781876200066a565b9050620008b860c0830186620006bc565b620008c760e0830185620006ab565b818103610100830152620008dc81846200066a565b90509a9950505050505050505050565b6000620008f86200090b565b905062000906828262000a0e565b919050565b6000604051905090565b600067ffffffffffffffff82111562000933576200093262000a44565b5b6200093e8262000a87565b9050602081019050919050565b600081519050919050565b600082825260208201905092915050565b6000620009748262000987565b9050919050565b60008115159050919050565b600073ffffffffffffffffffffffffffffffffffffffff82169050919050565b6000819050919050565b60006bffffffffffffffffffffffff82169050919050565b82818337600083830152505050565b60005b83811015620009f8578082015181840152602081019050620009db565b8381111562000a08576000848401525b50505050565b62000a198262000a87565b810181811067ffffffffffffffff8211171562000a3b5762000a3a62000a44565b5b80604052505050565b7f4e487b7100000000000000000000000000000000000000000000000000000000600052604160045260246000fd5b600080fd5b600080fd5b600080fd5b600080fd5b6000601f19601f8301169050919050565b62000aa38162000967565b811462000aaf57600080fd5b50565b62000abd81620009a7565b811462000ac957600080fd5b50565b62000ad781620009b1565b811462000ae357600080fd5b5056fe60806040523480156200001157600080fd5b50604051620015ff380380620015ff833981810160405281019062000037919062000405565b3373ffffffffffffffffffffffffffffffffffffffff16639c1fcc4c6040518163ffffffff1660e01b8152600401602060405180830381600087803b1580156200008057600080fd5b505af115801562000095573d6000803e3d6000fd5b505050506040513d601f19601f82011682018060405250810190620000bb9190620003d3565b6000806101000a81548173ffffffffffffffffffffffffffffffffffffffff021916908373ffffffffffffffffffffffffffffffffffffffff16021790555089600160006101000a81548173ffffffffffffffffffffffffffffffffffffffff021916908373ffffffffffffffffffffffffffffffffffffffff16021790555088600290805190602001906200015392919062000260565b5087600390805190602001906200016c92919062000260565b5086600490805190602001906200018592919062000260565b5085600590805190602001906200019e92919062000260565b508460069080519060200190620001b792919062000260565b508360079080519060200190620001d092919062000260565b508260089080519060200190620001e992919062000260565b5081600960006101000a8154816bffffffffffffffffffffffff02191690836bffffffffffffffffffffffff16021790555080600a819055506000600c60006101000a81548160ff021916908360048111156200024b576200024a6200072b565b5b0217905550505050505050505050506200082b565b8280546200026e90620006bf565b90600052602060002090601f016020900481019282620002925760008555620002de565b82601f10620002ad57805160ff1916838001178555620002de565b82800160010185558215620002de579182015b82811115620002dd578251825591602001919060010190620002c0565b5b509050620002ed9190620002f1565b5090565b5b808211156200030c576000816000905550600101620002f2565b5090565b6000620003276200032184620005fd565b620005d4565b905082815260208101848484011115620003465762000345620007bd565b5b6200035384828562000689565b509392505050565b6000815190506200036c81620007dd565b92915050565b600082601f8301126200038a5762000389620007b8565b5b81516200039c84826020860162000310565b91505092915050565b600081519050620003b681620007f7565b92915050565b600081519050620003cd8162000811565b92915050565b600060208284031215620003ec57620003eb620007c7565b5b6000620003fc848285016200035b565b91505092915050565b6000806000806000806000806000806101408b8d0312156200042c576200042b620007c7565b5b60006200043c8d828e016200035b565b9a505060208b015167ffffffffffffffff81111562000460576200045f620007c2565b5b6200046e8d828e0162000372565b99505060408b015167ffffffffffffffff811115620004925762000491620007c2565b5b620004a08d828e0162000372565b98505060608b015167ffffffffffffffff811115620004c457620004c3620007c2565b5b620004d28d828e0162000372565b97505060808b015167ffffffffffffffff811115620004f657620004f5620007c2565b5b620005048d828e0162000372565b96505060a08b015167ffffffffffffffff811115620005285762000527620007c2565b5b620005368d828e0162000372565b95505060c08b015167ffffffffffffffff8111156200055a5762000559620007c2565b5b620005688d828e0162000372565b94505060e08b015167ffffffffffffffff8111156200058c576200058b620007c2565b5b6200059a8d828e0162000372565b935050610100620005ae8d828e01620003bc565b925050610120620005c28d828e01620003a5565b9150509295989b9194979a5092959850565b6000620005e0620005f3565b9050620005ee8282620006f5565b919050565b6000604051905090565b600067ffffffffffffffff8211156200061b576200061a62000789565b5b6200062682620007cc565b9050602081019050919050565b6000620006408262000647565b9050919050565b600073ffffffffffffffffffffffffffffffffffffffff82169050919050565b6000819050919050565b60006bffffffffffffffffffffffff82169050919050565b60005b83811015620006a95780820151818401526020810190506200068c565b83811115620006b9576000848401525b50505050565b60006002820490506001821680620006d857607f821691505b60208210811415620006ef57620006ee6200075a565b5b50919050565b6200070082620007cc565b810181811067ffffffffffffffff8211171562000722576200072162000789565b5b80604052505050565b7f4e487b7100000000000000000000000000000000000000000000000000000000600052602160045260246000fd5b7f4e487b7100000000000000000000000000000000000000000000000000000000600052602260045260246000fd5b7f4e487b7100000000000000000000000000000000000000000000000000000000600052604160045260246000fd5b600080fd5b600080fd5b600080fd5b600080fd5b6000601f19601f8301169050919050565b620007e88162000633565b8114620007f457600080fd5b50565b620008028162000667565b81146200080e57600080fd5b50565b6200081c8162000671565b81146200082857600080fd5b50565b610dc4806200083b6000396000f3fe60806040526004361061010d5760003560e01c80639699119d11610095578063c791316e11610064578063c791316e1461038a578063d0012723146103b5578063e6851127146103e0578063ef430aa61461040b578063f3ccaac0146104365761010e565b80639699119d146102de5780639cf0bd0d14610309578063ab115d7214610334578063b25cdccf1461035f5761010e565b806377f78ad3116100dc57806377f78ad3146102075780637cb4d6d7146102325780637e52b6ab1461025d578063852e5a0a146102885780638e22ce1d146102b35761010e565b806302d05d3f1461015b57806317de3a41146101865780634a79d50c146101b15780637284e416146101dc5761010e565b5b60008060009054906101000a900473ffffffffffffffffffffffffffffffffffffffff16905060405136600082376000803683855af43d806000843e8160008114610157578184f35b8184fd5b34801561016757600080fd5b50610170610461565b60405161017d9190610a7e565b60405180910390f35b34801561019257600080fd5b5061019b610487565b6040516101a89190610b3b565b60405180910390f35b3480156101bd57600080fd5b506101c6610515565b6040516101d39190610b3b565b60405180910390f35b3480156101e857600080fd5b506101f16105a3565b6040516101fe9190610b3b565b60405180910390f35b34801561021357600080fd5b5061021c610631565b6040516102299190610a99565b60405180910390f35b34801561023e57600080fd5b50610247610649565b6040516102549190610ab4565b60405180910390f35b34801561026957600080fd5b50610272610661565b60405161027f9190610aea565b60405180910390f35b34801561029457600080fd5b5061029d610679565b6040516102aa9190610b05565b60405180910390f35b3480156102bf57600080fd5b506102c8610691565b6040516102d59190610a7e565b60405180910390f35b3480156102ea57600080fd5b506102f36106a9565b6040516103009190610b78565b60405180910390f35b34801561031557600080fd5b5061031e6106c7565b60405161032b9190610b3b565b60405180910390f35b34801561034057600080fd5b50610349610755565b6040516103569190610b3b565b60405180910390f35b34801561036b57600080fd5b506103746107e3565b6040516103819190610b20565b60405180910390f35b34801561039657600080fd5b5061039f6107f6565b6040516103ac9190610b5d565b60405180910390f35b3480156103c157600080fd5b506103ca6107fc565b6040516103d79190610acf565b60405180910390f35b3480156103ec57600080fd5b506103f5610814565b6040516104029190610b3b565b60405180910390f35b34801561041757600080fd5b506104206108a2565b60405161042d9190610b3b565b60405180910390f35b34801561044257600080fd5b5061044b610930565b6040516104589190610b3b565b60405180910390f35b600160009054906101000a900473ffffffffffffffffffffffffffffffffffffffff1681565b6006805461049490610cd9565b80601f01602080910402602001604051908101604052809291908181526020018280546104c090610cd9565b801561050d5780601f106104e25761010080835404028352916020019161050d565b820191906000526020600020905b8154815290600101906020018083116104f057829003601f168201915b505050505081565b6002805461052290610cd9565b80601f016020809104026020016040519081016040528092919081815260200182805461054e90610cd9565b801561059b5780601f106105705761010080835404028352916020019161059b565b820191906000526020600020905b81548152906001019060200180831161057e57829003601f168201915b505050505081565b600380546105b090610cd9565b80601f01602080910402602001604051908101604052809291908181526020018280546105dc90610cd9565b80156106295780601f106105fe57610100808354040283529160200191610629565b820191906000526020600020905b81548152906001019060200180831161060c57829003601f168201915b505050505081565b7315f0ca26781c3852f8166ed2ebce5d18265cceb781565b7349e565ed1bdc17f3d220f72df0857c26fa83f87381565b735d8b4c2554aeb7e86f387b4d6c00ac33499ed01f81565b73eb796bdb90ffa0f28255275e16936d25d341860381565b73a4e987fb3808d9fc206112967477793ea838945081565b600960009054906101000a90046bffffffffffffffffffffffff1681565b600880546106d490610cd9565b80601f016020809104026020016040519081016040528092919081815260200182805461070090610cd9565b801561074d5780601f106107225761010080835404028352916020019161074d565b820191906000526020600020905b81548152906001019060200180831161073057829003601f168201915b505050505081565b6007805461076290610cd9565b80601f016020809104026020016040519081016040528092919081815260200182805461078e90610cd9565b80156107db5780601f106107b0576101008083540402835291602001916107db565b820191906000526020600020905b8154815290600101906020018083116107be57829003601f168201915b505050505081565b600c60009054906101000a900460ff1681565b600a5481565b7396b82b65acf7072efeb00502f45757f254c2a0d481565b600b805461082190610cd9565b80601f016020809104026020016040519081016040528092919081815260200182805461084d90610cd9565b801561089a5780601f1061086f5761010080835404028352916020019161089a565b820191906000526020600020905b81548152906001019060200180831161087d57829003601f168201915b505050505081565b600580546108af90610cd9565b80601f01602080910402602001604051908101604052809291908181526020018280546108db90610cd9565b80156109285780601f106108fd57610100808354040283529160200191610928565b820191906000526020600020905b81548152906001019060200180831161090b57829003601f168201915b505050505081565b6004805461093d90610cd9565b80601f016020809104026020016040519081016040528092919081815260200182805461096990610cd9565b80156109b65780601f1061098b576101008083540402835291602001916109b6565b820191906000526020600020905b81548152906001019060200180831161099957829003601f168201915b505050505081565b6109c781610baf565b82525050565b6109d681610c16565b82525050565b6109e581610c28565b82525050565b6109f481610c3a565b82525050565b610a0381610c4c565b82525050565b610a1281610c5e565b82525050565b610a2181610c70565b82525050565b6000610a3282610b93565b610a3c8185610b9e565b9350610a4c818560208601610ca6565b610a5581610d69565b840191505092915050565b610a6981610bf4565b82525050565b610a7881610bfe565b82525050565b6000602082019050610a9360008301846109be565b92915050565b6000602082019050610aae60008301846109cd565b92915050565b6000602082019050610ac960008301846109dc565b92915050565b6000602082019050610ae460008301846109eb565b92915050565b6000602082019050610aff60008301846109fa565b92915050565b6000602082019050610b1a6000830184610a09565b92915050565b6000602082019050610b356000830184610a18565b92915050565b60006020820190508181036000830152610b558184610a27565b905092915050565b6000602082019050610b726000830184610a60565b92915050565b6000602082019050610b8d6000830184610a6f565b92915050565b600081519050919050565b600082825260208201905092915050565b6000610bba82610bd4565b9050919050565b6000819050610bcf82610d7a565b919050565b600073ffffffffffffffffffffffffffffffffffffffff82169050919050565b6000819050919050565b60006bffffffffffffffffffffffff82169050919050565b6000610c2182610c82565b9050919050565b6000610c3382610c82565b9050919050565b6000610c4582610c82565b9050919050565b6000610c5782610c82565b9050919050565b6000610c6982610c82565b9050919050565b6000610c7b82610bc1565b9050919050565b6000610c8d82610c94565b9050919050565b6000610c9f82610bd4565b9050919050565b60005b83811015610cc4578082015181840152602081019050610ca9565b83811115610cd3576000848401525b50505050565b60006002820490506001821680610cf157607f821691505b60208210811415610d0557610d04610d3a565b5b50919050565b7f4e487b7100000000000000000000000000000000000000000000000000000000600052602160045260246000fd5b7f4e487b7100000000000000000000000000000000000000000000000000000000600052602260045260246000fd5b6000601f19601f8301169050919050565b60058110610d8b57610d8a610d0b565b5b5056fea26469706673582212203393bcaab04a73ae56196fcaf170c41a1ddf6ed40fb2a967e81823eae9c33e4764736f6c63430008070033a2646970667358221220572ea9d355238824cdd1e66e9d45be969e5ba70b80903468c851630ba90e5a0a64736f6c63430008070033",
  "linkReferences": {},
  "deployedLinkReferences": {}
}