{
  "_format": "hh-sol-artifact-1",
  "contractName": "CallForFundsFactory",
  "sourceName": "contracts/CallForFundsFactory.sol",
  "abi": [
    {
      "inputs": [
        {
          "internalType": "address",
          "name": "logicAddress_",
          "type": "address"
        }
      ],
      "stateMutability": "nonpayable",
      "type": "constructor"
    },
    {
      "anonymous": false,
      "inputs": [
        {
          "indexed": true,
          "internalType": "address",
          "name": "CallForFunds",
          "type": "address"
        },
        {
          "indexed": true,
          "internalType": "address",
          "name": "creator",
          "type": "address"
        },
        {
          "indexed": false,
          "internalType": "string",
          "name": "title",
          "type": "string"
        },
        {
          "indexed": false,
          "internalType": "string",
          "name": "description",
          "type": "string"
        },
        {
          "indexed": false,
          "internalType": "string",
          "name": "image",
          "type": "string"
        },
        {
          "indexed": false,
          "internalType": "string",
          "name": "category",
          "type": "string"
        },
        {
          "indexed": false,
          "internalType": "string",
          "name": "genre",
          "type": "string"
        },
        {
          "indexed": false,
          "internalType": "string",
          "name": "subgenre",
          "type": "string"
        },
        {
          "indexed": false,
          "internalType": "uint96",
          "name": "timelineInDays",
          "type": "uint96"
        },
        {
          "indexed": false,
          "internalType": "uint256",
          "name": "minFundingAmount",
          "type": "uint256"
        },
        {
          "indexed": false,
          "internalType": "string",
          "name": "deliverableMedium",
          "type": "string"
        },
        {
          "indexed": false,
          "internalType": "string",
          "name": "videoUri",
          "type": "string"
        }
      ],
      "name": "CallForFundsCreated",
      "type": "event"
    },
    {
      "inputs": [
        {
          "internalType": "string",
          "name": "title_",
          "type": "string"
        },
        {
          "internalType": "string",
          "name": "description_",
          "type": "string"
        },
        {
          "internalType": "string",
          "name": "image_",
          "type": "string"
        },
        {
          "internalType": "string",
          "name": "category_",
          "type": "string"
        },
        {
          "internalType": "string",
          "name": "genre_",
          "type": "string"
        },
        {
          "internalType": "string",
          "name": "subgenre_",
          "type": "string"
        },
        {
          "internalType": "uint96",
          "name": "timelineInDays_",
          "type": "uint96"
        },
        {
          "internalType": "uint256",
          "name": "minFundingAmount_",
          "type": "uint256"
        },
        {
          "internalType": "string",
          "name": "deliverableMedium_",
          "type": "string"
        },
        {
          "internalType": "string",
          "name": "videoUri_",
          "type": "string"
        }
      ],
      "name": "createCallForFunds",
      "outputs": [
        {
          "internalType": "address",
          "name": "proxy",
          "type": "address"
        }
      ],
      "stateMutability": "nonpayable",
      "type": "function"
    },
    {
      "inputs": [],
      "name": "logicAddress",
      "outputs": [
        {
          "internalType": "address",
          "name": "",
          "type": "address"
        }
      ],
      "stateMutability": "view",
      "type": "function"
    },
    {
      "inputs": [
        {
          "internalType": "address",
          "name": "",
          "type": "address"
        }
      ],
      "name": "proxies",
      "outputs": [
        {
          "internalType": "bool",
          "name": "",
          "type": "bool"
        }
      ],
      "stateMutability": "view",
      "type": "function"
    },
    {
      "inputs": [
        {
          "internalType": "uint256",
          "name": "",
          "type": "uint256"
        }
      ],
      "name": "proxiesList",
      "outputs": [
        {
          "internalType": "address",
          "name": "",
          "type": "address"
        }
      ],
      "stateMutability": "view",
      "type": "function"
    }
  ],
  "bytecode": "0x60a060405234801561001057600080fd5b506040516122a33803806122a383398181016040528101906100329190610084565b8073ffffffffffffffffffffffffffffffffffffffff1660808173ffffffffffffffffffffffffffffffffffffffff1660601b81525050506100ff565b60008151905061007e816100e8565b92915050565b60006020828403121561009a576100996100e3565b5b60006100a88482850161006f565b91505092915050565b60006100bc826100c3565b9050919050565b600073ffffffffffffffffffffffffffffffffffffffff82169050919050565b600080fd5b6100f1816100b1565b81146100fc57600080fd5b50565b60805160601c61218661011d60003960006102de01526121866000f3fe60806040523480156200001157600080fd5b5060043610620000525760003560e01c80635466ff4c14620000575780639c1fcc4c146200008d578063adec742d14620000af578063c455279114620000e5575b600080fd5b6200007560048036038101906200006f919062000463565b6200011b565b60405162000084919062000708565b60405180910390f35b62000097620002dc565b604051620000a6919062000708565b60405180910390f35b620000cd6004803603810190620000c7919062000651565b62000300565b604051620000dc919062000708565b60405180910390f35b620001036004803603810190620000fd919062000431565b62000340565b60405162000112919062000852565b60405180910390f35b6000338b6040516020016200013292919062000725565b60405160208183030381529060405280519060200120338c8c8c8c8c8c8a8d8d8c604051620001619062000360565b620001779b9a9998979695949392919062000759565b8190604051809103906000f590508015801562000198573d6000803e3d6000fd5b5090503373ffffffffffffffffffffffffffffffffffffffff168173ffffffffffffffffffffffffffffffffffffffff167f1a6fc4dd17a3c78d16c3416e3222f52288171625236ba3e88efa25f96d402cd28d8d8d8d8d8d8d8d8d8d6040516200020c9a999897969594939291906200086f565b60405180910390a360016000808373ffffffffffffffffffffffffffffffffffffffff1673ffffffffffffffffffffffffffffffffffffffff16815260200190815260200160002060006101000a81548160ff0219169083151502179055506001819080600181540180825580915050600190039060005260206000200160009091909190916101000a81548173ffffffffffffffffffffffffffffffffffffffff021916908373ffffffffffffffffffffffffffffffffffffffff1602179055509a9950505050505050505050565b7f000000000000000000000000000000000000000000000000000000000000000081565b600181815481106200031157600080fd5b906000526020600020016000915054906101000a900473ffffffffffffffffffffffffffffffffffffffff1681565b60006020528060005260406000206000915054906101000a900460ff1681565b6115ff8062000b5283390190565b6000620003856200037f8462000980565b62000957565b905082815260208101848484011115620003a457620003a362000ae3565b5b620003b184828562000a34565b509392505050565b600081359050620003ca8162000b03565b92915050565b600082601f830112620003e857620003e762000ade565b5b8135620003fa8482602086016200036e565b91505092915050565b600081359050620004148162000b1d565b92915050565b6000813590506200042b8162000b37565b92915050565b6000602082840312156200044a576200044962000aed565b5b60006200045a84828501620003b9565b91505092915050565b6000806000806000806000806000806101408b8d0312156200048a576200048962000aed565b5b60008b013567ffffffffffffffff811115620004ab57620004aa62000ae8565b5b620004b98d828e01620003d0565b9a505060208b013567ffffffffffffffff811115620004dd57620004dc62000ae8565b5b620004eb8d828e01620003d0565b99505060408b013567ffffffffffffffff8111156200050f576200050e62000ae8565b5b6200051d8d828e01620003d0565b98505060608b013567ffffffffffffffff81111562000541576200054062000ae8565b5b6200054f8d828e01620003d0565b97505060808b013567ffffffffffffffff81111562000573576200057262000ae8565b5b620005818d828e01620003d0565b96505060a08b013567ffffffffffffffff811115620005a557620005a462000ae8565b5b620005b38d828e01620003d0565b95505060c0620005c68d828e016200041a565b94505060e0620005d98d828e0162000403565b9350506101008b013567ffffffffffffffff811115620005fe57620005fd62000ae8565b5b6200060c8d828e01620003d0565b9250506101208b013567ffffffffffffffff81111562000631576200063062000ae8565b5b6200063f8d828e01620003d0565b9150509295989b9194979a5092959850565b6000602082840312156200066a576200066962000aed565b5b60006200067a8482850162000403565b91505092915050565b6200068e81620009d2565b82525050565b6200069f81620009e6565b82525050565b6000620006b282620009b6565b620006be8185620009c1565b9350620006d081856020860162000a43565b620006db8162000af2565b840191505092915050565b620006f18162000a12565b82525050565b620007028162000a1c565b82525050565b60006020820190506200071f600083018462000683565b92915050565b60006040820190506200073c600083018562000683565b8181036020830152620007508184620006a5565b90509392505050565b60006101608201905062000771600083018e62000683565b818103602083015262000785818d620006a5565b905081810360408301526200079b818c620006a5565b90508181036060830152620007b1818b620006a5565b90508181036080830152620007c7818a620006a5565b905081810360a0830152620007dd8189620006a5565b905081810360c0830152620007f38188620006a5565b905081810360e0830152620008098187620006a5565b90506200081b610100830186620006f7565b6200082b610120830185620006e6565b818103610140830152620008408184620006a5565b90509c9b505050505050505050505050565b600060208201905062000869600083018462000694565b92915050565b60006101408201905081810360008301526200088c818d620006a5565b90508181036020830152620008a2818c620006a5565b90508181036040830152620008b8818b620006a5565b90508181036060830152620008ce818a620006a5565b90508181036080830152620008e48189620006a5565b905081810360a0830152620008fa8188620006a5565b90506200090b60c0830187620006f7565b6200091a60e0830186620006e6565b8181036101008301526200092f8185620006a5565b9050818103610120830152620009468184620006a5565b90509b9a5050505050505050505050565b60006200096362000976565b905062000971828262000a79565b919050565b6000604051905090565b600067ffffffffffffffff8211156200099e576200099d62000aaf565b5b620009a98262000af2565b9050602081019050919050565b600081519050919050565b600082825260208201905092915050565b6000620009df82620009f2565b9050919050565b60008115159050919050565b600073ffffffffffffffffffffffffffffffffffffffff82169050919050565b6000819050919050565b60006bffffffffffffffffffffffff82169050919050565b82818337600083830152505050565b60005b8381101562000a6357808201518184015260208101905062000a46565b8381111562000a73576000848401525b50505050565b62000a848262000af2565b810181811067ffffffffffffffff8211171562000aa65762000aa562000aaf565b5b80604052505050565b7f4e487b7100000000000000000000000000000000000000000000000000000000600052604160045260246000fd5b600080fd5b600080fd5b600080fd5b600080fd5b6000601f19601f8301169050919050565b62000b0e81620009d2565b811462000b1a57600080fd5b50565b62000b288162000a12565b811462000b3457600080fd5b50565b62000b428162000a1c565b811462000b4e57600080fd5b5056fe60806040523480156200001157600080fd5b50604051620015ff380380620015ff83398181016040528101906200003791906200041f565b3373ffffffffffffffffffffffffffffffffffffffff16639c1fcc4c6040518163ffffffff1660e01b8152600401602060405180830381600087803b1580156200008057600080fd5b505af115801562000095573d6000803e3d6000fd5b505050506040513d601f19601f82011682018060405250810190620000bb9190620003ed565b6000806101000a81548173ffffffffffffffffffffffffffffffffffffffff021916908373ffffffffffffffffffffffffffffffffffffffff1602179055508a600160006101000a81548173ffffffffffffffffffffffffffffffffffffffff021916908373ffffffffffffffffffffffffffffffffffffffff1602179055508960029080519060200190620001539291906200027a565b5088600390805190602001906200016c9291906200027a565b508760049080519060200190620001859291906200027a565b5086600590805190602001906200019e9291906200027a565b508560069080519060200190620001b79291906200027a565b508460079080519060200190620001d09291906200027a565b508360089080519060200190620001e99291906200027a565b5082600960006101000a8154816bffffffffffffffffffffffff02191690836bffffffffffffffffffffffff16021790555081600a8190555080600b90805190602001906200023a9291906200027a565b506000600d60006101000a81548160ff021916908360048111156200026457620002636200077b565b5b021790555050505050505050505050506200087b565b82805462000288906200070f565b90600052602060002090601f016020900481019282620002ac5760008555620002f8565b82601f10620002c757805160ff1916838001178555620002f8565b82800160010185558215620002f8579182015b82811115620002f7578251825591602001919060010190620002da565b5b5090506200030791906200030b565b5090565b5b80821115620003265760008160009055506001016200030c565b5090565b6000620003416200033b846200064d565b62000624565b90508281526020810184848401111562000360576200035f6200080d565b5b6200036d848285620006d9565b509392505050565b60008151905062000386816200082d565b92915050565b600082601f830112620003a457620003a362000808565b5b8151620003b68482602086016200032a565b91505092915050565b600081519050620003d08162000847565b92915050565b600081519050620003e78162000861565b92915050565b60006020828403121562000406576200040562000817565b5b6000620004168482850162000375565b91505092915050565b60008060008060008060008060008060006101608c8e03121562000448576200044762000817565b5b6000620004588e828f0162000375565b9b505060208c015167ffffffffffffffff8111156200047c576200047b62000812565b5b6200048a8e828f016200038c565b9a505060408c015167ffffffffffffffff811115620004ae57620004ad62000812565b5b620004bc8e828f016200038c565b99505060608c015167ffffffffffffffff811115620004e057620004df62000812565b5b620004ee8e828f016200038c565b98505060808c015167ffffffffffffffff81111562000512576200051162000812565b5b620005208e828f016200038c565b97505060a08c015167ffffffffffffffff81111562000544576200054362000812565b5b620005528e828f016200038c565b96505060c08c015167ffffffffffffffff81111562000576576200057562000812565b5b620005848e828f016200038c565b95505060e08c015167ffffffffffffffff811115620005a857620005a762000812565b5b620005b68e828f016200038c565b945050610100620005ca8e828f01620003d6565b935050610120620005de8e828f01620003bf565b9250506101408c015167ffffffffffffffff81111562000603576200060262000812565b5b620006118e828f016200038c565b9150509295989b509295989b9093969950565b60006200063062000643565b90506200063e828262000745565b919050565b6000604051905090565b600067ffffffffffffffff8211156200066b576200066a620007d9565b5b62000676826200081c565b9050602081019050919050565b6000620006908262000697565b9050919050565b600073ffffffffffffffffffffffffffffffffffffffff82169050919050565b6000819050919050565b60006bffffffffffffffffffffffff82169050919050565b60005b83811015620006f9578082015181840152602081019050620006dc565b8381111562000709576000848401525b50505050565b600060028204905060018216806200072857607f821691505b602082108114156200073f576200073e620007aa565b5b50919050565b62000750826200081c565b810181811067ffffffffffffffff82111715620007725762000771620007d9565b5b80604052505050565b7f4e487b7100000000000000000000000000000000000000000000000000000000600052602160045260246000fd5b7f4e487b7100000000000000000000000000000000000000000000000000000000600052602260045260246000fd5b7f4e487b7100000000000000000000000000000000000000000000000000000000600052604160045260246000fd5b600080fd5b600080fd5b600080fd5b600080fd5b6000601f19601f8301169050919050565b620008388162000683565b81146200084457600080fd5b50565b6200085281620006b7565b81146200085e57600080fd5b50565b6200086c81620006c1565b81146200087857600080fd5b50565b610d74806200088b6000396000f3fe6080604052600436106101025760003560e01c80639699119d11610095578063c791316e11610064578063c791316e14610354578063d00127231461037f578063e6851127146103aa578063ef430aa6146103d5578063f3ccaac01461040057610103565b80639699119d146102a85780639cf0bd0d146102d3578063ab115d72146102fe578063b25cdccf1461032957610103565b80637284e416116100d15780637284e416146101fc5780637cb4d6d714610227578063852e5a0a146102525780638e22ce1d1461027d57610103565b806302d05d3f14610150578063055268781461017b57806317de3a41146101a65780634a79d50c146101d157610103565b5b60008060009054906101000a900473ffffffffffffffffffffffffffffffffffffffff16905060405136600082376000803683855af43d806000843e816000811461014c578184f35b8184fd5b34801561015c57600080fd5b5061016561042b565b6040516101729190610a88565b60405180910390f35b34801561018757600080fd5b50610190610451565b60405161019d9190610b0f565b60405180910390f35b3480156101b257600080fd5b506101bb6104df565b6040516101c89190610b0f565b60405180910390f35b3480156101dd57600080fd5b506101e661056d565b6040516101f39190610b0f565b60405180910390f35b34801561020857600080fd5b506102116105fb565b60405161021e9190610b0f565b60405180910390f35b34801561023357600080fd5b5061023c610689565b6040516102499190610aa3565b60405180910390f35b34801561025e57600080fd5b506102676106a1565b6040516102749190610ad9565b60405180910390f35b34801561028957600080fd5b506102926106b9565b60405161029f9190610a88565b60405180910390f35b3480156102b457600080fd5b506102bd6106d1565b6040516102ca9190610b4c565b60405180910390f35b3480156102df57600080fd5b506102e86106ef565b6040516102f59190610b0f565b60405180910390f35b34801561030a57600080fd5b5061031361077d565b6040516103209190610b0f565b60405180910390f35b34801561033557600080fd5b5061033e61080b565b60405161034b9190610af4565b60405180910390f35b34801561036057600080fd5b5061036961081e565b6040516103769190610b31565b60405180910390f35b34801561038b57600080fd5b50610394610824565b6040516103a19190610abe565b60405180910390f35b3480156103b657600080fd5b506103bf61083c565b6040516103cc9190610b0f565b60405180910390f35b3480156103e157600080fd5b506103ea6108ca565b6040516103f79190610b0f565b60405180910390f35b34801561040c57600080fd5b50610415610958565b6040516104229190610b0f565b60405180910390f35b600160009054906101000a900473ffffffffffffffffffffffffffffffffffffffff1681565b600b805461045e90610c89565b80601f016020809104026020016040519081016040528092919081815260200182805461048a90610c89565b80156104d75780601f106104ac576101008083540402835291602001916104d7565b820191906000526020600020905b8154815290600101906020018083116104ba57829003601f168201915b505050505081565b600680546104ec90610c89565b80601f016020809104026020016040519081016040528092919081815260200182805461051890610c89565b80156105655780601f1061053a57610100808354040283529160200191610565565b820191906000526020600020905b81548152906001019060200180831161054857829003601f168201915b505050505081565b6002805461057a90610c89565b80601f01602080910402602001604051908101604052809291908181526020018280546105a690610c89565b80156105f35780601f106105c8576101008083540402835291602001916105f3565b820191906000526020600020905b8154815290600101906020018083116105d657829003601f168201915b505050505081565b6003805461060890610c89565b80601f016020809104026020016040519081016040528092919081815260200182805461063490610c89565b80156106815780601f1061065657610100808354040283529160200191610681565b820191906000526020600020905b81548152906001019060200180831161066457829003601f168201915b505050505081565b73f4c5310e51f6079f601a5fb7120bc72a70b96e2a81565b73ed5b5b32110c3ded02a07c8b8e97513fafb883b681565b73a4e987fb3808d9fc206112967477793ea838945081565b600960009054906101000a90046bffffffffffffffffffffffff1681565b600880546106fc90610c89565b80601f016020809104026020016040519081016040528092919081815260200182805461072890610c89565b80156107755780601f1061074a57610100808354040283529160200191610775565b820191906000526020600020905b81548152906001019060200180831161075857829003601f168201915b505050505081565b6007805461078a90610c89565b80601f01602080910402602001604051908101604052809291908181526020018280546107b690610c89565b80156108035780601f106107d857610100808354040283529160200191610803565b820191906000526020600020905b8154815290600101906020018083116107e657829003601f168201915b505050505081565b600d60009054906101000a900460ff1681565b600a5481565b73a623b2dd931c5162b7a0b25852f4024db48bb1a081565b600c805461084990610c89565b80601f016020809104026020016040519081016040528092919081815260200182805461087590610c89565b80156108c25780601f10610897576101008083540402835291602001916108c2565b820191906000526020600020905b8154815290600101906020018083116108a557829003601f168201915b505050505081565b600580546108d790610c89565b80601f016020809104026020016040519081016040528092919081815260200182805461090390610c89565b80156109505780601f1061092557610100808354040283529160200191610950565b820191906000526020600020905b81548152906001019060200180831161093357829003601f168201915b505050505081565b6004805461096590610c89565b80601f016020809104026020016040519081016040528092919081815260200182805461099190610c89565b80156109de5780601f106109b3576101008083540402835291602001916109de565b820191906000526020600020905b8154815290600101906020018083116109c157829003601f168201915b505050505081565b6109ef81610b83565b82525050565b6109fe81610bea565b82525050565b610a0d81610bfc565b82525050565b610a1c81610c0e565b82525050565b610a2b81610c20565b82525050565b6000610a3c82610b67565b610a468185610b72565b9350610a56818560208601610c56565b610a5f81610d19565b840191505092915050565b610a7381610bc8565b82525050565b610a8281610bd2565b82525050565b6000602082019050610a9d60008301846109e6565b92915050565b6000602082019050610ab860008301846109f5565b92915050565b6000602082019050610ad36000830184610a04565b92915050565b6000602082019050610aee6000830184610a13565b92915050565b6000602082019050610b096000830184610a22565b92915050565b60006020820190508181036000830152610b298184610a31565b905092915050565b6000602082019050610b466000830184610a6a565b92915050565b6000602082019050610b616000830184610a79565b92915050565b600081519050919050565b600082825260208201905092915050565b6000610b8e82610ba8565b9050919050565b6000819050610ba382610d2a565b919050565b600073ffffffffffffffffffffffffffffffffffffffff82169050919050565b6000819050919050565b60006bffffffffffffffffffffffff82169050919050565b6000610bf582610c32565b9050919050565b6000610c0782610c32565b9050919050565b6000610c1982610c32565b9050919050565b6000610c2b82610b95565b9050919050565b6000610c3d82610c44565b9050919050565b6000610c4f82610ba8565b9050919050565b60005b83811015610c74578082015181840152602081019050610c59565b83811115610c83576000848401525b50505050565b60006002820490506001821680610ca157607f821691505b60208210811415610cb557610cb4610cea565b5b50919050565b7f4e487b7100000000000000000000000000000000000000000000000000000000600052602160045260246000fd5b7f4e487b7100000000000000000000000000000000000000000000000000000000600052602260045260246000fd5b6000601f19601f8301169050919050565b60058110610d3b57610d3a610cbb565b5b5056fea26469706673582212201e40f11b3c7625594140a808945cdb88350b3afed6aacba382bebfa8e5ff8ae164736f6c63430008070033a264697066735822122025f36b4a6036da85d666af718dddf8a08035c65463874047d6dd0f00dc2f96f064736f6c63430008070033",
  "linkReferences": {},
  "deployedLinkReferences": {}
}