{
  "_format": "hh-sol-artifact-1",
  "contractName": "CrowdCommission",
  "sourceName": "contracts/CrowdCommission.sol",
  "abi": [
    {
      "inputs": [],
      "stateMutability": "nonpayable",
      "type": "constructor"
    },
    {
      "anonymous": false,
      "inputs": [
        {
          "indexed": true,
          "internalType": "address",
          "name": "owner",
          "type": "address"
        },
        {
          "indexed": true,
          "internalType": "address",
          "name": "approved",
          "type": "address"
        },
        {
          "indexed": true,
          "internalType": "uint256",
          "name": "tokenId",
          "type": "uint256"
        }
      ],
      "name": "Approval",
      "type": "event"
    },
    {
      "anonymous": false,
      "inputs": [
        {
          "indexed": true,
          "internalType": "address",
          "name": "owner",
          "type": "address"
        },
        {
          "indexed": true,
          "internalType": "address",
          "name": "operator",
          "type": "address"
        },
        {
          "indexed": false,
          "internalType": "bool",
          "name": "approved",
          "type": "bool"
        }
      ],
      "name": "ApprovalForAll",
      "type": "event"
    },
    {
      "anonymous": false,
      "inputs": [
        {
          "indexed": true,
          "internalType": "bytes32",
          "name": "role",
          "type": "bytes32"
        },
        {
          "indexed": true,
          "internalType": "bytes32",
          "name": "previousAdminRole",
          "type": "bytes32"
        },
        {
          "indexed": true,
          "internalType": "bytes32",
          "name": "newAdminRole",
          "type": "bytes32"
        }
      ],
      "name": "RoleAdminChanged",
      "type": "event"
    },
    {
      "anonymous": false,
      "inputs": [
        {
          "indexed": true,
          "internalType": "bytes32",
          "name": "role",
          "type": "bytes32"
        },
        {
          "indexed": true,
          "internalType": "address",
          "name": "account",
          "type": "address"
        },
        {
          "indexed": true,
          "internalType": "address",
          "name": "sender",
          "type": "address"
        }
      ],
      "name": "RoleGranted",
      "type": "event"
    },
    {
      "anonymous": false,
      "inputs": [
        {
          "indexed": true,
          "internalType": "bytes32",
          "name": "role",
          "type": "bytes32"
        },
        {
          "indexed": true,
          "internalType": "address",
          "name": "account",
          "type": "address"
        },
        {
          "indexed": true,
          "internalType": "address",
          "name": "sender",
          "type": "address"
        }
      ],
      "name": "RoleRevoked",
      "type": "event"
    },
    {
      "anonymous": false,
      "inputs": [
        {
          "indexed": true,
          "internalType": "address",
          "name": "from",
          "type": "address"
        },
        {
          "indexed": true,
          "internalType": "address",
          "name": "to",
          "type": "address"
        },
        {
          "indexed": true,
          "internalType": "uint256",
          "name": "tokenId",
          "type": "uint256"
        }
      ],
      "name": "Transfer",
      "type": "event"
    },
    {
      "inputs": [],
      "name": "DEFAULT_ADMIN_ROLE",
      "outputs": [
        {
          "internalType": "bytes32",
          "name": "",
          "type": "bytes32"
        }
      ],
      "stateMutability": "view",
      "type": "function"
    },
    {
      "inputs": [],
      "name": "MINTER_ROLE",
      "outputs": [
        {
          "internalType": "bytes32",
          "name": "",
          "type": "bytes32"
        }
      ],
      "stateMutability": "view",
      "type": "function"
    },
    {
      "inputs": [
        {
          "internalType": "address",
          "name": "to",
          "type": "address"
        },
        {
          "internalType": "uint256",
          "name": "tokenId",
          "type": "uint256"
        }
      ],
      "name": "approve",
      "outputs": [],
      "stateMutability": "nonpayable",
      "type": "function"
    },
    {
      "inputs": [
        {
          "internalType": "address",
          "name": "owner",
          "type": "address"
        }
      ],
      "name": "balanceOf",
      "outputs": [
        {
          "internalType": "uint256",
          "name": "",
          "type": "uint256"
        }
      ],
      "stateMutability": "view",
      "type": "function"
    },
    {
      "inputs": [
        {
          "internalType": "uint256",
          "name": "tokenId",
          "type": "uint256"
        }
      ],
      "name": "getApproved",
      "outputs": [
        {
          "internalType": "address",
          "name": "",
          "type": "address"
        }
      ],
      "stateMutability": "view",
      "type": "function"
    },
    {
      "inputs": [
        {
          "internalType": "bytes32",
          "name": "role",
          "type": "bytes32"
        }
      ],
      "name": "getRoleAdmin",
      "outputs": [
        {
          "internalType": "bytes32",
          "name": "",
          "type": "bytes32"
        }
      ],
      "stateMutability": "view",
      "type": "function"
    },
    {
      "inputs": [
        {
          "internalType": "bytes32",
          "name": "role",
          "type": "bytes32"
        },
        {
          "internalType": "address",
          "name": "account",
          "type": "address"
        }
      ],
      "name": "grantRole",
      "outputs": [],
      "stateMutability": "nonpayable",
      "type": "function"
    },
    {
      "inputs": [
        {
          "internalType": "bytes32",
          "name": "role",
          "type": "bytes32"
        },
        {
          "internalType": "address",
          "name": "account",
          "type": "address"
        }
      ],
      "name": "hasRole",
      "outputs": [
        {
          "internalType": "bool",
          "name": "",
          "type": "bool"
        }
      ],
      "stateMutability": "view",
      "type": "function"
    },
    {
      "inputs": [
        {
          "internalType": "address",
          "name": "owner",
          "type": "address"
        },
        {
          "internalType": "address",
          "name": "operator",
          "type": "address"
        }
      ],
      "name": "isApprovedForAll",
      "outputs": [
        {
          "internalType": "bool",
          "name": "",
          "type": "bool"
        }
      ],
      "stateMutability": "view",
      "type": "function"
    },
    {
      "inputs": [],
      "name": "name",
      "outputs": [
        {
          "internalType": "string",
          "name": "",
          "type": "string"
        }
      ],
      "stateMutability": "view",
      "type": "function"
    },
    {
      "inputs": [
        {
          "internalType": "uint256",
          "name": "tokenId",
          "type": "uint256"
        }
      ],
      "name": "ownerOf",
      "outputs": [
        {
          "internalType": "address",
          "name": "",
          "type": "address"
        }
      ],
      "stateMutability": "view",
      "type": "function"
    },
    {
      "inputs": [
        {
          "internalType": "bytes32",
          "name": "role",
          "type": "bytes32"
        },
        {
          "internalType": "address",
          "name": "account",
          "type": "address"
        }
      ],
      "name": "renounceRole",
      "outputs": [],
      "stateMutability": "nonpayable",
      "type": "function"
    },
    {
      "inputs": [
        {
          "internalType": "bytes32",
          "name": "role",
          "type": "bytes32"
        },
        {
          "internalType": "address",
          "name": "account",
          "type": "address"
        }
      ],
      "name": "revokeRole",
      "outputs": [],
      "stateMutability": "nonpayable",
      "type": "function"
    },
    {
      "inputs": [
        {
          "internalType": "address",
          "name": "to",
          "type": "address"
        }
      ],
      "name": "safeMint",
      "outputs": [],
      "stateMutability": "nonpayable",
      "type": "function"
    },
    {
      "inputs": [
        {
          "internalType": "address",
          "name": "from",
          "type": "address"
        },
        {
          "internalType": "address",
          "name": "to",
          "type": "address"
        },
        {
          "internalType": "uint256",
          "name": "tokenId",
          "type": "uint256"
        }
      ],
      "name": "safeTransferFrom",
      "outputs": [],
      "stateMutability": "nonpayable",
      "type": "function"
    },
    {
      "inputs": [
        {
          "internalType": "address",
          "name": "from",
          "type": "address"
        },
        {
          "internalType": "address",
          "name": "to",
          "type": "address"
        },
        {
          "internalType": "uint256",
          "name": "tokenId",
          "type": "uint256"
        },
        {
          "internalType": "bytes",
          "name": "_data",
          "type": "bytes"
        }
      ],
      "name": "safeTransferFrom",
      "outputs": [],
      "stateMutability": "nonpayable",
      "type": "function"
    },
    {
      "inputs": [
        {
          "internalType": "address",
          "name": "operator",
          "type": "address"
        },
        {
          "internalType": "bool",
          "name": "approved",
          "type": "bool"
        }
      ],
      "name": "setApprovalForAll",
      "outputs": [],
      "stateMutability": "nonpayable",
      "type": "function"
    },
    {
      "inputs": [
        {
          "internalType": "bytes4",
          "name": "interfaceId",
          "type": "bytes4"
        }
      ],
      "name": "supportsInterface",
      "outputs": [
        {
          "internalType": "bool",
          "name": "",
          "type": "bool"
        }
      ],
      "stateMutability": "view",
      "type": "function"
    },
    {
      "inputs": [],
      "name": "symbol",
      "outputs": [
        {
          "internalType": "string",
          "name": "",
          "type": "string"
        }
      ],
      "stateMutability": "view",
      "type": "function"
    },
    {
      "inputs": [
        {
          "internalType": "uint256",
          "name": "tokenId",
          "type": "uint256"
        }
      ],
      "name": "tokenURI",
      "outputs": [
        {
          "internalType": "string",
          "name": "",
          "type": "string"
        }
      ],
      "stateMutability": "view",
      "type": "function"
    },
    {
      "inputs": [
        {
          "internalType": "address",
          "name": "from",
          "type": "address"
        },
        {
          "internalType": "address",
          "name": "to",
          "type": "address"
        },
        {
          "internalType": "uint256",
          "name": "tokenId",
          "type": "uint256"
        }
      ],
      "name": "transferFrom",
      "outputs": [],
      "stateMutability": "nonpayable",
      "type": "function"
    }
  ],
  "bytecode": "0x60806040523480156200001157600080fd5b506040518060400160405280600f81526020017f43726f7764436f6d6d697373696f6e00000000000000000000000000000000008152506040518060400160405280600881526020017f6c6f7564434f4d4d00000000000000000000000000000000000000000000000081525081600090805190602001906200009692919062000264565b508060019080519060200190620000af92919062000264565b505050620000c76000801b33620000ff60201b60201c565b620000f97f9f2df0fed2c77648de5860a4cc508cd0818c85b8b8a1ab4ceeef8d981c8956a633620000ff60201b60201c565b62000379565b620001118282620001f160201b60201c565b620001ed5760016006600084815260200190815260200160002060000160008373ffffffffffffffffffffffffffffffffffffffff1673ffffffffffffffffffffffffffffffffffffffff16815260200190815260200160002060006101000a81548160ff021916908315150217905550620001926200025c60201b60201c565b73ffffffffffffffffffffffffffffffffffffffff168173ffffffffffffffffffffffffffffffffffffffff16837f2f8788117e7eff1d82e926ec794901d17c78024a50270940304540a733656f0d60405160405180910390a45b5050565b60006006600084815260200190815260200160002060000160008373ffffffffffffffffffffffffffffffffffffffff1673ffffffffffffffffffffffffffffffffffffffff16815260200190815260200160002060009054906101000a900460ff16905092915050565b600033905090565b828054620002729062000314565b90600052602060002090601f016020900481019282620002965760008555620002e2565b82601f10620002b157805160ff1916838001178555620002e2565b82800160010185558215620002e2579182015b82811115620002e1578251825591602001919060010190620002c4565b5b509050620002f19190620002f5565b5090565b5b8082111562000310576000816000905550600101620002f6565b5090565b600060028204905060018216806200032d57607f821691505b602082108114156200034457620003436200034a565b5b50919050565b7f4e487b7100000000000000000000000000000000000000000000000000000000600052602260045260246000fd5b61336d80620003896000396000f3fe608060405234801561001057600080fd5b50600436106101375760003560e01c80636352211e116100b8578063a22cb4651161007c578063a22cb4651461035e578063b88d4fde1461037a578063c87b56dd14610396578063d5391393146103c6578063d547741f146103e4578063e985e9c51461040057610137565b80636352211e1461029257806370a08231146102c257806391d14854146102f257806395d89b4114610322578063a217fddf1461034057610137565b8063248a9ca3116100ff578063248a9ca3146101f25780632f2ff15d1461022257806336568abe1461023e57806340d097c31461025a57806342842e0e1461027657610137565b806301ffc9a71461013c57806306fdde031461016c578063081812fc1461018a578063095ea7b3146101ba57806323b872dd146101d6575b600080fd5b610156600480360381019061015191906122d0565b610430565b6040516101639190612765565b60405180910390f35b610174610442565b604051610181919061279b565b60405180910390f35b6101a4600480360381019061019f9190612322565b6104d4565b6040516101b191906126fe565b60405180910390f35b6101d460048036038101906101cf919061222f565b610559565b005b6101f060048036038101906101eb9190612129565b610671565b005b61020c6004803603810190610207919061226b565b6106d1565b6040516102199190612780565b60405180910390f35b61023c60048036038101906102379190612294565b6106f1565b005b61025860048036038101906102539190612294565b61071a565b005b610274600480360381019061026f91906120c4565b61079d565b005b610290600480360381019061028b9190612129565b6107f6565b005b6102ac60048036038101906102a79190612322565b610816565b6040516102b991906126fe565b60405180910390f35b6102dc60048036038101906102d791906120c4565b6108c8565b6040516102e991906129bd565b60405180910390f35b61030c60048036038101906103079190612294565b610980565b6040516103199190612765565b60405180910390f35b61032a6109eb565b604051610337919061279b565b60405180910390f35b610348610a7d565b6040516103559190612780565b60405180910390f35b610378600480360381019061037391906121f3565b610a84565b005b610394600480360381019061038f9190612178565b610a9a565b005b6103b060048036038101906103ab9190612322565b610afc565b6040516103bd919061279b565b60405180910390f35b6103ce610ba3565b6040516103db9190612780565b60405180910390f35b6103fe60048036038101906103f99190612294565b610bc7565b005b61041a600480360381019061041591906120ed565b610bf0565b6040516104279190612765565b60405180910390f35b600061043b82610c84565b9050919050565b60606000805461045190612c70565b80601f016020809104026020016040519081016040528092919081815260200182805461047d90612c70565b80156104ca5780601f1061049f576101008083540402835291602001916104ca565b820191906000526020600020905b8154815290600101906020018083116104ad57829003601f168201915b5050505050905090565b60006104df82610cfe565b61051e576040517f08c379a00000000000000000000000000000000000000000000000000000000081526004016105159061291d565b60405180910390fd5b6004600083815260200190815260200160002060009054906101000a900473ffffffffffffffffffffffffffffffffffffffff169050919050565b600061056482610816565b90508073ffffffffffffffffffffffffffffffffffffffff168373ffffffffffffffffffffffffffffffffffffffff1614156105d5576040517f08c379a00000000000000000000000000000000000000000000000000000000081526004016105cc9061295d565b60405180910390fd5b8073ffffffffffffffffffffffffffffffffffffffff166105f4610d6a565b73ffffffffffffffffffffffffffffffffffffffff16148061062357506106228161061d610d6a565b610bf0565b5b610662576040517f08c379a00000000000000000000000000000000000000000000000000000000081526004016106599061289d565b60405180910390fd5b61066c8383610d72565b505050565b61068261067c610d6a565b82610e2b565b6106c1576040517f08c379a00000000000000000000000000000000000000000000000000000000081526004016106b89061297d565b60405180910390fd5b6106cc838383610f09565b505050565b600060066000838152602001908152602001600020600101549050919050565b6106fa826106d1565b61070b81610706610d6a565b611170565b610715838361120d565b505050565b610722610d6a565b73ffffffffffffffffffffffffffffffffffffffff168173ffffffffffffffffffffffffffffffffffffffff161461078f576040517f08c379a00000000000000000000000000000000000000000000000000000000081526004016107869061299d565b60405180910390fd5b61079982826112ee565b5050565b7f9f2df0fed2c77648de5860a4cc508cd0818c85b8b8a1ab4ceeef8d981c8956a66107cf816107ca610d6a565b611170565b60006107db60076113d0565b90506107e760076113de565b6107f183826113f4565b505050565b61081183838360405180602001604052806000815250610a9a565b505050565b6000806002600084815260200190815260200160002060009054906101000a900473ffffffffffffffffffffffffffffffffffffffff169050600073ffffffffffffffffffffffffffffffffffffffff168173ffffffffffffffffffffffffffffffffffffffff1614156108bf576040517f08c379a00000000000000000000000000000000000000000000000000000000081526004016108b6906128dd565b60405180910390fd5b80915050919050565b60008073ffffffffffffffffffffffffffffffffffffffff168273ffffffffffffffffffffffffffffffffffffffff161415610939576040517f08c379a0000000000000000000000000000000000000000000000000000000008152600401610930906128bd565b60405180910390fd5b600360008373ffffffffffffffffffffffffffffffffffffffff1673ffffffffffffffffffffffffffffffffffffffff168152602001908152602001600020549050919050565b60006006600084815260200190815260200160002060000160008373ffffffffffffffffffffffffffffffffffffffff1673ffffffffffffffffffffffffffffffffffffffff16815260200190815260200160002060009054906101000a900460ff16905092915050565b6060600180546109fa90612c70565b80601f0160208091040260200160405190810160405280929190818152602001828054610a2690612c70565b8015610a735780601f10610a4857610100808354040283529160200191610a73565b820191906000526020600020905b815481529060010190602001808311610a5657829003601f168201915b5050505050905090565b6000801b81565b610a96610a8f610d6a565b8383611412565b5050565b610aab610aa5610d6a565b83610e2b565b610aea576040517f08c379a0000000000000000000000000000000000000000000000000000000008152600401610ae19061297d565b60405180910390fd5b610af68484848461157f565b50505050565b6060610b0782610cfe565b610b46576040517f08c379a0000000000000000000000000000000000000000000000000000000008152600401610b3d9061293d565b60405180910390fd5b6000610b506115db565b90506000815111610b705760405180602001604052806000815250610b9b565b80610b7a846115f2565b604051602001610b8b9291906126a0565b6040516020818303038152906040525b915050919050565b7f9f2df0fed2c77648de5860a4cc508cd0818c85b8b8a1ab4ceeef8d981c8956a681565b610bd0826106d1565b610be181610bdc610d6a565b611170565b610beb83836112ee565b505050565b6000600560008473ffffffffffffffffffffffffffffffffffffffff1673ffffffffffffffffffffffffffffffffffffffff16815260200190815260200160002060008373ffffffffffffffffffffffffffffffffffffffff1673ffffffffffffffffffffffffffffffffffffffff16815260200190815260200160002060009054906101000a900460ff16905092915050565b60007f7965db0b000000000000000000000000000000000000000000000000000000007bffffffffffffffffffffffffffffffffffffffffffffffffffffffff1916827bffffffffffffffffffffffffffffffffffffffffffffffffffffffff19161480610cf75750610cf68261179f565b5b9050919050565b60008073ffffffffffffffffffffffffffffffffffffffff166002600084815260200190815260200160002060009054906101000a900473ffffffffffffffffffffffffffffffffffffffff1673ffffffffffffffffffffffffffffffffffffffff1614159050919050565b600033905090565b816004600083815260200190815260200160002060006101000a81548173ffffffffffffffffffffffffffffffffffffffff021916908373ffffffffffffffffffffffffffffffffffffffff160217905550808273ffffffffffffffffffffffffffffffffffffffff16610de583610816565b73ffffffffffffffffffffffffffffffffffffffff167f8c5be1e5ebec7d5bd14f71427d1e84f3dd0314c0f7b2291e5b200ac8c7c3b92560405160405180910390a45050565b6000610e3682610cfe565b610e75576040517f08c379a0000000000000000000000000000000000000000000000000000000008152600401610e6c9061287d565b60405180910390fd5b6000610e8083610816565b90508073ffffffffffffffffffffffffffffffffffffffff168473ffffffffffffffffffffffffffffffffffffffff161480610eef57508373ffffffffffffffffffffffffffffffffffffffff16610ed7846104d4565b73ffffffffffffffffffffffffffffffffffffffff16145b80610f005750610eff8185610bf0565b5b91505092915050565b8273ffffffffffffffffffffffffffffffffffffffff16610f2982610816565b73ffffffffffffffffffffffffffffffffffffffff1614610f7f576040517f08c379a0000000000000000000000000000000000000000000000000000000008152600401610f76906127fd565b60405180910390fd5b600073ffffffffffffffffffffffffffffffffffffffff168273ffffffffffffffffffffffffffffffffffffffff161415610fef576040517f08c379a0000000000000000000000000000000000000000000000000000000008152600401610fe69061283d565b60405180910390fd5b610ffa838383611881565b611005600082610d72565b6001600360008573ffffffffffffffffffffffffffffffffffffffff1673ffffffffffffffffffffffffffffffffffffffff16815260200190815260200160002060008282546110559190612b52565b925050819055506001600360008473ffffffffffffffffffffffffffffffffffffffff1673ffffffffffffffffffffffffffffffffffffffff16815260200190815260200160002060008282546110ac9190612a71565b92505081905550816002600083815260200190815260200160002060006101000a81548173ffffffffffffffffffffffffffffffffffffffff021916908373ffffffffffffffffffffffffffffffffffffffff160217905550808273ffffffffffffffffffffffffffffffffffffffff168473ffffffffffffffffffffffffffffffffffffffff167fddf252ad1be2c89b69c2b068fc378daa952ba7f163c4a11628f55a4df523b3ef60405160405180910390a461116b838383611886565b505050565b61117a8282610980565b6112095761119f8173ffffffffffffffffffffffffffffffffffffffff16601461188b565b6111ad8360001c602061188b565b6040516020016111be9291906126c4565b6040516020818303038152906040526040517f08c379a0000000000000000000000000000000000000000000000000000000008152600401611200919061279b565b60405180910390fd5b5050565b6112178282610980565b6112ea5760016006600084815260200190815260200160002060000160008373ffffffffffffffffffffffffffffffffffffffff1673ffffffffffffffffffffffffffffffffffffffff16815260200190815260200160002060006101000a81548160ff02191690831515021790555061128f610d6a565b73ffffffffffffffffffffffffffffffffffffffff168173ffffffffffffffffffffffffffffffffffffffff16837f2f8788117e7eff1d82e926ec794901d17c78024a50270940304540a733656f0d60405160405180910390a45b5050565b6112f88282610980565b156113cc5760006006600084815260200190815260200160002060000160008373ffffffffffffffffffffffffffffffffffffffff1673ffffffffffffffffffffffffffffffffffffffff16815260200190815260200160002060006101000a81548160ff021916908315150217905550611371610d6a565b73ffffffffffffffffffffffffffffffffffffffff168173ffffffffffffffffffffffffffffffffffffffff16837ff6391f5c32d9c69d2a47ea670b442974b53935d1edc7fd64eb21e047a839171b60405160405180910390a45b5050565b600081600001549050919050565b6001816000016000828254019250508190555050565b61140e828260405180602001604052806000815250611b85565b5050565b8173ffffffffffffffffffffffffffffffffffffffff168373ffffffffffffffffffffffffffffffffffffffff161415611481576040517f08c379a00000000000000000000000000000000000000000000000000000000081526004016114789061285d565b60405180910390fd5b80600560008573ffffffffffffffffffffffffffffffffffffffff1673ffffffffffffffffffffffffffffffffffffffff16815260200190815260200160002060008473ffffffffffffffffffffffffffffffffffffffff1673ffffffffffffffffffffffffffffffffffffffff16815260200190815260200160002060006101000a81548160ff0219169083151502179055508173ffffffffffffffffffffffffffffffffffffffff168373ffffffffffffffffffffffffffffffffffffffff167f17307eab39ab6107e8899845ad3d59bd9653f200f220920489ca2b5937696c31836040516115729190612765565b60405180910390a3505050565b61158a848484610f09565b61159684848484611be0565b6115d5576040517f08c379a00000000000000000000000000000000000000000000000000000000081526004016115cc906127dd565b60405180910390fd5b50505050565b606060405180602001604052806000815250905090565b6060600082141561163a576040518060400160405280600181526020017f3000000000000000000000000000000000000000000000000000000000000000815250905061179a565b600082905060005b6000821461166c57808061165590612cd3565b915050600a826116659190612ac7565b9150611642565b60008167ffffffffffffffff8111156116ae577f4e487b7100000000000000000000000000000000000000000000000000000000600052604160045260246000fd5b6040519080825280601f01601f1916602001820160405280156116e05781602001600182028036833780820191505090505b5090505b60008514611793576001826116f99190612b52565b9150600a856117089190612d1c565b60306117149190612a71565b60f81b818381518110611750577f4e487b7100000000000000000000000000000000000000000000000000000000600052603260045260246000fd5b60200101907effffffffffffffffffffffffffffffffffffffffffffffffffffffffffffff1916908160001a905350600a8561178c9190612ac7565b94506116e4565b8093505050505b919050565b60007f80ac58cd000000000000000000000000000000000000000000000000000000007bffffffffffffffffffffffffffffffffffffffffffffffffffffffff1916827bffffffffffffffffffffffffffffffffffffffffffffffffffffffff1916148061186a57507f5b5e139f000000000000000000000000000000000000000000000000000000007bffffffffffffffffffffffffffffffffffffffffffffffffffffffff1916827bffffffffffffffffffffffffffffffffffffffffffffffffffffffff1916145b8061187a575061187982611d77565b5b9050919050565b505050565b505050565b60606000600283600261189e9190612af8565b6118a89190612a71565b67ffffffffffffffff8111156118e7577f4e487b7100000000000000000000000000000000000000000000000000000000600052604160045260246000fd5b6040519080825280601f01601f1916602001820160405280156119195781602001600182028036833780820191505090505b5090507f300000000000000000000000000000000000000000000000000000000000000081600081518110611977577f4e487b7100000000000000000000000000000000000000000000000000000000600052603260045260246000fd5b60200101907effffffffffffffffffffffffffffffffffffffffffffffffffffffffffffff1916908160001a9053507f780000000000000000000000000000000000000000000000000000000000000081600181518110611a01577f4e487b7100000000000000000000000000000000000000000000000000000000600052603260045260246000fd5b60200101907effffffffffffffffffffffffffffffffffffffffffffffffffffffffffffff1916908160001a90535060006001846002611a419190612af8565b611a4b9190612a71565b90505b6001811115611b37577f3031323334353637383961626364656600000000000000000000000000000000600f861660108110611ab3577f4e487b7100000000000000000000000000000000000000000000000000000000600052603260045260246000fd5b1a60f81b828281518110611af0577f4e487b7100000000000000000000000000000000000000000000000000000000600052603260045260246000fd5b60200101907effffffffffffffffffffffffffffffffffffffffffffffffffffffffffffff1916908160001a905350600485901c945080611b3090612c46565b9050611a4e565b5060008414611b7b576040517f08c379a0000000000000000000000000000000000000000000000000000000008152600401611b72906127bd565b60405180910390fd5b8091505092915050565b611b8f8383611de1565b611b9c6000848484611be0565b611bdb576040517f08c379a0000000000000000000000000000000000000000000000000000000008152600401611bd2906127dd565b60405180910390fd5b505050565b6000611c018473ffffffffffffffffffffffffffffffffffffffff16611fbb565b15611d6a578373ffffffffffffffffffffffffffffffffffffffff1663150b7a02611c2a610d6a565b8786866040518563ffffffff1660e01b8152600401611c4c9493929190612719565b602060405180830381600087803b158015611c6657600080fd5b505af1925050508015611c9757506040513d601f19601f82011682018060405250810190611c9491906122f9565b60015b611d1a573d8060008114611cc7576040519150601f19603f3d011682016040523d82523d6000602084013e611ccc565b606091505b50600081511415611d12576040517f08c379a0000000000000000000000000000000000000000000000000000000008152600401611d09906127dd565b60405180910390fd5b805181602001fd5b63150b7a0260e01b7bffffffffffffffffffffffffffffffffffffffffffffffffffffffff1916817bffffffffffffffffffffffffffffffffffffffffffffffffffffffff191614915050611d6f565b600190505b949350505050565b60007f01ffc9a7000000000000000000000000000000000000000000000000000000007bffffffffffffffffffffffffffffffffffffffffffffffffffffffff1916827bffffffffffffffffffffffffffffffffffffffffffffffffffffffff1916149050919050565b600073ffffffffffffffffffffffffffffffffffffffff168273ffffffffffffffffffffffffffffffffffffffff161415611e51576040517f08c379a0000000000000000000000000000000000000000000000000000000008152600401611e48906128fd565b60405180910390fd5b611e5a81610cfe565b15611e9a576040517f08c379a0000000000000000000000000000000000000000000000000000000008152600401611e919061281d565b60405180910390fd5b611ea660008383611881565b6001600360008473ffffffffffffffffffffffffffffffffffffffff1673ffffffffffffffffffffffffffffffffffffffff1681526020019081526020016000206000828254611ef69190612a71565b92505081905550816002600083815260200190815260200160002060006101000a81548173ffffffffffffffffffffffffffffffffffffffff021916908373ffffffffffffffffffffffffffffffffffffffff160217905550808273ffffffffffffffffffffffffffffffffffffffff16600073ffffffffffffffffffffffffffffffffffffffff167fddf252ad1be2c89b69c2b068fc378daa952ba7f163c4a11628f55a4df523b3ef60405160405180910390a4611fb760008383611886565b5050565b6000808273ffffffffffffffffffffffffffffffffffffffff163b119050919050565b6000611ff1611fec846129fd565b6129d8565b90508281526020810184848401111561200957600080fd5b612014848285612c04565b509392505050565b60008135905061202b816132c4565b92915050565b600081359050612040816132db565b92915050565b600081359050612055816132f2565b92915050565b60008135905061206a81613309565b92915050565b60008151905061207f81613309565b92915050565b600082601f83011261209657600080fd5b81356120a6848260208601611fde565b91505092915050565b6000813590506120be81613320565b92915050565b6000602082840312156120d657600080fd5b60006120e48482850161201c565b91505092915050565b6000806040838503121561210057600080fd5b600061210e8582860161201c565b925050602061211f8582860161201c565b9150509250929050565b60008060006060848603121561213e57600080fd5b600061214c8682870161201c565b935050602061215d8682870161201c565b925050604061216e868287016120af565b9150509250925092565b6000806000806080858703121561218e57600080fd5b600061219c8782880161201c565b94505060206121ad8782880161201c565b93505060406121be878288016120af565b925050606085013567ffffffffffffffff8111156121db57600080fd5b6121e787828801612085565b91505092959194509250565b6000806040838503121561220657600080fd5b60006122148582860161201c565b925050602061222585828601612031565b9150509250929050565b6000806040838503121561224257600080fd5b60006122508582860161201c565b9250506020612261858286016120af565b9150509250929050565b60006020828403121561227d57600080fd5b600061228b84828501612046565b91505092915050565b600080604083850312156122a757600080fd5b60006122b585828601612046565b92505060206122c68582860161201c565b9150509250929050565b6000602082840312156122e257600080fd5b60006122f08482850161205b565b91505092915050565b60006020828403121561230b57600080fd5b600061231984828501612070565b91505092915050565b60006020828403121561233457600080fd5b6000612342848285016120af565b91505092915050565b61235481612b86565b82525050565b61236381612b98565b82525050565b61237281612ba4565b82525050565b600061238382612a2e565b61238d8185612a44565b935061239d818560208601612c13565b6123a681612e09565b840191505092915050565b60006123bc82612a39565b6123c68185612a55565b93506123d6818560208601612c13565b6123df81612e09565b840191505092915050565b60006123f582612a39565b6123ff8185612a66565b935061240f818560208601612c13565b80840191505092915050565b6000612428602083612a55565b915061243382612e1a565b602082019050919050565b600061244b603283612a55565b915061245682612e43565b604082019050919050565b600061246e602583612a55565b915061247982612e92565b604082019050919050565b6000612491601c83612a55565b915061249c82612ee1565b602082019050919050565b60006124b4602483612a55565b91506124bf82612f0a565b604082019050919050565b60006124d7601983612a55565b91506124e282612f59565b602082019050919050565b60006124fa602c83612a55565b915061250582612f82565b604082019050919050565b600061251d603883612a55565b915061252882612fd1565b604082019050919050565b6000612540602a83612a55565b915061254b82613020565b604082019050919050565b6000612563602983612a55565b915061256e8261306f565b604082019050919050565b6000612586602083612a55565b9150612591826130be565b602082019050919050565b60006125a9602c83612a55565b91506125b4826130e7565b604082019050919050565b60006125cc602f83612a55565b91506125d782613136565b604082019050919050565b60006125ef602183612a55565b91506125fa82613185565b604082019050919050565b6000612612603183612a55565b915061261d826131d4565b604082019050919050565b6000612635601783612a66565b915061264082613223565b601782019050919050565b6000612658601183612a66565b91506126638261324c565b601182019050919050565b600061267b602f83612a55565b915061268682613275565b604082019050919050565b61269a81612bfa565b82525050565b60006126ac82856123ea565b91506126b882846123ea565b91508190509392505050565b60006126cf82612628565b91506126db82856123ea565b91506126e68261264b565b91506126f282846123ea565b91508190509392505050565b6000602082019050612713600083018461234b565b92915050565b600060808201905061272e600083018761234b565b61273b602083018661234b565b6127486040830185612691565b818103606083015261275a8184612378565b905095945050505050565b600060208201905061277a600083018461235a565b92915050565b60006020820190506127956000830184612369565b92915050565b600060208201905081810360008301526127b581846123b1565b905092915050565b600060208201905081810360008301526127d68161241b565b9050919050565b600060208201905081810360008301526127f68161243e565b9050919050565b6000602082019050818103600083015261281681612461565b9050919050565b6000602082019050818103600083015261283681612484565b9050919050565b60006020820190508181036000830152612856816124a7565b9050919050565b60006020820190508181036000830152612876816124ca565b9050919050565b60006020820190508181036000830152612896816124ed565b9050919050565b600060208201905081810360008301526128b681612510565b9050919050565b600060208201905081810360008301526128d681612533565b9050919050565b600060208201905081810360008301526128f681612556565b9050919050565b6000602082019050818103600083015261291681612579565b9050919050565b600060208201905081810360008301526129368161259c565b9050919050565b60006020820190508181036000830152612956816125bf565b9050919050565b60006020820190508181036000830152612976816125e2565b9050919050565b6000602082019050818103600083015261299681612605565b9050919050565b600060208201905081810360008301526129b68161266e565b9050919050565b60006020820190506129d26000830184612691565b92915050565b60006129e26129f3565b90506129ee8282612ca2565b919050565b6000604051905090565b600067ffffffffffffffff821115612a1857612a17612dda565b5b612a2182612e09565b9050602081019050919050565b600081519050919050565b600081519050919050565b600082825260208201905092915050565b600082825260208201905092915050565b600081905092915050565b6000612a7c82612bfa565b9150612a8783612bfa565b9250827fffffffffffffffffffffffffffffffffffffffffffffffffffffffffffffffff03821115612abc57612abb612d4d565b5b828201905092915050565b6000612ad282612bfa565b9150612add83612bfa565b925082612aed57612aec612d7c565b5b828204905092915050565b6000612b0382612bfa565b9150612b0e83612bfa565b9250817fffffffffffffffffffffffffffffffffffffffffffffffffffffffffffffffff0483118215151615612b4757612b46612d4d565b5b828202905092915050565b6000612b5d82612bfa565b9150612b6883612bfa565b925082821015612b7b57612b7a612d4d565b5b828203905092915050565b6000612b9182612bda565b9050919050565b60008115159050919050565b6000819050919050565b60007fffffffff0000000000000000000000000000000000000000000000000000000082169050919050565b600073ffffffffffffffffffffffffffffffffffffffff82169050919050565b6000819050919050565b82818337600083830152505050565b60005b83811015612c31578082015181840152602081019050612c16565b83811115612c40576000848401525b50505050565b6000612c5182612bfa565b91506000821415612c6557612c64612d4d565b5b600182039050919050565b60006002820490506001821680612c8857607f821691505b60208210811415612c9c57612c9b612dab565b5b50919050565b612cab82612e09565b810181811067ffffffffffffffff82111715612cca57612cc9612dda565b5b80604052505050565b6000612cde82612bfa565b91507fffffffffffffffffffffffffffffffffffffffffffffffffffffffffffffffff821415612d1157612d10612d4d565b5b600182019050919050565b6000612d2782612bfa565b9150612d3283612bfa565b925082612d4257612d41612d7c565b5b828206905092915050565b7f4e487b7100000000000000000000000000000000000000000000000000000000600052601160045260246000fd5b7f4e487b7100000000000000000000000000000000000000000000000000000000600052601260045260246000fd5b7f4e487b7100000000000000000000000000000000000000000000000000000000600052602260045260246000fd5b7f4e487b7100000000000000000000000000000000000000000000000000000000600052604160045260246000fd5b6000601f19601f8301169050919050565b7f537472696e67733a20686578206c656e67746820696e73756666696369656e74600082015250565b7f4552433732313a207472616e7366657220746f206e6f6e20455243373231526560008201527f63656976657220696d706c656d656e7465720000000000000000000000000000602082015250565b7f4552433732313a207472616e736665722066726f6d20696e636f72726563742060008201527f6f776e6572000000000000000000000000000000000000000000000000000000602082015250565b7f4552433732313a20746f6b656e20616c7265616479206d696e74656400000000600082015250565b7f4552433732313a207472616e7366657220746f20746865207a65726f2061646460008201527f7265737300000000000000000000000000000000000000000000000000000000602082015250565b7f4552433732313a20617070726f766520746f2063616c6c657200000000000000600082015250565b7f4552433732313a206f70657261746f7220717565727920666f72206e6f6e657860008201527f697374656e7420746f6b656e0000000000000000000000000000000000000000602082015250565b7f4552433732313a20617070726f76652063616c6c6572206973206e6f74206f7760008201527f6e6572206e6f7220617070726f76656420666f7220616c6c0000000000000000602082015250565b7f4552433732313a2062616c616e636520717565727920666f7220746865207a6560008201527f726f206164647265737300000000000000000000000000000000000000000000602082015250565b7f4552433732313a206f776e657220717565727920666f72206e6f6e657869737460008201527f656e7420746f6b656e0000000000000000000000000000000000000000000000602082015250565b7f4552433732313a206d696e7420746f20746865207a65726f2061646472657373600082015250565b7f4552433732313a20617070726f76656420717565727920666f72206e6f6e657860008201527f697374656e7420746f6b656e0000000000000000000000000000000000000000602082015250565b7f4552433732314d657461646174613a2055524920717565727920666f72206e6f60008201527f6e6578697374656e7420746f6b656e0000000000000000000000000000000000602082015250565b7f4552433732313a20617070726f76616c20746f2063757272656e74206f776e6560008201527f7200000000000000000000000000000000000000000000000000000000000000602082015250565b7f4552433732313a207472616e736665722063616c6c6572206973206e6f74206f60008201527f776e6572206e6f7220617070726f766564000000000000000000000000000000602082015250565b7f416363657373436f6e74726f6c3a206163636f756e7420000000000000000000600082015250565b7f206973206d697373696e6720726f6c6520000000000000000000000000000000600082015250565b7f416363657373436f6e74726f6c3a2063616e206f6e6c792072656e6f756e636560008201527f20726f6c657320666f722073656c660000000000000000000000000000000000602082015250565b6132cd81612b86565b81146132d857600080fd5b50565b6132e481612b98565b81146132ef57600080fd5b50565b6132fb81612ba4565b811461330657600080fd5b50565b61331281612bae565b811461331d57600080fd5b50565b61332981612bfa565b811461333457600080fd5b5056fea264697066735822122059d53553c8e939180b220ed487d51619588c60d0d5e30cf648867433e2c22bb164736f6c63430008040033",
  "linkReferences": {},
  "deployedLinkReferences": {}
}