{
  "_format": "hh-sol-artifact-1",
  "contractName": "CrowdCommission",
  "sourceName": "contracts/CrowdCommission.sol",
  "abi": [
    {
      "inputs": [],
      "stateMutability": "nonpayable",
      "type": "constructor"
    },
    {
      "anonymous": false,
      "inputs": [
        {
          "indexed": true,
          "internalType": "address",
          "name": "account",
          "type": "address"
        },
        {
          "indexed": true,
          "internalType": "address",
          "name": "operator",
          "type": "address"
        },
        {
          "indexed": false,
          "internalType": "bool",
          "name": "approved",
          "type": "bool"
        }
      ],
      "name": "ApprovalForAll",
      "type": "event"
    },
    {
      "anonymous": false,
      "inputs": [
        {
          "indexed": true,
          "internalType": "address",
          "name": "previousOwner",
          "type": "address"
        },
        {
          "indexed": true,
          "internalType": "address",
          "name": "newOwner",
          "type": "address"
        }
      ],
      "name": "OwnershipTransferred",
      "type": "event"
    },
    {
      "anonymous": false,
      "inputs": [
        {
          "indexed": true,
          "internalType": "address",
          "name": "operator",
          "type": "address"
        },
        {
          "indexed": true,
          "internalType": "address",
          "name": "from",
          "type": "address"
        },
        {
          "indexed": true,
          "internalType": "address",
          "name": "to",
          "type": "address"
        },
        {
          "indexed": false,
          "internalType": "uint256[]",
          "name": "ids",
          "type": "uint256[]"
        },
        {
          "indexed": false,
          "internalType": "uint256[]",
          "name": "values",
          "type": "uint256[]"
        }
      ],
      "name": "TransferBatch",
      "type": "event"
    },
    {
      "anonymous": false,
      "inputs": [
        {
          "indexed": true,
          "internalType": "address",
          "name": "operator",
          "type": "address"
        },
        {
          "indexed": true,
          "internalType": "address",
          "name": "from",
          "type": "address"
        },
        {
          "indexed": true,
          "internalType": "address",
          "name": "to",
          "type": "address"
        },
        {
          "indexed": false,
          "internalType": "uint256",
          "name": "id",
          "type": "uint256"
        },
        {
          "indexed": false,
          "internalType": "uint256",
          "name": "value",
          "type": "uint256"
        }
      ],
      "name": "TransferSingle",
      "type": "event"
    },
    {
      "anonymous": false,
      "inputs": [
        {
          "indexed": false,
          "internalType": "string",
          "name": "value",
          "type": "string"
        },
        {
          "indexed": true,
          "internalType": "uint256",
          "name": "id",
          "type": "uint256"
        }
      ],
      "name": "URI",
      "type": "event"
    },
    {
      "inputs": [
        {
          "internalType": "address",
          "name": "account",
          "type": "address"
        },
        {
          "internalType": "uint256",
          "name": "id",
          "type": "uint256"
        }
      ],
      "name": "balanceOf",
      "outputs": [
        {
          "internalType": "uint256",
          "name": "",
          "type": "uint256"
        }
      ],
      "stateMutability": "view",
      "type": "function"
    },
    {
      "inputs": [
        {
          "internalType": "address[]",
          "name": "accounts",
          "type": "address[]"
        },
        {
          "internalType": "uint256[]",
          "name": "ids",
          "type": "uint256[]"
        }
      ],
      "name": "balanceOfBatch",
      "outputs": [
        {
          "internalType": "uint256[]",
          "name": "",
          "type": "uint256[]"
        }
      ],
      "stateMutability": "view",
      "type": "function"
    },
    {
      "inputs": [
        {
          "internalType": "address",
          "name": "account",
          "type": "address"
        },
        {
          "internalType": "uint256",
          "name": "id",
          "type": "uint256"
        },
        {
          "internalType": "uint256",
          "name": "value",
          "type": "uint256"
        }
      ],
      "name": "burn",
      "outputs": [],
      "stateMutability": "nonpayable",
      "type": "function"
    },
    {
      "inputs": [
        {
          "internalType": "address",
          "name": "account",
          "type": "address"
        },
        {
          "internalType": "uint256[]",
          "name": "ids",
          "type": "uint256[]"
        },
        {
          "internalType": "uint256[]",
          "name": "values",
          "type": "uint256[]"
        }
      ],
      "name": "burnBatch",
      "outputs": [],
      "stateMutability": "nonpayable",
      "type": "function"
    },
    {
      "inputs": [
        {
          "internalType": "uint256",
          "name": "id",
          "type": "uint256"
        }
      ],
      "name": "exists",
      "outputs": [
        {
          "internalType": "bool",
          "name": "",
          "type": "bool"
        }
      ],
      "stateMutability": "view",
      "type": "function"
    },
    {
      "inputs": [
        {
          "internalType": "address",
          "name": "account",
          "type": "address"
        },
        {
          "internalType": "address",
          "name": "operator",
          "type": "address"
        }
      ],
      "name": "isApprovedForAll",
      "outputs": [
        {
          "internalType": "bool",
          "name": "",
          "type": "bool"
        }
      ],
      "stateMutability": "view",
      "type": "function"
    },
    {
      "inputs": [
        {
          "internalType": "address",
          "name": "to",
          "type": "address"
        },
        {
          "internalType": "uint256[]",
          "name": "ids",
          "type": "uint256[]"
        },
        {
          "internalType": "uint256[]",
          "name": "amounts",
          "type": "uint256[]"
        },
        {
          "internalType": "bytes",
          "name": "data",
          "type": "bytes"
        }
      ],
      "name": "mintBatchToSingleUser",
      "outputs": [],
      "stateMutability": "nonpayable",
      "type": "function"
    },
    {
      "inputs": [
        {
          "internalType": "address[]",
          "name": "funders",
          "type": "address[]"
        },
        {
          "internalType": "uint256",
          "name": "id",
          "type": "uint256"
        },
        {
          "internalType": "bytes",
          "name": "data",
          "type": "bytes"
        }
      ],
      "name": "mintCrowdCommissions",
      "outputs": [],
      "stateMutability": "nonpayable",
      "type": "function"
    },
    {
      "inputs": [
        {
          "internalType": "address",
          "name": "account",
          "type": "address"
        },
        {
          "internalType": "uint256",
          "name": "id",
          "type": "uint256"
        },
        {
          "internalType": "uint256",
          "name": "amount",
          "type": "uint256"
        },
        {
          "internalType": "bytes",
          "name": "data",
          "type": "bytes"
        }
      ],
      "name": "mintSingle",
      "outputs": [],
      "stateMutability": "nonpayable",
      "type": "function"
    },
    {
      "inputs": [],
      "name": "owner",
      "outputs": [
        {
          "internalType": "address",
          "name": "",
          "type": "address"
        }
      ],
      "stateMutability": "view",
      "type": "function"
    },
    {
      "inputs": [],
      "name": "renounceOwnership",
      "outputs": [],
      "stateMutability": "nonpayable",
      "type": "function"
    },
    {
      "inputs": [
        {
          "internalType": "address",
          "name": "from",
          "type": "address"
        },
        {
          "internalType": "address",
          "name": "to",
          "type": "address"
        },
        {
          "internalType": "uint256[]",
          "name": "ids",
          "type": "uint256[]"
        },
        {
          "internalType": "uint256[]",
          "name": "amounts",
          "type": "uint256[]"
        },
        {
          "internalType": "bytes",
          "name": "data",
          "type": "bytes"
        }
      ],
      "name": "safeBatchTransferFrom",
      "outputs": [],
      "stateMutability": "nonpayable",
      "type": "function"
    },
    {
      "inputs": [
        {
          "internalType": "address",
          "name": "from",
          "type": "address"
        },
        {
          "internalType": "address",
          "name": "to",
          "type": "address"
        },
        {
          "internalType": "uint256",
          "name": "id",
          "type": "uint256"
        },
        {
          "internalType": "uint256",
          "name": "amount",
          "type": "uint256"
        },
        {
          "internalType": "bytes",
          "name": "data",
          "type": "bytes"
        }
      ],
      "name": "safeTransferFrom",
      "outputs": [],
      "stateMutability": "nonpayable",
      "type": "function"
    },
    {
      "inputs": [
        {
          "internalType": "address",
          "name": "operator",
          "type": "address"
        },
        {
          "internalType": "bool",
          "name": "approved",
          "type": "bool"
        }
      ],
      "name": "setApprovalForAll",
      "outputs": [],
      "stateMutability": "nonpayable",
      "type": "function"
    },
    {
      "inputs": [
        {
          "internalType": "string",
          "name": "newuri",
          "type": "string"
        }
      ],
      "name": "setURI",
      "outputs": [],
      "stateMutability": "nonpayable",
      "type": "function"
    },
    {
      "inputs": [
        {
          "internalType": "bytes4",
          "name": "interfaceId",
          "type": "bytes4"
        }
      ],
      "name": "supportsInterface",
      "outputs": [
        {
          "internalType": "bool",
          "name": "",
          "type": "bool"
        }
      ],
      "stateMutability": "view",
      "type": "function"
    },
    {
      "inputs": [
        {
          "internalType": "uint256",
          "name": "id",
          "type": "uint256"
        }
      ],
      "name": "totalSupply",
      "outputs": [
        {
          "internalType": "uint256",
          "name": "",
          "type": "uint256"
        }
      ],
      "stateMutability": "view",
      "type": "function"
    },
    {
      "inputs": [
        {
          "internalType": "address",
          "name": "newOwner",
          "type": "address"
        }
      ],
      "name": "transferOwnership",
      "outputs": [],
      "stateMutability": "nonpayable",
      "type": "function"
    },
    {
      "inputs": [
        {
          "internalType": "uint256",
          "name": "",
          "type": "uint256"
        }
      ],
      "name": "uri",
      "outputs": [
        {
          "internalType": "string",
          "name": "",
          "type": "string"
        }
      ],
      "stateMutability": "view",
      "type": "function"
    }
  ],
  "bytecode": "0x60806040523480156200001157600080fd5b506040518060200160405280600081525062000033816200005a60201b60201c565b5062000054620000486200007660201b60201c565b6200007e60201b60201c565b62000259565b80600290805190602001906200007292919062000144565b5050565b600033905090565b6000600360009054906101000a900473ffffffffffffffffffffffffffffffffffffffff16905081600360006101000a81548173ffffffffffffffffffffffffffffffffffffffff021916908373ffffffffffffffffffffffffffffffffffffffff1602179055508173ffffffffffffffffffffffffffffffffffffffff168173ffffffffffffffffffffffffffffffffffffffff167f8be0079c531659141344cd1fd0a4f28419497f9722a3daafe3b4186f6b6457e060405160405180910390a35050565b8280546200015290620001f4565b90600052602060002090601f016020900481019282620001765760008555620001c2565b82601f106200019157805160ff1916838001178555620001c2565b82800160010185558215620001c2579182015b82811115620001c1578251825591602001919060010190620001a4565b5b509050620001d19190620001d5565b5090565b5b80821115620001f0576000816000905550600101620001d6565b5090565b600060028204905060018216806200020d57607f821691505b602082108114156200022457620002236200022a565b5b50919050565b7f4e487b7100000000000000000000000000000000000000000000000000000000600052602260045260246000fd5b61364380620002696000396000f3fe608060405234801561001057600080fd5b50600436106101205760003560e01c80636f31dc6e116100ad578063e985e9c511610071578063e985e9c514610315578063eabd8c3c14610345578063f242432a14610361578063f2fde38b1461037d578063f5298aca1461039957610120565b80636f31dc6e14610285578063715018a6146102a15780638da5cb5b146102ab578063a22cb465146102c9578063bd85b039146102e557610120565b80630e89341c116100f45780630e89341c146101bd5780632eb2c2d6146101ed5780634e1273f4146102095780634f558e79146102395780636b20c4541461026957610120565b8062fdd58e1461012557806301ffc9a71461015557806302fe5305146101855780630e61295f146101a1575b600080fd5b61013f600480360381019061013a919061256a565b6103b5565b60405161014c9190612d8f565b60405180910390f35b61016f600480360381019061016a919061275b565b61047e565b60405161017c9190612bf2565b60405180910390f35b61019f600480360381019061019a91906127ad565b610560565b005b6101bb60048036038101906101b691906126dc565b6105e8565b005b6101d760048036038101906101d291906127ee565b6106da565b6040516101e49190612c0d565b60405180910390f35b610207600480360381019061020291906122b6565b61076e565b005b610223600480360381019061021e9190612670565b610775565b6040516102309190612b99565b60405180910390f35b610253600480360381019061024e91906127ee565b610926565b6040516102609190612bf2565b60405180910390f35b610283600480360381019061027e9190612404565b61093a565b005b61029f600480360381019061029a9190612483565b6109d7565b005b6102a9610a65565b005b6102b3610aed565b6040516102c09190612abc565b60405180910390f35b6102e360048036038101906102de919061252e565b610b17565b005b6102ff60048036038101906102fa91906127ee565b610b1b565b60405161030c9190612d8f565b60405180910390f35b61032f600480360381019061032a919061227a565b610b38565b60405161033c9190612bf2565b60405180910390f35b61035f600480360381019061035a91906125f5565b610bcc565b005b61037b60048036038101906103769190612375565b610c5a565b005b61039760048036038101906103929190612251565b610c61565b005b6103b360048036038101906103ae91906125a6565b610d59565b005b60008073ffffffffffffffffffffffffffffffffffffffff168373ffffffffffffffffffffffffffffffffffffffff161415610426576040517f08c379a000000000000000000000000000000000000000000000000000000000815260040161041d90612c6f565b60405180910390fd5b60008083815260200190815260200160002060008473ffffffffffffffffffffffffffffffffffffffff1673ffffffffffffffffffffffffffffffffffffffff16815260200190815260200160002054905092915050565b60007fd9b67a26000000000000000000000000000000000000000000000000000000007bffffffffffffffffffffffffffffffffffffffffffffffffffffffff1916827bffffffffffffffffffffffffffffffffffffffffffffffffffffffff1916148061054957507f0e89341c000000000000000000000000000000000000000000000000000000007bffffffffffffffffffffffffffffffffffffffffffffffffffffffff1916827bffffffffffffffffffffffffffffffffffffffffffffffffffffffff1916145b80610559575061055882610df6565b5b9050919050565b610568610e60565b73ffffffffffffffffffffffffffffffffffffffff16610586610aed565b73ffffffffffffffffffffffffffffffffffffffff16146105dc576040517f08c379a00000000000000000000000000000000000000000000000000000000081526004016105d390612d0f565b60405180910390fd5b6105e581610e68565b50565b6105f0610e60565b73ffffffffffffffffffffffffffffffffffffffff1661060e610aed565b73ffffffffffffffffffffffffffffffffffffffff1614610664576040517f08c379a000000000000000000000000000000000000000000000000000000000815260040161065b90612d0f565b60405180910390fd5b6000600190505b83518110156106d4576106c18482815181106106b0577f4e487b7100000000000000000000000000000000000000000000000000000000600052603260045260246000fd5b602002602001015184600185610e82565b80806106cc906130c6565b91505061066b565b50505050565b6060600280546106e990613063565b80601f016020809104026020016040519081016040528092919081815260200182805461071590613063565b80156107625780601f1061073757610100808354040283529160200191610762565b820191906000526020600020905b81548152906001019060200180831161074557829003601f168201915b50505050509050919050565b5050505050565b606081518351146107bb576040517f08c379a00000000000000000000000000000000000000000000000000000000081526004016107b290612d2f565b60405180910390fd5b6000835167ffffffffffffffff8111156107fe577f4e487b7100000000000000000000000000000000000000000000000000000000600052604160045260246000fd5b60405190808252806020026020018201604052801561082c5781602001602082028036833780820191505090505b50905060005b845181101561091b576108c5858281518110610877577f4e487b7100000000000000000000000000000000000000000000000000000000600052603260045260246000fd5b60200260200101518583815181106108b8577f4e487b7100000000000000000000000000000000000000000000000000000000600052603260045260246000fd5b60200260200101516103b5565b8282815181106108fe577f4e487b7100000000000000000000000000000000000000000000000000000000600052603260045260246000fd5b60200260200101818152505080610914906130c6565b9050610832565b508091505092915050565b60008061093283610b1b565b119050919050565b610942610e60565b73ffffffffffffffffffffffffffffffffffffffff168373ffffffffffffffffffffffffffffffffffffffff161480610988575061098783610982610e60565b610b38565b5b6109c7576040517f08c379a00000000000000000000000000000000000000000000000000000000081526004016109be90612ccf565b60405180910390fd5b6109d2838383611018565b505050565b6109df610e60565b73ffffffffffffffffffffffffffffffffffffffff166109fd610aed565b73ffffffffffffffffffffffffffffffffffffffff1614610a53576040517f08c379a0000000000000000000000000000000000000000000000000000000008152600401610a4a90612d0f565b60405180910390fd5b610a5f84848484611315565b50505050565b610a6d610e60565b73ffffffffffffffffffffffffffffffffffffffff16610a8b610aed565b73ffffffffffffffffffffffffffffffffffffffff1614610ae1576040517f08c379a0000000000000000000000000000000000000000000000000000000008152600401610ad890612d0f565b60405180910390fd5b610aeb600061157f565b565b6000600360009054906101000a900473ffffffffffffffffffffffffffffffffffffffff16905090565b5050565b600060046000838152602001908152602001600020549050919050565b6000600160008473ffffffffffffffffffffffffffffffffffffffff1673ffffffffffffffffffffffffffffffffffffffff16815260200190815260200160002060008373ffffffffffffffffffffffffffffffffffffffff1673ffffffffffffffffffffffffffffffffffffffff16815260200190815260200160002060009054906101000a900460ff16905092915050565b610bd4610e60565b73ffffffffffffffffffffffffffffffffffffffff16610bf2610aed565b73ffffffffffffffffffffffffffffffffffffffff1614610c48576040517f08c379a0000000000000000000000000000000000000000000000000000000008152600401610c3f90612d0f565b60405180910390fd5b610c5484848484610e82565b50505050565b5050505050565b610c69610e60565b73ffffffffffffffffffffffffffffffffffffffff16610c87610aed565b73ffffffffffffffffffffffffffffffffffffffff1614610cdd576040517f08c379a0000000000000000000000000000000000000000000000000000000008152600401610cd490612d0f565b60405180910390fd5b600073ffffffffffffffffffffffffffffffffffffffff168173ffffffffffffffffffffffffffffffffffffffff161415610d4d576040517f08c379a0000000000000000000000000000000000000000000000000000000008152600401610d4490612c8f565b60405180910390fd5b610d568161157f565b50565b610d61610e60565b73ffffffffffffffffffffffffffffffffffffffff168373ffffffffffffffffffffffffffffffffffffffff161480610da75750610da683610da1610e60565b610b38565b5b610de6576040517f08c379a0000000000000000000000000000000000000000000000000000000008152600401610ddd90612ccf565b60405180910390fd5b610df1838383611645565b505050565b60007f01ffc9a7000000000000000000000000000000000000000000000000000000007bffffffffffffffffffffffffffffffffffffffffffffffffffffffff1916827bffffffffffffffffffffffffffffffffffffffffffffffffffffffff1916149050919050565b600033905090565b8060029080519060200190610e7e929190611f49565b5050565b600073ffffffffffffffffffffffffffffffffffffffff168473ffffffffffffffffffffffffffffffffffffffff161415610ef2576040517f08c379a0000000000000000000000000000000000000000000000000000000008152600401610ee990612d6f565b60405180910390fd5b6000610efc610e60565b9050610f1d81600087610f0e88611862565b610f1788611862565b87611928565b8260008086815260200190815260200160002060008773ffffffffffffffffffffffffffffffffffffffff1673ffffffffffffffffffffffffffffffffffffffff1681526020019081526020016000206000828254610f7c9190612f23565b925050819055508473ffffffffffffffffffffffffffffffffffffffff16600073ffffffffffffffffffffffffffffffffffffffff168273ffffffffffffffffffffffffffffffffffffffff167fc3d58168c5ae7397731d063d5bbf3d657854427343f4c083240f7aacaa2d0f628787604051610ffa929190612daa565b60405180910390a46110118160008787878761193e565b5050505050565b600073ffffffffffffffffffffffffffffffffffffffff168373ffffffffffffffffffffffffffffffffffffffff161415611088576040517f08c379a000000000000000000000000000000000000000000000000000000000815260040161107f90612cef565b60405180910390fd5b80518251146110cc576040517f08c379a00000000000000000000000000000000000000000000000000000000081526004016110c390612d4f565b60405180910390fd5b60006110d6610e60565b90506110f681856000868660405180602001604052806000815250611928565b60005b835181101561128f57600084828151811061113d577f4e487b7100000000000000000000000000000000000000000000000000000000600052603260045260246000fd5b602002602001015190506000848381518110611182577f4e487b7100000000000000000000000000000000000000000000000000000000600052603260045260246000fd5b60200260200101519050600080600084815260200190815260200160002060008973ffffffffffffffffffffffffffffffffffffffff1673ffffffffffffffffffffffffffffffffffffffff16815260200190815260200160002054905081811015611223576040517f08c379a000000000000000000000000000000000000000000000000000000000815260040161121a90612caf565b60405180910390fd5b81810360008085815260200190815260200160002060008a73ffffffffffffffffffffffffffffffffffffffff1673ffffffffffffffffffffffffffffffffffffffff168152602001908152602001600020819055505050508080611287906130c6565b9150506110f9565b50600073ffffffffffffffffffffffffffffffffffffffff168473ffffffffffffffffffffffffffffffffffffffff168273ffffffffffffffffffffffffffffffffffffffff167f4a39dc06d4c0dbc64b70af90fd698a233a518aa5d07e595d983b8c0526c8f7fb8686604051611307929190612bbb565b60405180910390a450505050565b600073ffffffffffffffffffffffffffffffffffffffff168473ffffffffffffffffffffffffffffffffffffffff161415611385576040517f08c379a000000000000000000000000000000000000000000000000000000000815260040161137c90612d6f565b60405180910390fd5b81518351146113c9576040517f08c379a00000000000000000000000000000000000000000000000000000000081526004016113c090612d4f565b60405180910390fd5b60006113d3610e60565b90506113e481600087878787611928565b60005b84518110156114e957838181518110611429577f4e487b7100000000000000000000000000000000000000000000000000000000600052603260045260246000fd5b602002602001015160008087848151811061146d577f4e487b7100000000000000000000000000000000000000000000000000000000600052603260045260246000fd5b6020026020010151815260200190815260200160002060008873ffffffffffffffffffffffffffffffffffffffff1673ffffffffffffffffffffffffffffffffffffffff16815260200190815260200160002060008282546114cf9190612f23565b9250508190555080806114e1906130c6565b9150506113e7565b508473ffffffffffffffffffffffffffffffffffffffff16600073ffffffffffffffffffffffffffffffffffffffff168273ffffffffffffffffffffffffffffffffffffffff167f4a39dc06d4c0dbc64b70af90fd698a233a518aa5d07e595d983b8c0526c8f7fb8787604051611561929190612bbb565b60405180910390a461157881600087878787611b25565b5050505050565b6000600360009054906101000a900473ffffffffffffffffffffffffffffffffffffffff16905081600360006101000a81548173ffffffffffffffffffffffffffffffffffffffff021916908373ffffffffffffffffffffffffffffffffffffffff1602179055508173ffffffffffffffffffffffffffffffffffffffff168173ffffffffffffffffffffffffffffffffffffffff167f8be0079c531659141344cd1fd0a4f28419497f9722a3daafe3b4186f6b6457e060405160405180910390a35050565b600073ffffffffffffffffffffffffffffffffffffffff168373ffffffffffffffffffffffffffffffffffffffff1614156116b5576040517f08c379a00000000000000000000000000000000000000000000000000000000081526004016116ac90612cef565b60405180910390fd5b60006116bf610e60565b90506116ef818560006116d187611862565b6116da87611862565b60405180602001604052806000815250611928565b600080600085815260200190815260200160002060008673ffffffffffffffffffffffffffffffffffffffff1673ffffffffffffffffffffffffffffffffffffffff16815260200190815260200160002054905082811015611786576040517f08c379a000000000000000000000000000000000000000000000000000000000815260040161177d90612caf565b60405180910390fd5b82810360008086815260200190815260200160002060008773ffffffffffffffffffffffffffffffffffffffff1673ffffffffffffffffffffffffffffffffffffffff16815260200190815260200160002081905550600073ffffffffffffffffffffffffffffffffffffffff168573ffffffffffffffffffffffffffffffffffffffff168373ffffffffffffffffffffffffffffffffffffffff167fc3d58168c5ae7397731d063d5bbf3d657854427343f4c083240f7aacaa2d0f628787604051611853929190612daa565b60405180910390a45050505050565b60606000600167ffffffffffffffff8111156118a7577f4e487b7100000000000000000000000000000000000000000000000000000000600052604160045260246000fd5b6040519080825280602002602001820160405280156118d55781602001602082028036833780820191505090505b5090508281600081518110611913577f4e487b7100000000000000000000000000000000000000000000000000000000600052603260045260246000fd5b60200260200101818152505080915050919050565b611936868686868686611d0c565b505050505050565b61195d8473ffffffffffffffffffffffffffffffffffffffff16611f1e565b15611b1d578373ffffffffffffffffffffffffffffffffffffffff1663f23a6e6187878686866040518663ffffffff1660e01b81526004016119a3959493929190612b3f565b602060405180830381600087803b1580156119bd57600080fd5b505af19250505080156119ee57506040513d601f19601f820116820180604052508101906119eb9190612784565b60015b611a94576119fa61319c565b806308c379a01415611a575750611a0f61351b565b80611a1a5750611a59565b806040517f08c379a0000000000000000000000000000000000000000000000000000000008152600401611a4e9190612c0d565b60405180910390fd5b505b6040517f08c379a0000000000000000000000000000000000000000000000000000000008152600401611a8b90612c2f565b60405180910390fd5b63f23a6e6160e01b7bffffffffffffffffffffffffffffffffffffffffffffffffffffffff1916817bffffffffffffffffffffffffffffffffffffffffffffffffffffffff191614611b1b576040517f08c379a0000000000000000000000000000000000000000000000000000000008152600401611b1290612c4f565b60405180910390fd5b505b505050505050565b611b448473ffffffffffffffffffffffffffffffffffffffff16611f1e565b15611d04578373ffffffffffffffffffffffffffffffffffffffff1663bc197c8187878686866040518663ffffffff1660e01b8152600401611b8a959493929190612ad7565b602060405180830381600087803b158015611ba457600080fd5b505af1925050508015611bd557506040513d601f19601f82011682018060405250810190611bd29190612784565b60015b611c7b57611be161319c565b806308c379a01415611c3e5750611bf661351b565b80611c015750611c40565b806040517f08c379a0000000000000000000000000000000000000000000000000000000008152600401611c359190612c0d565b60405180910390fd5b505b6040517f08c379a0000000000000000000000000000000000000000000000000000000008152600401611c7290612c2f565b60405180910390fd5b63bc197c8160e01b7bffffffffffffffffffffffffffffffffffffffffffffffffffffffff1916817bffffffffffffffffffffffffffffffffffffffffffffffffffffffff191614611d02576040517f08c379a0000000000000000000000000000000000000000000000000000000008152600401611cf990612c4f565b60405180910390fd5b505b505050505050565b611d1a868686868686611f41565b600073ffffffffffffffffffffffffffffffffffffffff168573ffffffffffffffffffffffffffffffffffffffff161415611e185760005b8351811015611e1657828181518110611d94577f4e487b7100000000000000000000000000000000000000000000000000000000600052603260045260246000fd5b602002602001015160046000868481518110611dd9577f4e487b7100000000000000000000000000000000000000000000000000000000600052603260045260246000fd5b602002602001015181526020019081526020016000206000828254611dfe9190612f23565b9250508190555080611e0f906130c6565b9050611d52565b505b600073ffffffffffffffffffffffffffffffffffffffff168473ffffffffffffffffffffffffffffffffffffffff161415611f165760005b8351811015611f1457828181518110611e92577f4e487b7100000000000000000000000000000000000000000000000000000000600052603260045260246000fd5b602002602001015160046000868481518110611ed7577f4e487b7100000000000000000000000000000000000000000000000000000000600052603260045260246000fd5b602002602001015181526020019081526020016000206000828254611efc9190612f79565b9250508190555080611f0d906130c6565b9050611e50565b505b505050505050565b6000808273ffffffffffffffffffffffffffffffffffffffff163b119050919050565b505050505050565b828054611f5590613063565b90600052602060002090601f016020900481019282611f775760008555611fbe565b82601f10611f9057805160ff1916838001178555611fbe565b82800160010185558215611fbe579182015b82811115611fbd578251825591602001919060010190611fa2565b5b509050611fcb9190611fcf565b5090565b5b80821115611fe8576000816000905550600101611fd0565b5090565b6000611fff611ffa84612df8565b612dd3565b9050808382526020820190508285602086028201111561201e57600080fd5b60005b8581101561204e57816120348882612140565b845260208401935060208301925050600181019050612021565b5050509392505050565b600061206b61206684612e24565b612dd3565b9050808382526020820190508285602086028201111561208a57600080fd5b60005b858110156120ba57816120a0888261223c565b84526020840193506020830192505060018101905061208d565b5050509392505050565b60006120d76120d284612e50565b612dd3565b9050828152602081018484840111156120ef57600080fd5b6120fa848285613021565b509392505050565b600061211561211084612e81565b612dd3565b90508281526020810184848401111561212d57600080fd5b612138848285613021565b509392505050565b60008135905061214f816135b1565b92915050565b600082601f83011261216657600080fd5b8135612176848260208601611fec565b91505092915050565b600082601f83011261219057600080fd5b81356121a0848260208601612058565b91505092915050565b6000813590506121b8816135c8565b92915050565b6000813590506121cd816135df565b92915050565b6000815190506121e2816135df565b92915050565b600082601f8301126121f957600080fd5b81356122098482602086016120c4565b91505092915050565b600082601f83011261222357600080fd5b8135612233848260208601612102565b91505092915050565b60008135905061224b816135f6565b92915050565b60006020828403121561226357600080fd5b600061227184828501612140565b91505092915050565b6000806040838503121561228d57600080fd5b600061229b85828601612140565b92505060206122ac85828601612140565b9150509250929050565b600080600080600060a086880312156122ce57600080fd5b60006122dc88828901612140565b95505060206122ed88828901612140565b945050604086013567ffffffffffffffff81111561230a57600080fd5b6123168882890161217f565b935050606086013567ffffffffffffffff81111561233357600080fd5b61233f8882890161217f565b925050608086013567ffffffffffffffff81111561235c57600080fd5b612368888289016121e8565b9150509295509295909350565b600080600080600060a0868803121561238d57600080fd5b600061239b88828901612140565b95505060206123ac88828901612140565b94505060406123bd8882890161223c565b93505060606123ce8882890161223c565b925050608086013567ffffffffffffffff8111156123eb57600080fd5b6123f7888289016121e8565b9150509295509295909350565b60008060006060848603121561241957600080fd5b600061242786828701612140565b935050602084013567ffffffffffffffff81111561244457600080fd5b6124508682870161217f565b925050604084013567ffffffffffffffff81111561246d57600080fd5b6124798682870161217f565b9150509250925092565b6000806000806080858703121561249957600080fd5b60006124a787828801612140565b945050602085013567ffffffffffffffff8111156124c457600080fd5b6124d08782880161217f565b935050604085013567ffffffffffffffff8111156124ed57600080fd5b6124f98782880161217f565b925050606085013567ffffffffffffffff81111561251657600080fd5b612522878288016121e8565b91505092959194509250565b6000806040838503121561254157600080fd5b600061254f85828601612140565b9250506020612560858286016121a9565b9150509250929050565b6000806040838503121561257d57600080fd5b600061258b85828601612140565b925050602061259c8582860161223c565b9150509250929050565b6000806000606084860312156125bb57600080fd5b60006125c986828701612140565b93505060206125da8682870161223c565b92505060406125eb8682870161223c565b9150509250925092565b6000806000806080858703121561260b57600080fd5b600061261987828801612140565b945050602061262a8782880161223c565b935050604061263b8782880161223c565b925050606085013567ffffffffffffffff81111561265857600080fd5b612664878288016121e8565b91505092959194509250565b6000806040838503121561268357600080fd5b600083013567ffffffffffffffff81111561269d57600080fd5b6126a985828601612155565b925050602083013567ffffffffffffffff8111156126c657600080fd5b6126d28582860161217f565b9150509250929050565b6000806000606084860312156126f157600080fd5b600084013567ffffffffffffffff81111561270b57600080fd5b61271786828701612155565b93505060206127288682870161223c565b925050604084013567ffffffffffffffff81111561274557600080fd5b612751868287016121e8565b9150509250925092565b60006020828403121561276d57600080fd5b600061277b848285016121be565b91505092915050565b60006020828403121561279657600080fd5b60006127a4848285016121d3565b91505092915050565b6000602082840312156127bf57600080fd5b600082013567ffffffffffffffff8111156127d957600080fd5b6127e584828501612212565b91505092915050565b60006020828403121561280057600080fd5b600061280e8482850161223c565b91505092915050565b60006128238383612a9e565b60208301905092915050565b61283881612fad565b82525050565b600061284982612ec2565b6128538185612ef0565b935061285e83612eb2565b8060005b8381101561288f5781516128768882612817565b975061288183612ee3565b925050600181019050612862565b5085935050505092915050565b6128a581612fbf565b82525050565b60006128b682612ecd565b6128c08185612f01565b93506128d0818560208601613030565b6128d9816131be565b840191505092915050565b60006128ef82612ed8565b6128f98185612f12565b9350612909818560208601613030565b612912816131be565b840191505092915050565b600061292a603483612f12565b9150612935826131dc565b604082019050919050565b600061294d602883612f12565b91506129588261322b565b604082019050919050565b6000612970602b83612f12565b915061297b8261327a565b604082019050919050565b6000612993602683612f12565b915061299e826132c9565b604082019050919050565b60006129b6602483612f12565b91506129c182613318565b604082019050919050565b60006129d9602983612f12565b91506129e482613367565b604082019050919050565b60006129fc602383612f12565b9150612a07826133b6565b604082019050919050565b6000612a1f602083612f12565b9150612a2a82613405565b602082019050919050565b6000612a42602983612f12565b9150612a4d8261342e565b604082019050919050565b6000612a65602883612f12565b9150612a708261347d565b604082019050919050565b6000612a88602183612f12565b9150612a93826134cc565b604082019050919050565b612aa781613017565b82525050565b612ab681613017565b82525050565b6000602082019050612ad1600083018461282f565b92915050565b600060a082019050612aec600083018861282f565b612af9602083018761282f565b8181036040830152612b0b818661283e565b90508181036060830152612b1f818561283e565b90508181036080830152612b3381846128ab565b90509695505050505050565b600060a082019050612b54600083018861282f565b612b61602083018761282f565b612b6e6040830186612aad565b612b7b6060830185612aad565b8181036080830152612b8d81846128ab565b90509695505050505050565b60006020820190508181036000830152612bb3818461283e565b905092915050565b60006040820190508181036000830152612bd5818561283e565b90508181036020830152612be9818461283e565b90509392505050565b6000602082019050612c07600083018461289c565b92915050565b60006020820190508181036000830152612c2781846128e4565b905092915050565b60006020820190508181036000830152612c488161291d565b9050919050565b60006020820190508181036000830152612c6881612940565b9050919050565b60006020820190508181036000830152612c8881612963565b9050919050565b60006020820190508181036000830152612ca881612986565b9050919050565b60006020820190508181036000830152612cc8816129a9565b9050919050565b60006020820190508181036000830152612ce8816129cc565b9050919050565b60006020820190508181036000830152612d08816129ef565b9050919050565b60006020820190508181036000830152612d2881612a12565b9050919050565b60006020820190508181036000830152612d4881612a35565b9050919050565b60006020820190508181036000830152612d6881612a58565b9050919050565b60006020820190508181036000830152612d8881612a7b565b9050919050565b6000602082019050612da46000830184612aad565b92915050565b6000604082019050612dbf6000830185612aad565b612dcc6020830184612aad565b9392505050565b6000612ddd612dee565b9050612de98282613095565b919050565b6000604051905090565b600067ffffffffffffffff821115612e1357612e1261316d565b5b602082029050602081019050919050565b600067ffffffffffffffff821115612e3f57612e3e61316d565b5b602082029050602081019050919050565b600067ffffffffffffffff821115612e6b57612e6a61316d565b5b612e74826131be565b9050602081019050919050565b600067ffffffffffffffff821115612e9c57612e9b61316d565b5b612ea5826131be565b9050602081019050919050565b6000819050602082019050919050565b600081519050919050565b600081519050919050565b600081519050919050565b6000602082019050919050565b600082825260208201905092915050565b600082825260208201905092915050565b600082825260208201905092915050565b6000612f2e82613017565b9150612f3983613017565b9250827fffffffffffffffffffffffffffffffffffffffffffffffffffffffffffffffff03821115612f6e57612f6d61310f565b5b828201905092915050565b6000612f8482613017565b9150612f8f83613017565b925082821015612fa257612fa161310f565b5b828203905092915050565b6000612fb882612ff7565b9050919050565b60008115159050919050565b60007fffffffff0000000000000000000000000000000000000000000000000000000082169050919050565b600073ffffffffffffffffffffffffffffffffffffffff82169050919050565b6000819050919050565b82818337600083830152505050565b60005b8381101561304e578082015181840152602081019050613033565b8381111561305d576000848401525b50505050565b6000600282049050600182168061307b57607f821691505b6020821081141561308f5761308e61313e565b5b50919050565b61309e826131be565b810181811067ffffffffffffffff821117156130bd576130bc61316d565b5b80604052505050565b60006130d182613017565b91507fffffffffffffffffffffffffffffffffffffffffffffffffffffffffffffffff8214156131045761310361310f565b5b600182019050919050565b7f4e487b7100000000000000000000000000000000000000000000000000000000600052601160045260246000fd5b7f4e487b7100000000000000000000000000000000000000000000000000000000600052602260045260246000fd5b7f4e487b7100000000000000000000000000000000000000000000000000000000600052604160045260246000fd5b600060033d11156131bb5760046000803e6131b86000516131cf565b90505b90565b6000601f19601f8301169050919050565b60008160e01c9050919050565b7f455243313135353a207472616e7366657220746f206e6f6e204552433131353560008201527f526563656976657220696d706c656d656e746572000000000000000000000000602082015250565b7f455243313135353a204552433131353552656365697665722072656a6563746560008201527f6420746f6b656e73000000000000000000000000000000000000000000000000602082015250565b7f455243313135353a2062616c616e636520717565727920666f7220746865207a60008201527f65726f2061646472657373000000000000000000000000000000000000000000602082015250565b7f4f776e61626c653a206e6577206f776e657220697320746865207a65726f206160008201527f6464726573730000000000000000000000000000000000000000000000000000602082015250565b7f455243313135353a206275726e20616d6f756e7420657863656564732062616c60008201527f616e636500000000000000000000000000000000000000000000000000000000602082015250565b7f455243313135353a2063616c6c6572206973206e6f74206f776e6572206e6f7260008201527f20617070726f7665640000000000000000000000000000000000000000000000602082015250565b7f455243313135353a206275726e2066726f6d20746865207a65726f206164647260008201527f6573730000000000000000000000000000000000000000000000000000000000602082015250565b7f4f776e61626c653a2063616c6c6572206973206e6f7420746865206f776e6572600082015250565b7f455243313135353a206163636f756e747320616e6420696473206c656e67746860008201527f206d69736d617463680000000000000000000000000000000000000000000000602082015250565b7f455243313135353a2069647320616e6420616d6f756e7473206c656e6774682060008201527f6d69736d61746368000000000000000000000000000000000000000000000000602082015250565b7f455243313135353a206d696e7420746f20746865207a65726f2061646472657360008201527f7300000000000000000000000000000000000000000000000000000000000000602082015250565b600060443d101561352b576135ae565b613533612dee565b60043d036004823e80513d602482011167ffffffffffffffff8211171561355b5750506135ae565b808201805167ffffffffffffffff81111561357957505050506135ae565b80602083010160043d0385018111156135965750505050506135ae565b6135a582602001850186613095565b82955050505050505b90565b6135ba81612fad565b81146135c557600080fd5b50565b6135d181612fbf565b81146135dc57600080fd5b50565b6135e881612fcb565b81146135f357600080fd5b50565b6135ff81613017565b811461360a57600080fd5b5056fea26469706673582212202f0bd839b9bda6fd62f2676f66fddc9d8f0c7d352791c9ebb5c28dc662fa78d364736f6c63430008040033",
  "linkReferences": {},
  "deployedLinkReferences": {}
}