{
  "_format": "hh-sol-artifact-1",
  "contractName": "CrowdCommission",
  "sourceName": "contracts/CrowdCommission.sol",
  "abi": [
    {
      "inputs": [],
      "stateMutability": "nonpayable",
      "type": "constructor"
    },
    {
      "anonymous": false,
      "inputs": [
        {
          "indexed": true,
          "internalType": "address",
          "name": "account",
          "type": "address"
        },
        {
          "indexed": true,
          "internalType": "address",
          "name": "operator",
          "type": "address"
        },
        {
          "indexed": false,
          "internalType": "bool",
          "name": "approved",
          "type": "bool"
        }
      ],
      "name": "ApprovalForAll",
      "type": "event"
    },
    {
      "anonymous": false,
      "inputs": [
        {
          "indexed": true,
          "internalType": "address",
          "name": "previousOwner",
          "type": "address"
        },
        {
          "indexed": true,
          "internalType": "address",
          "name": "newOwner",
          "type": "address"
        }
      ],
      "name": "OwnershipTransferred",
      "type": "event"
    },
    {
      "anonymous": false,
      "inputs": [
        {
          "indexed": true,
          "internalType": "address",
          "name": "operator",
          "type": "address"
        },
        {
          "indexed": true,
          "internalType": "address",
          "name": "from",
          "type": "address"
        },
        {
          "indexed": true,
          "internalType": "address",
          "name": "to",
          "type": "address"
        },
        {
          "indexed": false,
          "internalType": "uint256[]",
          "name": "ids",
          "type": "uint256[]"
        },
        {
          "indexed": false,
          "internalType": "uint256[]",
          "name": "values",
          "type": "uint256[]"
        }
      ],
      "name": "TransferBatch",
      "type": "event"
    },
    {
      "anonymous": false,
      "inputs": [
        {
          "indexed": true,
          "internalType": "address",
          "name": "operator",
          "type": "address"
        },
        {
          "indexed": true,
          "internalType": "address",
          "name": "from",
          "type": "address"
        },
        {
          "indexed": true,
          "internalType": "address",
          "name": "to",
          "type": "address"
        },
        {
          "indexed": false,
          "internalType": "uint256",
          "name": "id",
          "type": "uint256"
        },
        {
          "indexed": false,
          "internalType": "uint256",
          "name": "value",
          "type": "uint256"
        }
      ],
      "name": "TransferSingle",
      "type": "event"
    },
    {
      "anonymous": false,
      "inputs": [
        {
          "indexed": false,
          "internalType": "string",
          "name": "value",
          "type": "string"
        },
        {
          "indexed": true,
          "internalType": "uint256",
          "name": "id",
          "type": "uint256"
        }
      ],
      "name": "URI",
      "type": "event"
    },
    {
      "inputs": [
        {
          "internalType": "address",
          "name": "account",
          "type": "address"
        },
        {
          "internalType": "uint256",
          "name": "id",
          "type": "uint256"
        }
      ],
      "name": "balanceOf",
      "outputs": [
        {
          "internalType": "uint256",
          "name": "",
          "type": "uint256"
        }
      ],
      "stateMutability": "view",
      "type": "function"
    },
    {
      "inputs": [
        {
          "internalType": "address[]",
          "name": "accounts",
          "type": "address[]"
        },
        {
          "internalType": "uint256[]",
          "name": "ids",
          "type": "uint256[]"
        }
      ],
      "name": "balanceOfBatch",
      "outputs": [
        {
          "internalType": "uint256[]",
          "name": "",
          "type": "uint256[]"
        }
      ],
      "stateMutability": "view",
      "type": "function"
    },
    {
      "inputs": [
        {
          "internalType": "address",
          "name": "account",
          "type": "address"
        },
        {
          "internalType": "uint256",
          "name": "id",
          "type": "uint256"
        },
        {
          "internalType": "uint256",
          "name": "value",
          "type": "uint256"
        }
      ],
      "name": "burn",
      "outputs": [],
      "stateMutability": "nonpayable",
      "type": "function"
    },
    {
      "inputs": [
        {
          "internalType": "address",
          "name": "account",
          "type": "address"
        },
        {
          "internalType": "uint256[]",
          "name": "ids",
          "type": "uint256[]"
        },
        {
          "internalType": "uint256[]",
          "name": "values",
          "type": "uint256[]"
        }
      ],
      "name": "burnBatch",
      "outputs": [],
      "stateMutability": "nonpayable",
      "type": "function"
    },
    {
      "inputs": [
        {
          "internalType": "uint256",
          "name": "id",
          "type": "uint256"
        }
      ],
      "name": "exists",
      "outputs": [
        {
          "internalType": "bool",
          "name": "",
          "type": "bool"
        }
      ],
      "stateMutability": "view",
      "type": "function"
    },
    {
      "inputs": [
        {
          "internalType": "address",
          "name": "account",
          "type": "address"
        },
        {
          "internalType": "address",
          "name": "operator",
          "type": "address"
        }
      ],
      "name": "isApprovedForAll",
      "outputs": [
        {
          "internalType": "bool",
          "name": "",
          "type": "bool"
        }
      ],
      "stateMutability": "view",
      "type": "function"
    },
    {
      "inputs": [
        {
          "internalType": "address",
          "name": "to",
          "type": "address"
        },
        {
          "internalType": "uint256[]",
          "name": "ids",
          "type": "uint256[]"
        },
        {
          "internalType": "uint256[]",
          "name": "amounts",
          "type": "uint256[]"
        },
        {
          "internalType": "bytes",
          "name": "data",
          "type": "bytes"
        }
      ],
      "name": "mintBatchToSingleUser",
      "outputs": [],
      "stateMutability": "nonpayable",
      "type": "function"
    },
    {
      "inputs": [
        {
          "internalType": "address[]",
          "name": "funders",
          "type": "address[]"
        },
        {
          "internalType": "uint256",
          "name": "id",
          "type": "uint256"
        },
        {
          "internalType": "bytes",
          "name": "data",
          "type": "bytes"
        }
      ],
      "name": "mintCrowdCommissions",
      "outputs": [],
      "stateMutability": "nonpayable",
      "type": "function"
    },
    {
      "inputs": [
        {
          "internalType": "address",
          "name": "account",
          "type": "address"
        },
        {
          "internalType": "uint256",
          "name": "id",
          "type": "uint256"
        },
        {
          "internalType": "uint256",
          "name": "amount",
          "type": "uint256"
        },
        {
          "internalType": "bytes",
          "name": "data",
          "type": "bytes"
        }
      ],
      "name": "mintSingle",
      "outputs": [],
      "stateMutability": "nonpayable",
      "type": "function"
    },
    {
      "inputs": [],
      "name": "owner",
      "outputs": [
        {
          "internalType": "address",
          "name": "",
          "type": "address"
        }
      ],
      "stateMutability": "view",
      "type": "function"
    },
    {
      "inputs": [],
      "name": "renounceOwnership",
      "outputs": [],
      "stateMutability": "nonpayable",
      "type": "function"
    },
    {
      "inputs": [
        {
          "internalType": "address",
          "name": "from",
          "type": "address"
        },
        {
          "internalType": "address",
          "name": "to",
          "type": "address"
        },
        {
          "internalType": "uint256[]",
          "name": "ids",
          "type": "uint256[]"
        },
        {
          "internalType": "uint256[]",
          "name": "amounts",
          "type": "uint256[]"
        },
        {
          "internalType": "bytes",
          "name": "data",
          "type": "bytes"
        }
      ],
      "name": "safeBatchTransferFrom",
      "outputs": [],
      "stateMutability": "nonpayable",
      "type": "function"
    },
    {
      "inputs": [
        {
          "internalType": "address",
          "name": "from",
          "type": "address"
        },
        {
          "internalType": "address",
          "name": "to",
          "type": "address"
        },
        {
          "internalType": "uint256",
          "name": "id",
          "type": "uint256"
        },
        {
          "internalType": "uint256",
          "name": "amount",
          "type": "uint256"
        },
        {
          "internalType": "bytes",
          "name": "data",
          "type": "bytes"
        }
      ],
      "name": "safeTransferFrom",
      "outputs": [],
      "stateMutability": "nonpayable",
      "type": "function"
    },
    {
      "inputs": [
        {
          "internalType": "address",
          "name": "operator",
          "type": "address"
        },
        {
          "internalType": "bool",
          "name": "approved",
          "type": "bool"
        }
      ],
      "name": "setApprovalForAll",
      "outputs": [],
      "stateMutability": "nonpayable",
      "type": "function"
    },
    {
      "inputs": [
        {
          "internalType": "string",
          "name": "newuri",
          "type": "string"
        }
      ],
      "name": "setURI",
      "outputs": [],
      "stateMutability": "nonpayable",
      "type": "function"
    },
    {
      "inputs": [
        {
          "internalType": "bytes4",
          "name": "interfaceId",
          "type": "bytes4"
        }
      ],
      "name": "supportsInterface",
      "outputs": [
        {
          "internalType": "bool",
          "name": "",
          "type": "bool"
        }
      ],
      "stateMutability": "view",
      "type": "function"
    },
    {
      "inputs": [
        {
          "internalType": "uint256",
          "name": "id",
          "type": "uint256"
        }
      ],
      "name": "totalSupply",
      "outputs": [
        {
          "internalType": "uint256",
          "name": "",
          "type": "uint256"
        }
      ],
      "stateMutability": "view",
      "type": "function"
    },
    {
      "inputs": [
        {
          "internalType": "address",
          "name": "newOwner",
          "type": "address"
        }
      ],
      "name": "transferOwnership",
      "outputs": [],
      "stateMutability": "nonpayable",
      "type": "function"
    },
    {
      "inputs": [
        {
          "internalType": "uint256",
          "name": "",
          "type": "uint256"
        }
      ],
      "name": "uri",
      "outputs": [
        {
          "internalType": "string",
          "name": "",
          "type": "string"
        }
      ],
      "stateMutability": "view",
      "type": "function"
    }
  ],
  "bytecode": "0x60806040523480156200001157600080fd5b506040518060200160405280600081525062000033816200005a60201b60201c565b5062000054620000486200007660201b60201c565b6200007e60201b60201c565b62000259565b80600290805190602001906200007292919062000144565b5050565b600033905090565b6000600360009054906101000a900473ffffffffffffffffffffffffffffffffffffffff16905081600360006101000a81548173ffffffffffffffffffffffffffffffffffffffff021916908373ffffffffffffffffffffffffffffffffffffffff1602179055508173ffffffffffffffffffffffffffffffffffffffff168173ffffffffffffffffffffffffffffffffffffffff167f8be0079c531659141344cd1fd0a4f28419497f9722a3daafe3b4186f6b6457e060405160405180910390a35050565b8280546200015290620001f4565b90600052602060002090601f016020900481019282620001765760008555620001c2565b82601f106200019157805160ff1916838001178555620001c2565b82800160010185558215620001c2579182015b82811115620001c1578251825591602001919060010190620001a4565b5b509050620001d19190620001d5565b5090565b5b80821115620001f0576000816000905550600101620001d6565b5090565b600060028204905060018216806200020d57607f821691505b602082108114156200022457620002236200022a565b5b50919050565b7f4e487b7100000000000000000000000000000000000000000000000000000000600052602260045260246000fd5b6134ed80620002696000396000f3fe608060405234801561001057600080fd5b50600436106101205760003560e01c80636f31dc6e116100ad578063e985e9c511610071578063e985e9c514610315578063eabd8c3c14610345578063f242432a14610361578063f2fde38b1461037d578063f5298aca1461039957610120565b80636f31dc6e14610285578063715018a6146102a15780638da5cb5b146102ab578063a22cb465146102c9578063bd85b039146102e557610120565b80630e89341c116100f45780630e89341c146101bd5780632eb2c2d6146101ed5780634e1273f4146102095780634f558e79146102395780636b20c4541461026957610120565b8062fdd58e1461012557806301ffc9a71461015557806302fe5305146101855780630e61295f146101a1575b600080fd5b61013f600480360381019061013a9190612390565b6103b5565b60405161014c9190612bf1565b60405180910390f35b61016f600480360381019061016a91906125a9565b61047e565b60405161017c9190612a54565b60405180910390f35b61019f600480360381019061019a9190612603565b610560565b005b6101bb60048036038101906101b6919061251e565b6105e8565b005b6101d760048036038101906101d2919061264c565b6106b4565b6040516101e49190612a6f565b60405180910390f35b610207600480360381019061020291906120a4565b610748565b005b610223600480360381019061021e91906124a6565b61074f565b60405161023091906129fb565b60405180910390f35b610253600480360381019061024e919061264c565b610868565b6040516102609190612a54565b60405180910390f35b610283600480360381019061027e919061220a565b61087c565b005b61029f600480360381019061029a9190612295565b610919565b005b6102a96109a7565b005b6102b3610a2f565b6040516102c0919061291e565b60405180910390f35b6102e360048036038101906102de9190612350565b610a59565b005b6102ff60048036038101906102fa919061264c565b610a5d565b60405161030c9190612bf1565b60405180910390f35b61032f600480360381019061032a9190612064565b610a7a565b60405161033c9190612a54565b60405180910390f35b61035f600480360381019061035a9190612423565b610b0e565b005b61037b60048036038101906103769190612173565b610b9c565b005b61039760048036038101906103929190612037565b610ba3565b005b6103b360048036038101906103ae91906123d0565b610c9b565b005b60008073ffffffffffffffffffffffffffffffffffffffff168373ffffffffffffffffffffffffffffffffffffffff161415610426576040517f08c379a000000000000000000000000000000000000000000000000000000000815260040161041d90612ad1565b60405180910390fd5b60008083815260200190815260200160002060008473ffffffffffffffffffffffffffffffffffffffff1673ffffffffffffffffffffffffffffffffffffffff16815260200190815260200160002054905092915050565b60007fd9b67a26000000000000000000000000000000000000000000000000000000007bffffffffffffffffffffffffffffffffffffffffffffffffffffffff1916827bffffffffffffffffffffffffffffffffffffffffffffffffffffffff1916148061054957507f0e89341c000000000000000000000000000000000000000000000000000000007bffffffffffffffffffffffffffffffffffffffffffffffffffffffff1916827bffffffffffffffffffffffffffffffffffffffffffffffffffffffff1916145b80610559575061055882610d38565b5b9050919050565b610568610da2565b73ffffffffffffffffffffffffffffffffffffffff16610586610a2f565b73ffffffffffffffffffffffffffffffffffffffff16146105dc576040517f08c379a00000000000000000000000000000000000000000000000000000000081526004016105d390612b71565b60405180910390fd5b6105e581610daa565b50565b6105f0610da2565b73ffffffffffffffffffffffffffffffffffffffff1661060e610a2f565b73ffffffffffffffffffffffffffffffffffffffff1614610664576040517f08c379a000000000000000000000000000000000000000000000000000000000815260040161065b90612b71565b60405180910390fd5b6000600190505b83518110156106ae5761069b84828151811061068a57610689612fcf565b5b602002602001015184600185610dc4565b80806106a690612f28565b91505061066b565b50505050565b6060600280546106c390612ec5565b80601f01602080910402602001604051908101604052809291908181526020018280546106ef90612ec5565b801561073c5780601f106107115761010080835404028352916020019161073c565b820191906000526020600020905b81548152906001019060200180831161071f57829003601f168201915b50505050509050919050565b5050505050565b60608151835114610795576040517f08c379a000000000000000000000000000000000000000000000000000000000815260040161078c90612b91565b60405180910390fd5b6000835167ffffffffffffffff8111156107b2576107b1612ffe565b5b6040519080825280602002602001820160405280156107e05781602001602082028036833780820191505090505b50905060005b845181101561085d5761082d85828151811061080557610804612fcf565b5b60200260200101518583815181106108205761081f612fcf565b5b60200260200101516103b5565b8282815181106108405761083f612fcf565b5b6020026020010181815250508061085690612f28565b90506107e6565b508091505092915050565b60008061087483610a5d565b119050919050565b610884610da2565b73ffffffffffffffffffffffffffffffffffffffff168373ffffffffffffffffffffffffffffffffffffffff1614806108ca57506108c9836108c4610da2565b610a7a565b5b610909576040517f08c379a000000000000000000000000000000000000000000000000000000000815260040161090090612b31565b60405180910390fd5b610914838383610f5a565b505050565b610921610da2565b73ffffffffffffffffffffffffffffffffffffffff1661093f610a2f565b73ffffffffffffffffffffffffffffffffffffffff1614610995576040517f08c379a000000000000000000000000000000000000000000000000000000000815260040161098c90612b71565b60405180910390fd5b6109a18484848461120b565b50505050565b6109af610da2565b73ffffffffffffffffffffffffffffffffffffffff166109cd610a2f565b73ffffffffffffffffffffffffffffffffffffffff1614610a23576040517f08c379a0000000000000000000000000000000000000000000000000000000008152600401610a1a90612b71565b60405180910390fd5b610a2d6000611429565b565b6000600360009054906101000a900473ffffffffffffffffffffffffffffffffffffffff16905090565b5050565b600060046000838152602001908152602001600020549050919050565b6000600160008473ffffffffffffffffffffffffffffffffffffffff1673ffffffffffffffffffffffffffffffffffffffff16815260200190815260200160002060008373ffffffffffffffffffffffffffffffffffffffff1673ffffffffffffffffffffffffffffffffffffffff16815260200190815260200160002060009054906101000a900460ff16905092915050565b610b16610da2565b73ffffffffffffffffffffffffffffffffffffffff16610b34610a2f565b73ffffffffffffffffffffffffffffffffffffffff1614610b8a576040517f08c379a0000000000000000000000000000000000000000000000000000000008152600401610b8190612b71565b60405180910390fd5b610b9684848484610dc4565b50505050565b5050505050565b610bab610da2565b73ffffffffffffffffffffffffffffffffffffffff16610bc9610a2f565b73ffffffffffffffffffffffffffffffffffffffff1614610c1f576040517f08c379a0000000000000000000000000000000000000000000000000000000008152600401610c1690612b71565b60405180910390fd5b600073ffffffffffffffffffffffffffffffffffffffff168173ffffffffffffffffffffffffffffffffffffffff161415610c8f576040517f08c379a0000000000000000000000000000000000000000000000000000000008152600401610c8690612af1565b60405180910390fd5b610c9881611429565b50565b610ca3610da2565b73ffffffffffffffffffffffffffffffffffffffff168373ffffffffffffffffffffffffffffffffffffffff161480610ce95750610ce883610ce3610da2565b610a7a565b5b610d28576040517f08c379a0000000000000000000000000000000000000000000000000000000008152600401610d1f90612b31565b60405180910390fd5b610d338383836114ef565b505050565b60007f01ffc9a7000000000000000000000000000000000000000000000000000000007bffffffffffffffffffffffffffffffffffffffffffffffffffffffff1916827bffffffffffffffffffffffffffffffffffffffffffffffffffffffff1916149050919050565b600033905090565b8060029080519060200190610dc0929190611d0f565b5050565b600073ffffffffffffffffffffffffffffffffffffffff168473ffffffffffffffffffffffffffffffffffffffff161415610e34576040517f08c379a0000000000000000000000000000000000000000000000000000000008152600401610e2b90612bd1565b60405180910390fd5b6000610e3e610da2565b9050610e5f81600087610e508861170c565b610e598861170c565b87611786565b8260008086815260200190815260200160002060008773ffffffffffffffffffffffffffffffffffffffff1673ffffffffffffffffffffffffffffffffffffffff1681526020019081526020016000206000828254610ebe9190612d85565b925050819055508473ffffffffffffffffffffffffffffffffffffffff16600073ffffffffffffffffffffffffffffffffffffffff168273ffffffffffffffffffffffffffffffffffffffff167fc3d58168c5ae7397731d063d5bbf3d657854427343f4c083240f7aacaa2d0f628787604051610f3c929190612c0c565b60405180910390a4610f538160008787878761179c565b5050505050565b600073ffffffffffffffffffffffffffffffffffffffff168373ffffffffffffffffffffffffffffffffffffffff161415610fca576040517f08c379a0000000000000000000000000000000000000000000000000000000008152600401610fc190612b51565b60405180910390fd5b805182511461100e576040517f08c379a000000000000000000000000000000000000000000000000000000000815260040161100590612bb1565b60405180910390fd5b6000611018610da2565b905061103881856000868660405180602001604052806000815250611786565b60005b835181101561118557600084828151811061105957611058612fcf565b5b60200260200101519050600084838151811061107857611077612fcf565b5b60200260200101519050600080600084815260200190815260200160002060008973ffffffffffffffffffffffffffffffffffffffff1673ffffffffffffffffffffffffffffffffffffffff16815260200190815260200160002054905081811015611119576040517f08c379a000000000000000000000000000000000000000000000000000000000815260040161111090612b11565b60405180910390fd5b81810360008085815260200190815260200160002060008a73ffffffffffffffffffffffffffffffffffffffff1673ffffffffffffffffffffffffffffffffffffffff16815260200190815260200160002081905550505050808061117d90612f28565b91505061103b565b50600073ffffffffffffffffffffffffffffffffffffffff168473ffffffffffffffffffffffffffffffffffffffff168273ffffffffffffffffffffffffffffffffffffffff167f4a39dc06d4c0dbc64b70af90fd698a233a518aa5d07e595d983b8c0526c8f7fb86866040516111fd929190612a1d565b60405180910390a450505050565b600073ffffffffffffffffffffffffffffffffffffffff168473ffffffffffffffffffffffffffffffffffffffff16141561127b576040517f08c379a000000000000000000000000000000000000000000000000000000000815260040161127290612bd1565b60405180910390fd5b81518351146112bf576040517f08c379a00000000000000000000000000000000000000000000000000000000081526004016112b690612bb1565b60405180910390fd5b60006112c9610da2565b90506112da81600087878787611786565b60005b8451811015611393578381815181106112f9576112f8612fcf565b5b602002602001015160008087848151811061131757611316612fcf565b5b6020026020010151815260200190815260200160002060008873ffffffffffffffffffffffffffffffffffffffff1673ffffffffffffffffffffffffffffffffffffffff16815260200190815260200160002060008282546113799190612d85565b92505081905550808061138b90612f28565b9150506112dd565b508473ffffffffffffffffffffffffffffffffffffffff16600073ffffffffffffffffffffffffffffffffffffffff168273ffffffffffffffffffffffffffffffffffffffff167f4a39dc06d4c0dbc64b70af90fd698a233a518aa5d07e595d983b8c0526c8f7fb878760405161140b929190612a1d565b60405180910390a461142281600087878787611983565b5050505050565b6000600360009054906101000a900473ffffffffffffffffffffffffffffffffffffffff16905081600360006101000a81548173ffffffffffffffffffffffffffffffffffffffff021916908373ffffffffffffffffffffffffffffffffffffffff1602179055508173ffffffffffffffffffffffffffffffffffffffff168173ffffffffffffffffffffffffffffffffffffffff167f8be0079c531659141344cd1fd0a4f28419497f9722a3daafe3b4186f6b6457e060405160405180910390a35050565b600073ffffffffffffffffffffffffffffffffffffffff168373ffffffffffffffffffffffffffffffffffffffff16141561155f576040517f08c379a000000000000000000000000000000000000000000000000000000000815260040161155690612b51565b60405180910390fd5b6000611569610da2565b90506115998185600061157b8761170c565b6115848761170c565b60405180602001604052806000815250611786565b600080600085815260200190815260200160002060008673ffffffffffffffffffffffffffffffffffffffff1673ffffffffffffffffffffffffffffffffffffffff16815260200190815260200160002054905082811015611630576040517f08c379a000000000000000000000000000000000000000000000000000000000815260040161162790612b11565b60405180910390fd5b82810360008086815260200190815260200160002060008773ffffffffffffffffffffffffffffffffffffffff1673ffffffffffffffffffffffffffffffffffffffff16815260200190815260200160002081905550600073ffffffffffffffffffffffffffffffffffffffff168573ffffffffffffffffffffffffffffffffffffffff168373ffffffffffffffffffffffffffffffffffffffff167fc3d58168c5ae7397731d063d5bbf3d657854427343f4c083240f7aacaa2d0f6287876040516116fd929190612c0c565b60405180910390a45050505050565b60606000600167ffffffffffffffff81111561172b5761172a612ffe565b5b6040519080825280602002602001820160405280156117595781602001602082028036833780820191505090505b509050828160008151811061177157611770612fcf565b5b60200260200101818152505080915050919050565b611794868686868686611b6a565b505050505050565b6117bb8473ffffffffffffffffffffffffffffffffffffffff16611ce4565b1561197b578373ffffffffffffffffffffffffffffffffffffffff1663f23a6e6187878686866040518663ffffffff1660e01b81526004016118019594939291906129a1565b602060405180830381600087803b15801561181b57600080fd5b505af192505050801561184c57506040513d601f19601f8201168201806040525081019061184991906125d6565b60015b6118f25761185861302d565b806308c379a014156118b5575061186d6133c5565b8061187857506118b7565b806040517f08c379a00000000000000000000000000000000000000000000000000000000081526004016118ac9190612a6f565b60405180910390fd5b505b6040517f08c379a00000000000000000000000000000000000000000000000000000000081526004016118e990612a91565b60405180910390fd5b63f23a6e6160e01b7bffffffffffffffffffffffffffffffffffffffffffffffffffffffff1916817bffffffffffffffffffffffffffffffffffffffffffffffffffffffff191614611979576040517f08c379a000000000000000000000000000000000000000000000000000000000815260040161197090612ab1565b60405180910390fd5b505b505050505050565b6119a28473ffffffffffffffffffffffffffffffffffffffff16611ce4565b15611b62578373ffffffffffffffffffffffffffffffffffffffff1663bc197c8187878686866040518663ffffffff1660e01b81526004016119e8959493929190612939565b602060405180830381600087803b158015611a0257600080fd5b505af1925050508015611a3357506040513d601f19601f82011682018060405250810190611a3091906125d6565b60015b611ad957611a3f61302d565b806308c379a01415611a9c5750611a546133c5565b80611a5f5750611a9e565b806040517f08c379a0000000000000000000000000000000000000000000000000000000008152600401611a939190612a6f565b60405180910390fd5b505b6040517f08c379a0000000000000000000000000000000000000000000000000000000008152600401611ad090612a91565b60405180910390fd5b63bc197c8160e01b7bffffffffffffffffffffffffffffffffffffffffffffffffffffffff1916817bffffffffffffffffffffffffffffffffffffffffffffffffffffffff191614611b60576040517f08c379a0000000000000000000000000000000000000000000000000000000008152600401611b5790612ab1565b60405180910390fd5b505b505050505050565b611b78868686868686611d07565b600073ffffffffffffffffffffffffffffffffffffffff168573ffffffffffffffffffffffffffffffffffffffff161415611c2a5760005b8351811015611c2857828181518110611bcc57611bcb612fcf565b5b602002602001015160046000868481518110611beb57611bea612fcf565b5b602002602001015181526020019081526020016000206000828254611c109190612d85565b9250508190555080611c2190612f28565b9050611bb0565b505b600073ffffffffffffffffffffffffffffffffffffffff168473ffffffffffffffffffffffffffffffffffffffff161415611cdc5760005b8351811015611cda57828181518110611c7e57611c7d612fcf565b5b602002602001015160046000868481518110611c9d57611c9c612fcf565b5b602002602001015181526020019081526020016000206000828254611cc29190612ddb565b9250508190555080611cd390612f28565b9050611c62565b505b505050505050565b6000808273ffffffffffffffffffffffffffffffffffffffff163b119050919050565b505050505050565b828054611d1b90612ec5565b90600052602060002090601f016020900481019282611d3d5760008555611d84565b82601f10611d5657805160ff1916838001178555611d84565b82800160010185558215611d84579182015b82811115611d83578251825591602001919060010190611d68565b5b509050611d919190611d95565b5090565b5b80821115611dae576000816000905550600101611d96565b5090565b6000611dc5611dc084612c5a565b612c35565b90508083825260208201905082856020860282011115611de857611de7613054565b5b60005b85811015611e185781611dfe8882611f16565b845260208401935060208301925050600181019050611deb565b5050509392505050565b6000611e35611e3084612c86565b612c35565b90508083825260208201905082856020860282011115611e5857611e57613054565b5b60005b85811015611e885781611e6e8882612022565b845260208401935060208301925050600181019050611e5b565b5050509392505050565b6000611ea5611ea084612cb2565b612c35565b905082815260208101848484011115611ec157611ec0613059565b5b611ecc848285612e83565b509392505050565b6000611ee7611ee284612ce3565b612c35565b905082815260208101848484011115611f0357611f02613059565b5b611f0e848285612e83565b509392505050565b600081359050611f258161345b565b92915050565b600082601f830112611f4057611f3f61304f565b5b8135611f50848260208601611db2565b91505092915050565b600082601f830112611f6e57611f6d61304f565b5b8135611f7e848260208601611e22565b91505092915050565b600081359050611f9681613472565b92915050565b600081359050611fab81613489565b92915050565b600081519050611fc081613489565b92915050565b600082601f830112611fdb57611fda61304f565b5b8135611feb848260208601611e92565b91505092915050565b600082601f8301126120095761200861304f565b5b8135612019848260208601611ed4565b91505092915050565b600081359050612031816134a0565b92915050565b60006020828403121561204d5761204c613063565b5b600061205b84828501611f16565b91505092915050565b6000806040838503121561207b5761207a613063565b5b600061208985828601611f16565b925050602061209a85828601611f16565b9150509250929050565b600080600080600060a086880312156120c0576120bf613063565b5b60006120ce88828901611f16565b95505060206120df88828901611f16565b945050604086013567ffffffffffffffff811115612100576120ff61305e565b5b61210c88828901611f59565b935050606086013567ffffffffffffffff81111561212d5761212c61305e565b5b61213988828901611f59565b925050608086013567ffffffffffffffff81111561215a5761215961305e565b5b61216688828901611fc6565b9150509295509295909350565b600080600080600060a0868803121561218f5761218e613063565b5b600061219d88828901611f16565b95505060206121ae88828901611f16565b94505060406121bf88828901612022565b93505060606121d088828901612022565b925050608086013567ffffffffffffffff8111156121f1576121f061305e565b5b6121fd88828901611fc6565b9150509295509295909350565b60008060006060848603121561222357612222613063565b5b600061223186828701611f16565b935050602084013567ffffffffffffffff8111156122525761225161305e565b5b61225e86828701611f59565b925050604084013567ffffffffffffffff81111561227f5761227e61305e565b5b61228b86828701611f59565b9150509250925092565b600080600080608085870312156122af576122ae613063565b5b60006122bd87828801611f16565b945050602085013567ffffffffffffffff8111156122de576122dd61305e565b5b6122ea87828801611f59565b935050604085013567ffffffffffffffff81111561230b5761230a61305e565b5b61231787828801611f59565b925050606085013567ffffffffffffffff8111156123385761233761305e565b5b61234487828801611fc6565b91505092959194509250565b6000806040838503121561236757612366613063565b5b600061237585828601611f16565b925050602061238685828601611f87565b9150509250929050565b600080604083850312156123a7576123a6613063565b5b60006123b585828601611f16565b92505060206123c685828601612022565b9150509250929050565b6000806000606084860312156123e9576123e8613063565b5b60006123f786828701611f16565b935050602061240886828701612022565b925050604061241986828701612022565b9150509250925092565b6000806000806080858703121561243d5761243c613063565b5b600061244b87828801611f16565b945050602061245c87828801612022565b935050604061246d87828801612022565b925050606085013567ffffffffffffffff81111561248e5761248d61305e565b5b61249a87828801611fc6565b91505092959194509250565b600080604083850312156124bd576124bc613063565b5b600083013567ffffffffffffffff8111156124db576124da61305e565b5b6124e785828601611f2b565b925050602083013567ffffffffffffffff8111156125085761250761305e565b5b61251485828601611f59565b9150509250929050565b60008060006060848603121561253757612536613063565b5b600084013567ffffffffffffffff8111156125555761255461305e565b5b61256186828701611f2b565b935050602061257286828701612022565b925050604084013567ffffffffffffffff8111156125935761259261305e565b5b61259f86828701611fc6565b9150509250925092565b6000602082840312156125bf576125be613063565b5b60006125cd84828501611f9c565b91505092915050565b6000602082840312156125ec576125eb613063565b5b60006125fa84828501611fb1565b91505092915050565b60006020828403121561261957612618613063565b5b600082013567ffffffffffffffff8111156126375761263661305e565b5b61264384828501611ff4565b91505092915050565b60006020828403121561266257612661613063565b5b600061267084828501612022565b91505092915050565b60006126858383612900565b60208301905092915050565b61269a81612e0f565b82525050565b60006126ab82612d24565b6126b58185612d52565b93506126c083612d14565b8060005b838110156126f15781516126d88882612679565b97506126e383612d45565b9250506001810190506126c4565b5085935050505092915050565b61270781612e21565b82525050565b600061271882612d2f565b6127228185612d63565b9350612732818560208601612e92565b61273b81613068565b840191505092915050565b600061275182612d3a565b61275b8185612d74565b935061276b818560208601612e92565b61277481613068565b840191505092915050565b600061278c603483612d74565b915061279782613086565b604082019050919050565b60006127af602883612d74565b91506127ba826130d5565b604082019050919050565b60006127d2602b83612d74565b91506127dd82613124565b604082019050919050565b60006127f5602683612d74565b915061280082613173565b604082019050919050565b6000612818602483612d74565b9150612823826131c2565b604082019050919050565b600061283b602983612d74565b915061284682613211565b604082019050919050565b600061285e602383612d74565b915061286982613260565b604082019050919050565b6000612881602083612d74565b915061288c826132af565b602082019050919050565b60006128a4602983612d74565b91506128af826132d8565b604082019050919050565b60006128c7602883612d74565b91506128d282613327565b604082019050919050565b60006128ea602183612d74565b91506128f582613376565b604082019050919050565b61290981612e79565b82525050565b61291881612e79565b82525050565b60006020820190506129336000830184612691565b92915050565b600060a08201905061294e6000830188612691565b61295b6020830187612691565b818103604083015261296d81866126a0565b9050818103606083015261298181856126a0565b90508181036080830152612995818461270d565b90509695505050505050565b600060a0820190506129b66000830188612691565b6129c36020830187612691565b6129d0604083018661290f565b6129dd606083018561290f565b81810360808301526129ef818461270d565b90509695505050505050565b60006020820190508181036000830152612a1581846126a0565b905092915050565b60006040820190508181036000830152612a3781856126a0565b90508181036020830152612a4b81846126a0565b90509392505050565b6000602082019050612a6960008301846126fe565b92915050565b60006020820190508181036000830152612a898184612746565b905092915050565b60006020820190508181036000830152612aaa8161277f565b9050919050565b60006020820190508181036000830152612aca816127a2565b9050919050565b60006020820190508181036000830152612aea816127c5565b9050919050565b60006020820190508181036000830152612b0a816127e8565b9050919050565b60006020820190508181036000830152612b2a8161280b565b9050919050565b60006020820190508181036000830152612b4a8161282e565b9050919050565b60006020820190508181036000830152612b6a81612851565b9050919050565b60006020820190508181036000830152612b8a81612874565b9050919050565b60006020820190508181036000830152612baa81612897565b9050919050565b60006020820190508181036000830152612bca816128ba565b9050919050565b60006020820190508181036000830152612bea816128dd565b9050919050565b6000602082019050612c06600083018461290f565b92915050565b6000604082019050612c21600083018561290f565b612c2e602083018461290f565b9392505050565b6000612c3f612c50565b9050612c4b8282612ef7565b919050565b6000604051905090565b600067ffffffffffffffff821115612c7557612c74612ffe565b5b602082029050602081019050919050565b600067ffffffffffffffff821115612ca157612ca0612ffe565b5b602082029050602081019050919050565b600067ffffffffffffffff821115612ccd57612ccc612ffe565b5b612cd682613068565b9050602081019050919050565b600067ffffffffffffffff821115612cfe57612cfd612ffe565b5b612d0782613068565b9050602081019050919050565b6000819050602082019050919050565b600081519050919050565b600081519050919050565b600081519050919050565b6000602082019050919050565b600082825260208201905092915050565b600082825260208201905092915050565b600082825260208201905092915050565b6000612d9082612e79565b9150612d9b83612e79565b9250827fffffffffffffffffffffffffffffffffffffffffffffffffffffffffffffffff03821115612dd057612dcf612f71565b5b828201905092915050565b6000612de682612e79565b9150612df183612e79565b925082821015612e0457612e03612f71565b5b828203905092915050565b6000612e1a82612e59565b9050919050565b60008115159050919050565b60007fffffffff0000000000000000000000000000000000000000000000000000000082169050919050565b600073ffffffffffffffffffffffffffffffffffffffff82169050919050565b6000819050919050565b82818337600083830152505050565b60005b83811015612eb0578082015181840152602081019050612e95565b83811115612ebf576000848401525b50505050565b60006002820490506001821680612edd57607f821691505b60208210811415612ef157612ef0612fa0565b5b50919050565b612f0082613068565b810181811067ffffffffffffffff82111715612f1f57612f1e612ffe565b5b80604052505050565b6000612f3382612e79565b91507fffffffffffffffffffffffffffffffffffffffffffffffffffffffffffffffff821415612f6657612f65612f71565b5b600182019050919050565b7f4e487b7100000000000000000000000000000000000000000000000000000000600052601160045260246000fd5b7f4e487b7100000000000000000000000000000000000000000000000000000000600052602260045260246000fd5b7f4e487b7100000000000000000000000000000000000000000000000000000000600052603260045260246000fd5b7f4e487b7100000000000000000000000000000000000000000000000000000000600052604160045260246000fd5b600060033d111561304c5760046000803e613049600051613079565b90505b90565b600080fd5b600080fd5b600080fd5b600080fd5b600080fd5b6000601f19601f8301169050919050565b60008160e01c9050919050565b7f455243313135353a207472616e7366657220746f206e6f6e204552433131353560008201527f526563656976657220696d706c656d656e746572000000000000000000000000602082015250565b7f455243313135353a204552433131353552656365697665722072656a6563746560008201527f6420746f6b656e73000000000000000000000000000000000000000000000000602082015250565b7f455243313135353a2062616c616e636520717565727920666f7220746865207a60008201527f65726f2061646472657373000000000000000000000000000000000000000000602082015250565b7f4f776e61626c653a206e6577206f776e657220697320746865207a65726f206160008201527f6464726573730000000000000000000000000000000000000000000000000000602082015250565b7f455243313135353a206275726e20616d6f756e7420657863656564732062616c60008201527f616e636500000000000000000000000000000000000000000000000000000000602082015250565b7f455243313135353a2063616c6c6572206973206e6f74206f776e6572206e6f7260008201527f20617070726f7665640000000000000000000000000000000000000000000000602082015250565b7f455243313135353a206275726e2066726f6d20746865207a65726f206164647260008201527f6573730000000000000000000000000000000000000000000000000000000000602082015250565b7f4f776e61626c653a2063616c6c6572206973206e6f7420746865206f776e6572600082015250565b7f455243313135353a206163636f756e747320616e6420696473206c656e67746860008201527f206d69736d617463680000000000000000000000000000000000000000000000602082015250565b7f455243313135353a2069647320616e6420616d6f756e7473206c656e6774682060008201527f6d69736d61746368000000000000000000000000000000000000000000000000602082015250565b7f455243313135353a206d696e7420746f20746865207a65726f2061646472657360008201527f7300000000000000000000000000000000000000000000000000000000000000602082015250565b600060443d10156133d557613458565b6133dd612c50565b60043d036004823e80513d602482011167ffffffffffffffff82111715613405575050613458565b808201805167ffffffffffffffff8111156134235750505050613458565b80602083010160043d038501811115613440575050505050613458565b61344f82602001850186612ef7565b82955050505050505b90565b61346481612e0f565b811461346f57600080fd5b50565b61347b81612e21565b811461348657600080fd5b50565b61349281612e2d565b811461349d57600080fd5b50565b6134a981612e79565b81146134b457600080fd5b5056fea26469706673582212201b5c7cc9e25189ffe3c9820690f3bd035f635b616fd25cee13bd4a15dfec03af64736f6c63430008070033",
  "linkReferences": {},
  "deployedLinkReferences": {}
}