{
  "_format": "hh-sol-artifact-1",
  "contractName": "CryptoCredential",
  "sourceName": "contracts/CryptoCredential.sol",
  "abi": [
    {
      "inputs": [
        {
          "internalType": "address",
          "name": "issuer_",
          "type": "address"
        }
      ],
      "stateMutability": "nonpayable",
      "type": "constructor"
    },
    {
      "anonymous": false,
      "inputs": [
        {
          "indexed": true,
          "internalType": "address",
          "name": "burner",
          "type": "address"
        },
        {
          "indexed": true,
          "internalType": "address",
          "name": "owner",
          "type": "address"
        },
        {
          "indexed": false,
          "internalType": "uint256[]",
          "name": "ids",
          "type": "uint256[]"
        },
        {
          "indexed": false,
          "internalType": "uint256[]",
          "name": "amounts",
          "type": "uint256[]"
        }
      ],
      "name": "BurnBatch",
      "type": "event"
    },
    {
      "anonymous": false,
      "inputs": [
        {
          "indexed": true,
          "internalType": "address",
          "name": "burner",
          "type": "address"
        },
        {
          "indexed": true,
          "internalType": "address",
          "name": "owner",
          "type": "address"
        },
        {
          "indexed": true,
          "internalType": "uint256",
          "name": "id",
          "type": "uint256"
        },
        {
          "indexed": false,
          "internalType": "uint256",
          "name": "amount",
          "type": "uint256"
        }
      ],
      "name": "BurnSingle",
      "type": "event"
    },
    {
      "anonymous": false,
      "inputs": [
        {
          "indexed": true,
          "internalType": "address",
          "name": "minter",
          "type": "address"
        },
        {
          "indexed": true,
          "internalType": "address",
          "name": "to",
          "type": "address"
        },
        {
          "indexed": false,
          "internalType": "uint256[]",
          "name": "ids",
          "type": "uint256[]"
        },
        {
          "indexed": false,
          "internalType": "uint256[]",
          "name": "amounts",
          "type": "uint256[]"
        }
      ],
      "name": "MintBatch",
      "type": "event"
    },
    {
      "anonymous": false,
      "inputs": [
        {
          "indexed": true,
          "internalType": "address",
          "name": "minter",
          "type": "address"
        },
        {
          "indexed": true,
          "internalType": "address",
          "name": "to",
          "type": "address"
        },
        {
          "indexed": true,
          "internalType": "uint256",
          "name": "id",
          "type": "uint256"
        },
        {
          "indexed": false,
          "internalType": "uint256",
          "name": "amount",
          "type": "uint256"
        }
      ],
      "name": "MintSingle",
      "type": "event"
    },
    {
      "anonymous": false,
      "inputs": [
        {
          "indexed": true,
          "internalType": "uint256",
          "name": "id",
          "type": "uint256"
        },
        {
          "indexed": false,
          "internalType": "string",
          "name": "value",
          "type": "string"
        }
      ],
      "name": "URI",
      "type": "event"
    },
    {
      "inputs": [
        {
          "internalType": "address",
          "name": "account",
          "type": "address"
        },
        {
          "internalType": "uint256",
          "name": "id",
          "type": "uint256"
        }
      ],
      "name": "balanceOf",
      "outputs": [
        {
          "internalType": "uint256",
          "name": "",
          "type": "uint256"
        }
      ],
      "stateMutability": "view",
      "type": "function"
    },
    {
      "inputs": [
        {
          "internalType": "address[]",
          "name": "accounts",
          "type": "address[]"
        },
        {
          "internalType": "uint256[]",
          "name": "ids",
          "type": "uint256[]"
        }
      ],
      "name": "balanceOfBatch",
      "outputs": [
        {
          "internalType": "uint256[]",
          "name": "",
          "type": "uint256[]"
        }
      ],
      "stateMutability": "view",
      "type": "function"
    },
    {
      "inputs": [
        {
          "internalType": "address",
          "name": "from",
          "type": "address"
        },
        {
          "internalType": "uint256",
          "name": "id",
          "type": "uint256"
        },
        {
          "internalType": "uint256",
          "name": "amount",
          "type": "uint256"
        },
        {
          "internalType": "bool",
          "name": "deleteURI",
          "type": "bool"
        }
      ],
      "name": "burn",
      "outputs": [],
      "stateMutability": "nonpayable",
      "type": "function"
    },
    {
      "inputs": [
        {
          "internalType": "address",
          "name": "from",
          "type": "address"
        },
        {
          "internalType": "uint256[]",
          "name": "ids",
          "type": "uint256[]"
        },
        {
          "internalType": "uint256[]",
          "name": "amounts",
          "type": "uint256[]"
        },
        {
          "internalType": "bool",
          "name": "deleteURI",
          "type": "bool"
        }
      ],
      "name": "burnBatch",
      "outputs": [],
      "stateMutability": "nonpayable",
      "type": "function"
    },
    {
      "inputs": [],
      "name": "issuer",
      "outputs": [
        {
          "internalType": "address",
          "name": "",
          "type": "address"
        }
      ],
      "stateMutability": "view",
      "type": "function"
    },
    {
      "inputs": [
        {
          "internalType": "address",
          "name": "to",
          "type": "address"
        },
        {
          "internalType": "uint256",
          "name": "id",
          "type": "uint256"
        },
        {
          "internalType": "uint256",
          "name": "amount",
          "type": "uint256"
        },
        {
          "internalType": "string",
          "name": "uri",
          "type": "string"
        },
        {
          "internalType": "bytes",
          "name": "data",
          "type": "bytes"
        }
      ],
      "name": "mint",
      "outputs": [],
      "stateMutability": "nonpayable",
      "type": "function"
    },
    {
      "inputs": [
        {
          "internalType": "address",
          "name": "to",
          "type": "address"
        },
        {
          "internalType": "uint256[]",
          "name": "ids",
          "type": "uint256[]"
        },
        {
          "internalType": "uint256[]",
          "name": "amounts",
          "type": "uint256[]"
        },
        {
          "internalType": "string[]",
          "name": "uris",
          "type": "string[]"
        },
        {
          "internalType": "bytes",
          "name": "data",
          "type": "bytes"
        }
      ],
      "name": "mintBatch",
      "outputs": [],
      "stateMutability": "nonpayable",
      "type": "function"
    },
    {
      "inputs": [
        {
          "internalType": "string",
          "name": "newBaseURI",
          "type": "string"
        }
      ],
      "name": "setBaseURI",
      "outputs": [],
      "stateMutability": "nonpayable",
      "type": "function"
    },
    {
      "inputs": [
        {
          "internalType": "address",
          "name": "newIssuer",
          "type": "address"
        }
      ],
      "name": "setIssuer",
      "outputs": [],
      "stateMutability": "nonpayable",
      "type": "function"
    },
    {
      "inputs": [
        {
          "internalType": "uint256",
          "name": "id",
          "type": "uint256"
        }
      ],
      "name": "tokenURI",
      "outputs": [
        {
          "internalType": "string",
          "name": "",
          "type": "string"
        }
      ],
      "stateMutability": "view",
      "type": "function"
    }
  ],
  "bytecode": "0x60806040523480156200001157600080fd5b50604051620031c3380380620031c3833981810160405281019062000037919062000096565b80600360006101000a81548173ffffffffffffffffffffffffffffffffffffffff021916908373ffffffffffffffffffffffffffffffffffffffff1602179055505062000110565b6000815190506200009081620000f6565b92915050565b600060208284031215620000a957600080fd5b6000620000b9848285016200007f565b91505092915050565b6000620000cf82620000d6565b9050919050565b600073ffffffffffffffffffffffffffffffffffffffff82169050919050565b6200010181620000c2565b81146200010d57600080fd5b50565b6130a380620001206000396000f3fe608060405234801561001057600080fd5b506004361061009d5760003560e01c806355cc4e571161006657806355cc4e571461015857806355f804b314610174578063a4b645eb14610190578063b9571e84146101ac578063c87b56dd146101c85761009d565b8062fdd58e146100a25780631d143848146100d257806331126dd1146100f057806344893bf31461010c5780634e1273f414610128575b600080fd5b6100bc60048036038101906100b79190612115565b6101f8565b6040516100c99190612849565b60405180910390f35b6100da610252565b6040516100e791906125cd565b60405180910390f35b61010a60048036038101906101059190612151565b610278565b005b61012660048036038101906101219190612082565b610330565b005b610142600480360381019061013d919061225b565b6103e8565b60405161014f919061268e565b60405180910390f35b610172600480360381019061016d9190611f82565b610599565b005b61018e600480360381019061018991906122f0565b6106dd565b005b6101aa60048036038101906101a591906121b4565b610779565b005b6101c660048036038101906101c19190611fab565b61081d565b005b6101e260048036038101906101dd9190612331565b6108c1565b6040516101ef91906126e7565b60405180910390f35b600080600083815260200190815260200160002060008473ffffffffffffffffffffffffffffffffffffffff1673ffffffffffffffffffffffffffffffffffffffff16815260200190815260200160002054905092915050565b600360009054906101000a900473ffffffffffffffffffffffffffffffffffffffff1681565b600360009054906101000a900473ffffffffffffffffffffffffffffffffffffffff1673ffffffffffffffffffffffffffffffffffffffff163373ffffffffffffffffffffffffffffffffffffffff1614610308576040517f08c379a00000000000000000000000000000000000000000000000000000000081526004016102ff90612729565b60405180910390fd5b801561031e57610319848484610991565b61032a565b6103298484846109aa565b5b50505050565b600360009054906101000a900473ffffffffffffffffffffffffffffffffffffffff1673ffffffffffffffffffffffffffffffffffffffff163373ffffffffffffffffffffffffffffffffffffffff16146103c0576040517f08c379a00000000000000000000000000000000000000000000000000000000081526004016103b790612729565b60405180910390fd5b80156103d6576103d1848484610b85565b6103e2565b6103e1848484610e5a565b5b50505050565b6060815183511461042e576040517f08c379a0000000000000000000000000000000000000000000000000000000008152600401610425906127c9565b60405180910390fd5b6000835167ffffffffffffffff811115610471577f4e487b7100000000000000000000000000000000000000000000000000000000600052604160045260246000fd5b60405190808252806020026020018201604052801561049f5781602001602082028036833780820191505090505b50905060005b845181101561058e576105388582815181106104ea577f4e487b7100000000000000000000000000000000000000000000000000000000600052603260045260246000fd5b602002602001015185838151811061052b577f4e487b7100000000000000000000000000000000000000000000000000000000600052603260045260246000fd5b60200260200101516101f8565b828281518110610571577f4e487b7100000000000000000000000000000000000000000000000000000000600052603260045260246000fd5b6020026020010181815250508061058790612b4f565b90506104a5565b508091505092915050565b600360009054906101000a900473ffffffffffffffffffffffffffffffffffffffff1673ffffffffffffffffffffffffffffffffffffffff163373ffffffffffffffffffffffffffffffffffffffff1614610629576040517f08c379a000000000000000000000000000000000000000000000000000000000815260040161062090612729565b60405180910390fd5b600073ffffffffffffffffffffffffffffffffffffffff168173ffffffffffffffffffffffffffffffffffffffff161415610699576040517f08c379a000000000000000000000000000000000000000000000000000000000815260040161069090612829565b60405180910390fd5b80600360006101000a81548173ffffffffffffffffffffffffffffffffffffffff021916908373ffffffffffffffffffffffffffffffffffffffff16021790555050565b600360009054906101000a900473ffffffffffffffffffffffffffffffffffffffff1673ffffffffffffffffffffffffffffffffffffffff163373ffffffffffffffffffffffffffffffffffffffff161461076d576040517f08c379a000000000000000000000000000000000000000000000000000000000815260040161076490612729565b60405180910390fd5b61077681611126565b50565b600360009054906101000a900473ffffffffffffffffffffffffffffffffffffffff1673ffffffffffffffffffffffffffffffffffffffff163373ffffffffffffffffffffffffffffffffffffffff1614610809576040517f08c379a000000000000000000000000000000000000000000000000000000000815260040161080090612729565b60405180910390fd5b6108168585858585611140565b5050505050565b600360009054906101000a900473ffffffffffffffffffffffffffffffffffffffff1673ffffffffffffffffffffffffffffffffffffffff163373ffffffffffffffffffffffffffffffffffffffff16146108ad576040517f08c379a00000000000000000000000000000000000000000000000000000000081526004016108a490612729565b60405180910390fd5b6108ba858585858561115d565b5050505050565b606060006002600084815260200190815260200160002080546108e390612aec565b80601f016020809104026020016040519081016040528092919081815260200182805461090f90612aec565b801561095c5780601f106109315761010080835404028352916020019161095c565b820191906000526020600020905b81548152906001019060200180831161093f57829003601f168201915b5050505050905061096c836114f3565b1561097a578091505061098c565b600061098461151e565b905080925050505b919050565b61099c8383836109aa565b6109a5826115b0565b505050565b600073ffffffffffffffffffffffffffffffffffffffff168373ffffffffffffffffffffffffffffffffffffffff161415610a1a576040517f08c379a0000000000000000000000000000000000000000000000000000000008152600401610a1190612789565b60405180910390fd5b6000339050610a2b818585856115e1565b600080600085815260200190815260200160002060008673ffffffffffffffffffffffffffffffffffffffff1673ffffffffffffffffffffffffffffffffffffffff16815260200190815260200160002054905082811015610ac2576040517f08c379a0000000000000000000000000000000000000000000000000000000008152600401610ab990612749565b60405180910390fd5b82810360008086815260200190815260200160002060008773ffffffffffffffffffffffffffffffffffffffff1673ffffffffffffffffffffffffffffffffffffffff16815260200190815260200160002081905550838573ffffffffffffffffffffffffffffffffffffffff168373ffffffffffffffffffffffffffffffffffffffff167f995c922928fc04a31c6446db7f51f402ddb95ac41fa3dca51c98ff1fe730053186604051610b769190612849565b60405180910390a45050505050565b600073ffffffffffffffffffffffffffffffffffffffff168373ffffffffffffffffffffffffffffffffffffffff161415610bf5576040517f08c379a0000000000000000000000000000000000000000000000000000000008152600401610bec90612789565b60405180910390fd5b8051825114610c39576040517f08c379a0000000000000000000000000000000000000000000000000000000008152600401610c30906127e9565b60405180910390fd5b600033905060005b8351811015610dec576000848281518110610c85577f4e487b7100000000000000000000000000000000000000000000000000000000600052603260045260246000fd5b602002602001015190506000848381518110610cca577f4e487b7100000000000000000000000000000000000000000000000000000000600052603260045260246000fd5b60200260200101519050610ce0848884846115e1565b600080600084815260200190815260200160002060008973ffffffffffffffffffffffffffffffffffffffff1673ffffffffffffffffffffffffffffffffffffffff16815260200190815260200160002054905081811015610d77576040517f08c379a0000000000000000000000000000000000000000000000000000000008152600401610d6e90612749565b60405180910390fd5b81810360008085815260200190815260200160002060008a73ffffffffffffffffffffffffffffffffffffffff1673ffffffffffffffffffffffffffffffffffffffff16815260200190815260200160002081905550610dd6836115b0565b5050508080610de490612b4f565b915050610c41565b508373ffffffffffffffffffffffffffffffffffffffff168173ffffffffffffffffffffffffffffffffffffffff167ff6d51a8d20e8b0143ca41399aa93b2a480cb0b95e39847e4ebd3144b2db8775d8585604051610e4c9291906126b0565b60405180910390a350505050565b600073ffffffffffffffffffffffffffffffffffffffff168373ffffffffffffffffffffffffffffffffffffffff161415610eca576040517f08c379a0000000000000000000000000000000000000000000000000000000008152600401610ec190612789565b60405180910390fd5b8051825114610f0e576040517f08c379a0000000000000000000000000000000000000000000000000000000008152600401610f05906127e9565b60405180910390fd5b600033905060005b83518110156110b8576000848281518110610f5a577f4e487b7100000000000000000000000000000000000000000000000000000000600052603260045260246000fd5b602002602001015190506000848381518110610f9f577f4e487b7100000000000000000000000000000000000000000000000000000000600052603260045260246000fd5b60200260200101519050610fb5848884846115e1565b600080600084815260200190815260200160002060008973ffffffffffffffffffffffffffffffffffffffff1673ffffffffffffffffffffffffffffffffffffffff1681526020019081526020016000205490508181101561104c576040517f08c379a000000000000000000000000000000000000000000000000000000000815260040161104390612749565b60405180910390fd5b81810360008085815260200190815260200160002060008a73ffffffffffffffffffffffffffffffffffffffff1673ffffffffffffffffffffffffffffffffffffffff1681526020019081526020016000208190555050505080806110b090612b4f565b915050610f16565b508373ffffffffffffffffffffffffffffffffffffffff168173ffffffffffffffffffffffffffffffffffffffff167ff6d51a8d20e8b0143ca41399aa93b2a480cb0b95e39847e4ebd3144b2db8775d85856040516111189291906126b0565b60405180910390a350505050565b806001908051906020019061113c929190611b9f565b5050565b61114c858585846115e7565b6111568483611749565b5050505050565b600073ffffffffffffffffffffffffffffffffffffffff168573ffffffffffffffffffffffffffffffffffffffff1614156111cd576040517f08c379a00000000000000000000000000000000000000000000000000000000081526004016111c490612809565b60405180910390fd5b8251845114611211576040517f08c379a0000000000000000000000000000000000000000000000000000000008152600401611208906127e9565b60405180910390fd5b8151845114611255576040517f08c379a000000000000000000000000000000000000000000000000000000000815260040161124c90612709565b60405180910390fd5b600033905060005b8551811015611476576112f382888884815181106112a4577f4e487b7100000000000000000000000000000000000000000000000000000000600052603260045260246000fd5b60200260200101518885815181106112e5577f4e487b7100000000000000000000000000000000000000000000000000000000600052603260045260246000fd5b6020026020010151876117ad565b61137d86828151811061132f577f4e487b7100000000000000000000000000000000000000000000000000000000600052603260045260246000fd5b6020026020010151858381518110611370577f4e487b7100000000000000000000000000000000000000000000000000000000600052603260045260246000fd5b6020026020010151611749565b8481815181106113b6577f4e487b7100000000000000000000000000000000000000000000000000000000600052603260045260246000fd5b60200260200101516000808884815181106113fa577f4e487b7100000000000000000000000000000000000000000000000000000000600052603260045260246000fd5b6020026020010151815260200190815260200160002060008973ffffffffffffffffffffffffffffffffffffffff1673ffffffffffffffffffffffffffffffffffffffff168152602001908152602001600020600082825461145c91906129e0565b92505081905550808061146e90612b4f565b91505061125d565b508573ffffffffffffffffffffffffffffffffffffffff168173ffffffffffffffffffffffffffffffffffffffff167f5c5ac6bfb3f54a39f008d2e9be10d575012f29230716d49e92da377d748b1a8787876040516114d69291906126b0565b60405180910390a36114eb81878787866117b4565b505050505050565b60008060026000848152602001908152602001600020805461151490612aec565b9050119050919050565b60606001805461152d90612aec565b80601f016020809104026020016040519081016040528092919081815260200182805461155990612aec565b80156115a65780601f1061157b576101008083540402835291602001916115a6565b820191906000526020600020905b81548152906001019060200180831161158957829003601f168201915b5050505050905090565b6115b9816114f3565b156115de576002600082815260200190815260200160002060006115dd9190611c25565b5b50565b50505050565b600073ffffffffffffffffffffffffffffffffffffffff168473ffffffffffffffffffffffffffffffffffffffff161415611657576040517f08c379a000000000000000000000000000000000000000000000000000000000815260040161164e90612809565b60405180910390fd5b600033905061166981868686866117ad565b8260008086815260200190815260200160002060008773ffffffffffffffffffffffffffffffffffffffff1673ffffffffffffffffffffffffffffffffffffffff16815260200190815260200160002060008282546116c891906129e0565b92505081905550838573ffffffffffffffffffffffffffffffffffffffff168273ffffffffffffffffffffffffffffffffffffffff167f17facb1ae55b1a0fe54049767ddeb027123cb5d0379a5a1c6f5c954287d88fb38660405161172d9190612849565b60405180910390a46117428186868686611998565b5050505050565b80600260008481526020019081526020016000209080519060200190611770929190611b9f565b50817f369737eac2f50072db0001f8a5c3f225ab50d5ab38d8cbdbabf885abf2ab722a826040516117a191906126e7565b60405180910390a25050565b5050505050565b6117d38473ffffffffffffffffffffffffffffffffffffffff16611b7c565b15611991578373ffffffffffffffffffffffffffffffffffffffff1663c0bfec68868585856040518563ffffffff1660e01b815260040161181794939291906125e8565b602060405180830381600087803b15801561183157600080fd5b505af192505050801561186257506040513d601f19601f8201168201806040525081019061185f91906122c7565b60015b6119085761186e612c25565b806308c379a014156118cb5750611883612f7b565b8061188e57506118cd565b806040517f08c379a00000000000000000000000000000000000000000000000000000000081526004016118c291906126e7565b60405180910390fd5b505b6040517f08c379a00000000000000000000000000000000000000000000000000000000081526004016118ff906127a9565b60405180910390fd5b63c0bfec6860e01b7bffffffffffffffffffffffffffffffffffffffffffffffffffffffff1916817bffffffffffffffffffffffffffffffffffffffffffffffffffffffff19161461198f576040517f08c379a000000000000000000000000000000000000000000000000000000000815260040161198690612769565b60405180910390fd5b505b5050505050565b6119b78473ffffffffffffffffffffffffffffffffffffffff16611b7c565b15611b75578373ffffffffffffffffffffffffffffffffffffffff166345ed75d5868585856040518563ffffffff1660e01b81526004016119fb9493929190612642565b602060405180830381600087803b158015611a1557600080fd5b505af1925050508015611a4657506040513d601f19601f82011682018060405250810190611a4391906122c7565b60015b611aec57611a52612c25565b806308c379a01415611aaf5750611a67612f7b565b80611a725750611ab1565b806040517f08c379a0000000000000000000000000000000000000000000000000000000008152600401611aa691906126e7565b60405180910390fd5b505b6040517f08c379a0000000000000000000000000000000000000000000000000000000008152600401611ae3906127a9565b60405180910390fd5b6345ed75d560e01b7bffffffffffffffffffffffffffffffffffffffffffffffffffffffff1916817bffffffffffffffffffffffffffffffffffffffffffffffffffffffff191614611b73576040517f08c379a0000000000000000000000000000000000000000000000000000000008152600401611b6a90612769565b60405180910390fd5b505b5050505050565b6000808273ffffffffffffffffffffffffffffffffffffffff163b119050919050565b828054611bab90612aec565b90600052602060002090601f016020900481019282611bcd5760008555611c14565b82601f10611be657805160ff1916838001178555611c14565b82800160010185558215611c14579182015b82811115611c13578251825591602001919060010190611bf8565b5b509050611c219190611c65565b5090565b508054611c3190612aec565b6000825580601f10611c435750611c62565b601f016020900490600052602060002090810190611c619190611c65565b5b50565b5b80821115611c7e576000816000905550600101611c66565b5090565b6000611c95611c9084612889565b612864565b90508083825260208201905082856020860282011115611cb457600080fd5b60005b85811015611ce45781611cca8882611e5c565b845260208401935060208301925050600181019050611cb7565b5050509392505050565b6000611d01611cfc846128b5565b612864565b90508083825260208201905082856020860282011115611d2057600080fd5b60005b85811015611d6a57813567ffffffffffffffff811115611d4257600080fd5b808601611d4f8982611f43565b85526020850194506020840193505050600181019050611d23565b5050509392505050565b6000611d87611d82846128e1565b612864565b90508083825260208201905082856020860282011115611da657600080fd5b60005b85811015611dd65781611dbc8882611f6d565b845260208401935060208301925050600181019050611da9565b5050509392505050565b6000611df3611dee8461290d565b612864565b905082815260208101848484011115611e0b57600080fd5b611e16848285612aaa565b509392505050565b6000611e31611e2c8461293e565b612864565b905082815260208101848484011115611e4957600080fd5b611e54848285612aaa565b509392505050565b600081359050611e6b81613011565b92915050565b600082601f830112611e8257600080fd5b8135611e92848260208601611c82565b91505092915050565b600082601f830112611eac57600080fd5b8135611ebc848260208601611cee565b91505092915050565b600082601f830112611ed657600080fd5b8135611ee6848260208601611d74565b91505092915050565b600081359050611efe81613028565b92915050565b600081519050611f138161303f565b92915050565b600082601f830112611f2a57600080fd5b8135611f3a848260208601611de0565b91505092915050565b600082601f830112611f5457600080fd5b8135611f64848260208601611e1e565b91505092915050565b600081359050611f7c81613056565b92915050565b600060208284031215611f9457600080fd5b6000611fa284828501611e5c565b91505092915050565b600080600080600060a08688031215611fc357600080fd5b6000611fd188828901611e5c565b955050602086013567ffffffffffffffff811115611fee57600080fd5b611ffa88828901611ec5565b945050604086013567ffffffffffffffff81111561201757600080fd5b61202388828901611ec5565b935050606086013567ffffffffffffffff81111561204057600080fd5b61204c88828901611e9b565b925050608086013567ffffffffffffffff81111561206957600080fd5b61207588828901611f19565b9150509295509295909350565b6000806000806080858703121561209857600080fd5b60006120a687828801611e5c565b945050602085013567ffffffffffffffff8111156120c357600080fd5b6120cf87828801611ec5565b935050604085013567ffffffffffffffff8111156120ec57600080fd5b6120f887828801611ec5565b925050606061210987828801611eef565b91505092959194509250565b6000806040838503121561212857600080fd5b600061213685828601611e5c565b925050602061214785828601611f6d565b9150509250929050565b6000806000806080858703121561216757600080fd5b600061217587828801611e5c565b945050602061218687828801611f6d565b935050604061219787828801611f6d565b92505060606121a887828801611eef565b91505092959194509250565b600080600080600060a086880312156121cc57600080fd5b60006121da88828901611e5c565b95505060206121eb88828901611f6d565b94505060406121fc88828901611f6d565b935050606086013567ffffffffffffffff81111561221957600080fd5b61222588828901611f43565b925050608086013567ffffffffffffffff81111561224257600080fd5b61224e88828901611f19565b9150509295509295909350565b6000806040838503121561226e57600080fd5b600083013567ffffffffffffffff81111561228857600080fd5b61229485828601611e71565b925050602083013567ffffffffffffffff8111156122b157600080fd5b6122bd85828601611ec5565b9150509250929050565b6000602082840312156122d957600080fd5b60006122e784828501611f04565b91505092915050565b60006020828403121561230257600080fd5b600082013567ffffffffffffffff81111561231c57600080fd5b61232884828501611f43565b91505092915050565b60006020828403121561234357600080fd5b600061235184828501611f6d565b91505092915050565b600061236683836125af565b60208301905092915050565b61237b81612a36565b82525050565b600061238c8261297f565b61239681856129ad565b93506123a18361296f565b8060005b838110156123d25781516123b9888261235a565b97506123c4836129a0565b9250506001810190506123a5565b5085935050505092915050565b60006123ea8261298a565b6123f481856129be565b9350612404818560208601612ab9565b61240d81612c47565b840191505092915050565b600061242382612995565b61242d81856129cf565b935061243d818560208601612ab9565b61244681612c47565b840191505092915050565b600061245e6025836129cf565b915061246982612c65565b604082019050919050565b60006124816042836129cf565b915061248c82612cb4565b606082019050919050565b60006124a46024836129cf565b91506124af82612d29565b604082019050919050565b60006124c76028836129cf565b91506124d282612d78565b604082019050919050565b60006124ea6023836129cf565b91506124f582612dc7565b604082019050919050565b600061250d6034836129cf565b915061251882612e16565b604082019050919050565b60006125306029836129cf565b915061253b82612e65565b604082019050919050565b60006125536028836129cf565b915061255e82612eb4565b604082019050919050565b60006125766021836129cf565b915061258182612f03565b604082019050919050565b6000612599601e836129cf565b91506125a482612f52565b602082019050919050565b6125b881612aa0565b82525050565b6125c781612aa0565b82525050565b60006020820190506125e26000830184612372565b92915050565b60006080820190506125fd6000830187612372565b818103602083015261260f8186612381565b905081810360408301526126238185612381565b9050818103606083015261263781846123df565b905095945050505050565b60006080820190506126576000830187612372565b61266460208301866125be565b61267160408301856125be565b818103606083015261268381846123df565b905095945050505050565b600060208201905081810360008301526126a88184612381565b905092915050565b600060408201905081810360008301526126ca8185612381565b905081810360208301526126de8184612381565b90509392505050565b600060208201905081810360008301526127018184612418565b905092915050565b6000602082019050818103600083015261272281612451565b9050919050565b6000602082019050818103600083015261274281612474565b9050919050565b6000602082019050818103600083015261276281612497565b9050919050565b60006020820190508181036000830152612782816124ba565b9050919050565b600060208201905081810360008301526127a2816124dd565b9050919050565b600060208201905081810360008301526127c281612500565b9050919050565b600060208201905081810360008301526127e281612523565b9050919050565b6000602082019050818103600083015261280281612546565b9050919050565b6000602082019050818103600083015261282281612569565b9050919050565b600060208201905081810360008301526128428161258c565b9050919050565b600060208201905061285e60008301846125be565b92915050565b600061286e61287f565b905061287a8282612b1e565b919050565b6000604051905090565b600067ffffffffffffffff8211156128a4576128a3612bf6565b5b602082029050602081019050919050565b600067ffffffffffffffff8211156128d0576128cf612bf6565b5b602082029050602081019050919050565b600067ffffffffffffffff8211156128fc576128fb612bf6565b5b602082029050602081019050919050565b600067ffffffffffffffff82111561292857612927612bf6565b5b61293182612c47565b9050602081019050919050565b600067ffffffffffffffff82111561295957612958612bf6565b5b61296282612c47565b9050602081019050919050565b6000819050602082019050919050565b600081519050919050565b600081519050919050565b600081519050919050565b6000602082019050919050565b600082825260208201905092915050565b600082825260208201905092915050565b600082825260208201905092915050565b60006129eb82612aa0565b91506129f683612aa0565b9250827fffffffffffffffffffffffffffffffffffffffffffffffffffffffffffffffff03821115612a2b57612a2a612b98565b5b828201905092915050565b6000612a4182612a80565b9050919050565b60008115159050919050565b60007fffffffff0000000000000000000000000000000000000000000000000000000082169050919050565b600073ffffffffffffffffffffffffffffffffffffffff82169050919050565b6000819050919050565b82818337600083830152505050565b60005b83811015612ad7578082015181840152602081019050612abc565b83811115612ae6576000848401525b50505050565b60006002820490506001821680612b0457607f821691505b60208210811415612b1857612b17612bc7565b5b50919050565b612b2782612c47565b810181811067ffffffffffffffff82111715612b4657612b45612bf6565b5b80604052505050565b6000612b5a82612aa0565b91507fffffffffffffffffffffffffffffffffffffffffffffffffffffffffffffffff821415612b8d57612b8c612b98565b5b600182019050919050565b7f4e487b7100000000000000000000000000000000000000000000000000000000600052601160045260246000fd5b7f4e487b7100000000000000000000000000000000000000000000000000000000600052602260045260246000fd5b7f4e487b7100000000000000000000000000000000000000000000000000000000600052604160045260246000fd5b600060033d1115612c445760046000803e612c41600051612c58565b90505b90565b6000601f19601f8301169050919050565b60008160e01c9050919050565b7f455243313233383a2069647320616e642055524973206c656e677468206d697360008201527f6d61746368000000000000000000000000000000000000000000000000000000602082015250565b7f556e617574686f72697a65643a206f6e6c7920636f6e7472616374206973737560008201527f65722063616e206973737565206e65772043727970746f43726564656e74696160208201527f6c73000000000000000000000000000000000000000000000000000000000000604082015250565b7f455243313233383a206275726e20616d6f756e7420657863656564732062616c60008201527f616e636500000000000000000000000000000000000000000000000000000000602082015250565b7f455243313233383a204552433132333852656365697665722072656a6563746560008201527f6420746f6b656e73000000000000000000000000000000000000000000000000602082015250565b7f455243313233383a206275726e2066726f6d20746865207a65726f206164647260008201527f6573730000000000000000000000000000000000000000000000000000000000602082015250565b7f455243313233383a207472616e7366657220746f206e6f6e204552433132333860008201527f526563656976657220696d706c656d656e746572000000000000000000000000602082015250565b7f455243313233383a206163636f756e747320616e6420696473206c656e67746860008201527f206d69736d617463680000000000000000000000000000000000000000000000602082015250565b7f455243313233383a2069647320616e6420616d6f756e7473206c656e6774682060008201527f6d69736d61746368000000000000000000000000000000000000000000000000602082015250565b7f455243313233383a206d696e7420746f20746865207a65726f2061646472657360008201527f7300000000000000000000000000000000000000000000000000000000000000602082015250565b7f496e76616c6964206164647265737320666f72206e6577206973737565720000600082015250565b600060443d1015612f8b5761300e565b612f9361287f565b60043d036004823e80513d602482011167ffffffffffffffff82111715612fbb57505061300e565b808201805167ffffffffffffffff811115612fd9575050505061300e565b80602083010160043d038501811115612ff657505050505061300e565b61300582602001850186612b1e565b82955050505050505b90565b61301a81612a36565b811461302557600080fd5b50565b61303181612a48565b811461303c57600080fd5b50565b61304881612a54565b811461305357600080fd5b50565b61305f81612aa0565b811461306a57600080fd5b5056fea264697066735822122086073d623c7634ac4fe3d318418e40e90d6a3df8ed6a094fd7c635c92a20473c64736f6c63430008040033",
  "linkReferences": {},
  "deployedLinkReferences": {}
}