{
  "_format": "hh-sol-artifact-1",
  "contractName": "GrantLogic",
  "sourceName": "contracts/GrantLogic.sol",
  "abi": [
    {
      "anonymous": false,
      "inputs": [
        {
          "indexed": true,
          "internalType": "address",
          "name": "donator",
          "type": "address"
        },
        {
          "indexed": true,
          "internalType": "uint256",
          "name": "amount",
          "type": "uint256"
        }
      ],
      "name": "ContributionReceivedETH",
      "type": "event"
    },
    {
      "inputs": [],
      "name": "category",
      "outputs": [
        {
          "internalType": "string",
          "name": "",
          "type": "string"
        }
      ],
      "stateMutability": "view",
      "type": "function"
    },
    {
      "inputs": [],
      "name": "creator",
      "outputs": [
        {
          "internalType": "address",
          "name": "",
          "type": "address"
        }
      ],
      "stateMutability": "view",
      "type": "function"
    },
    {
      "inputs": [],
      "name": "deliverableFormat",
      "outputs": [
        {
          "internalType": "string",
          "name": "",
          "type": "string"
        }
      ],
      "stateMutability": "view",
      "type": "function"
    },
    {
      "inputs": [],
      "name": "description",
      "outputs": [
        {
          "internalType": "string",
          "name": "",
          "type": "string"
        }
      ],
      "stateMutability": "view",
      "type": "function"
    },
    {
      "inputs": [],
      "name": "fundingState",
      "outputs": [
        {
          "internalType": "enum GrantStorage.FundingState",
          "name": "",
          "type": "uint8"
        }
      ],
      "stateMutability": "view",
      "type": "function"
    },
    {
      "inputs": [],
      "name": "genre",
      "outputs": [
        {
          "internalType": "string",
          "name": "",
          "type": "string"
        }
      ],
      "stateMutability": "view",
      "type": "function"
    },
    {
      "inputs": [],
      "name": "logicAddress",
      "outputs": [
        {
          "internalType": "address",
          "name": "",
          "type": "address"
        }
      ],
      "stateMutability": "view",
      "type": "function"
    },
    {
      "inputs": [],
      "name": "minFundingAmount",
      "outputs": [
        {
          "internalType": "uint256",
          "name": "",
          "type": "uint256"
        }
      ],
      "stateMutability": "view",
      "type": "function"
    },
    {
      "inputs": [],
      "name": "timeline",
      "outputs": [
        {
          "internalType": "uint8",
          "name": "",
          "type": "uint8"
        }
      ],
      "stateMutability": "view",
      "type": "function"
    },
    {
      "inputs": [],
      "name": "title",
      "outputs": [
        {
          "internalType": "string",
          "name": "",
          "type": "string"
        }
      ],
      "stateMutability": "view",
      "type": "function"
    },
    {
      "stateMutability": "payable",
      "type": "receive"
    }
  ],
  "bytecode": "0x608060405234801561001057600080fd5b5061087a806100206000396000f3fe6080604052600436106100955760003560e01c80639c1fcc4c116100595780639c1fcc4c146101bc578063b25cdccf146101e7578063c791316e14610212578063ce2e67fe1461023d578063ef430aa614610268576100e0565b806302d05d3f146100e557806317a5410b1461011057806317de3a411461013b5780634a79d50c146101665780637284e41614610191576100e0565b366100e057343373ffffffffffffffffffffffffffffffffffffffff167f2f0f1ca72899668d93500f451ad66c0a4e9f7f3f4974f3206c27069fb2c7f2b160405160405180910390a3005b600080fd5b3480156100f157600080fd5b506100fa610293565b6040516101079190610644565b60405180910390f35b34801561011c57600080fd5b506101256102b9565b60405161013291906106b7565b60405180910390f35b34801561014757600080fd5b506101506102cc565b60405161015d919061067a565b60405180910390f35b34801561017257600080fd5b5061017b61035a565b604051610188919061067a565b60405180910390f35b34801561019d57600080fd5b506101a66103e8565b6040516101b3919061067a565b60405180910390f35b3480156101c857600080fd5b506101d1610476565b6040516101de9190610644565b60405180910390f35b3480156101f357600080fd5b506101fc61049a565b604051610209919061065f565b60405180910390f35b34801561021e57600080fd5b506102276104ad565b604051610234919061069c565b60405180910390f35b34801561024957600080fd5b506102526104b3565b60405161025f919061067a565b60405180910390f35b34801561027457600080fd5b5061027d610541565b60405161028a919061067a565b60405180910390f35b600160009054906101000a900473ffffffffffffffffffffffffffffffffffffffff1681565b600860009054906101000a900460ff1681565b600580546102d99061078f565b80601f01602080910402602001604051908101604052809291908181526020018280546103059061078f565b80156103525780601f1061032757610100808354040283529160200191610352565b820191906000526020600020905b81548152906001019060200180831161033557829003601f168201915b505050505081565b600280546103679061078f565b80601f01602080910402602001604051908101604052809291908181526020018280546103939061078f565b80156103e05780601f106103b5576101008083540402835291602001916103e0565b820191906000526020600020905b8154815290600101906020018083116103c357829003601f168201915b505050505081565b600380546103f59061078f565b80601f01602080910402602001604051908101604052809291908181526020018280546104219061078f565b801561046e5780601f106104435761010080835404028352916020019161046e565b820191906000526020600020905b81548152906001019060200180831161045157829003601f168201915b505050505081565b60008054906101000a900473ffffffffffffffffffffffffffffffffffffffff1681565b600860019054906101000a900460ff1681565b60065481565b600780546104c09061078f565b80601f01602080910402602001604051908101604052809291908181526020018280546104ec9061078f565b80156105395780601f1061050e57610100808354040283529160200191610539565b820191906000526020600020905b81548152906001019060200180831161051c57829003601f168201915b505050505081565b6004805461054e9061078f565b80601f016020809104026020016040519081016040528092919081815260200182805461057a9061078f565b80156105c75780601f1061059c576101008083540402835291602001916105c7565b820191906000526020600020905b8154815290600101906020018083116105aa57829003601f168201915b505050505081565b6105d8816106ee565b82525050565b6105e78161074a565b82525050565b60006105f8826106d2565b61060281856106dd565b935061061281856020860161075c565b61061b8161081f565b840191505092915050565b61062f81610733565b82525050565b61063e8161073d565b82525050565b600060208201905061065960008301846105cf565b92915050565b600060208201905061067460008301846105de565b92915050565b6000602082019050818103600083015261069481846105ed565b905092915050565b60006020820190506106b16000830184610626565b92915050565b60006020820190506106cc6000830184610635565b92915050565b600081519050919050565b600082825260208201905092915050565b60006106f982610713565b9050919050565b600081905061070e82610830565b919050565b600073ffffffffffffffffffffffffffffffffffffffff82169050919050565b6000819050919050565b600060ff82169050919050565b600061075582610700565b9050919050565b60005b8381101561077a57808201518184015260208101905061075f565b83811115610789576000848401525b50505050565b600060028204905060018216806107a757607f821691505b602082108114156107bb576107ba6107f0565b5b50919050565b7f4e487b7100000000000000000000000000000000000000000000000000000000600052602160045260246000fd5b7f4e487b7100000000000000000000000000000000000000000000000000000000600052602260045260246000fd5b6000601f19601f8301169050919050565b60048110610841576108406107c1565b5b5056fea2646970667358221220b352be7d907a50f06ea5059c64733613c3b3986c2089d46f23ba8965cb02d03664736f6c63430008040033",
  "linkReferences": {},
  "deployedLinkReferences": {}
}