{
  "_format": "hh-sol-artifact-1",
  "contractName": "GrantFactory",
  "sourceName": "contracts/GrantFactory.sol",
  "abi": [
    {
      "inputs": [
        {
          "internalType": "address",
          "name": "_logicAddress",
          "type": "address"
        }
      ],
      "stateMutability": "nonpayable",
      "type": "constructor"
    },
    {
      "anonymous": false,
      "inputs": [
        {
          "indexed": true,
          "internalType": "address",
          "name": "grant",
          "type": "address"
        },
        {
          "indexed": true,
          "internalType": "address",
          "name": "creator",
          "type": "address"
        },
        {
          "indexed": false,
          "internalType": "string",
          "name": "title",
          "type": "string"
        },
        {
          "indexed": false,
          "internalType": "string",
          "name": "description",
          "type": "string"
        },
        {
          "indexed": false,
          "internalType": "string",
          "name": "category",
          "type": "string"
        },
        {
          "indexed": false,
          "internalType": "string",
          "name": "genre",
          "type": "string"
        },
        {
          "indexed": false,
          "internalType": "uint8",
          "name": "timeline",
          "type": "uint8"
        },
        {
          "indexed": false,
          "internalType": "uint256",
          "name": "minFundingAmount",
          "type": "uint256"
        },
        {
          "indexed": false,
          "internalType": "string",
          "name": "deliverableFormat",
          "type": "string"
        }
      ],
      "name": "GrantCreated",
      "type": "event"
    },
    {
      "inputs": [
        {
          "internalType": "address",
          "name": "_creator",
          "type": "address"
        },
        {
          "internalType": "string",
          "name": "_title",
          "type": "string"
        },
        {
          "internalType": "string",
          "name": "_description",
          "type": "string"
        },
        {
          "internalType": "string",
          "name": "_category",
          "type": "string"
        },
        {
          "internalType": "string",
          "name": "_genre",
          "type": "string"
        },
        {
          "internalType": "uint8",
          "name": "_timeline",
          "type": "uint8"
        },
        {
          "internalType": "uint256",
          "name": "_minFundingAmount",
          "type": "uint256"
        },
        {
          "internalType": "string",
          "name": "_deliverableFormat",
          "type": "string"
        }
      ],
      "name": "createGrant",
      "outputs": [
        {
          "internalType": "address",
          "name": "grantProxy",
          "type": "address"
        }
      ],
      "stateMutability": "nonpayable",
      "type": "function"
    },
    {
      "inputs": [],
      "name": "logicAddress",
      "outputs": [
        {
          "internalType": "address",
          "name": "",
          "type": "address"
        }
      ],
      "stateMutability": "view",
      "type": "function"
    }
  ],
  "bytecode": "0x60a060405234801561001057600080fd5b5060405161188638038061188683398181016040528101906100329190610084565b8073ffffffffffffffffffffffffffffffffffffffff1660808173ffffffffffffffffffffffffffffffffffffffff1660601b81525050506100f6565b60008151905061007e816100df565b92915050565b60006020828403121561009657600080fd5b60006100a48482850161006f565b91505092915050565b60006100b8826100bf565b9050919050565b600073ffffffffffffffffffffffffffffffffffffffff82169050919050565b6100e8816100ad565b81146100f357600080fd5b50565b60805160601c611772610114600039600061019201526117726000f3fe60806040523480156200001157600080fd5b50600436106200003a5760003560e01c80637c230c81146200003f5780639c1fcc4c1462000075575b600080fd5b6200005d600480360381019062000057919062000279565b62000097565b6040516200006c91906200042d565b60405180910390f35b6200007f62000190565b6040516200008e91906200042d565b60405180910390f35b60008888604051602001620000ae9291906200044a565b604051602081830303815290604052805190602001208989898989898989604051620000da90620001b4565b620000ed9897969594939291906200047e565b8190604051809103906000f59050801580156200010e573d6000803e3d6000fd5b5090508873ffffffffffffffffffffffffffffffffffffffff168173ffffffffffffffffffffffffffffffffffffffff167f8e4ad4e89d37bc78c934f5f21ee110bca9c5eb10160ab3875d577bd523483b688a8a8a8a8a8a8a6040516200017c97969594939291906200052f565b60405180910390a398975050505050505050565b7f000000000000000000000000000000000000000000000000000000000000000081565b610f9e806200079f83390190565b6000620001d9620001d384620005f8565b620005cf565b905082815260208101848484011115620001f257600080fd5b620001ff84828562000695565b509392505050565b600081359050620002188162000750565b92915050565b600082601f8301126200023057600080fd5b813562000242848260208601620001c2565b91505092915050565b6000813590506200025c816200076a565b92915050565b600081359050620002738162000784565b92915050565b600080600080600080600080610100898b0312156200029757600080fd5b6000620002a78b828c0162000207565b985050602089013567ffffffffffffffff811115620002c557600080fd5b620002d38b828c016200021e565b975050604089013567ffffffffffffffff811115620002f157600080fd5b620002ff8b828c016200021e565b965050606089013567ffffffffffffffff8111156200031d57600080fd5b6200032b8b828c016200021e565b955050608089013567ffffffffffffffff8111156200034957600080fd5b620003578b828c016200021e565b94505060a06200036a8b828c0162000262565b93505060c06200037d8b828c016200024b565b92505060e089013567ffffffffffffffff8111156200039b57600080fd5b620003a98b828c016200021e565b9150509295985092959890939650565b620003c4816200064a565b82525050565b6000620003d7826200062e565b620003e3818562000639565b9350620003f5818560208601620006a4565b62000400816200073f565b840191505092915050565b62000416816200067e565b82525050565b620004278162000688565b82525050565b6000602082019050620004446000830184620003b9565b92915050565b6000604082019050620004616000830185620003b9565b8181036020830152620004758184620003ca565b90509392505050565b60006101008201905062000496600083018b620003b9565b8181036020830152620004aa818a620003ca565b90508181036040830152620004c08189620003ca565b90508181036060830152620004d68188620003ca565b90508181036080830152620004ec8187620003ca565b9050620004fd60a08301866200041c565b6200050c60c08301856200040b565b81810360e0830152620005208184620003ca565b90509998505050505050505050565b600060e08201905081810360008301526200054b818a620003ca565b90508181036020830152620005618189620003ca565b90508181036040830152620005778188620003ca565b905081810360608301526200058d8187620003ca565b90506200059e60808301866200041c565b620005ad60a08301856200040b565b81810360c0830152620005c18184620003ca565b905098975050505050505050565b6000620005db620005ee565b9050620005e98282620006da565b919050565b6000604051905090565b600067ffffffffffffffff82111562000616576200061562000710565b5b62000621826200073f565b9050602081019050919050565b600081519050919050565b600082825260208201905092915050565b600062000657826200065e565b9050919050565b600073ffffffffffffffffffffffffffffffffffffffff82169050919050565b6000819050919050565b600060ff82169050919050565b82818337600083830152505050565b60005b83811015620006c4578082015181840152602081019050620006a7565b83811115620006d4576000848401525b50505050565b620006e5826200073f565b810181811067ffffffffffffffff8211171562000707576200070662000710565b5b80604052505050565b7f4e487b7100000000000000000000000000000000000000000000000000000000600052604160045260246000fd5b6000601f19601f8301169050919050565b6200075b816200064a565b81146200076757600080fd5b50565b62000775816200067e565b81146200078157600080fd5b50565b6200078f8162000688565b81146200079b57600080fd5b5056fe60806040523480156200001157600080fd5b5060405162000f9e38038062000f9e8339818101604052810190620000379190620003cd565b3373ffffffffffffffffffffffffffffffffffffffff16639c1fcc4c6040518163ffffffff1660e01b8152600401602060405180830381600087803b1580156200008057600080fd5b505af115801562000095573d6000803e3d6000fd5b505050506040513d601f19601f82011682018060405250810190620000bb9190620003a1565b6000806101000a81548173ffffffffffffffffffffffffffffffffffffffff021916908373ffffffffffffffffffffffffffffffffffffffff1602179055508160068190555087600160006101000a81548173ffffffffffffffffffffffffffffffffffffffff021916908373ffffffffffffffffffffffffffffffffffffffff16021790555086600290805190602001906200015a9291906200023a565b508560039080519060200190620001739291906200023a565b5084600490805190602001906200018c9291906200023a565b508360059080519060200190620001a59291906200023a565b508060079080519060200190620001be9291906200023a565b5082600860006101000a81548160ff021916908360ff1602179055506000600860016101000a81548160ff0219169083600381111562000227577f4e487b7100000000000000000000000000000000000000000000000000000000600052602160045260246000fd5b0217905550505050505050505062000716565b8280546200024890620005ed565b90600052602060002090601f0160209004810192826200026c5760008555620002b8565b82601f106200028757805160ff1916838001178555620002b8565b82800160010185558215620002b8579182015b82811115620002b75782518255916020019190600101906200029a565b5b509050620002c79190620002cb565b5090565b5b80821115620002e6576000816000905550600101620002cc565b5090565b600062000301620002fb8462000536565b6200050d565b9050828152602081018484840111156200031a57600080fd5b62000327848285620005b7565b509392505050565b6000815190506200034081620006c8565b92915050565b600082601f8301126200035857600080fd5b81516200036a848260208601620002ea565b91505092915050565b6000815190506200038481620006e2565b92915050565b6000815190506200039b81620006fc565b92915050565b600060208284031215620003b457600080fd5b6000620003c4848285016200032f565b91505092915050565b600080600080600080600080610100898b031215620003eb57600080fd5b6000620003fb8b828c016200032f565b985050602089015167ffffffffffffffff8111156200041957600080fd5b620004278b828c0162000346565b975050604089015167ffffffffffffffff8111156200044557600080fd5b620004538b828c0162000346565b965050606089015167ffffffffffffffff8111156200047157600080fd5b6200047f8b828c0162000346565b955050608089015167ffffffffffffffff8111156200049d57600080fd5b620004ab8b828c0162000346565b94505060a0620004be8b828c016200038a565b93505060c0620004d18b828c0162000373565b92505060e089015167ffffffffffffffff811115620004ef57600080fd5b620004fd8b828c0162000346565b9150509295985092959890939650565b6000620005196200052c565b905062000527828262000623565b919050565b6000604051905090565b600067ffffffffffffffff82111562000554576200055362000688565b5b6200055f82620006b7565b9050602081019050919050565b6000620005798262000580565b9050919050565b600073ffffffffffffffffffffffffffffffffffffffff82169050919050565b6000819050919050565b600060ff82169050919050565b60005b83811015620005d7578082015181840152602081019050620005ba565b83811115620005e7576000848401525b50505050565b600060028204905060018216806200060657607f821691505b602082108114156200061d576200061c62000659565b5b50919050565b6200062e82620006b7565b810181811067ffffffffffffffff8211171562000650576200064f62000688565b5b80604052505050565b7f4e487b7100000000000000000000000000000000000000000000000000000000600052602260045260246000fd5b7f4e487b7100000000000000000000000000000000000000000000000000000000600052604160045260246000fd5b6000601f19601f8301169050919050565b620006d3816200056c565b8114620006df57600080fd5b50565b620006ed81620005a0565b8114620006f957600080fd5b50565b6200070781620005aa565b81146200071357600080fd5b50565b61087880620007266000396000f3fe6080604052600436106100955760003560e01c80639c1fcc4c116100595780639c1fcc4c146101ba578063b25cdccf146101e5578063c791316e14610210578063ce2e67fe1461023b578063ef430aa61461026657610096565b806302d05d3f146100e357806317a5410b1461010e57806317de3a41146101395780634a79d50c146101645780637284e4161461018f57610096565b5b60008060009054906101000a900473ffffffffffffffffffffffffffffffffffffffff16905060405136600082376000803683855af43d806000843e81600081146100df578184f35b8184fd5b3480156100ef57600080fd5b506100f8610291565b6040516101059190610642565b60405180910390f35b34801561011a57600080fd5b506101236102b7565b60405161013091906106b5565b60405180910390f35b34801561014557600080fd5b5061014e6102ca565b60405161015b9190610678565b60405180910390f35b34801561017057600080fd5b50610179610358565b6040516101869190610678565b60405180910390f35b34801561019b57600080fd5b506101a46103e6565b6040516101b19190610678565b60405180910390f35b3480156101c657600080fd5b506101cf610474565b6040516101dc9190610642565b60405180910390f35b3480156101f157600080fd5b506101fa610498565b604051610207919061065d565b60405180910390f35b34801561021c57600080fd5b506102256104ab565b604051610232919061069a565b60405180910390f35b34801561024757600080fd5b506102506104b1565b60405161025d9190610678565b60405180910390f35b34801561027257600080fd5b5061027b61053f565b6040516102889190610678565b60405180910390f35b600160009054906101000a900473ffffffffffffffffffffffffffffffffffffffff1681565b600860009054906101000a900460ff1681565b600580546102d79061078d565b80601f01602080910402602001604051908101604052809291908181526020018280546103039061078d565b80156103505780601f1061032557610100808354040283529160200191610350565b820191906000526020600020905b81548152906001019060200180831161033357829003601f168201915b505050505081565b600280546103659061078d565b80601f01602080910402602001604051908101604052809291908181526020018280546103919061078d565b80156103de5780601f106103b3576101008083540402835291602001916103de565b820191906000526020600020905b8154815290600101906020018083116103c157829003601f168201915b505050505081565b600380546103f39061078d565b80601f016020809104026020016040519081016040528092919081815260200182805461041f9061078d565b801561046c5780601f106104415761010080835404028352916020019161046c565b820191906000526020600020905b81548152906001019060200180831161044f57829003601f168201915b505050505081565b60008054906101000a900473ffffffffffffffffffffffffffffffffffffffff1681565b600860019054906101000a900460ff1681565b60065481565b600780546104be9061078d565b80601f01602080910402602001604051908101604052809291908181526020018280546104ea9061078d565b80156105375780601f1061050c57610100808354040283529160200191610537565b820191906000526020600020905b81548152906001019060200180831161051a57829003601f168201915b505050505081565b6004805461054c9061078d565b80601f01602080910402602001604051908101604052809291908181526020018280546105789061078d565b80156105c55780601f1061059a576101008083540402835291602001916105c5565b820191906000526020600020905b8154815290600101906020018083116105a857829003601f168201915b505050505081565b6105d6816106ec565b82525050565b6105e581610748565b82525050565b60006105f6826106d0565b61060081856106db565b935061061081856020860161075a565b6106198161081d565b840191505092915050565b61062d81610731565b82525050565b61063c8161073b565b82525050565b600060208201905061065760008301846105cd565b92915050565b600060208201905061067260008301846105dc565b92915050565b6000602082019050818103600083015261069281846105eb565b905092915050565b60006020820190506106af6000830184610624565b92915050565b60006020820190506106ca6000830184610633565b92915050565b600081519050919050565b600082825260208201905092915050565b60006106f782610711565b9050919050565b600081905061070c8261082e565b919050565b600073ffffffffffffffffffffffffffffffffffffffff82169050919050565b6000819050919050565b600060ff82169050919050565b6000610753826106fe565b9050919050565b60005b8381101561077857808201518184015260208101905061075d565b83811115610787576000848401525b50505050565b600060028204905060018216806107a557607f821691505b602082108114156107b9576107b86107ee565b5b50919050565b7f4e487b7100000000000000000000000000000000000000000000000000000000600052602160045260246000fd5b7f4e487b7100000000000000000000000000000000000000000000000000000000600052602260045260246000fd5b6000601f19601f8301169050919050565b6004811061083f5761083e6107bf565b5b5056fea26469706673582212203589e7eefcb92b31fb6da15bf61f0b19005576e9fbcd32810f6d089408b51ea264736f6c63430008040033a264697066735822122064278ca3dfea49da086a7b1446ff6f1ab5a3a91f44518f991c90acf47d6a7d4164736f6c63430008040033",
  "linkReferences": {},
  "deployedLinkReferences": {}
}