{
  "_format": "hh-sol-artifact-1",
  "contractName": "SmartArt",
  "sourceName": "contracts/SmartArt.sol",
  "abi": [
    {
      "inputs": [],
      "stateMutability": "nonpayable",
      "type": "constructor"
    },
    {
      "anonymous": false,
      "inputs": [
        {
          "indexed": true,
          "internalType": "address",
          "name": "owner",
          "type": "address"
        },
        {
          "indexed": true,
          "internalType": "address",
          "name": "approved",
          "type": "address"
        },
        {
          "indexed": true,
          "internalType": "uint256",
          "name": "tokenId",
          "type": "uint256"
        }
      ],
      "name": "Approval",
      "type": "event"
    },
    {
      "anonymous": false,
      "inputs": [
        {
          "indexed": true,
          "internalType": "address",
          "name": "owner",
          "type": "address"
        },
        {
          "indexed": true,
          "internalType": "address",
          "name": "operator",
          "type": "address"
        },
        {
          "indexed": false,
          "internalType": "bool",
          "name": "approved",
          "type": "bool"
        }
      ],
      "name": "ApprovalForAll",
      "type": "event"
    },
    {
      "anonymous": false,
      "inputs": [
        {
          "indexed": true,
          "internalType": "address",
          "name": "previousOwner",
          "type": "address"
        },
        {
          "indexed": true,
          "internalType": "address",
          "name": "newOwner",
          "type": "address"
        }
      ],
      "name": "OwnershipTransferred",
      "type": "event"
    },
    {
      "anonymous": false,
      "inputs": [
        {
          "indexed": true,
          "internalType": "address",
          "name": "from",
          "type": "address"
        },
        {
          "indexed": true,
          "internalType": "address",
          "name": "to",
          "type": "address"
        },
        {
          "indexed": true,
          "internalType": "uint256",
          "name": "tokenId",
          "type": "uint256"
        }
      ],
      "name": "Transfer",
      "type": "event"
    },
    {
      "inputs": [
        {
          "internalType": "address",
          "name": "to",
          "type": "address"
        },
        {
          "internalType": "uint256",
          "name": "tokenId",
          "type": "uint256"
        }
      ],
      "name": "approve",
      "outputs": [],
      "stateMutability": "nonpayable",
      "type": "function"
    },
    {
      "inputs": [
        {
          "internalType": "address",
          "name": "owner",
          "type": "address"
        }
      ],
      "name": "balanceOf",
      "outputs": [
        {
          "internalType": "uint256",
          "name": "",
          "type": "uint256"
        }
      ],
      "stateMutability": "view",
      "type": "function"
    },
    {
      "inputs": [
        {
          "internalType": "uint256",
          "name": "tokenId",
          "type": "uint256"
        }
      ],
      "name": "burn",
      "outputs": [],
      "stateMutability": "nonpayable",
      "type": "function"
    },
    {
      "inputs": [
        {
          "internalType": "uint256",
          "name": "tokenId",
          "type": "uint256"
        }
      ],
      "name": "getApproved",
      "outputs": [
        {
          "internalType": "address",
          "name": "",
          "type": "address"
        }
      ],
      "stateMutability": "view",
      "type": "function"
    },
    {
      "inputs": [
        {
          "internalType": "address",
          "name": "owner",
          "type": "address"
        },
        {
          "internalType": "address",
          "name": "operator",
          "type": "address"
        }
      ],
      "name": "isApprovedForAll",
      "outputs": [
        {
          "internalType": "bool",
          "name": "",
          "type": "bool"
        }
      ],
      "stateMutability": "view",
      "type": "function"
    },
    {
      "inputs": [
        {
          "internalType": "address",
          "name": "to",
          "type": "address"
        },
        {
          "internalType": "address",
          "name": "royaltyRecipient",
          "type": "address"
        },
        {
          "internalType": "uint256",
          "name": "royaltyValue",
          "type": "uint256"
        },
        {
          "internalType": "string",
          "name": "uri",
          "type": "string"
        }
      ],
      "name": "mint",
      "outputs": [],
      "stateMutability": "nonpayable",
      "type": "function"
    },
    {
      "inputs": [],
      "name": "name",
      "outputs": [
        {
          "internalType": "string",
          "name": "",
          "type": "string"
        }
      ],
      "stateMutability": "view",
      "type": "function"
    },
    {
      "inputs": [],
      "name": "owner",
      "outputs": [
        {
          "internalType": "address",
          "name": "",
          "type": "address"
        }
      ],
      "stateMutability": "view",
      "type": "function"
    },
    {
      "inputs": [
        {
          "internalType": "uint256",
          "name": "tokenId",
          "type": "uint256"
        }
      ],
      "name": "ownerOf",
      "outputs": [
        {
          "internalType": "address",
          "name": "",
          "type": "address"
        }
      ],
      "stateMutability": "view",
      "type": "function"
    },
    {
      "inputs": [],
      "name": "renounceOwnership",
      "outputs": [],
      "stateMutability": "nonpayable",
      "type": "function"
    },
    {
      "inputs": [
        {
          "internalType": "uint256",
          "name": "tokenId",
          "type": "uint256"
        },
        {
          "internalType": "uint256",
          "name": "value",
          "type": "uint256"
        }
      ],
      "name": "royaltyInfo",
      "outputs": [
        {
          "internalType": "address",
          "name": "receiver",
          "type": "address"
        },
        {
          "internalType": "uint256",
          "name": "royaltyAmount",
          "type": "uint256"
        }
      ],
      "stateMutability": "view",
      "type": "function"
    },
    {
      "inputs": [
        {
          "internalType": "address",
          "name": "from",
          "type": "address"
        },
        {
          "internalType": "address",
          "name": "to",
          "type": "address"
        },
        {
          "internalType": "uint256",
          "name": "tokenId",
          "type": "uint256"
        }
      ],
      "name": "safeTransferFrom",
      "outputs": [],
      "stateMutability": "nonpayable",
      "type": "function"
    },
    {
      "inputs": [
        {
          "internalType": "address",
          "name": "from",
          "type": "address"
        },
        {
          "internalType": "address",
          "name": "to",
          "type": "address"
        },
        {
          "internalType": "uint256",
          "name": "tokenId",
          "type": "uint256"
        },
        {
          "internalType": "bytes",
          "name": "_data",
          "type": "bytes"
        }
      ],
      "name": "safeTransferFrom",
      "outputs": [],
      "stateMutability": "nonpayable",
      "type": "function"
    },
    {
      "inputs": [
        {
          "internalType": "address",
          "name": "operator",
          "type": "address"
        },
        {
          "internalType": "bool",
          "name": "approved",
          "type": "bool"
        }
      ],
      "name": "setApprovalForAll",
      "outputs": [],
      "stateMutability": "nonpayable",
      "type": "function"
    },
    {
      "inputs": [
        {
          "internalType": "bytes4",
          "name": "interfaceId",
          "type": "bytes4"
        }
      ],
      "name": "supportsInterface",
      "outputs": [
        {
          "internalType": "bool",
          "name": "",
          "type": "bool"
        }
      ],
      "stateMutability": "view",
      "type": "function"
    },
    {
      "inputs": [],
      "name": "symbol",
      "outputs": [
        {
          "internalType": "string",
          "name": "",
          "type": "string"
        }
      ],
      "stateMutability": "view",
      "type": "function"
    },
    {
      "inputs": [
        {
          "internalType": "uint256",
          "name": "index",
          "type": "uint256"
        }
      ],
      "name": "tokenByIndex",
      "outputs": [
        {
          "internalType": "uint256",
          "name": "",
          "type": "uint256"
        }
      ],
      "stateMutability": "view",
      "type": "function"
    },
    {
      "inputs": [
        {
          "internalType": "address",
          "name": "owner",
          "type": "address"
        },
        {
          "internalType": "uint256",
          "name": "index",
          "type": "uint256"
        }
      ],
      "name": "tokenOfOwnerByIndex",
      "outputs": [
        {
          "internalType": "uint256",
          "name": "",
          "type": "uint256"
        }
      ],
      "stateMutability": "view",
      "type": "function"
    },
    {
      "inputs": [
        {
          "internalType": "uint256",
          "name": "tokenId",
          "type": "uint256"
        }
      ],
      "name": "tokenURI",
      "outputs": [
        {
          "internalType": "string",
          "name": "",
          "type": "string"
        }
      ],
      "stateMutability": "view",
      "type": "function"
    },
    {
      "inputs": [],
      "name": "totalSupply",
      "outputs": [
        {
          "internalType": "uint256",
          "name": "",
          "type": "uint256"
        }
      ],
      "stateMutability": "view",
      "type": "function"
    },
    {
      "inputs": [
        {
          "internalType": "address",
          "name": "from",
          "type": "address"
        },
        {
          "internalType": "address",
          "name": "to",
          "type": "address"
        },
        {
          "internalType": "uint256",
          "name": "tokenId",
          "type": "uint256"
        }
      ],
      "name": "transferFrom",
      "outputs": [],
      "stateMutability": "nonpayable",
      "type": "function"
    },
    {
      "inputs": [
        {
          "internalType": "address",
          "name": "newOwner",
          "type": "address"
        }
      ],
      "name": "transferOwnership",
      "outputs": [],
      "stateMutability": "nonpayable",
      "type": "function"
    }
  ],
  "bytecode": "0x60806040523480156200001157600080fd5b506040518060400160405280600881526020017f536d6172744172740000000000000000000000000000000000000000000000008152506040518060400160405280600481526020017f4c4f554400000000000000000000000000000000000000000000000000000000815250816000908051906020019062000096929190620001a6565b508060019080519060200190620000af929190620001a6565b505050620000d2620000c6620000d860201b60201c565b620000e060201b60201c565b620002bb565b600033905090565b6000600b60009054906101000a900473ffffffffffffffffffffffffffffffffffffffff16905081600b60006101000a81548173ffffffffffffffffffffffffffffffffffffffff021916908373ffffffffffffffffffffffffffffffffffffffff1602179055508173ffffffffffffffffffffffffffffffffffffffff168173ffffffffffffffffffffffffffffffffffffffff167f8be0079c531659141344cd1fd0a4f28419497f9722a3daafe3b4186f6b6457e060405160405180910390a35050565b828054620001b49062000256565b90600052602060002090601f016020900481019282620001d8576000855562000224565b82601f10620001f357805160ff191683800117855562000224565b8280016001018555821562000224579182015b828111156200022357825182559160200191906001019062000206565b5b50905062000233919062000237565b5090565b5b808211156200025257600081600090555060010162000238565b5090565b600060028204905060018216806200026f57607f821691505b602082108114156200028657620002856200028c565b5b50919050565b7f4e487b7100000000000000000000000000000000000000000000000000000000600052602260045260246000fd5b613f0e80620002cb6000396000f3fe608060405234801561001057600080fd5b50600436106101425760003560e01c80636352211e116100b8578063a22cb4651161007c578063a22cb4651461038a578063b85cbc79146103a6578063b88d4fde146103c2578063c87b56dd146103de578063e985e9c51461040e578063f2fde38b1461043e57610142565b80636352211e146102e457806370a0823114610314578063715018a6146103445780638da5cb5b1461034e57806395d89b411461036c57610142565b806323b872dd1161010a57806323b872dd146101ff5780632a55205a1461021b5780632f745c591461024c57806342842e0e1461027c57806342966c68146102985780634f6ccce7146102b457610142565b806301ffc9a71461014757806306fdde0314610177578063081812fc14610195578063095ea7b3146101c557806318160ddd146101e1575b600080fd5b610161600480360381019061015c9190612b5a565b61045a565b60405161016e91906130a7565b60405180910390f35b61017f61046c565b60405161018c91906130c2565b60405180910390f35b6101af60048036038101906101aa9190612bb4565b6104fe565b6040516101bc9190613017565b60405180910390f35b6101df60048036038101906101da9190612b1a565b610583565b005b6101e961069b565b6040516101f691906133a4565b60405180910390f35b61021960048036038101906102149190612981565b6106a8565b005b61023560048036038101906102309190612be1565b610708565b60405161024392919061307e565b60405180910390f35b61026660048036038101906102619190612b1a565b6107d9565b60405161027391906133a4565b60405180910390f35b61029660048036038101906102919190612981565b61087e565b005b6102b260048036038101906102ad9190612bb4565b61089e565b005b6102ce60048036038101906102c99190612bb4565b6108fa565b6040516102db91906133a4565b60405180910390f35b6102fe60048036038101906102f99190612bb4565b61096b565b60405161030b9190613017565b60405180910390f35b61032e60048036038101906103299190612914565b610a1d565b60405161033b91906133a4565b60405180910390f35b61034c610ad5565b005b610356610b5d565b6040516103639190613017565b60405180910390f35b610374610b87565b60405161038191906130c2565b60405180910390f35b6103a4600480360381019061039f9190612ada565b610c19565b005b6103c060048036038101906103bb9190612a57565b610c2f565b005b6103dc60048036038101906103d791906129d4565b610d03565b005b6103f860048036038101906103f39190612bb4565b610d65565b60405161040591906130c2565b60405180910390f35b61042860048036038101906104239190612941565b610d77565b60405161043591906130a7565b60405180910390f35b61045860048036038101906104539190612914565b610e0b565b005b600061046582610f03565b9050919050565b60606000805461047b90613654565b80601f01602080910402602001604051908101604052809291908181526020018280546104a790613654565b80156104f45780601f106104c9576101008083540402835291602001916104f4565b820191906000526020600020905b8154815290600101906020018083116104d757829003601f168201915b5050505050905090565b600061050982610f7d565b610548576040517f08c379a000000000000000000000000000000000000000000000000000000000815260040161053f906132c4565b60405180910390fd5b6004600083815260200190815260200160002060009054906101000a900473ffffffffffffffffffffffffffffffffffffffff169050919050565b600061058e8261096b565b90508073ffffffffffffffffffffffffffffffffffffffff168373ffffffffffffffffffffffffffffffffffffffff1614156105ff576040517f08c379a00000000000000000000000000000000000000000000000000000000081526004016105f690613324565b60405180910390fd5b8073ffffffffffffffffffffffffffffffffffffffff1661061e610fe9565b73ffffffffffffffffffffffffffffffffffffffff16148061064d575061064c81610647610fe9565b610d77565b5b61068c576040517f08c379a000000000000000000000000000000000000000000000000000000000815260040161068390613204565b60405180910390fd5b6106968383610ff1565b505050565b6000600880549050905090565b6106b96106b3610fe9565b826110aa565b6106f8576040517f08c379a00000000000000000000000000000000000000000000000000000000081526004016106ef90613344565b60405180910390fd5b610703838383611188565b505050565b6000806000600c60008681526020019081526020016000206040518060400160405290816000820160009054906101000a900473ffffffffffffffffffffffffffffffffffffffff1673ffffffffffffffffffffffffffffffffffffffff1673ffffffffffffffffffffffffffffffffffffffff1681526020016000820160149054906101000a900462ffffff1662ffffff1662ffffff1681525050905080600001519250612710816020015162ffffff16856107c59190613510565b6107cf91906134df565b9150509250929050565b60006107e483610a1d565b8210610825576040517f08c379a000000000000000000000000000000000000000000000000000000000815260040161081c90613104565b60405180910390fd5b600660008473ffffffffffffffffffffffffffffffffffffffff1673ffffffffffffffffffffffffffffffffffffffff168152602001908152602001600020600083815260200190815260200160002054905092915050565b61089983838360405180602001604052806000815250610d03565b505050565b6108af6108a9610fe9565b826110aa565b6108ee576040517f08c379a00000000000000000000000000000000000000000000000000000000081526004016108e590613384565b60405180910390fd5b6108f7816113ef565b50565b600061090461069b565b8210610945576040517f08c379a000000000000000000000000000000000000000000000000000000000815260040161093c90613364565b60405180910390fd5b60088281548110610959576109586137ed565b5b90600052602060002001549050919050565b6000806002600084815260200190815260200160002060009054906101000a900473ffffffffffffffffffffffffffffffffffffffff169050600073ffffffffffffffffffffffffffffffffffffffff168173ffffffffffffffffffffffffffffffffffffffff161415610a14576040517f08c379a0000000000000000000000000000000000000000000000000000000008152600401610a0b90613244565b60405180910390fd5b80915050919050565b60008073ffffffffffffffffffffffffffffffffffffffff168273ffffffffffffffffffffffffffffffffffffffff161415610a8e576040517f08c379a0000000000000000000000000000000000000000000000000000000008152600401610a8590613224565b60405180910390fd5b600360008373ffffffffffffffffffffffffffffffffffffffff1673ffffffffffffffffffffffffffffffffffffffff168152602001908152602001600020549050919050565b610add610fe9565b73ffffffffffffffffffffffffffffffffffffffff16610afb610b5d565b73ffffffffffffffffffffffffffffffffffffffff1614610b51576040517f08c379a0000000000000000000000000000000000000000000000000000000008152600401610b48906132e4565b60405180910390fd5b610b5b60006113fb565b565b6000600b60009054906101000a900473ffffffffffffffffffffffffffffffffffffffff16905090565b606060018054610b9690613654565b80601f0160208091040260200160405190810160405280929190818152602001828054610bc290613654565b8015610c0f5780601f10610be457610100808354040283529160200191610c0f565b820191906000526020600020905b815481529060010190602001808311610bf257829003601f168201915b5050505050905090565b610c2b610c24610fe9565b83836114c1565b5050565b610c37610fe9565b73ffffffffffffffffffffffffffffffffffffffff16610c55610b5d565b73ffffffffffffffffffffffffffffffffffffffff1614610cab576040517f08c379a0000000000000000000000000000000000000000000000000000000008152600401610ca2906132e4565b60405180910390fd5b6000610cb7600d61162e565b9050610cc3600d61163c565b610cdd858260405180602001604052806000815250611652565b610ce781836116ad565b6000831115610cfc57610cfb818585611721565b5b5050505050565b610d14610d0e610fe9565b836110aa565b610d53576040517f08c379a0000000000000000000000000000000000000000000000000000000008152600401610d4a90613344565b60405180910390fd5b610d5f8484848461181d565b50505050565b6060610d7082611879565b9050919050565b6000600560008473ffffffffffffffffffffffffffffffffffffffff1673ffffffffffffffffffffffffffffffffffffffff16815260200190815260200160002060008373ffffffffffffffffffffffffffffffffffffffff1673ffffffffffffffffffffffffffffffffffffffff16815260200190815260200160002060009054906101000a900460ff16905092915050565b610e13610fe9565b73ffffffffffffffffffffffffffffffffffffffff16610e31610b5d565b73ffffffffffffffffffffffffffffffffffffffff1614610e87576040517f08c379a0000000000000000000000000000000000000000000000000000000008152600401610e7e906132e4565b60405180910390fd5b600073ffffffffffffffffffffffffffffffffffffffff168173ffffffffffffffffffffffffffffffffffffffff161415610ef7576040517f08c379a0000000000000000000000000000000000000000000000000000000008152600401610eee90613144565b60405180910390fd5b610f00816113fb565b50565b60007f2a55205a000000000000000000000000000000000000000000000000000000007bffffffffffffffffffffffffffffffffffffffffffffffffffffffff1916827bffffffffffffffffffffffffffffffffffffffffffffffffffffffff19161480610f765750610f75826119cb565b5b9050919050565b60008073ffffffffffffffffffffffffffffffffffffffff166002600084815260200190815260200160002060009054906101000a900473ffffffffffffffffffffffffffffffffffffffff1673ffffffffffffffffffffffffffffffffffffffff1614159050919050565b600033905090565b816004600083815260200190815260200160002060006101000a81548173ffffffffffffffffffffffffffffffffffffffff021916908373ffffffffffffffffffffffffffffffffffffffff160217905550808273ffffffffffffffffffffffffffffffffffffffff166110648361096b565b73ffffffffffffffffffffffffffffffffffffffff167f8c5be1e5ebec7d5bd14f71427d1e84f3dd0314c0f7b2291e5b200ac8c7c3b92560405160405180910390a45050565b60006110b582610f7d565b6110f4576040517f08c379a00000000000000000000000000000000000000000000000000000000081526004016110eb906131e4565b60405180910390fd5b60006110ff8361096b565b90508073ffffffffffffffffffffffffffffffffffffffff168473ffffffffffffffffffffffffffffffffffffffff16148061116e57508373ffffffffffffffffffffffffffffffffffffffff16611156846104fe565b73ffffffffffffffffffffffffffffffffffffffff16145b8061117f575061117e8185610d77565b5b91505092915050565b8273ffffffffffffffffffffffffffffffffffffffff166111a88261096b565b73ffffffffffffffffffffffffffffffffffffffff16146111fe576040517f08c379a00000000000000000000000000000000000000000000000000000000081526004016111f590613164565b60405180910390fd5b600073ffffffffffffffffffffffffffffffffffffffff168273ffffffffffffffffffffffffffffffffffffffff16141561126e576040517f08c379a0000000000000000000000000000000000000000000000000000000008152600401611265906131a4565b60405180910390fd5b611279838383611a45565b611284600082610ff1565b6001600360008573ffffffffffffffffffffffffffffffffffffffff1673ffffffffffffffffffffffffffffffffffffffff16815260200190815260200160002060008282546112d4919061356a565b925050819055506001600360008473ffffffffffffffffffffffffffffffffffffffff1673ffffffffffffffffffffffffffffffffffffffff168152602001908152602001600020600082825461132b9190613489565b92505081905550816002600083815260200190815260200160002060006101000a81548173ffffffffffffffffffffffffffffffffffffffff021916908373ffffffffffffffffffffffffffffffffffffffff160217905550808273ffffffffffffffffffffffffffffffffffffffff168473ffffffffffffffffffffffffffffffffffffffff167fddf252ad1be2c89b69c2b068fc378daa952ba7f163c4a11628f55a4df523b3ef60405160405180910390a46113ea838383611a55565b505050565b6113f881611a5a565b50565b6000600b60009054906101000a900473ffffffffffffffffffffffffffffffffffffffff16905081600b60006101000a81548173ffffffffffffffffffffffffffffffffffffffff021916908373ffffffffffffffffffffffffffffffffffffffff1602179055508173ffffffffffffffffffffffffffffffffffffffff168173ffffffffffffffffffffffffffffffffffffffff167f8be0079c531659141344cd1fd0a4f28419497f9722a3daafe3b4186f6b6457e060405160405180910390a35050565b8173ffffffffffffffffffffffffffffffffffffffff168373ffffffffffffffffffffffffffffffffffffffff161415611530576040517f08c379a0000000000000000000000000000000000000000000000000000000008152600401611527906131c4565b60405180910390fd5b80600560008573ffffffffffffffffffffffffffffffffffffffff1673ffffffffffffffffffffffffffffffffffffffff16815260200190815260200160002060008473ffffffffffffffffffffffffffffffffffffffff1673ffffffffffffffffffffffffffffffffffffffff16815260200190815260200160002060006101000a81548160ff0219169083151502179055508173ffffffffffffffffffffffffffffffffffffffff168373ffffffffffffffffffffffffffffffffffffffff167f17307eab39ab6107e8899845ad3d59bd9653f200f220920489ca2b5937696c318360405161162191906130a7565b60405180910390a3505050565b600081600001549050919050565b6001816000016000828254019250508190555050565b61165c8383611aad565b6116696000848484611c87565b6116a8576040517f08c379a000000000000000000000000000000000000000000000000000000000815260040161169f90613124565b60405180910390fd5b505050565b6116b682610f7d565b6116f5576040517f08c379a00000000000000000000000000000000000000000000000000000000081526004016116ec90613264565b60405180910390fd5b80600a6000848152602001908152602001600020908051906020019061171c9291906126e8565b505050565b612710811115611766576040517f08c379a000000000000000000000000000000000000000000000000000000000815260040161175d906130e4565b60405180910390fd5b60405180604001604052808373ffffffffffffffffffffffffffffffffffffffff1681526020018262ffffff16815250600c600085815260200190815260200160002060008201518160000160006101000a81548173ffffffffffffffffffffffffffffffffffffffff021916908373ffffffffffffffffffffffffffffffffffffffff16021790555060208201518160000160146101000a81548162ffffff021916908362ffffff160217905550905050505050565b611828848484611188565b61183484848484611c87565b611873576040517f08c379a000000000000000000000000000000000000000000000000000000000815260040161186a90613124565b60405180910390fd5b50505050565b606061188482610f7d565b6118c3576040517f08c379a00000000000000000000000000000000000000000000000000000000081526004016118ba906132a4565b60405180910390fd5b6000600a600084815260200190815260200160002080546118e390613654565b80601f016020809104026020016040519081016040528092919081815260200182805461190f90613654565b801561195c5780601f106119315761010080835404028352916020019161195c565b820191906000526020600020905b81548152906001019060200180831161193f57829003601f168201915b50505050509050600061196d611e1e565b90506000815114156119835781925050506119c6565b6000825111156119b85780826040516020016119a0929190612ff3565b604051602081830303815290604052925050506119c6565b6119c184611e35565b925050505b919050565b60007f780e9d63000000000000000000000000000000000000000000000000000000007bffffffffffffffffffffffffffffffffffffffffffffffffffffffff1916827bffffffffffffffffffffffffffffffffffffffffffffffffffffffff19161480611a3e5750611a3d82611edc565b5b9050919050565b611a50838383611fbe565b505050565b505050565b611a63816120d2565b6000600a60008381526020019081526020016000208054611a8390613654565b905014611aaa57600a60008281526020019081526020016000206000611aa9919061276e565b5b50565b600073ffffffffffffffffffffffffffffffffffffffff168273ffffffffffffffffffffffffffffffffffffffff161415611b1d576040517f08c379a0000000000000000000000000000000000000000000000000000000008152600401611b1490613284565b60405180910390fd5b611b2681610f7d565b15611b66576040517f08c379a0000000000000000000000000000000000000000000000000000000008152600401611b5d90613184565b60405180910390fd5b611b7260008383611a45565b6001600360008473ffffffffffffffffffffffffffffffffffffffff1673ffffffffffffffffffffffffffffffffffffffff1681526020019081526020016000206000828254611bc29190613489565b92505081905550816002600083815260200190815260200160002060006101000a81548173ffffffffffffffffffffffffffffffffffffffff021916908373ffffffffffffffffffffffffffffffffffffffff160217905550808273ffffffffffffffffffffffffffffffffffffffff16600073ffffffffffffffffffffffffffffffffffffffff167fddf252ad1be2c89b69c2b068fc378daa952ba7f163c4a11628f55a4df523b3ef60405160405180910390a4611c8360008383611a55565b5050565b6000611ca88473ffffffffffffffffffffffffffffffffffffffff166121ef565b15611e11578373ffffffffffffffffffffffffffffffffffffffff1663150b7a02611cd1610fe9565b8786866040518563ffffffff1660e01b8152600401611cf39493929190613032565b602060405180830381600087803b158015611d0d57600080fd5b505af1925050508015611d3e57506040513d601f19601f82011682018060405250810190611d3b9190612b87565b60015b611dc1573d8060008114611d6e576040519150601f19603f3d011682016040523d82523d6000602084013e611d73565b606091505b50600081511415611db9576040517f08c379a0000000000000000000000000000000000000000000000000000000008152600401611db090613124565b60405180910390fd5b805181602001fd5b63150b7a0260e01b7bffffffffffffffffffffffffffffffffffffffffffffffffffffffff1916817bffffffffffffffffffffffffffffffffffffffffffffffffffffffff191614915050611e16565b600190505b949350505050565b606060405180602001604052806000815250905090565b6060611e4082610f7d565b611e7f576040517f08c379a0000000000000000000000000000000000000000000000000000000008152600401611e7690613304565b60405180910390fd5b6000611e89611e1e565b90506000815111611ea95760405180602001604052806000815250611ed4565b80611eb384612212565b604051602001611ec4929190612ff3565b6040516020818303038152906040525b915050919050565b60007f80ac58cd000000000000000000000000000000000000000000000000000000007bffffffffffffffffffffffffffffffffffffffffffffffffffffffff1916827bffffffffffffffffffffffffffffffffffffffffffffffffffffffff19161480611fa757507f5b5e139f000000000000000000000000000000000000000000000000000000007bffffffffffffffffffffffffffffffffffffffffffffffffffffffff1916827bffffffffffffffffffffffffffffffffffffffffffffffffffffffff1916145b80611fb75750611fb682612373565b5b9050919050565b611fc98383836123dd565b600073ffffffffffffffffffffffffffffffffffffffff168373ffffffffffffffffffffffffffffffffffffffff16141561200c57612007816123e2565b61204b565b8173ffffffffffffffffffffffffffffffffffffffff168373ffffffffffffffffffffffffffffffffffffffff161461204a57612049838261242b565b5b5b600073ffffffffffffffffffffffffffffffffffffffff168273ffffffffffffffffffffffffffffffffffffffff16141561208e5761208981612598565b6120cd565b8273ffffffffffffffffffffffffffffffffffffffff168273ffffffffffffffffffffffffffffffffffffffff16146120cc576120cb8282612669565b5b5b505050565b60006120dd8261096b565b90506120eb81600084611a45565b6120f6600083610ff1565b6001600360008373ffffffffffffffffffffffffffffffffffffffff1673ffffffffffffffffffffffffffffffffffffffff1681526020019081526020016000206000828254612146919061356a565b925050819055506002600083815260200190815260200160002060006101000a81549073ffffffffffffffffffffffffffffffffffffffff021916905581600073ffffffffffffffffffffffffffffffffffffffff168273ffffffffffffffffffffffffffffffffffffffff167fddf252ad1be2c89b69c2b068fc378daa952ba7f163c4a11628f55a4df523b3ef60405160405180910390a46121eb81600084611a55565b5050565b6000808273ffffffffffffffffffffffffffffffffffffffff163b119050919050565b6060600082141561225a576040518060400160405280600181526020017f3000000000000000000000000000000000000000000000000000000000000000815250905061236e565b600082905060005b6000821461228c578080612275906136b7565b915050600a8261228591906134df565b9150612262565b60008167ffffffffffffffff8111156122a8576122a761381c565b5b6040519080825280601f01601f1916602001820160405280156122da5781602001600182028036833780820191505090505b5090505b60008514612367576001826122f3919061356a565b9150600a856123029190613700565b603061230e9190613489565b60f81b818381518110612324576123236137ed565b5b60200101907effffffffffffffffffffffffffffffffffffffffffffffffffffffffffffff1916908160001a905350600a8561236091906134df565b94506122de565b8093505050505b919050565b60007f01ffc9a7000000000000000000000000000000000000000000000000000000007bffffffffffffffffffffffffffffffffffffffffffffffffffffffff1916827bffffffffffffffffffffffffffffffffffffffffffffffffffffffff1916149050919050565b505050565b6008805490506009600083815260200190815260200160002081905550600881908060018154018082558091505060019003906000526020600020016000909190919091505550565b6000600161243884610a1d565b612442919061356a565b9050600060076000848152602001908152602001600020549050818114612527576000600660008673ffffffffffffffffffffffffffffffffffffffff1673ffffffffffffffffffffffffffffffffffffffff168152602001908152602001600020600084815260200190815260200160002054905080600660008773ffffffffffffffffffffffffffffffffffffffff1673ffffffffffffffffffffffffffffffffffffffff168152602001908152602001600020600084815260200190815260200160002081905550816007600083815260200190815260200160002081905550505b6007600084815260200190815260200160002060009055600660008573ffffffffffffffffffffffffffffffffffffffff1673ffffffffffffffffffffffffffffffffffffffff16815260200190815260200160002060008381526020019081526020016000206000905550505050565b600060016008805490506125ac919061356a565b90506000600960008481526020019081526020016000205490506000600883815481106125dc576125db6137ed565b5b9060005260206000200154905080600883815481106125fe576125fd6137ed565b5b90600052602060002001819055508160096000838152602001908152602001600020819055506009600085815260200190815260200160002060009055600880548061264d5761264c6137be565b5b6001900381819060005260206000200160009055905550505050565b600061267483610a1d565b905081600660008573ffffffffffffffffffffffffffffffffffffffff1673ffffffffffffffffffffffffffffffffffffffff168152602001908152602001600020600083815260200190815260200160002081905550806007600084815260200190815260200160002081905550505050565b8280546126f490613654565b90600052602060002090601f016020900481019282612716576000855561275d565b82601f1061272f57805160ff191683800117855561275d565b8280016001018555821561275d579182015b8281111561275c578251825591602001919060010190612741565b5b50905061276a91906127ae565b5090565b50805461277a90613654565b6000825580601f1061278c57506127ab565b601f0160209004906000526020600020908101906127aa91906127ae565b5b50565b5b808211156127c75760008160009055506001016127af565b5090565b60006127de6127d9846133e4565b6133bf565b9050828152602081018484840111156127fa576127f9613850565b5b612805848285613612565b509392505050565b600061282061281b84613415565b6133bf565b90508281526020810184848401111561283c5761283b613850565b5b612847848285613612565b509392505050565b60008135905061285e81613e7c565b92915050565b60008135905061287381613e93565b92915050565b60008135905061288881613eaa565b92915050565b60008151905061289d81613eaa565b92915050565b600082601f8301126128b8576128b761384b565b5b81356128c88482602086016127cb565b91505092915050565b600082601f8301126128e6576128e561384b565b5b81356128f684826020860161280d565b91505092915050565b60008135905061290e81613ec1565b92915050565b60006020828403121561292a5761292961385a565b5b60006129388482850161284f565b91505092915050565b600080604083850312156129585761295761385a565b5b60006129668582860161284f565b92505060206129778582860161284f565b9150509250929050565b60008060006060848603121561299a5761299961385a565b5b60006129a88682870161284f565b93505060206129b98682870161284f565b92505060406129ca868287016128ff565b9150509250925092565b600080600080608085870312156129ee576129ed61385a565b5b60006129fc8782880161284f565b9450506020612a0d8782880161284f565b9350506040612a1e878288016128ff565b925050606085013567ffffffffffffffff811115612a3f57612a3e613855565b5b612a4b878288016128a3565b91505092959194509250565b60008060008060808587031215612a7157612a7061385a565b5b6000612a7f8782880161284f565b9450506020612a908782880161284f565b9350506040612aa1878288016128ff565b925050606085013567ffffffffffffffff811115612ac257612ac1613855565b5b612ace878288016128d1565b91505092959194509250565b60008060408385031215612af157612af061385a565b5b6000612aff8582860161284f565b9250506020612b1085828601612864565b9150509250929050565b60008060408385031215612b3157612b3061385a565b5b6000612b3f8582860161284f565b9250506020612b50858286016128ff565b9150509250929050565b600060208284031215612b7057612b6f61385a565b5b6000612b7e84828501612879565b91505092915050565b600060208284031215612b9d57612b9c61385a565b5b6000612bab8482850161288e565b91505092915050565b600060208284031215612bca57612bc961385a565b5b6000612bd8848285016128ff565b91505092915050565b60008060408385031215612bf857612bf761385a565b5b6000612c06858286016128ff565b9250506020612c17858286016128ff565b9150509250929050565b612c2a8161359e565b82525050565b612c39816135b0565b82525050565b6000612c4a82613446565b612c54818561345c565b9350612c64818560208601613621565b612c6d8161385f565b840191505092915050565b6000612c8382613451565b612c8d818561346d565b9350612c9d818560208601613621565b612ca68161385f565b840191505092915050565b6000612cbc82613451565b612cc6818561347e565b9350612cd6818560208601613621565b80840191505092915050565b6000612cef601a8361346d565b9150612cfa82613870565b602082019050919050565b6000612d12602b8361346d565b9150612d1d82613899565b604082019050919050565b6000612d3560328361346d565b9150612d40826138e8565b604082019050919050565b6000612d5860268361346d565b9150612d6382613937565b604082019050919050565b6000612d7b60258361346d565b9150612d8682613986565b604082019050919050565b6000612d9e601c8361346d565b9150612da9826139d5565b602082019050919050565b6000612dc160248361346d565b9150612dcc826139fe565b604082019050919050565b6000612de460198361346d565b9150612def82613a4d565b602082019050919050565b6000612e07602c8361346d565b9150612e1282613a76565b604082019050919050565b6000612e2a60388361346d565b9150612e3582613ac5565b604082019050919050565b6000612e4d602a8361346d565b9150612e5882613b14565b604082019050919050565b6000612e7060298361346d565b9150612e7b82613b63565b604082019050919050565b6000612e93602e8361346d565b9150612e9e82613bb2565b604082019050919050565b6000612eb660208361346d565b9150612ec182613c01565b602082019050919050565b6000612ed960318361346d565b9150612ee482613c2a565b604082019050919050565b6000612efc602c8361346d565b9150612f0782613c79565b604082019050919050565b6000612f1f60208361346d565b9150612f2a82613cc8565b602082019050919050565b6000612f42602f8361346d565b9150612f4d82613cf1565b604082019050919050565b6000612f6560218361346d565b9150612f7082613d40565b604082019050919050565b6000612f8860318361346d565b9150612f9382613d8f565b604082019050919050565b6000612fab602c8361346d565b9150612fb682613dde565b604082019050919050565b6000612fce60308361346d565b9150612fd982613e2d565b604082019050919050565b612fed81613608565b82525050565b6000612fff8285612cb1565b915061300b8284612cb1565b91508190509392505050565b600060208201905061302c6000830184612c21565b92915050565b60006080820190506130476000830187612c21565b6130546020830186612c21565b6130616040830185612fe4565b81810360608301526130738184612c3f565b905095945050505050565b60006040820190506130936000830185612c21565b6130a06020830184612fe4565b9392505050565b60006020820190506130bc6000830184612c30565b92915050565b600060208201905081810360008301526130dc8184612c78565b905092915050565b600060208201905081810360008301526130fd81612ce2565b9050919050565b6000602082019050818103600083015261311d81612d05565b9050919050565b6000602082019050818103600083015261313d81612d28565b9050919050565b6000602082019050818103600083015261315d81612d4b565b9050919050565b6000602082019050818103600083015261317d81612d6e565b9050919050565b6000602082019050818103600083015261319d81612d91565b9050919050565b600060208201905081810360008301526131bd81612db4565b9050919050565b600060208201905081810360008301526131dd81612dd7565b9050919050565b600060208201905081810360008301526131fd81612dfa565b9050919050565b6000602082019050818103600083015261321d81612e1d565b9050919050565b6000602082019050818103600083015261323d81612e40565b9050919050565b6000602082019050818103600083015261325d81612e63565b9050919050565b6000602082019050818103600083015261327d81612e86565b9050919050565b6000602082019050818103600083015261329d81612ea9565b9050919050565b600060208201905081810360008301526132bd81612ecc565b9050919050565b600060208201905081810360008301526132dd81612eef565b9050919050565b600060208201905081810360008301526132fd81612f12565b9050919050565b6000602082019050818103600083015261331d81612f35565b9050919050565b6000602082019050818103600083015261333d81612f58565b9050919050565b6000602082019050818103600083015261335d81612f7b565b9050919050565b6000602082019050818103600083015261337d81612f9e565b9050919050565b6000602082019050818103600083015261339d81612fc1565b9050919050565b60006020820190506133b96000830184612fe4565b92915050565b60006133c96133da565b90506133d58282613686565b919050565b6000604051905090565b600067ffffffffffffffff8211156133ff576133fe61381c565b5b6134088261385f565b9050602081019050919050565b600067ffffffffffffffff8211156134305761342f61381c565b5b6134398261385f565b9050602081019050919050565b600081519050919050565b600081519050919050565b600082825260208201905092915050565b600082825260208201905092915050565b600081905092915050565b600061349482613608565b915061349f83613608565b9250827fffffffffffffffffffffffffffffffffffffffffffffffffffffffffffffffff038211156134d4576134d3613731565b5b828201905092915050565b60006134ea82613608565b91506134f583613608565b92508261350557613504613760565b5b828204905092915050565b600061351b82613608565b915061352683613608565b9250817fffffffffffffffffffffffffffffffffffffffffffffffffffffffffffffffff048311821515161561355f5761355e613731565b5b828202905092915050565b600061357582613608565b915061358083613608565b92508282101561359357613592613731565b5b828203905092915050565b60006135a9826135e8565b9050919050565b60008115159050919050565b60007fffffffff0000000000000000000000000000000000000000000000000000000082169050919050565b600073ffffffffffffffffffffffffffffffffffffffff82169050919050565b6000819050919050565b82818337600083830152505050565b60005b8381101561363f578082015181840152602081019050613624565b8381111561364e576000848401525b50505050565b6000600282049050600182168061366c57607f821691505b602082108114156136805761367f61378f565b5b50919050565b61368f8261385f565b810181811067ffffffffffffffff821117156136ae576136ad61381c565b5b80604052505050565b60006136c282613608565b91507fffffffffffffffffffffffffffffffffffffffffffffffffffffffffffffffff8214156136f5576136f4613731565b5b600182019050919050565b600061370b82613608565b915061371683613608565b92508261372657613725613760565b5b828206905092915050565b7f4e487b7100000000000000000000000000000000000000000000000000000000600052601160045260246000fd5b7f4e487b7100000000000000000000000000000000000000000000000000000000600052601260045260246000fd5b7f4e487b7100000000000000000000000000000000000000000000000000000000600052602260045260246000fd5b7f4e487b7100000000000000000000000000000000000000000000000000000000600052603160045260246000fd5b7f4e487b7100000000000000000000000000000000000000000000000000000000600052603260045260246000fd5b7f4e487b7100000000000000000000000000000000000000000000000000000000600052604160045260246000fd5b600080fd5b600080fd5b600080fd5b600080fd5b6000601f19601f8301169050919050565b7f45524332393831526f79616c746965733a20546f6f2068696768000000000000600082015250565b7f455243373231456e756d657261626c653a206f776e657220696e646578206f7560008201527f74206f6620626f756e6473000000000000000000000000000000000000000000602082015250565b7f4552433732313a207472616e7366657220746f206e6f6e20455243373231526560008201527f63656976657220696d706c656d656e7465720000000000000000000000000000602082015250565b7f4f776e61626c653a206e6577206f776e657220697320746865207a65726f206160008201527f6464726573730000000000000000000000000000000000000000000000000000602082015250565b7f4552433732313a207472616e736665722066726f6d20696e636f72726563742060008201527f6f776e6572000000000000000000000000000000000000000000000000000000602082015250565b7f4552433732313a20746f6b656e20616c7265616479206d696e74656400000000600082015250565b7f4552433732313a207472616e7366657220746f20746865207a65726f2061646460008201527f7265737300000000000000000000000000000000000000000000000000000000602082015250565b7f4552433732313a20617070726f766520746f2063616c6c657200000000000000600082015250565b7f4552433732313a206f70657261746f7220717565727920666f72206e6f6e657860008201527f697374656e7420746f6b656e0000000000000000000000000000000000000000602082015250565b7f4552433732313a20617070726f76652063616c6c6572206973206e6f74206f7760008201527f6e6572206e6f7220617070726f76656420666f7220616c6c0000000000000000602082015250565b7f4552433732313a2062616c616e636520717565727920666f7220746865207a6560008201527f726f206164647265737300000000000000000000000000000000000000000000602082015250565b7f4552433732313a206f776e657220717565727920666f72206e6f6e657869737460008201527f656e7420746f6b656e0000000000000000000000000000000000000000000000602082015250565b7f45524337323155524953746f726167653a2055524920736574206f66206e6f6e60008201527f6578697374656e7420746f6b656e000000000000000000000000000000000000602082015250565b7f4552433732313a206d696e7420746f20746865207a65726f2061646472657373600082015250565b7f45524337323155524953746f726167653a2055524920717565727920666f722060008201527f6e6f6e6578697374656e7420746f6b656e000000000000000000000000000000602082015250565b7f4552433732313a20617070726f76656420717565727920666f72206e6f6e657860008201527f697374656e7420746f6b656e0000000000000000000000000000000000000000602082015250565b7f4f776e61626c653a2063616c6c6572206973206e6f7420746865206f776e6572600082015250565b7f4552433732314d657461646174613a2055524920717565727920666f72206e6f60008201527f6e6578697374656e7420746f6b656e0000000000000000000000000000000000602082015250565b7f4552433732313a20617070726f76616c20746f2063757272656e74206f776e6560008201527f7200000000000000000000000000000000000000000000000000000000000000602082015250565b7f4552433732313a207472616e736665722063616c6c6572206973206e6f74206f60008201527f776e6572206e6f7220617070726f766564000000000000000000000000000000602082015250565b7f455243373231456e756d657261626c653a20676c6f62616c20696e646578206f60008201527f7574206f6620626f756e64730000000000000000000000000000000000000000602082015250565b7f4552433732314275726e61626c653a2063616c6c6572206973206e6f74206f7760008201527f6e6572206e6f7220617070726f76656400000000000000000000000000000000602082015250565b613e858161359e565b8114613e9057600080fd5b50565b613e9c816135b0565b8114613ea757600080fd5b50565b613eb3816135bc565b8114613ebe57600080fd5b50565b613eca81613608565b8114613ed557600080fd5b5056fea2646970667358221220464d1d04c62c48e409846d4c701d1cce5426f2319aa52fc9751eb8ce7214a7dd64736f6c63430008070033",
  "linkReferences": {},
  "deployedLinkReferences": {}
}