{
  "_format": "hh-sol-artifact-1",
  "contractName": "SmartArt",
  "sourceName": "contracts/SmartArt.sol",
  "abi": [
    {
      "inputs": [],
      "stateMutability": "nonpayable",
      "type": "constructor"
    },
    {
      "anonymous": false,
      "inputs": [
        {
          "indexed": true,
          "internalType": "address",
          "name": "owner",
          "type": "address"
        },
        {
          "indexed": true,
          "internalType": "address",
          "name": "approved",
          "type": "address"
        },
        {
          "indexed": true,
          "internalType": "uint256",
          "name": "tokenId",
          "type": "uint256"
        }
      ],
      "name": "Approval",
      "type": "event"
    },
    {
      "anonymous": false,
      "inputs": [
        {
          "indexed": true,
          "internalType": "address",
          "name": "owner",
          "type": "address"
        },
        {
          "indexed": true,
          "internalType": "address",
          "name": "operator",
          "type": "address"
        },
        {
          "indexed": false,
          "internalType": "bool",
          "name": "approved",
          "type": "bool"
        }
      ],
      "name": "ApprovalForAll",
      "type": "event"
    },
    {
      "anonymous": false,
      "inputs": [
        {
          "indexed": true,
          "internalType": "address",
          "name": "previousOwner",
          "type": "address"
        },
        {
          "indexed": true,
          "internalType": "address",
          "name": "newOwner",
          "type": "address"
        }
      ],
      "name": "OwnershipTransferred",
      "type": "event"
    },
    {
      "anonymous": false,
      "inputs": [
        {
          "indexed": true,
          "internalType": "address",
          "name": "from",
          "type": "address"
        },
        {
          "indexed": true,
          "internalType": "address",
          "name": "to",
          "type": "address"
        },
        {
          "indexed": true,
          "internalType": "uint256",
          "name": "tokenId",
          "type": "uint256"
        }
      ],
      "name": "Transfer",
      "type": "event"
    },
    {
      "inputs": [
        {
          "internalType": "address",
          "name": "to",
          "type": "address"
        },
        {
          "internalType": "uint256",
          "name": "tokenId",
          "type": "uint256"
        }
      ],
      "name": "approve",
      "outputs": [],
      "stateMutability": "nonpayable",
      "type": "function"
    },
    {
      "inputs": [
        {
          "internalType": "address",
          "name": "owner",
          "type": "address"
        }
      ],
      "name": "balanceOf",
      "outputs": [
        {
          "internalType": "uint256",
          "name": "",
          "type": "uint256"
        }
      ],
      "stateMutability": "view",
      "type": "function"
    },
    {
      "inputs": [
        {
          "internalType": "uint256",
          "name": "tokenId",
          "type": "uint256"
        }
      ],
      "name": "burn",
      "outputs": [],
      "stateMutability": "nonpayable",
      "type": "function"
    },
    {
      "inputs": [
        {
          "internalType": "uint256",
          "name": "tokenId",
          "type": "uint256"
        }
      ],
      "name": "getApproved",
      "outputs": [
        {
          "internalType": "address",
          "name": "",
          "type": "address"
        }
      ],
      "stateMutability": "view",
      "type": "function"
    },
    {
      "inputs": [
        {
          "internalType": "address",
          "name": "owner",
          "type": "address"
        },
        {
          "internalType": "address",
          "name": "operator",
          "type": "address"
        }
      ],
      "name": "isApprovedForAll",
      "outputs": [
        {
          "internalType": "bool",
          "name": "",
          "type": "bool"
        }
      ],
      "stateMutability": "view",
      "type": "function"
    },
    {
      "inputs": [
        {
          "internalType": "address",
          "name": "to",
          "type": "address"
        },
        {
          "internalType": "address",
          "name": "royaltyRecipient",
          "type": "address"
        },
        {
          "internalType": "uint256",
          "name": "royaltyValue",
          "type": "uint256"
        },
        {
          "internalType": "string",
          "name": "uri",
          "type": "string"
        }
      ],
      "name": "mint",
      "outputs": [],
      "stateMutability": "nonpayable",
      "type": "function"
    },
    {
      "inputs": [],
      "name": "name",
      "outputs": [
        {
          "internalType": "string",
          "name": "",
          "type": "string"
        }
      ],
      "stateMutability": "view",
      "type": "function"
    },
    {
      "inputs": [],
      "name": "owner",
      "outputs": [
        {
          "internalType": "address",
          "name": "",
          "type": "address"
        }
      ],
      "stateMutability": "view",
      "type": "function"
    },
    {
      "inputs": [
        {
          "internalType": "uint256",
          "name": "tokenId",
          "type": "uint256"
        }
      ],
      "name": "ownerOf",
      "outputs": [
        {
          "internalType": "address",
          "name": "",
          "type": "address"
        }
      ],
      "stateMutability": "view",
      "type": "function"
    },
    {
      "inputs": [],
      "name": "renounceOwnership",
      "outputs": [],
      "stateMutability": "nonpayable",
      "type": "function"
    },
    {
      "inputs": [
        {
          "internalType": "uint256",
          "name": "tokenId",
          "type": "uint256"
        },
        {
          "internalType": "uint256",
          "name": "value",
          "type": "uint256"
        }
      ],
      "name": "royaltyInfo",
      "outputs": [
        {
          "internalType": "address",
          "name": "receiver",
          "type": "address"
        },
        {
          "internalType": "uint256",
          "name": "royaltyAmount",
          "type": "uint256"
        }
      ],
      "stateMutability": "view",
      "type": "function"
    },
    {
      "inputs": [
        {
          "internalType": "address",
          "name": "from",
          "type": "address"
        },
        {
          "internalType": "address",
          "name": "to",
          "type": "address"
        },
        {
          "internalType": "uint256",
          "name": "tokenId",
          "type": "uint256"
        }
      ],
      "name": "safeTransferFrom",
      "outputs": [],
      "stateMutability": "nonpayable",
      "type": "function"
    },
    {
      "inputs": [
        {
          "internalType": "address",
          "name": "from",
          "type": "address"
        },
        {
          "internalType": "address",
          "name": "to",
          "type": "address"
        },
        {
          "internalType": "uint256",
          "name": "tokenId",
          "type": "uint256"
        },
        {
          "internalType": "bytes",
          "name": "_data",
          "type": "bytes"
        }
      ],
      "name": "safeTransferFrom",
      "outputs": [],
      "stateMutability": "nonpayable",
      "type": "function"
    },
    {
      "inputs": [
        {
          "internalType": "address",
          "name": "operator",
          "type": "address"
        },
        {
          "internalType": "bool",
          "name": "approved",
          "type": "bool"
        }
      ],
      "name": "setApprovalForAll",
      "outputs": [],
      "stateMutability": "nonpayable",
      "type": "function"
    },
    {
      "inputs": [
        {
          "internalType": "bytes4",
          "name": "interfaceId",
          "type": "bytes4"
        }
      ],
      "name": "supportsInterface",
      "outputs": [
        {
          "internalType": "bool",
          "name": "",
          "type": "bool"
        }
      ],
      "stateMutability": "view",
      "type": "function"
    },
    {
      "inputs": [],
      "name": "symbol",
      "outputs": [
        {
          "internalType": "string",
          "name": "",
          "type": "string"
        }
      ],
      "stateMutability": "view",
      "type": "function"
    },
    {
      "inputs": [
        {
          "internalType": "uint256",
          "name": "index",
          "type": "uint256"
        }
      ],
      "name": "tokenByIndex",
      "outputs": [
        {
          "internalType": "uint256",
          "name": "",
          "type": "uint256"
        }
      ],
      "stateMutability": "view",
      "type": "function"
    },
    {
      "inputs": [
        {
          "internalType": "address",
          "name": "owner",
          "type": "address"
        },
        {
          "internalType": "uint256",
          "name": "index",
          "type": "uint256"
        }
      ],
      "name": "tokenOfOwnerByIndex",
      "outputs": [
        {
          "internalType": "uint256",
          "name": "",
          "type": "uint256"
        }
      ],
      "stateMutability": "view",
      "type": "function"
    },
    {
      "inputs": [
        {
          "internalType": "uint256",
          "name": "tokenId",
          "type": "uint256"
        }
      ],
      "name": "tokenURI",
      "outputs": [
        {
          "internalType": "string",
          "name": "",
          "type": "string"
        }
      ],
      "stateMutability": "view",
      "type": "function"
    },
    {
      "inputs": [],
      "name": "totalSupply",
      "outputs": [
        {
          "internalType": "uint256",
          "name": "",
          "type": "uint256"
        }
      ],
      "stateMutability": "view",
      "type": "function"
    },
    {
      "inputs": [
        {
          "internalType": "address",
          "name": "from",
          "type": "address"
        },
        {
          "internalType": "address",
          "name": "to",
          "type": "address"
        },
        {
          "internalType": "uint256",
          "name": "tokenId",
          "type": "uint256"
        }
      ],
      "name": "transferFrom",
      "outputs": [],
      "stateMutability": "nonpayable",
      "type": "function"
    },
    {
      "inputs": [
        {
          "internalType": "address",
          "name": "newOwner",
          "type": "address"
        }
      ],
      "name": "transferOwnership",
      "outputs": [],
      "stateMutability": "nonpayable",
      "type": "function"
    }
  ],
  "bytecode": "0x60806040523480156200001157600080fd5b506040518060400160405280600881526020017f536d6172744172740000000000000000000000000000000000000000000000008152506040518060400160405280600481526020017f4c4f554400000000000000000000000000000000000000000000000000000000815250816000908051906020019062000096929190620001a6565b508060019080519060200190620000af929190620001a6565b505050620000d2620000c6620000d860201b60201c565b620000e060201b60201c565b620002bb565b600033905090565b6000600b60009054906101000a900473ffffffffffffffffffffffffffffffffffffffff16905081600b60006101000a81548173ffffffffffffffffffffffffffffffffffffffff021916908373ffffffffffffffffffffffffffffffffffffffff1602179055508173ffffffffffffffffffffffffffffffffffffffff168173ffffffffffffffffffffffffffffffffffffffff167f8be0079c531659141344cd1fd0a4f28419497f9722a3daafe3b4186f6b6457e060405160405180910390a35050565b828054620001b49062000256565b90600052602060002090601f016020900481019282620001d8576000855562000224565b82601f10620001f357805160ff191683800117855562000224565b8280016001018555821562000224579182015b828111156200022357825182559160200191906001019062000206565b5b50905062000233919062000237565b5090565b5b808211156200025257600081600090555060010162000238565b5090565b600060028204905060018216806200026f57607f821691505b602082108114156200028657620002856200028c565b5b50919050565b7f4e487b7100000000000000000000000000000000000000000000000000000000600052602260045260246000fd5b613f3c80620002cb6000396000f3fe608060405234801561001057600080fd5b50600436106101425760003560e01c80636352211e116100b8578063a22cb4651161007c578063a22cb4651461038a578063b85cbc79146103a6578063b88d4fde146103c2578063c87b56dd146103de578063e985e9c51461040e578063f2fde38b1461043e57610142565b80636352211e146102e457806370a0823114610314578063715018a6146103445780638da5cb5b1461034e57806395d89b411461036c57610142565b806323b872dd1161010a57806323b872dd146101ff5780632a55205a1461021b5780632f745c591461024c57806342842e0e1461027c57806342966c68146102985780634f6ccce7146102b457610142565b806301ffc9a71461014757806306fdde0314610177578063081812fc14610195578063095ea7b3146101c557806318160ddd146101e1575b600080fd5b610161600480360381019061015c9190612c0a565b61045a565b60405161016e9190613147565b60405180910390f35b61017f61046c565b60405161018c9190613162565b60405180910390f35b6101af60048036038101906101aa9190612c5c565b6104fe565b6040516101bc91906130b7565b60405180910390f35b6101df60048036038101906101da9190612bce565b610583565b005b6101e961069b565b6040516101f69190613444565b60405180910390f35b61021960048036038101906102149190612a4d565b6106a8565b005b61023560048036038101906102309190612c85565b610708565b60405161024392919061311e565b60405180910390f35b61026660048036038101906102619190612bce565b6107d9565b6040516102739190613444565b60405180910390f35b61029660048036038101906102919190612a4d565b61087e565b005b6102b260048036038101906102ad9190612c5c565b61089e565b005b6102ce60048036038101906102c99190612c5c565b6108fa565b6040516102db9190613444565b60405180910390f35b6102fe60048036038101906102f99190612c5c565b610991565b60405161030b91906130b7565b60405180910390f35b61032e600480360381019061032991906129e8565b610a43565b60405161033b9190613444565b60405180910390f35b61034c610afb565b005b610356610b83565b60405161036391906130b7565b60405180910390f35b610374610bad565b6040516103819190613162565b60405180910390f35b6103a4600480360381019061039f9190612b92565b610c3f565b005b6103c060048036038101906103bb9190612b17565b610c55565b005b6103dc60048036038101906103d79190612a9c565b610d29565b005b6103f860048036038101906103f39190612c5c565b610d8b565b6040516104059190613162565b60405180910390f35b61042860048036038101906104239190612a11565b610d9d565b6040516104359190613147565b60405180910390f35b610458600480360381019061045391906129e8565b610e31565b005b600061046582610f29565b9050919050565b60606000805461047b906136f4565b80601f01602080910402602001604051908101604052809291908181526020018280546104a7906136f4565b80156104f45780601f106104c9576101008083540402835291602001916104f4565b820191906000526020600020905b8154815290600101906020018083116104d757829003601f168201915b5050505050905090565b600061050982610fa3565b610548576040517f08c379a000000000000000000000000000000000000000000000000000000000815260040161053f90613364565b60405180910390fd5b6004600083815260200190815260200160002060009054906101000a900473ffffffffffffffffffffffffffffffffffffffff169050919050565b600061058e82610991565b90508073ffffffffffffffffffffffffffffffffffffffff168373ffffffffffffffffffffffffffffffffffffffff1614156105ff576040517f08c379a00000000000000000000000000000000000000000000000000000000081526004016105f6906133c4565b60405180910390fd5b8073ffffffffffffffffffffffffffffffffffffffff1661061e61100f565b73ffffffffffffffffffffffffffffffffffffffff16148061064d575061064c8161064761100f565b610d9d565b5b61068c576040517f08c379a0000000000000000000000000000000000000000000000000000000008152600401610683906132a4565b60405180910390fd5b6106968383611017565b505050565b6000600880549050905090565b6106b96106b361100f565b826110d0565b6106f8576040517f08c379a00000000000000000000000000000000000000000000000000000000081526004016106ef906133e4565b60405180910390fd5b6107038383836111ae565b505050565b6000806000600c60008681526020019081526020016000206040518060400160405290816000820160009054906101000a900473ffffffffffffffffffffffffffffffffffffffff1673ffffffffffffffffffffffffffffffffffffffff1673ffffffffffffffffffffffffffffffffffffffff1681526020016000820160149054906101000a900462ffffff1662ffffff1662ffffff1681525050905080600001519250612710816020015162ffffff16856107c591906135b0565b6107cf919061357f565b9150509250929050565b60006107e483610a43565b8210610825576040517f08c379a000000000000000000000000000000000000000000000000000000000815260040161081c906131a4565b60405180910390fd5b600660008473ffffffffffffffffffffffffffffffffffffffff1673ffffffffffffffffffffffffffffffffffffffff168152602001908152602001600020600083815260200190815260200160002054905092915050565b61089983838360405180602001604052806000815250610d29565b505050565b6108af6108a961100f565b826110d0565b6108ee576040517f08c379a00000000000000000000000000000000000000000000000000000000081526004016108e590613424565b60405180910390fd5b6108f781611415565b50565b600061090461069b565b8210610945576040517f08c379a000000000000000000000000000000000000000000000000000000000815260040161093c90613404565b60405180910390fd5b6008828154811061097f577f4e487b7100000000000000000000000000000000000000000000000000000000600052603260045260246000fd5b90600052602060002001549050919050565b6000806002600084815260200190815260200160002060009054906101000a900473ffffffffffffffffffffffffffffffffffffffff169050600073ffffffffffffffffffffffffffffffffffffffff168173ffffffffffffffffffffffffffffffffffffffff161415610a3a576040517f08c379a0000000000000000000000000000000000000000000000000000000008152600401610a31906132e4565b60405180910390fd5b80915050919050565b60008073ffffffffffffffffffffffffffffffffffffffff168273ffffffffffffffffffffffffffffffffffffffff161415610ab4576040517f08c379a0000000000000000000000000000000000000000000000000000000008152600401610aab906132c4565b60405180910390fd5b600360008373ffffffffffffffffffffffffffffffffffffffff1673ffffffffffffffffffffffffffffffffffffffff168152602001908152602001600020549050919050565b610b0361100f565b73ffffffffffffffffffffffffffffffffffffffff16610b21610b83565b73ffffffffffffffffffffffffffffffffffffffff1614610b77576040517f08c379a0000000000000000000000000000000000000000000000000000000008152600401610b6e90613384565b60405180910390fd5b610b816000611421565b565b6000600b60009054906101000a900473ffffffffffffffffffffffffffffffffffffffff16905090565b606060018054610bbc906136f4565b80601f0160208091040260200160405190810160405280929190818152602001828054610be8906136f4565b8015610c355780601f10610c0a57610100808354040283529160200191610c35565b820191906000526020600020905b815481529060010190602001808311610c1857829003601f168201915b5050505050905090565b610c51610c4a61100f565b83836114e7565b5050565b610c5d61100f565b73ffffffffffffffffffffffffffffffffffffffff16610c7b610b83565b73ffffffffffffffffffffffffffffffffffffffff1614610cd1576040517f08c379a0000000000000000000000000000000000000000000000000000000008152600401610cc890613384565b60405180910390fd5b6000610cdd600d611654565b9050610ce9600d611662565b610d03858260405180602001604052806000815250611678565b610d0d81836116d3565b6000831115610d2257610d21818585611747565b5b5050505050565b610d3a610d3461100f565b836110d0565b610d79576040517f08c379a0000000000000000000000000000000000000000000000000000000008152600401610d70906133e4565b60405180910390fd5b610d8584848484611843565b50505050565b6060610d968261189f565b9050919050565b6000600560008473ffffffffffffffffffffffffffffffffffffffff1673ffffffffffffffffffffffffffffffffffffffff16815260200190815260200160002060008373ffffffffffffffffffffffffffffffffffffffff1673ffffffffffffffffffffffffffffffffffffffff16815260200190815260200160002060009054906101000a900460ff16905092915050565b610e3961100f565b73ffffffffffffffffffffffffffffffffffffffff16610e57610b83565b73ffffffffffffffffffffffffffffffffffffffff1614610ead576040517f08c379a0000000000000000000000000000000000000000000000000000000008152600401610ea490613384565b60405180910390fd5b600073ffffffffffffffffffffffffffffffffffffffff168173ffffffffffffffffffffffffffffffffffffffff161415610f1d576040517f08c379a0000000000000000000000000000000000000000000000000000000008152600401610f14906131e4565b60405180910390fd5b610f2681611421565b50565b60007f2a55205a000000000000000000000000000000000000000000000000000000007bffffffffffffffffffffffffffffffffffffffffffffffffffffffff1916827bffffffffffffffffffffffffffffffffffffffffffffffffffffffff19161480610f9c5750610f9b826119f1565b5b9050919050565b60008073ffffffffffffffffffffffffffffffffffffffff166002600084815260200190815260200160002060009054906101000a900473ffffffffffffffffffffffffffffffffffffffff1673ffffffffffffffffffffffffffffffffffffffff1614159050919050565b600033905090565b816004600083815260200190815260200160002060006101000a81548173ffffffffffffffffffffffffffffffffffffffff021916908373ffffffffffffffffffffffffffffffffffffffff160217905550808273ffffffffffffffffffffffffffffffffffffffff1661108a83610991565b73ffffffffffffffffffffffffffffffffffffffff167f8c5be1e5ebec7d5bd14f71427d1e84f3dd0314c0f7b2291e5b200ac8c7c3b92560405160405180910390a45050565b60006110db82610fa3565b61111a576040517f08c379a000000000000000000000000000000000000000000000000000000000815260040161111190613284565b60405180910390fd5b600061112583610991565b90508073ffffffffffffffffffffffffffffffffffffffff168473ffffffffffffffffffffffffffffffffffffffff16148061119457508373ffffffffffffffffffffffffffffffffffffffff1661117c846104fe565b73ffffffffffffffffffffffffffffffffffffffff16145b806111a557506111a48185610d9d565b5b91505092915050565b8273ffffffffffffffffffffffffffffffffffffffff166111ce82610991565b73ffffffffffffffffffffffffffffffffffffffff1614611224576040517f08c379a000000000000000000000000000000000000000000000000000000000815260040161121b90613204565b60405180910390fd5b600073ffffffffffffffffffffffffffffffffffffffff168273ffffffffffffffffffffffffffffffffffffffff161415611294576040517f08c379a000000000000000000000000000000000000000000000000000000000815260040161128b90613244565b60405180910390fd5b61129f838383611a6b565b6112aa600082611017565b6001600360008573ffffffffffffffffffffffffffffffffffffffff1673ffffffffffffffffffffffffffffffffffffffff16815260200190815260200160002060008282546112fa919061360a565b925050819055506001600360008473ffffffffffffffffffffffffffffffffffffffff1673ffffffffffffffffffffffffffffffffffffffff16815260200190815260200160002060008282546113519190613529565b92505081905550816002600083815260200190815260200160002060006101000a81548173ffffffffffffffffffffffffffffffffffffffff021916908373ffffffffffffffffffffffffffffffffffffffff160217905550808273ffffffffffffffffffffffffffffffffffffffff168473ffffffffffffffffffffffffffffffffffffffff167fddf252ad1be2c89b69c2b068fc378daa952ba7f163c4a11628f55a4df523b3ef60405160405180910390a4611410838383611a7b565b505050565b61141e81611a80565b50565b6000600b60009054906101000a900473ffffffffffffffffffffffffffffffffffffffff16905081600b60006101000a81548173ffffffffffffffffffffffffffffffffffffffff021916908373ffffffffffffffffffffffffffffffffffffffff1602179055508173ffffffffffffffffffffffffffffffffffffffff168173ffffffffffffffffffffffffffffffffffffffff167f8be0079c531659141344cd1fd0a4f28419497f9722a3daafe3b4186f6b6457e060405160405180910390a35050565b8173ffffffffffffffffffffffffffffffffffffffff168373ffffffffffffffffffffffffffffffffffffffff161415611556576040517f08c379a000000000000000000000000000000000000000000000000000000000815260040161154d90613264565b60405180910390fd5b80600560008573ffffffffffffffffffffffffffffffffffffffff1673ffffffffffffffffffffffffffffffffffffffff16815260200190815260200160002060008473ffffffffffffffffffffffffffffffffffffffff1673ffffffffffffffffffffffffffffffffffffffff16815260200190815260200160002060006101000a81548160ff0219169083151502179055508173ffffffffffffffffffffffffffffffffffffffff168373ffffffffffffffffffffffffffffffffffffffff167f17307eab39ab6107e8899845ad3d59bd9653f200f220920489ca2b5937696c31836040516116479190613147565b60405180910390a3505050565b600081600001549050919050565b6001816000016000828254019250508190555050565b6116828383611ad3565b61168f6000848484611cad565b6116ce576040517f08c379a00000000000000000000000000000000000000000000000000000000081526004016116c5906131c4565b60405180910390fd5b505050565b6116dc82610fa3565b61171b576040517f08c379a000000000000000000000000000000000000000000000000000000000815260040161171290613304565b60405180910390fd5b80600a600084815260200190815260200160002090805190602001906117429291906127cc565b505050565b61271081111561178c576040517f08c379a000000000000000000000000000000000000000000000000000000000815260040161178390613184565b60405180910390fd5b60405180604001604052808373ffffffffffffffffffffffffffffffffffffffff1681526020018262ffffff16815250600c600085815260200190815260200160002060008201518160000160006101000a81548173ffffffffffffffffffffffffffffffffffffffff021916908373ffffffffffffffffffffffffffffffffffffffff16021790555060208201518160000160146101000a81548162ffffff021916908362ffffff160217905550905050505050565b61184e8484846111ae565b61185a84848484611cad565b611899576040517f08c379a0000000000000000000000000000000000000000000000000000000008152600401611890906131c4565b60405180910390fd5b50505050565b60606118aa82610fa3565b6118e9576040517f08c379a00000000000000000000000000000000000000000000000000000000081526004016118e090613344565b60405180910390fd5b6000600a60008481526020019081526020016000208054611909906136f4565b80601f0160208091040260200160405190810160405280929190818152602001828054611935906136f4565b80156119825780601f1061195757610100808354040283529160200191611982565b820191906000526020600020905b81548152906001019060200180831161196557829003601f168201915b505050505090506000611993611e44565b90506000815114156119a95781925050506119ec565b6000825111156119de5780826040516020016119c6929190613093565b604051602081830303815290604052925050506119ec565b6119e784611e5b565b925050505b919050565b60007f780e9d63000000000000000000000000000000000000000000000000000000007bffffffffffffffffffffffffffffffffffffffffffffffffffffffff1916827bffffffffffffffffffffffffffffffffffffffffffffffffffffffff19161480611a645750611a6382611f02565b5b9050919050565b611a76838383611fe4565b505050565b505050565b611a89816120f8565b6000600a60008381526020019081526020016000208054611aa9906136f4565b905014611ad057600a60008281526020019081526020016000206000611acf9190612852565b5b50565b600073ffffffffffffffffffffffffffffffffffffffff168273ffffffffffffffffffffffffffffffffffffffff161415611b43576040517f08c379a0000000000000000000000000000000000000000000000000000000008152600401611b3a90613324565b60405180910390fd5b611b4c81610fa3565b15611b8c576040517f08c379a0000000000000000000000000000000000000000000000000000000008152600401611b8390613224565b60405180910390fd5b611b9860008383611a6b565b6001600360008473ffffffffffffffffffffffffffffffffffffffff1673ffffffffffffffffffffffffffffffffffffffff1681526020019081526020016000206000828254611be89190613529565b92505081905550816002600083815260200190815260200160002060006101000a81548173ffffffffffffffffffffffffffffffffffffffff021916908373ffffffffffffffffffffffffffffffffffffffff160217905550808273ffffffffffffffffffffffffffffffffffffffff16600073ffffffffffffffffffffffffffffffffffffffff167fddf252ad1be2c89b69c2b068fc378daa952ba7f163c4a11628f55a4df523b3ef60405160405180910390a4611ca960008383611a7b565b5050565b6000611cce8473ffffffffffffffffffffffffffffffffffffffff16612215565b15611e37578373ffffffffffffffffffffffffffffffffffffffff1663150b7a02611cf761100f565b8786866040518563ffffffff1660e01b8152600401611d1994939291906130d2565b602060405180830381600087803b158015611d3357600080fd5b505af1925050508015611d6457506040513d601f19601f82011682018060405250810190611d619190612c33565b60015b611de7573d8060008114611d94576040519150601f19603f3d011682016040523d82523d6000602084013e611d99565b606091505b50600081511415611ddf576040517f08c379a0000000000000000000000000000000000000000000000000000000008152600401611dd6906131c4565b60405180910390fd5b805181602001fd5b63150b7a0260e01b7bffffffffffffffffffffffffffffffffffffffffffffffffffffffff1916817bffffffffffffffffffffffffffffffffffffffffffffffffffffffff191614915050611e3c565b600190505b949350505050565b606060405180602001604052806000815250905090565b6060611e6682610fa3565b611ea5576040517f08c379a0000000000000000000000000000000000000000000000000000000008152600401611e9c906133a4565b60405180910390fd5b6000611eaf611e44565b90506000815111611ecf5760405180602001604052806000815250611efa565b80611ed984612238565b604051602001611eea929190613093565b6040516020818303038152906040525b915050919050565b60007f80ac58cd000000000000000000000000000000000000000000000000000000007bffffffffffffffffffffffffffffffffffffffffffffffffffffffff1916827bffffffffffffffffffffffffffffffffffffffffffffffffffffffff19161480611fcd57507f5b5e139f000000000000000000000000000000000000000000000000000000007bffffffffffffffffffffffffffffffffffffffffffffffffffffffff1916827bffffffffffffffffffffffffffffffffffffffffffffffffffffffff1916145b80611fdd5750611fdc826123e5565b5b9050919050565b611fef83838361244f565b600073ffffffffffffffffffffffffffffffffffffffff168373ffffffffffffffffffffffffffffffffffffffff1614156120325761202d81612454565b612071565b8173ffffffffffffffffffffffffffffffffffffffff168373ffffffffffffffffffffffffffffffffffffffff16146120705761206f838261249d565b5b5b600073ffffffffffffffffffffffffffffffffffffffff168273ffffffffffffffffffffffffffffffffffffffff1614156120b4576120af8161260a565b6120f3565b8273ffffffffffffffffffffffffffffffffffffffff168273ffffffffffffffffffffffffffffffffffffffff16146120f2576120f1828261274d565b5b5b505050565b600061210382610991565b905061211181600084611a6b565b61211c600083611017565b6001600360008373ffffffffffffffffffffffffffffffffffffffff1673ffffffffffffffffffffffffffffffffffffffff168152602001908152602001600020600082825461216c919061360a565b925050819055506002600083815260200190815260200160002060006101000a81549073ffffffffffffffffffffffffffffffffffffffff021916905581600073ffffffffffffffffffffffffffffffffffffffff168273ffffffffffffffffffffffffffffffffffffffff167fddf252ad1be2c89b69c2b068fc378daa952ba7f163c4a11628f55a4df523b3ef60405160405180910390a461221181600084611a7b565b5050565b6000808273ffffffffffffffffffffffffffffffffffffffff163b119050919050565b60606000821415612280576040518060400160405280600181526020017f300000000000000000000000000000000000000000000000000000000000000081525090506123e0565b600082905060005b600082146122b257808061229b90613757565b915050600a826122ab919061357f565b9150612288565b60008167ffffffffffffffff8111156122f4577f4e487b7100000000000000000000000000000000000000000000000000000000600052604160045260246000fd5b6040519080825280601f01601f1916602001820160405280156123265781602001600182028036833780820191505090505b5090505b600085146123d95760018261233f919061360a565b9150600a8561234e91906137a0565b603061235a9190613529565b60f81b818381518110612396577f4e487b7100000000000000000000000000000000000000000000000000000000600052603260045260246000fd5b60200101907effffffffffffffffffffffffffffffffffffffffffffffffffffffffffffff1916908160001a905350600a856123d2919061357f565b945061232a565b8093505050505b919050565b60007f01ffc9a7000000000000000000000000000000000000000000000000000000007bffffffffffffffffffffffffffffffffffffffffffffffffffffffff1916827bffffffffffffffffffffffffffffffffffffffffffffffffffffffff1916149050919050565b505050565b6008805490506009600083815260200190815260200160002081905550600881908060018154018082558091505060019003906000526020600020016000909190919091505550565b600060016124aa84610a43565b6124b4919061360a565b9050600060076000848152602001908152602001600020549050818114612599576000600660008673ffffffffffffffffffffffffffffffffffffffff1673ffffffffffffffffffffffffffffffffffffffff168152602001908152602001600020600084815260200190815260200160002054905080600660008773ffffffffffffffffffffffffffffffffffffffff1673ffffffffffffffffffffffffffffffffffffffff168152602001908152602001600020600084815260200190815260200160002081905550816007600083815260200190815260200160002081905550505b6007600084815260200190815260200160002060009055600660008573ffffffffffffffffffffffffffffffffffffffff1673ffffffffffffffffffffffffffffffffffffffff16815260200190815260200160002060008381526020019081526020016000206000905550505050565b6000600160088054905061261e919061360a565b9050600060096000848152602001908152602001600020549050600060088381548110612674577f4e487b7100000000000000000000000000000000000000000000000000000000600052603260045260246000fd5b9060005260206000200154905080600883815481106126bc577f4e487b7100000000000000000000000000000000000000000000000000000000600052603260045260246000fd5b906000526020600020018190555081600960008381526020019081526020016000208190555060096000858152602001908152602001600020600090556008805480612731577f4e487b7100000000000000000000000000000000000000000000000000000000600052603160045260246000fd5b6001900381819060005260206000200160009055905550505050565b600061275883610a43565b905081600660008573ffffffffffffffffffffffffffffffffffffffff1673ffffffffffffffffffffffffffffffffffffffff168152602001908152602001600020600083815260200190815260200160002081905550806007600084815260200190815260200160002081905550505050565b8280546127d8906136f4565b90600052602060002090601f0160209004810192826127fa5760008555612841565b82601f1061281357805160ff1916838001178555612841565b82800160010185558215612841579182015b82811115612840578251825591602001919060010190612825565b5b50905061284e9190612892565b5090565b50805461285e906136f4565b6000825580601f10612870575061288f565b601f01602090049060005260206000209081019061288e9190612892565b5b50565b5b808211156128ab576000816000905550600101612893565b5090565b60006128c26128bd84613484565b61345f565b9050828152602081018484840111156128da57600080fd5b6128e58482856136b2565b509392505050565b60006129006128fb846134b5565b61345f565b90508281526020810184848401111561291857600080fd5b6129238482856136b2565b509392505050565b60008135905061293a81613eaa565b92915050565b60008135905061294f81613ec1565b92915050565b60008135905061296481613ed8565b92915050565b60008151905061297981613ed8565b92915050565b600082601f83011261299057600080fd5b81356129a08482602086016128af565b91505092915050565b600082601f8301126129ba57600080fd5b81356129ca8482602086016128ed565b91505092915050565b6000813590506129e281613eef565b92915050565b6000602082840312156129fa57600080fd5b6000612a088482850161292b565b91505092915050565b60008060408385031215612a2457600080fd5b6000612a328582860161292b565b9250506020612a438582860161292b565b9150509250929050565b600080600060608486031215612a6257600080fd5b6000612a708682870161292b565b9350506020612a818682870161292b565b9250506040612a92868287016129d3565b9150509250925092565b60008060008060808587031215612ab257600080fd5b6000612ac08782880161292b565b9450506020612ad18782880161292b565b9350506040612ae2878288016129d3565b925050606085013567ffffffffffffffff811115612aff57600080fd5b612b0b8782880161297f565b91505092959194509250565b60008060008060808587031215612b2d57600080fd5b6000612b3b8782880161292b565b9450506020612b4c8782880161292b565b9350506040612b5d878288016129d3565b925050606085013567ffffffffffffffff811115612b7a57600080fd5b612b86878288016129a9565b91505092959194509250565b60008060408385031215612ba557600080fd5b6000612bb38582860161292b565b9250506020612bc485828601612940565b9150509250929050565b60008060408385031215612be157600080fd5b6000612bef8582860161292b565b9250506020612c00858286016129d3565b9150509250929050565b600060208284031215612c1c57600080fd5b6000612c2a84828501612955565b91505092915050565b600060208284031215612c4557600080fd5b6000612c538482850161296a565b91505092915050565b600060208284031215612c6e57600080fd5b6000612c7c848285016129d3565b91505092915050565b60008060408385031215612c9857600080fd5b6000612ca6858286016129d3565b9250506020612cb7858286016129d3565b9150509250929050565b612cca8161363e565b82525050565b612cd981613650565b82525050565b6000612cea826134e6565b612cf481856134fc565b9350612d048185602086016136c1565b612d0d8161388d565b840191505092915050565b6000612d23826134f1565b612d2d818561350d565b9350612d3d8185602086016136c1565b612d468161388d565b840191505092915050565b6000612d5c826134f1565b612d66818561351e565b9350612d768185602086016136c1565b80840191505092915050565b6000612d8f601a8361350d565b9150612d9a8261389e565b602082019050919050565b6000612db2602b8361350d565b9150612dbd826138c7565b604082019050919050565b6000612dd560328361350d565b9150612de082613916565b604082019050919050565b6000612df860268361350d565b9150612e0382613965565b604082019050919050565b6000612e1b60258361350d565b9150612e26826139b4565b604082019050919050565b6000612e3e601c8361350d565b9150612e4982613a03565b602082019050919050565b6000612e6160248361350d565b9150612e6c82613a2c565b604082019050919050565b6000612e8460198361350d565b9150612e8f82613a7b565b602082019050919050565b6000612ea7602c8361350d565b9150612eb282613aa4565b604082019050919050565b6000612eca60388361350d565b9150612ed582613af3565b604082019050919050565b6000612eed602a8361350d565b9150612ef882613b42565b604082019050919050565b6000612f1060298361350d565b9150612f1b82613b91565b604082019050919050565b6000612f33602e8361350d565b9150612f3e82613be0565b604082019050919050565b6000612f5660208361350d565b9150612f6182613c2f565b602082019050919050565b6000612f7960318361350d565b9150612f8482613c58565b604082019050919050565b6000612f9c602c8361350d565b9150612fa782613ca7565b604082019050919050565b6000612fbf60208361350d565b9150612fca82613cf6565b602082019050919050565b6000612fe2602f8361350d565b9150612fed82613d1f565b604082019050919050565b600061300560218361350d565b915061301082613d6e565b604082019050919050565b600061302860318361350d565b915061303382613dbd565b604082019050919050565b600061304b602c8361350d565b915061305682613e0c565b604082019050919050565b600061306e60308361350d565b915061307982613e5b565b604082019050919050565b61308d816136a8565b82525050565b600061309f8285612d51565b91506130ab8284612d51565b91508190509392505050565b60006020820190506130cc6000830184612cc1565b92915050565b60006080820190506130e76000830187612cc1565b6130f46020830186612cc1565b6131016040830185613084565b81810360608301526131138184612cdf565b905095945050505050565b60006040820190506131336000830185612cc1565b6131406020830184613084565b9392505050565b600060208201905061315c6000830184612cd0565b92915050565b6000602082019050818103600083015261317c8184612d18565b905092915050565b6000602082019050818103600083015261319d81612d82565b9050919050565b600060208201905081810360008301526131bd81612da5565b9050919050565b600060208201905081810360008301526131dd81612dc8565b9050919050565b600060208201905081810360008301526131fd81612deb565b9050919050565b6000602082019050818103600083015261321d81612e0e565b9050919050565b6000602082019050818103600083015261323d81612e31565b9050919050565b6000602082019050818103600083015261325d81612e54565b9050919050565b6000602082019050818103600083015261327d81612e77565b9050919050565b6000602082019050818103600083015261329d81612e9a565b9050919050565b600060208201905081810360008301526132bd81612ebd565b9050919050565b600060208201905081810360008301526132dd81612ee0565b9050919050565b600060208201905081810360008301526132fd81612f03565b9050919050565b6000602082019050818103600083015261331d81612f26565b9050919050565b6000602082019050818103600083015261333d81612f49565b9050919050565b6000602082019050818103600083015261335d81612f6c565b9050919050565b6000602082019050818103600083015261337d81612f8f565b9050919050565b6000602082019050818103600083015261339d81612fb2565b9050919050565b600060208201905081810360008301526133bd81612fd5565b9050919050565b600060208201905081810360008301526133dd81612ff8565b9050919050565b600060208201905081810360008301526133fd8161301b565b9050919050565b6000602082019050818103600083015261341d8161303e565b9050919050565b6000602082019050818103600083015261343d81613061565b9050919050565b60006020820190506134596000830184613084565b92915050565b600061346961347a565b90506134758282613726565b919050565b6000604051905090565b600067ffffffffffffffff82111561349f5761349e61385e565b5b6134a88261388d565b9050602081019050919050565b600067ffffffffffffffff8211156134d0576134cf61385e565b5b6134d98261388d565b9050602081019050919050565b600081519050919050565b600081519050919050565b600082825260208201905092915050565b600082825260208201905092915050565b600081905092915050565b6000613534826136a8565b915061353f836136a8565b9250827fffffffffffffffffffffffffffffffffffffffffffffffffffffffffffffffff03821115613574576135736137d1565b5b828201905092915050565b600061358a826136a8565b9150613595836136a8565b9250826135a5576135a4613800565b5b828204905092915050565b60006135bb826136a8565b91506135c6836136a8565b9250817fffffffffffffffffffffffffffffffffffffffffffffffffffffffffffffffff04831182151516156135ff576135fe6137d1565b5b828202905092915050565b6000613615826136a8565b9150613620836136a8565b925082821015613633576136326137d1565b5b828203905092915050565b600061364982613688565b9050919050565b60008115159050919050565b60007fffffffff0000000000000000000000000000000000000000000000000000000082169050919050565b600073ffffffffffffffffffffffffffffffffffffffff82169050919050565b6000819050919050565b82818337600083830152505050565b60005b838110156136df5780820151818401526020810190506136c4565b838111156136ee576000848401525b50505050565b6000600282049050600182168061370c57607f821691505b602082108114156137205761371f61382f565b5b50919050565b61372f8261388d565b810181811067ffffffffffffffff8211171561374e5761374d61385e565b5b80604052505050565b6000613762826136a8565b91507fffffffffffffffffffffffffffffffffffffffffffffffffffffffffffffffff821415613795576137946137d1565b5b600182019050919050565b60006137ab826136a8565b91506137b6836136a8565b9250826137c6576137c5613800565b5b828206905092915050565b7f4e487b7100000000000000000000000000000000000000000000000000000000600052601160045260246000fd5b7f4e487b7100000000000000000000000000000000000000000000000000000000600052601260045260246000fd5b7f4e487b7100000000000000000000000000000000000000000000000000000000600052602260045260246000fd5b7f4e487b7100000000000000000000000000000000000000000000000000000000600052604160045260246000fd5b6000601f19601f8301169050919050565b7f45524332393831526f79616c746965733a20546f6f2068696768000000000000600082015250565b7f455243373231456e756d657261626c653a206f776e657220696e646578206f7560008201527f74206f6620626f756e6473000000000000000000000000000000000000000000602082015250565b7f4552433732313a207472616e7366657220746f206e6f6e20455243373231526560008201527f63656976657220696d706c656d656e7465720000000000000000000000000000602082015250565b7f4f776e61626c653a206e6577206f776e657220697320746865207a65726f206160008201527f6464726573730000000000000000000000000000000000000000000000000000602082015250565b7f4552433732313a207472616e736665722066726f6d20696e636f72726563742060008201527f6f776e6572000000000000000000000000000000000000000000000000000000602082015250565b7f4552433732313a20746f6b656e20616c7265616479206d696e74656400000000600082015250565b7f4552433732313a207472616e7366657220746f20746865207a65726f2061646460008201527f7265737300000000000000000000000000000000000000000000000000000000602082015250565b7f4552433732313a20617070726f766520746f2063616c6c657200000000000000600082015250565b7f4552433732313a206f70657261746f7220717565727920666f72206e6f6e657860008201527f697374656e7420746f6b656e0000000000000000000000000000000000000000602082015250565b7f4552433732313a20617070726f76652063616c6c6572206973206e6f74206f7760008201527f6e6572206e6f7220617070726f76656420666f7220616c6c0000000000000000602082015250565b7f4552433732313a2062616c616e636520717565727920666f7220746865207a6560008201527f726f206164647265737300000000000000000000000000000000000000000000602082015250565b7f4552433732313a206f776e657220717565727920666f72206e6f6e657869737460008201527f656e7420746f6b656e0000000000000000000000000000000000000000000000602082015250565b7f45524337323155524953746f726167653a2055524920736574206f66206e6f6e60008201527f6578697374656e7420746f6b656e000000000000000000000000000000000000602082015250565b7f4552433732313a206d696e7420746f20746865207a65726f2061646472657373600082015250565b7f45524337323155524953746f726167653a2055524920717565727920666f722060008201527f6e6f6e6578697374656e7420746f6b656e000000000000000000000000000000602082015250565b7f4552433732313a20617070726f76656420717565727920666f72206e6f6e657860008201527f697374656e7420746f6b656e0000000000000000000000000000000000000000602082015250565b7f4f776e61626c653a2063616c6c6572206973206e6f7420746865206f776e6572600082015250565b7f4552433732314d657461646174613a2055524920717565727920666f72206e6f60008201527f6e6578697374656e7420746f6b656e0000000000000000000000000000000000602082015250565b7f4552433732313a20617070726f76616c20746f2063757272656e74206f776e6560008201527f7200000000000000000000000000000000000000000000000000000000000000602082015250565b7f4552433732313a207472616e736665722063616c6c6572206973206e6f74206f60008201527f776e6572206e6f7220617070726f766564000000000000000000000000000000602082015250565b7f455243373231456e756d657261626c653a20676c6f62616c20696e646578206f60008201527f7574206f6620626f756e64730000000000000000000000000000000000000000602082015250565b7f4552433732314275726e61626c653a2063616c6c6572206973206e6f74206f7760008201527f6e6572206e6f7220617070726f76656400000000000000000000000000000000602082015250565b613eb38161363e565b8114613ebe57600080fd5b50565b613eca81613650565b8114613ed557600080fd5b50565b613ee18161365c565b8114613eec57600080fd5b50565b613ef8816136a8565b8114613f0357600080fd5b5056fea2646970667358221220e1d39e4bbc3586019ebf4a78b2889cb0a335d1a563eaa2157de3b5829c84327c64736f6c63430008040033",
  "linkReferences": {},
  "deployedLinkReferences": {}
}