{
  "_format": "hh-sol-artifact-1",
  "contractName": "CallForFundsFactory",
  "sourceName": "contracts/CallForFundsFactory.sol",
  "abi": [
    {
      "inputs": [
        {
          "internalType": "address",
          "name": "logicAddress_",
          "type": "address"
        }
      ],
      "stateMutability": "nonpayable",
      "type": "constructor"
    },
    {
      "anonymous": false,
      "inputs": [
        {
          "indexed": true,
          "internalType": "address",
          "name": "CallForFunds",
          "type": "address"
        },
        {
          "indexed": true,
          "internalType": "address",
          "name": "creator",
          "type": "address"
        },
        {
          "indexed": false,
          "internalType": "string",
          "name": "title",
          "type": "string"
        },
        {
          "indexed": false,
          "internalType": "string",
          "name": "description",
          "type": "string"
        },
        {
          "indexed": false,
          "internalType": "string",
          "name": "image",
          "type": "string"
        },
        {
          "indexed": false,
          "internalType": "string",
          "name": "category",
          "type": "string"
        },
        {
          "indexed": false,
          "internalType": "string",
          "name": "genre",
          "type": "string"
        },
        {
          "indexed": false,
          "internalType": "string",
          "name": "subgenre",
          "type": "string"
        },
        {
          "indexed": false,
          "internalType": "uint96",
          "name": "timelineInDays",
          "type": "uint96"
        },
        {
          "indexed": false,
          "internalType": "uint256",
          "name": "minFundingAmount",
          "type": "uint256"
        },
        {
          "indexed": false,
          "internalType": "string",
          "name": "deliverableMedium",
          "type": "string"
        }
      ],
      "name": "CallForFundsCreated",
      "type": "event"
    },
    {
      "inputs": [
        {
          "internalType": "string",
          "name": "title_",
          "type": "string"
        },
        {
          "internalType": "string",
          "name": "description_",
          "type": "string"
        },
        {
          "internalType": "string",
          "name": "image_",
          "type": "string"
        },
        {
          "internalType": "string",
          "name": "category_",
          "type": "string"
        },
        {
          "internalType": "string",
          "name": "genre_",
          "type": "string"
        },
        {
          "internalType": "string",
          "name": "subgenre_",
          "type": "string"
        },
        {
          "internalType": "uint96",
          "name": "timelineInDays_",
          "type": "uint96"
        },
        {
          "internalType": "uint256",
          "name": "minFundingAmount_",
          "type": "uint256"
        },
        {
          "internalType": "string",
          "name": "deliverableMedium_",
          "type": "string"
        }
      ],
      "name": "createCallForFunds",
      "outputs": [
        {
          "internalType": "address",
          "name": "proxy",
          "type": "address"
        }
      ],
      "stateMutability": "nonpayable",
      "type": "function"
    },
    {
      "inputs": [],
      "name": "logicAddress",
      "outputs": [
        {
          "internalType": "address",
          "name": "",
          "type": "address"
        }
      ],
      "stateMutability": "view",
      "type": "function"
    },
    {
      "inputs": [
        {
          "internalType": "address",
          "name": "",
          "type": "address"
        }
      ],
      "name": "proxies",
      "outputs": [
        {
          "internalType": "bool",
          "name": "",
          "type": "bool"
        }
      ],
      "stateMutability": "view",
      "type": "function"
    },
    {
      "inputs": [
        {
          "internalType": "uint256",
          "name": "",
          "type": "uint256"
        }
      ],
      "name": "proxiesList",
      "outputs": [
        {
          "internalType": "address",
          "name": "",
          "type": "address"
        }
      ],
      "stateMutability": "view",
      "type": "function"
    }
  ],
  "bytecode": "0x60a060405234801561001057600080fd5b5060405161212438038061212483398181016040528101906100329190610084565b8073ffffffffffffffffffffffffffffffffffffffff1660808173ffffffffffffffffffffffffffffffffffffffff1660601b81525050506100ff565b60008151905061007e816100e8565b92915050565b60006020828403121561009a576100996100e3565b5b60006100a88482850161006f565b91505092915050565b60006100bc826100c3565b9050919050565b600073ffffffffffffffffffffffffffffffffffffffff82169050919050565b600080fd5b6100f1816100b1565b81146100fc57600080fd5b50565b60805160601c61200761011d60003960006102d901526120076000f3fe60806040523480156200001157600080fd5b5060043610620000525760003560e01c806350ff5ec314620000575780639c1fcc4c146200008d578063adec742d14620000af578063c455279114620000e5575b600080fd5b6200007560048036038101906200006f91906200045e565b6200011b565b604051620000849190620006cd565b60405180910390f35b62000097620002d7565b604051620000a69190620006cd565b60405180910390f35b620000cd6004803603810190620000c7919062000616565b620002fb565b604051620000dc9190620006cd565b60405180910390f35b620001036004803603810190620000fd91906200042c565b6200033b565b604051620001129190620007ff565b60405180910390f35b6000338a60405160200162000132929190620006ea565b60405160208183030381529060405280519060200120338b8b8b8b8b8b898c8c60405162000160906200035b565b620001759a999897969594939291906200071e565b8190604051809103906000f590508015801562000196573d6000803e3d6000fd5b5090503373ffffffffffffffffffffffffffffffffffffffff168173ffffffffffffffffffffffffffffffffffffffff167f3446c863e8e2d85c590927bd22f88146e8586b73a83d7b7fbb69e348bd6b5ece8c8c8c8c8c8c8c8c8c60405162000208999897969594939291906200081c565b60405180910390a360016000808373ffffffffffffffffffffffffffffffffffffffff1673ffffffffffffffffffffffffffffffffffffffff16815260200190815260200160002060006101000a81548160ff0219169083151502179055506001819080600181540180825580915050600190039060005260206000200160009091909190916101000a81548173ffffffffffffffffffffffffffffffffffffffff021916908373ffffffffffffffffffffffffffffffffffffffff1602179055509998505050505050505050565b7f000000000000000000000000000000000000000000000000000000000000000081565b600181815481106200030c57600080fd5b906000526020600020016000915054906101000a900473ffffffffffffffffffffffffffffffffffffffff1681565b60006020528060005260406000206000915054906101000a900460ff1681565b6114eb8062000ae783390190565b6000620003806200037a8462000915565b620008ec565b9050828152602081018484840111156200039f576200039e62000a78565b5b620003ac848285620009c9565b509392505050565b600081359050620003c58162000a98565b92915050565b600082601f830112620003e357620003e262000a73565b5b8135620003f584826020860162000369565b91505092915050565b6000813590506200040f8162000ab2565b92915050565b600081359050620004268162000acc565b92915050565b60006020828403121562000445576200044462000a82565b5b60006200045584828501620003b4565b91505092915050565b60008060008060008060008060006101208a8c03121562000484576200048362000a82565b5b60008a013567ffffffffffffffff811115620004a557620004a462000a7d565b5b620004b38c828d01620003cb565b99505060208a013567ffffffffffffffff811115620004d757620004d662000a7d565b5b620004e58c828d01620003cb565b98505060408a013567ffffffffffffffff81111562000509576200050862000a7d565b5b620005178c828d01620003cb565b97505060608a013567ffffffffffffffff8111156200053b576200053a62000a7d565b5b620005498c828d01620003cb565b96505060808a013567ffffffffffffffff8111156200056d576200056c62000a7d565b5b6200057b8c828d01620003cb565b95505060a08a013567ffffffffffffffff8111156200059f576200059e62000a7d565b5b620005ad8c828d01620003cb565b94505060c0620005c08c828d0162000415565b93505060e0620005d38c828d01620003fe565b9250506101008a013567ffffffffffffffff811115620005f857620005f762000a7d565b5b620006068c828d01620003cb565b9150509295985092959850929598565b6000602082840312156200062f576200062e62000a82565b5b60006200063f84828501620003fe565b91505092915050565b620006538162000967565b82525050565b62000664816200097b565b82525050565b600062000677826200094b565b62000683818562000956565b935062000695818560208601620009d8565b620006a08162000a87565b840191505092915050565b620006b681620009a7565b82525050565b620006c781620009b1565b82525050565b6000602082019050620006e4600083018462000648565b92915050565b600060408201905062000701600083018562000648565b81810360208301526200071581846200066a565b90509392505050565b60006101408201905062000736600083018d62000648565b81810360208301526200074a818c6200066a565b9050818103604083015262000760818b6200066a565b9050818103606083015262000776818a6200066a565b905081810360808301526200078c81896200066a565b905081810360a0830152620007a281886200066a565b905081810360c0830152620007b881876200066a565b905081810360e0830152620007ce81866200066a565b9050620007e0610100830185620006bc565b620007f0610120830184620006ab565b9b9a5050505050505050505050565b600060208201905062000816600083018462000659565b92915050565b600061012082019050818103600083015262000839818c6200066a565b905081810360208301526200084f818b6200066a565b9050818103604083015262000865818a6200066a565b905081810360608301526200087b81896200066a565b905081810360808301526200089181886200066a565b905081810360a0830152620008a781876200066a565b9050620008b860c0830186620006bc565b620008c760e0830185620006ab565b818103610100830152620008dc81846200066a565b90509a9950505050505050505050565b6000620008f86200090b565b905062000906828262000a0e565b919050565b6000604051905090565b600067ffffffffffffffff82111562000933576200093262000a44565b5b6200093e8262000a87565b9050602081019050919050565b600081519050919050565b600082825260208201905092915050565b6000620009748262000987565b9050919050565b60008115159050919050565b600073ffffffffffffffffffffffffffffffffffffffff82169050919050565b6000819050919050565b60006bffffffffffffffffffffffff82169050919050565b82818337600083830152505050565b60005b83811015620009f8578082015181840152602081019050620009db565b8381111562000a08576000848401525b50505050565b62000a198262000a87565b810181811067ffffffffffffffff8211171562000a3b5762000a3a62000a44565b5b80604052505050565b7f4e487b7100000000000000000000000000000000000000000000000000000000600052604160045260246000fd5b600080fd5b600080fd5b600080fd5b600080fd5b6000601f19601f8301169050919050565b62000aa38162000967565b811462000aaf57600080fd5b50565b62000abd81620009a7565b811462000ac957600080fd5b50565b62000ad781620009b1565b811462000ae357600080fd5b5056fe60806040523480156200001157600080fd5b50604051620014eb380380620014eb833981810160405281019062000037919062000405565b3373ffffffffffffffffffffffffffffffffffffffff16639c1fcc4c6040518163ffffffff1660e01b8152600401602060405180830381600087803b1580156200008057600080fd5b505af115801562000095573d6000803e3d6000fd5b505050506040513d601f19601f82011682018060405250810190620000bb9190620003d3565b6000806101000a81548173ffffffffffffffffffffffffffffffffffffffff021916908373ffffffffffffffffffffffffffffffffffffffff16021790555089600160006101000a81548173ffffffffffffffffffffffffffffffffffffffff021916908373ffffffffffffffffffffffffffffffffffffffff16021790555088600290805190602001906200015392919062000260565b5087600390805190602001906200016c92919062000260565b5086600490805190602001906200018592919062000260565b5085600590805190602001906200019e92919062000260565b508460069080519060200190620001b792919062000260565b508360079080519060200190620001d092919062000260565b508260089080519060200190620001e992919062000260565b5081600960006101000a8154816bffffffffffffffffffffffff02191690836bffffffffffffffffffffffff16021790555080600a819055506000600c60006101000a81548160ff021916908360048111156200024b576200024a6200072b565b5b0217905550505050505050505050506200082b565b8280546200026e90620006bf565b90600052602060002090601f016020900481019282620002925760008555620002de565b82601f10620002ad57805160ff1916838001178555620002de565b82800160010185558215620002de579182015b82811115620002dd578251825591602001919060010190620002c0565b5b509050620002ed9190620002f1565b5090565b5b808211156200030c576000816000905550600101620002f2565b5090565b6000620003276200032184620005fd565b620005d4565b905082815260208101848484011115620003465762000345620007bd565b5b6200035384828562000689565b509392505050565b6000815190506200036c81620007dd565b92915050565b600082601f8301126200038a5762000389620007b8565b5b81516200039c84826020860162000310565b91505092915050565b600081519050620003b681620007f7565b92915050565b600081519050620003cd8162000811565b92915050565b600060208284031215620003ec57620003eb620007c7565b5b6000620003fc848285016200035b565b91505092915050565b6000806000806000806000806000806101408b8d0312156200042c576200042b620007c7565b5b60006200043c8d828e016200035b565b9a505060208b015167ffffffffffffffff81111562000460576200045f620007c2565b5b6200046e8d828e0162000372565b99505060408b015167ffffffffffffffff811115620004925762000491620007c2565b5b620004a08d828e0162000372565b98505060608b015167ffffffffffffffff811115620004c457620004c3620007c2565b5b620004d28d828e0162000372565b97505060808b015167ffffffffffffffff811115620004f657620004f5620007c2565b5b620005048d828e0162000372565b96505060a08b015167ffffffffffffffff811115620005285762000527620007c2565b5b620005368d828e0162000372565b95505060c08b015167ffffffffffffffff8111156200055a5762000559620007c2565b5b620005688d828e0162000372565b94505060e08b015167ffffffffffffffff8111156200058c576200058b620007c2565b5b6200059a8d828e0162000372565b935050610100620005ae8d828e01620003bc565b925050610120620005c28d828e01620003a5565b9150509295989b9194979a5092959850565b6000620005e0620005f3565b9050620005ee8282620006f5565b919050565b6000604051905090565b600067ffffffffffffffff8211156200061b576200061a62000789565b5b6200062682620007cc565b9050602081019050919050565b6000620006408262000647565b9050919050565b600073ffffffffffffffffffffffffffffffffffffffff82169050919050565b6000819050919050565b60006bffffffffffffffffffffffff82169050919050565b60005b83811015620006a95780820151818401526020810190506200068c565b83811115620006b9576000848401525b50505050565b60006002820490506001821680620006d857607f821691505b60208210811415620006ef57620006ee6200075a565b5b50919050565b6200070082620007cc565b810181811067ffffffffffffffff8211171562000722576200072162000789565b5b80604052505050565b7f4e487b7100000000000000000000000000000000000000000000000000000000600052602160045260246000fd5b7f4e487b7100000000000000000000000000000000000000000000000000000000600052602260045260246000fd5b7f4e487b7100000000000000000000000000000000000000000000000000000000600052604160045260246000fd5b600080fd5b600080fd5b600080fd5b600080fd5b6000601f19601f8301169050919050565b620007e88162000633565b8114620007f457600080fd5b50565b620008028162000667565b81146200080e57600080fd5b50565b6200081c8162000671565b81146200082857600080fd5b50565b610cb0806200083b6000396000f3fe6080604052600436106100f75760003560e01c80639cf0bd0d1161008a578063d001272311610059578063d001272314610349578063e685112714610374578063ef430aa61461039f578063f3ccaac0146103ca576100f8565b80639cf0bd0d1461029d578063ab115d72146102c8578063b25cdccf146102f3578063c791316e1461031e576100f8565b80637cb4d6d7116100c65780637cb4d6d7146101f1578063852e5a0a1461021c5780638e22ce1d146102475780639699119d14610272576100f8565b806302d05d3f1461014557806317de3a41146101705780634a79d50c1461019b5780637284e416146101c6576100f8565b5b60008060009054906101000a900473ffffffffffffffffffffffffffffffffffffffff16905060405136600082376000803683855af43d806000843e8160008114610141578184f35b8184fd5b34801561015157600080fd5b5061015a6103f5565b60405161016791906109c4565b60405180910390f35b34801561017c57600080fd5b5061018561041b565b6040516101929190610a4b565b60405180910390f35b3480156101a757600080fd5b506101b06104a9565b6040516101bd9190610a4b565b60405180910390f35b3480156101d257600080fd5b506101db610537565b6040516101e89190610a4b565b60405180910390f35b3480156101fd57600080fd5b506102066105c5565b60405161021391906109df565b60405180910390f35b34801561022857600080fd5b506102316105dd565b60405161023e9190610a15565b60405180910390f35b34801561025357600080fd5b5061025c6105f5565b60405161026991906109c4565b60405180910390f35b34801561027e57600080fd5b5061028761060d565b6040516102949190610a88565b60405180910390f35b3480156102a957600080fd5b506102b261062b565b6040516102bf9190610a4b565b60405180910390f35b3480156102d457600080fd5b506102dd6106b9565b6040516102ea9190610a4b565b60405180910390f35b3480156102ff57600080fd5b50610308610747565b6040516103159190610a30565b60405180910390f35b34801561032a57600080fd5b5061033361075a565b6040516103409190610a6d565b60405180910390f35b34801561035557600080fd5b5061035e610760565b60405161036b91906109fa565b60405180910390f35b34801561038057600080fd5b50610389610778565b6040516103969190610a4b565b60405180910390f35b3480156103ab57600080fd5b506103b4610806565b6040516103c19190610a4b565b60405180910390f35b3480156103d657600080fd5b506103df610894565b6040516103ec9190610a4b565b60405180910390f35b600160009054906101000a900473ffffffffffffffffffffffffffffffffffffffff1681565b6006805461042890610bc5565b80601f016020809104026020016040519081016040528092919081815260200182805461045490610bc5565b80156104a15780601f10610476576101008083540402835291602001916104a1565b820191906000526020600020905b81548152906001019060200180831161048457829003601f168201915b505050505081565b600280546104b690610bc5565b80601f01602080910402602001604051908101604052809291908181526020018280546104e290610bc5565b801561052f5780601f106105045761010080835404028352916020019161052f565b820191906000526020600020905b81548152906001019060200180831161051257829003601f168201915b505050505081565b6003805461054490610bc5565b80601f016020809104026020016040519081016040528092919081815260200182805461057090610bc5565b80156105bd5780601f10610592576101008083540402835291602001916105bd565b820191906000526020600020905b8154815290600101906020018083116105a057829003601f168201915b505050505081565b73f4c5310e51f6079f601a5fb7120bc72a70b96e2a81565b73ed5b5b32110c3ded02a07c8b8e97513fafb883b681565b73a4e987fb3808d9fc206112967477793ea838945081565b600960009054906101000a90046bffffffffffffffffffffffff1681565b6008805461063890610bc5565b80601f016020809104026020016040519081016040528092919081815260200182805461066490610bc5565b80156106b15780601f10610686576101008083540402835291602001916106b1565b820191906000526020600020905b81548152906001019060200180831161069457829003601f168201915b505050505081565b600780546106c690610bc5565b80601f01602080910402602001604051908101604052809291908181526020018280546106f290610bc5565b801561073f5780601f106107145761010080835404028352916020019161073f565b820191906000526020600020905b81548152906001019060200180831161072257829003601f168201915b505050505081565b600c60009054906101000a900460ff1681565b600a5481565b73a623b2dd931c5162b7a0b25852f4024db48bb1a081565b600b805461078590610bc5565b80601f01602080910402602001604051908101604052809291908181526020018280546107b190610bc5565b80156107fe5780601f106107d3576101008083540402835291602001916107fe565b820191906000526020600020905b8154815290600101906020018083116107e157829003601f168201915b505050505081565b6005805461081390610bc5565b80601f016020809104026020016040519081016040528092919081815260200182805461083f90610bc5565b801561088c5780601f106108615761010080835404028352916020019161088c565b820191906000526020600020905b81548152906001019060200180831161086f57829003601f168201915b505050505081565b600480546108a190610bc5565b80601f01602080910402602001604051908101604052809291908181526020018280546108cd90610bc5565b801561091a5780601f106108ef5761010080835404028352916020019161091a565b820191906000526020600020905b8154815290600101906020018083116108fd57829003601f168201915b505050505081565b61092b81610abf565b82525050565b61093a81610b26565b82525050565b61094981610b38565b82525050565b61095881610b4a565b82525050565b61096781610b5c565b82525050565b600061097882610aa3565b6109828185610aae565b9350610992818560208601610b92565b61099b81610c55565b840191505092915050565b6109af81610b04565b82525050565b6109be81610b0e565b82525050565b60006020820190506109d96000830184610922565b92915050565b60006020820190506109f46000830184610931565b92915050565b6000602082019050610a0f6000830184610940565b92915050565b6000602082019050610a2a600083018461094f565b92915050565b6000602082019050610a45600083018461095e565b92915050565b60006020820190508181036000830152610a65818461096d565b905092915050565b6000602082019050610a8260008301846109a6565b92915050565b6000602082019050610a9d60008301846109b5565b92915050565b600081519050919050565b600082825260208201905092915050565b6000610aca82610ae4565b9050919050565b6000819050610adf82610c66565b919050565b600073ffffffffffffffffffffffffffffffffffffffff82169050919050565b6000819050919050565b60006bffffffffffffffffffffffff82169050919050565b6000610b3182610b6e565b9050919050565b6000610b4382610b6e565b9050919050565b6000610b5582610b6e565b9050919050565b6000610b6782610ad1565b9050919050565b6000610b7982610b80565b9050919050565b6000610b8b82610ae4565b9050919050565b60005b83811015610bb0578082015181840152602081019050610b95565b83811115610bbf576000848401525b50505050565b60006002820490506001821680610bdd57607f821691505b60208210811415610bf157610bf0610c26565b5b50919050565b7f4e487b7100000000000000000000000000000000000000000000000000000000600052602160045260246000fd5b7f4e487b7100000000000000000000000000000000000000000000000000000000600052602260045260246000fd5b6000601f19601f8301169050919050565b60058110610c7757610c76610bf7565b5b5056fea264697066735822122040223e3241aa5c952c37c93d77bbef425c6a9b475c2f3f2890edf806d26919cc64736f6c63430008070033a264697066735822122068413677f70b58c5b4de0b8b2747f2827409479bca142b08b61a59396992e09a64736f6c63430008070033",
  "linkReferences": {},
  "deployedLinkReferences": {}
}