{
  "_format": "hh-sol-artifact-1",
  "contractName": "CallForFundsProxy",
  "sourceName": "contracts/CallForFundsProxy.sol",
  "abi": [
    {
      "inputs": [
        {
          "internalType": "address",
          "name": "creator_",
          "type": "address"
        },
        {
          "internalType": "string",
          "name": "title_",
          "type": "string"
        },
        {
          "internalType": "string",
          "name": "description_",
          "type": "string"
        },
        {
          "internalType": "string",
          "name": "image_",
          "type": "string"
        },
        {
          "internalType": "string",
          "name": "category_",
          "type": "string"
        },
        {
          "internalType": "string",
          "name": "genre_",
          "type": "string"
        },
        {
          "internalType": "string",
          "name": "subgenre_",
          "type": "string"
        },
        {
          "internalType": "string",
          "name": "deliverableMedium_",
          "type": "string"
        },
        {
          "internalType": "uint8",
          "name": "timelineInDays_",
          "type": "uint8"
        },
        {
          "internalType": "uint256",
          "name": "minFundingAmount_",
          "type": "uint256"
        }
      ],
      "stateMutability": "nonpayable",
      "type": "constructor"
    },
    {
      "stateMutability": "payable",
      "type": "fallback"
    },
    {
      "inputs": [],
      "name": "category",
      "outputs": [
        {
          "internalType": "string",
          "name": "",
          "type": "string"
        }
      ],
      "stateMutability": "view",
      "type": "function"
    },
    {
      "inputs": [],
      "name": "creator",
      "outputs": [
        {
          "internalType": "address",
          "name": "",
          "type": "address"
        }
      ],
      "stateMutability": "view",
      "type": "function"
    },
    {
      "inputs": [],
      "name": "deliverableMedium",
      "outputs": [
        {
          "internalType": "string",
          "name": "",
          "type": "string"
        }
      ],
      "stateMutability": "view",
      "type": "function"
    },
    {
      "inputs": [],
      "name": "deliverableURI",
      "outputs": [
        {
          "internalType": "string",
          "name": "",
          "type": "string"
        }
      ],
      "stateMutability": "view",
      "type": "function"
    },
    {
      "inputs": [],
      "name": "description",
      "outputs": [
        {
          "internalType": "string",
          "name": "",
          "type": "string"
        }
      ],
      "stateMutability": "view",
      "type": "function"
    },
    {
      "inputs": [],
      "name": "fundingState",
      "outputs": [
        {
          "internalType": "enum CallForFundsStorage.FundingState",
          "name": "",
          "type": "uint8"
        }
      ],
      "stateMutability": "view",
      "type": "function"
    },
    {
      "inputs": [],
      "name": "genre",
      "outputs": [
        {
          "internalType": "string",
          "name": "",
          "type": "string"
        }
      ],
      "stateMutability": "view",
      "type": "function"
    },
    {
      "inputs": [],
      "name": "image",
      "outputs": [
        {
          "internalType": "string",
          "name": "",
          "type": "string"
        }
      ],
      "stateMutability": "view",
      "type": "function"
    },
    {
      "inputs": [],
      "name": "loudverseAdmin",
      "outputs": [
        {
          "internalType": "address",
          "name": "",
          "type": "address"
        }
      ],
      "stateMutability": "view",
      "type": "function"
    },
    {
      "inputs": [],
      "name": "minFundingAmount",
      "outputs": [
        {
          "internalType": "uint256",
          "name": "",
          "type": "uint256"
        }
      ],
      "stateMutability": "view",
      "type": "function"
    },
    {
      "inputs": [],
      "name": "subgenre",
      "outputs": [
        {
          "internalType": "string",
          "name": "",
          "type": "string"
        }
      ],
      "stateMutability": "view",
      "type": "function"
    },
    {
      "inputs": [],
      "name": "timelineInDays",
      "outputs": [
        {
          "internalType": "uint8",
          "name": "",
          "type": "uint8"
        }
      ],
      "stateMutability": "view",
      "type": "function"
    },
    {
      "inputs": [],
      "name": "title",
      "outputs": [
        {
          "internalType": "string",
          "name": "",
          "type": "string"
        }
      ],
      "stateMutability": "view",
      "type": "function"
    }
  ],
  "bytecode": "0x60806040523480156200001157600080fd5b506040516200128138038062001281833981810160405281019062000037919062000401565b3373ffffffffffffffffffffffffffffffffffffffff16639c1fcc4c6040518163ffffffff1660e01b8152600401602060405180830381600087803b1580156200008057600080fd5b505af115801562000095573d6000803e3d6000fd5b505050506040513d601f19601f82011682018060405250810190620000bb9190620003d5565b6000806101000a81548173ffffffffffffffffffffffffffffffffffffffff021916908373ffffffffffffffffffffffffffffffffffffffff16021790555089600160006101000a81548173ffffffffffffffffffffffffffffffffffffffff021916908373ffffffffffffffffffffffffffffffffffffffff1602179055508860029080519060200190620001539291906200026e565b5087600390805190602001906200016c9291906200026e565b508660049080519060200190620001859291906200026e565b5085600590805190602001906200019e9291906200026e565b508460069080519060200190620001b79291906200026e565b508360079080519060200190620001d09291906200026e565b508260089080519060200190620001e99291906200026e565b5081600960006101000a81548160ff021916908360ff16021790555080600a819055506000600c60006101000a81548160ff0219169083600481111562000259577f4e487b7100000000000000000000000000000000000000000000000000000000600052602160045260246000fd5b021790555050505050505050505050620007a9565b8280546200027c9062000680565b90600052602060002090601f016020900481019282620002a05760008555620002ec565b82601f10620002bb57805160ff1916838001178555620002ec565b82800160010185558215620002ec579182015b82811115620002eb578251825591602001919060010190620002ce565b5b509050620002fb9190620002ff565b5090565b5b808211156200031a57600081600090555060010162000300565b5090565b6000620003356200032f84620005c9565b620005a0565b9050828152602081018484840111156200034e57600080fd5b6200035b8482856200064a565b509392505050565b60008151905062000374816200075b565b92915050565b600082601f8301126200038c57600080fd5b81516200039e8482602086016200031e565b91505092915050565b600081519050620003b88162000775565b92915050565b600081519050620003cf816200078f565b92915050565b600060208284031215620003e857600080fd5b6000620003f88482850162000363565b91505092915050565b6000806000806000806000806000806101408b8d0312156200042257600080fd5b6000620004328d828e0162000363565b9a505060208b015167ffffffffffffffff8111156200045057600080fd5b6200045e8d828e016200037a565b99505060408b015167ffffffffffffffff8111156200047c57600080fd5b6200048a8d828e016200037a565b98505060608b015167ffffffffffffffff811115620004a857600080fd5b620004b68d828e016200037a565b97505060808b015167ffffffffffffffff811115620004d457600080fd5b620004e28d828e016200037a565b96505060a08b015167ffffffffffffffff8111156200050057600080fd5b6200050e8d828e016200037a565b95505060c08b015167ffffffffffffffff8111156200052c57600080fd5b6200053a8d828e016200037a565b94505060e08b015167ffffffffffffffff8111156200055857600080fd5b620005668d828e016200037a565b9350506101006200057a8d828e01620003be565b9250506101206200058e8d828e01620003a7565b9150509295989b9194979a5092959850565b6000620005ac620005bf565b9050620005ba8282620006b6565b919050565b6000604051905090565b600067ffffffffffffffff821115620005e757620005e66200071b565b5b620005f2826200074a565b9050602081019050919050565b60006200060c8262000613565b9050919050565b600073ffffffffffffffffffffffffffffffffffffffff82169050919050565b6000819050919050565b600060ff82169050919050565b60005b838110156200066a5780820151818401526020810190506200064d565b838111156200067a576000848401525b50505050565b600060028204905060018216806200069957607f821691505b60208210811415620006b057620006af620006ec565b5b50919050565b620006c1826200074a565b810181811067ffffffffffffffff82111715620006e357620006e26200071b565b5b80604052505050565b7f4e487b7100000000000000000000000000000000000000000000000000000000600052602260045260246000fd5b7f4e487b7100000000000000000000000000000000000000000000000000000000600052604160045260246000fd5b6000601f19601f8301169050919050565b6200076681620005ff565b81146200077257600080fd5b50565b620007808162000633565b81146200078c57600080fd5b50565b6200079a816200063d565b8114620007a657600080fd5b50565b610ac880620007b96000396000f3fe6080604052600436106100c65760003560e01c80639cf0bd0d1161007f578063c791316e11610059578063c791316e14610297578063e6851127146102c2578063ef430aa6146102ed578063f3ccaac014610318576100c7565b80639cf0bd0d14610216578063ab115d7214610241578063b25cdccf1461026c576100c7565b806302d05d3f1461011457806317de3a411461013f5780634a79d50c1461016a5780637284e416146101955780638e22ce1d146101c05780639699119d146101eb576100c7565b5b60008060009054906101000a900473ffffffffffffffffffffffffffffffffffffffff16905060405136600082376000803683855af43d806000843e8160008114610110578184f35b8184fd5b34801561012057600080fd5b50610129610343565b6040516101369190610892565b60405180910390f35b34801561014b57600080fd5b50610154610369565b60405161016191906108c8565b60405180910390f35b34801561017657600080fd5b5061017f6103f7565b60405161018c91906108c8565b60405180910390f35b3480156101a157600080fd5b506101aa610485565b6040516101b791906108c8565b60405180910390f35b3480156101cc57600080fd5b506101d5610513565b6040516101e29190610892565b60405180910390f35b3480156101f757600080fd5b5061020061052b565b60405161020d9190610905565b60405180910390f35b34801561022257600080fd5b5061022b61053e565b60405161023891906108c8565b60405180910390f35b34801561024d57600080fd5b506102566105cc565b60405161026391906108c8565b60405180910390f35b34801561027857600080fd5b5061028161065a565b60405161028e91906108ad565b60405180910390f35b3480156102a357600080fd5b506102ac61066d565b6040516102b991906108ea565b60405180910390f35b3480156102ce57600080fd5b506102d7610673565b6040516102e491906108c8565b60405180910390f35b3480156102f957600080fd5b50610302610701565b60405161030f91906108c8565b60405180910390f35b34801561032457600080fd5b5061032d61078f565b60405161033a91906108c8565b60405180910390f35b600160009054906101000a900473ffffffffffffffffffffffffffffffffffffffff1681565b60068054610376906109dd565b80601f01602080910402602001604051908101604052809291908181526020018280546103a2906109dd565b80156103ef5780601f106103c4576101008083540402835291602001916103ef565b820191906000526020600020905b8154815290600101906020018083116103d257829003601f168201915b505050505081565b60028054610404906109dd565b80601f0160208091040260200160405190810160405280929190818152602001828054610430906109dd565b801561047d5780601f106104525761010080835404028352916020019161047d565b820191906000526020600020905b81548152906001019060200180831161046057829003601f168201915b505050505081565b60038054610492906109dd565b80601f01602080910402602001604051908101604052809291908181526020018280546104be906109dd565b801561050b5780601f106104e05761010080835404028352916020019161050b565b820191906000526020600020905b8154815290600101906020018083116104ee57829003601f168201915b505050505081565b73a4e987fb3808d9fc206112967477793ea838945081565b600960009054906101000a900460ff1681565b6008805461054b906109dd565b80601f0160208091040260200160405190810160405280929190818152602001828054610577906109dd565b80156105c45780601f10610599576101008083540402835291602001916105c4565b820191906000526020600020905b8154815290600101906020018083116105a757829003601f168201915b505050505081565b600780546105d9906109dd565b80601f0160208091040260200160405190810160405280929190818152602001828054610605906109dd565b80156106525780601f1061062757610100808354040283529160200191610652565b820191906000526020600020905b81548152906001019060200180831161063557829003601f168201915b505050505081565b600c60009054906101000a900460ff1681565b600a5481565b600b8054610680906109dd565b80601f01602080910402602001604051908101604052809291908181526020018280546106ac906109dd565b80156106f95780601f106106ce576101008083540402835291602001916106f9565b820191906000526020600020905b8154815290600101906020018083116106dc57829003601f168201915b505050505081565b6005805461070e906109dd565b80601f016020809104026020016040519081016040528092919081815260200182805461073a906109dd565b80156107875780601f1061075c57610100808354040283529160200191610787565b820191906000526020600020905b81548152906001019060200180831161076a57829003601f168201915b505050505081565b6004805461079c906109dd565b80601f01602080910402602001604051908101604052809291908181526020018280546107c8906109dd565b80156108155780601f106107ea57610100808354040283529160200191610815565b820191906000526020600020905b8154815290600101906020018083116107f857829003601f168201915b505050505081565b6108268161093c565b82525050565b61083581610998565b82525050565b600061084682610920565b610850818561092b565b93506108608185602086016109aa565b61086981610a6d565b840191505092915050565b61087d81610981565b82525050565b61088c8161098b565b82525050565b60006020820190506108a7600083018461081d565b92915050565b60006020820190506108c2600083018461082c565b92915050565b600060208201905081810360008301526108e2818461083b565b905092915050565b60006020820190506108ff6000830184610874565b92915050565b600060208201905061091a6000830184610883565b92915050565b600081519050919050565b600082825260208201905092915050565b600061094782610961565b9050919050565b600081905061095c82610a7e565b919050565b600073ffffffffffffffffffffffffffffffffffffffff82169050919050565b6000819050919050565b600060ff82169050919050565b60006109a38261094e565b9050919050565b60005b838110156109c85780820151818401526020810190506109ad565b838111156109d7576000848401525b50505050565b600060028204905060018216806109f557607f821691505b60208210811415610a0957610a08610a3e565b5b50919050565b7f4e487b7100000000000000000000000000000000000000000000000000000000600052602160045260246000fd5b7f4e487b7100000000000000000000000000000000000000000000000000000000600052602260045260246000fd5b6000601f19601f8301169050919050565b60058110610a8f57610a8e610a0f565b5b5056fea2646970667358221220fc81bf42e8c19e4cf7506d343d3c85acbb09662103129161b623dbec496e462d64736f6c63430008040033",
  "linkReferences": {},
  "deployedLinkReferences": {}
}