{
  "_format": "hh-sol-artifact-1",
  "contractName": "CallForFundsLogic",
  "sourceName": "contracts/CallForFundsLogic.sol",
  "abi": [
    {
      "inputs": [
        {
          "internalType": "address",
          "name": "crowdCommission_",
          "type": "address"
        },
        {
          "internalType": "address",
          "name": "smartArt_",
          "type": "address"
        }
      ],
      "stateMutability": "nonpayable",
      "type": "constructor"
    },
    {
      "anonymous": false,
      "inputs": [
        {
          "indexed": true,
          "internalType": "uint256",
          "name": "amountMatched",
          "type": "uint256"
        }
      ],
      "name": "CallMatched",
      "type": "event"
    },
    {
      "anonymous": false,
      "inputs": [
        {
          "indexed": true,
          "internalType": "address",
          "name": "donator",
          "type": "address"
        },
        {
          "indexed": false,
          "internalType": "uint256",
          "name": "amount",
          "type": "uint256"
        }
      ],
      "name": "ContributionReceivedETH",
      "type": "event"
    },
    {
      "anonymous": false,
      "inputs": [
        {
          "indexed": true,
          "internalType": "enum CallForFundsStorage.FundingState",
          "name": "newFundingState",
          "type": "uint8"
        }
      ],
      "name": "FundingStateChanged",
      "type": "event"
    },
    {
      "anonymous": false,
      "inputs": [
        {
          "indexed": true,
          "internalType": "address[]",
          "name": "addresses",
          "type": "address[]"
        },
        {
          "indexed": true,
          "internalType": "uint256[]",
          "name": "amounts",
          "type": "uint256[]"
        }
      ],
      "name": "RefundCompleted",
      "type": "event"
    },
    {
      "anonymous": false,
      "inputs": [
        {
          "indexed": false,
          "internalType": "string",
          "name": "deliverableURI",
          "type": "string"
        }
      ],
      "name": "WorkDelivered",
      "type": "event"
    },
    {
      "inputs": [],
      "name": "_cfa",
      "outputs": [
        {
          "internalType": "contract IConstantFlowAgreementV1",
          "name": "",
          "type": "address"
        }
      ],
      "stateMutability": "view",
      "type": "function"
    },
    {
      "inputs": [],
      "name": "_dai",
      "outputs": [
        {
          "internalType": "contract ERC20WithTokenInfo",
          "name": "",
          "type": "address"
        }
      ],
      "stateMutability": "view",
      "type": "function"
    },
    {
      "inputs": [],
      "name": "_daix",
      "outputs": [
        {
          "internalType": "contract ISuperToken",
          "name": "",
          "type": "address"
        }
      ],
      "stateMutability": "view",
      "type": "function"
    },
    {
      "inputs": [],
      "name": "_ethx",
      "outputs": [
        {
          "internalType": "contract ISETH",
          "name": "",
          "type": "address"
        }
      ],
      "stateMutability": "view",
      "type": "function"
    },
    {
      "inputs": [],
      "name": "_host",
      "outputs": [
        {
          "internalType": "contract ISuperfluid",
          "name": "",
          "type": "address"
        }
      ],
      "stateMutability": "view",
      "type": "function"
    },
    {
      "inputs": [],
      "name": "category",
      "outputs": [
        {
          "internalType": "string",
          "name": "",
          "type": "string"
        }
      ],
      "stateMutability": "view",
      "type": "function"
    },
    {
      "inputs": [],
      "name": "creator",
      "outputs": [
        {
          "internalType": "address",
          "name": "",
          "type": "address"
        }
      ],
      "stateMutability": "view",
      "type": "function"
    },
    {
      "inputs": [],
      "name": "crowdCommission",
      "outputs": [
        {
          "internalType": "address",
          "name": "",
          "type": "address"
        }
      ],
      "stateMutability": "view",
      "type": "function"
    },
    {
      "inputs": [
        {
          "internalType": "string",
          "name": "deliverableURI_",
          "type": "string"
        },
        {
          "internalType": "address",
          "name": "slicerAddress",
          "type": "address"
        }
      ],
      "name": "deliver",
      "outputs": [],
      "stateMutability": "nonpayable",
      "type": "function"
    },
    {
      "inputs": [],
      "name": "deliverableMedium",
      "outputs": [
        {
          "internalType": "string",
          "name": "",
          "type": "string"
        }
      ],
      "stateMutability": "view",
      "type": "function"
    },
    {
      "inputs": [],
      "name": "deliverableURI",
      "outputs": [
        {
          "internalType": "string",
          "name": "",
          "type": "string"
        }
      ],
      "stateMutability": "view",
      "type": "function"
    },
    {
      "inputs": [],
      "name": "description",
      "outputs": [
        {
          "internalType": "string",
          "name": "",
          "type": "string"
        }
      ],
      "stateMutability": "view",
      "type": "function"
    },
    {
      "inputs": [],
      "name": "factory",
      "outputs": [
        {
          "internalType": "address",
          "name": "",
          "type": "address"
        }
      ],
      "stateMutability": "view",
      "type": "function"
    },
    {
      "inputs": [],
      "name": "fundingState",
      "outputs": [
        {
          "internalType": "enum CallForFundsStorage.FundingState",
          "name": "",
          "type": "uint8"
        }
      ],
      "stateMutability": "view",
      "type": "function"
    },
    {
      "inputs": [],
      "name": "genre",
      "outputs": [
        {
          "internalType": "string",
          "name": "",
          "type": "string"
        }
      ],
      "stateMutability": "view",
      "type": "function"
    },
    {
      "inputs": [],
      "name": "image",
      "outputs": [
        {
          "internalType": "string",
          "name": "",
          "type": "string"
        }
      ],
      "stateMutability": "view",
      "type": "function"
    },
    {
      "inputs": [],
      "name": "loudverseAdmin",
      "outputs": [
        {
          "internalType": "address",
          "name": "",
          "type": "address"
        }
      ],
      "stateMutability": "view",
      "type": "function"
    },
    {
      "inputs": [
        {
          "internalType": "address[]",
          "name": "funders",
          "type": "address[]"
        },
        {
          "internalType": "uint256",
          "name": "id",
          "type": "uint256"
        },
        {
          "internalType": "bytes",
          "name": "data",
          "type": "bytes"
        }
      ],
      "name": "matchCallForFunds",
      "outputs": [],
      "stateMutability": "payable",
      "type": "function"
    },
    {
      "inputs": [],
      "name": "minFundingAmount",
      "outputs": [
        {
          "internalType": "uint256",
          "name": "",
          "type": "uint256"
        }
      ],
      "stateMutability": "view",
      "type": "function"
    },
    {
      "inputs": [
        {
          "internalType": "address[]",
          "name": "funders",
          "type": "address[]"
        },
        {
          "internalType": "uint256",
          "name": "id",
          "type": "uint256"
        },
        {
          "internalType": "bytes",
          "name": "data",
          "type": "bytes"
        }
      ],
      "name": "mintCrowdCommission",
      "outputs": [],
      "stateMutability": "nonpayable",
      "type": "function"
    },
    {
      "inputs": [
        {
          "internalType": "address",
          "name": "to",
          "type": "address"
        },
        {
          "internalType": "address",
          "name": "royaltyRecipient",
          "type": "address"
        },
        {
          "internalType": "uint256",
          "name": "royaltyValue",
          "type": "uint256"
        },
        {
          "internalType": "string",
          "name": "uri",
          "type": "string"
        }
      ],
      "name": "mintSmartArt",
      "outputs": [],
      "stateMutability": "nonpayable",
      "type": "function"
    },
    {
      "inputs": [
        {
          "internalType": "address[]",
          "name": "addresses",
          "type": "address[]"
        },
        {
          "internalType": "uint256[]",
          "name": "amounts",
          "type": "uint256[]"
        }
      ],
      "name": "refund",
      "outputs": [],
      "stateMutability": "nonpayable",
      "type": "function"
    },
    {
      "inputs": [
        {
          "internalType": "address",
          "name": "factoryAddress",
          "type": "address"
        }
      ],
      "name": "setFactory",
      "outputs": [],
      "stateMutability": "nonpayable",
      "type": "function"
    },
    {
      "inputs": [],
      "name": "smartArt",
      "outputs": [
        {
          "internalType": "address",
          "name": "",
          "type": "address"
        }
      ],
      "stateMutability": "view",
      "type": "function"
    },
    {
      "inputs": [],
      "name": "startStream",
      "outputs": [],
      "stateMutability": "payable",
      "type": "function"
    },
    {
      "inputs": [],
      "name": "subgenre",
      "outputs": [
        {
          "internalType": "string",
          "name": "",
          "type": "string"
        }
      ],
      "stateMutability": "view",
      "type": "function"
    },
    {
      "inputs": [],
      "name": "timelineInDays",
      "outputs": [
        {
          "internalType": "uint96",
          "name": "",
          "type": "uint96"
        }
      ],
      "stateMutability": "view",
      "type": "function"
    },
    {
      "inputs": [],
      "name": "title",
      "outputs": [
        {
          "internalType": "string",
          "name": "",
          "type": "string"
        }
      ],
      "stateMutability": "view",
      "type": "function"
    },
    {
      "inputs": [],
      "name": "videoUri",
      "outputs": [
        {
          "internalType": "string",
          "name": "",
          "type": "string"
        }
      ],
      "stateMutability": "view",
      "type": "function"
    },
    {
      "stateMutability": "payable",
      "type": "receive"
    }
  ],
  "bytecode": "0x60c06040523480156200001157600080fd5b5060405162003142380380620031428339818101604052810190620000379190620000c4565b8173ffffffffffffffffffffffffffffffffffffffff1660808173ffffffffffffffffffffffffffffffffffffffff1660601b815250508073ffffffffffffffffffffffffffffffffffffffff1660a08173ffffffffffffffffffffffffffffffffffffffff1660601b8152505050506200015e565b600081519050620000be8162000144565b92915050565b60008060408385031215620000de57620000dd6200013f565b5b6000620000ee85828601620000ad565b92505060206200010185828601620000ad565b9150509250929050565b600062000118826200011f565b9050919050565b600073ffffffffffffffffffffffffffffffffffffffff82169050919050565b600080fd5b6200014f816200010b565b81146200015b57600080fd5b50565b60805160601c60a05160601c612faa6200019860003960008181610f1d01526119670152600081816117990152611a460152612faa6000f3fe6080604052600436106101c65760003560e01c80639cf0bd0d116100f7578063c791316e11610095578063ef430aa611610064578063ef430aa61461061b578063f3ccaac014610646578063f66c3ff414610671578063fe5a6fd11461069c5761021b565b8063c791316e1461056f578063d00127231461059a578063d2ac3182146105c5578063e6851127146105f05761021b565b8063b49ab7f6116100d1578063b49ab7f6146104e8578063b574d07114610511578063c091c4351461051b578063c45a0155146105445761021b565b80639cf0bd0d14610467578063ab115d7214610492578063b25cdccf146104bd5761021b565b80637284e416116101645780637e52b6ab1161013e5780637e52b6ab146103bb578063852e5a0a146103e65780638e22ce1d146104115780639699119d1461043c5761021b565b80637284e4161461033a57806377f78ad3146103655780637cb4d6d7146103905761021b565b80630e212fad116101a05780630e212fad1461029f57806317de3a41146102bb5780634a79d50c146102e65780635bb47808146103115761021b565b806302d05d3f14610220578063055268781461024b5780630abcf678146102765761021b565b3661021b573373ffffffffffffffffffffffffffffffffffffffff167f2f0f1ca72899668d93500f451ad66c0a4e9f7f3f4974f3206c27069fb2c7f2b134604051610211919061282e565b60405180910390a2005b600080fd5b34801561022c57600080fd5b506102356106c5565b6040516102429190612596565b60405180910390f35b34801561025757600080fd5b506102606106eb565b60405161026d91906127ea565b60405180910390f35b34801561028257600080fd5b5061029d6004803603810190610298919061214f565b610779565b005b6102b960048036038101906102b49190611fd1565b610905565b005b3480156102c757600080fd5b506102d0610a61565b6040516102dd91906127ea565b60405180910390f35b3480156102f257600080fd5b506102fb610aef565b60405161030891906127ea565b60405180910390f35b34801561031d57600080fd5b5061033860048036038101906103339190611f21565b610b7d565b005b34801561034657600080fd5b5061034f610c0d565b60405161035c91906127ea565b60405180910390f35b34801561037157600080fd5b5061037a610c9b565b60405161038791906126b9565b60405180910390f35b34801561039c57600080fd5b506103a5610cb3565b6040516103b291906126d4565b60405180910390f35b3480156103c757600080fd5b506103d0610ccb565b6040516103dd919061274d565b60405180910390f35b3480156103f257600080fd5b506103fb610ce3565b60405161040891906127b4565b60405180910390f35b34801561041d57600080fd5b50610426610cfb565b6040516104339190612596565b60405180910390f35b34801561044857600080fd5b50610451610d13565b60405161045e9190612849565b60405180910390f35b34801561047357600080fd5b5061047c610d31565b60405161048991906127ea565b60405180910390f35b34801561049e57600080fd5b506104a7610dbf565b6040516104b491906127ea565b60405180910390f35b3480156104c957600080fd5b506104d2610e4d565b6040516104df91906127cf565b60405180910390f35b3480156104f457600080fd5b5061050f600480360381019061050a9190611f4e565b610e60565b005b610519610fb3565b005b34801561052757600080fd5b50610542600480360381019061053d9190612061565b6114a2565b005b34801561055057600080fd5b50610559611753565b6040516105669190612596565b60405180910390f35b34801561057b57600080fd5b50610584611779565b604051610591919061282e565b60405180910390f35b3480156105a657600080fd5b506105af61177f565b6040516105bc9190612732565b60405180910390f35b3480156105d157600080fd5b506105da611797565b6040516105e79190612596565b60405180910390f35b3480156105fc57600080fd5b506106056117bb565b60405161061291906127ea565b60405180910390f35b34801561062757600080fd5b50610630611849565b60405161063d91906127ea565b60405180910390f35b34801561065257600080fd5b5061065b6118d7565b60405161066891906127ea565b60405180910390f35b34801561067d57600080fd5b50610686611965565b6040516106939190612596565b60405180910390f35b3480156106a857600080fd5b506106c360048036038101906106be9190611fd1565b611989565b005b600160009054906101000a900473ffffffffffffffffffffffffffffffffffffffff1681565b600b80546106f890612cfd565b80601f016020809104026020016040519081016040528092919081815260200182805461072490612cfd565b80156107715780601f1061074657610100808354040283529160200191610771565b820191906000526020600020905b81548152906001019060200180831161075457829003601f168201915b505050505081565b600160009054906101000a900473ffffffffffffffffffffffffffffffffffffffff1673ffffffffffffffffffffffffffffffffffffffff163373ffffffffffffffffffffffffffffffffffffffff16146107d357600080fd5b60038060048111156107e8576107e7612e07565b5b600d60009054906101000a900460ff16600481111561080a57610809612e07565b5b1461081457600080fd5b82600c908051906020019061082a929190611b48565b507fcb7230e908facd21b119ab7a11e0247b8d5374e49d8cc50fa9a53b7601f237c9600c60405161085b919061280c565b60405180910390a160008054906101000a900473ffffffffffffffffffffffffffffffffffffffff1673ffffffffffffffffffffffffffffffffffffffff1663b49ab7f633846103e8876040518563ffffffff1660e01b81526004016108c494939291906125b1565b600060405180830381600087803b1580156108de57600080fd5b505af11580156108f2573d6000803e3d6000fd5b505050506109006004611adc565b505050565b73a4e987fb3808d9fc206112967477793ea838945073ffffffffffffffffffffffffffffffffffffffff163373ffffffffffffffffffffffffffffffffffffffff161461095157600080fd5b600080600481111561096657610965612e07565b5b600d60009054906101000a900460ff16600481111561098857610987612e07565b5b1461099257600080fd5b347f2731c7491ce2f19381bc96e6c488a4e45d345b5efa893b339dd94e549f26477c60405160405180910390a260008054906101000a900473ffffffffffffffffffffffffffffffffffffffff1673ffffffffffffffffffffffffffffffffffffffff1663fe5a6fd1868686866040518563ffffffff1660e01b8152600401610a1e9493929190612672565b600060405180830381600087803b158015610a3857600080fd5b505af1158015610a4c573d6000803e3d6000fd5b50505050610a5a6002611adc565b5050505050565b60068054610a6e90612cfd565b80601f0160208091040260200160405190810160405280929190818152602001828054610a9a90612cfd565b8015610ae75780601f10610abc57610100808354040283529160200191610ae7565b820191906000526020600020905b815481529060010190602001808311610aca57829003601f168201915b505050505081565b60028054610afc90612cfd565b80601f0160208091040260200160405190810160405280929190818152602001828054610b2890612cfd565b8015610b755780601f10610b4a57610100808354040283529160200191610b75565b820191906000526020600020905b815481529060010190602001808311610b5857829003601f168201915b505050505081565b73a4e987fb3808d9fc206112967477793ea838945073ffffffffffffffffffffffffffffffffffffffff163373ffffffffffffffffffffffffffffffffffffffff1614610bc957600080fd5b80600d60016101000a81548173ffffffffffffffffffffffffffffffffffffffff021916908373ffffffffffffffffffffffffffffffffffffffff16021790555050565b60038054610c1a90612cfd565b80601f0160208091040260200160405190810160405280929190818152602001828054610c4690612cfd565b8015610c935780601f10610c6857610100808354040283529160200191610c93565b820191906000526020600020905b815481529060010190602001808311610c7657829003601f168201915b505050505081565b738f3cf7ad23cd3cadbd9735aff958023239c6a06381565b736eee6060f715257b970700bc2656de21dedf074c81565b731305f6b6df9dc47159d12eb7ac2804d4a33173c281565b733e14dc1b13c488a8d5d310918780c983bd5982e781565b73a4e987fb3808d9fc206112967477793ea838945081565b600960009054906101000a90046bffffffffffffffffffffffff1681565b60088054610d3e90612cfd565b80601f0160208091040260200160405190810160405280929190818152602001828054610d6a90612cfd565b8015610db75780601f10610d8c57610100808354040283529160200191610db7565b820191906000526020600020905b815481529060010190602001808311610d9a57829003601f168201915b505050505081565b60078054610dcc90612cfd565b80601f0160208091040260200160405190810160405280929190818152602001828054610df890612cfd565b8015610e455780601f10610e1a57610100808354040283529160200191610e45565b820191906000526020600020905b815481529060010190602001808311610e2857829003601f168201915b505050505081565b600d60009054906101000a900460ff1681565b6000600d60019054906101000a900473ffffffffffffffffffffffffffffffffffffffff1673ffffffffffffffffffffffffffffffffffffffff1663c4552791336040518263ffffffff1660e01b8152600401610ebd9190612596565b602060405180830381600087803b158015610ed757600080fd5b505af1158015610eeb573d6000803e3d6000fd5b505050506040513d601f19601f82011682018060405250810190610f0f91906120d9565b905080610f1b57600080fd5b7f000000000000000000000000000000000000000000000000000000000000000073ffffffffffffffffffffffffffffffffffffffff1663b85cbc79868686866040518563ffffffff1660e01b8152600401610f7a94939291906125fd565b600060405180830381600087803b158015610f9457600080fd5b505af1158015610fa8573d6000803e3d6000fd5b505050505050505050565b600160009054906101000a900473ffffffffffffffffffffffffffffffffffffffff1673ffffffffffffffffffffffffffffffffffffffff163373ffffffffffffffffffffffffffffffffffffffff161461100d57600080fd5b600280600481111561102257611021612e07565b5b600d60009054906101000a900460ff16600481111561104457611043612e07565b5b1461104e57600080fd5b60003090506000738f3cf7ad23cd3cadbd9735aff958023239c6a06373ffffffffffffffffffffffffffffffffffffffff166370a08231836040518263ffffffff1660e01b81526004016110a29190612596565b60206040518083038186803b1580156110ba57600080fd5b505afa1580156110ce573d6000803e3d6000fd5b505050506040513d601f19601f820116820180604052508101906110f291906121ab565b90506000731305f6b6df9dc47159d12eb7ac2804d4a33173c273ffffffffffffffffffffffffffffffffffffffff165a83604051602401611133919061282e565b6040516020818303038152906040527f45977d03000000000000000000000000000000000000000000000000000000007bffffffffffffffffffffffffffffffffffffffffffffffffffffffff19166020820180517bffffffffffffffffffffffffffffffffffffffffffffffffffffffff83818316178352505050506040516111bd919061257f565b60006040518083038160008787f1925050503d80600081146111fb576040519150601f19603f3d011682016040523d82523d6000602084013e611200565b606091505b505090508061120e57600080fd5b6000731305f6b6df9dc47159d12eb7ac2804d4a33173c273ffffffffffffffffffffffffffffffffffffffff166370a08231856040518263ffffffff1660e01b815260040161125d9190612596565b60206040518083038186803b15801561127557600080fd5b505afa158015611289573d6000803e3d6000fd5b505050506040513d601f19601f820116820180604052508101906112ad91906121ab565b90506000819050600062015180600960009054906101000a90046bffffffffffffffffffffffff166112df9190612aaa565b90506000829050600082826112f49190612a40565b9050733e14dc1b13c488a8d5d310918780c983bd5982e773ffffffffffffffffffffffffffffffffffffffff166339255d5b736eee6060f715257b970700bc2656de21dedf074c6362fc305e60e01b731305f6b6df9dc47159d12eb7ac2804d4a33173c23386600067ffffffffffffffff81111561137557611374612e94565b5b6040519080825280601f01601f1916602001820160405280156113a75781602001600182028036833780820191505090505b506040516024016113bb9493929190612768565b604051602081830303815290604052907bffffffffffffffffffffffffffffffffffffffffffffffffffffffff19166020820180517bffffffffffffffffffffffffffffffffffffffffffffffffffffffff83818316178352505050506040518363ffffffff1660e01b81526004016114359291906126ef565b600060405180830381600087803b15801561144f57600080fd5b505af1158015611463573d6000803e3d6000fd5b505050506040513d6000823e3d601f19601f8201168201806040525081019061148c9190612106565b506114976003611adc565b505050505050505050565b73a4e987fb3808d9fc206112967477793ea838945073ffffffffffffffffffffffffffffffffffffffff163373ffffffffffffffffffffffffffffffffffffffff16146114ee57600080fd5b600080600481111561150357611502612e07565b5b600d60009054906101000a900460ff16600481111561152557611524612e07565b5b1461152f57600080fd5b6000600190505b8351811015611636576000738f3cf7ad23cd3cadbd9735aff958023239c6a06373ffffffffffffffffffffffffffffffffffffffff1663a9059cbb86848151811061158457611583612e65565b5b602002602001015186858151811061159f5761159e612e65565b5b60200260200101516040518363ffffffff1660e01b81526004016115c4929190612649565b602060405180830381600087803b1580156115de57600080fd5b505af11580156115f2573d6000803e3d6000fd5b505050506040513d601f19601f8201168201806040525081019061161691906120d9565b90508061162257600080fd5b50808061162e90612d60565b915050611536565b5060003090506000738f3cf7ad23cd3cadbd9735aff958023239c6a06373ffffffffffffffffffffffffffffffffffffffff166370a08231836040518263ffffffff1660e01b815260040161168b9190612596565b60206040518083038186803b1580156116a357600080fd5b505afa1580156116b7573d6000803e3d6000fd5b505050506040513d601f19601f820116820180604052508101906116db91906121ab565b9050600081146116ea57600080fd5b836040516116f89190612568565b60405180910390208560405161170e9190612551565b60405180910390207f598d84241bfe93913995b638c1692ad8e8d01110f5bd1af00f0c68e095044c3d60405160405180910390a361174c6001611adc565b5050505050565b600d60019054906101000a900473ffffffffffffffffffffffffffffffffffffffff1681565b600a5481565b733ad736904e9e65189c3000c7dd2c8ac8bb7cd4e381565b7f000000000000000000000000000000000000000000000000000000000000000081565b600c80546117c890612cfd565b80601f01602080910402602001604051908101604052809291908181526020018280546117f490612cfd565b80156118415780601f1061181657610100808354040283529160200191611841565b820191906000526020600020905b81548152906001019060200180831161182457829003601f168201915b505050505081565b6005805461185690612cfd565b80601f016020809104026020016040519081016040528092919081815260200182805461188290612cfd565b80156118cf5780601f106118a4576101008083540402835291602001916118cf565b820191906000526020600020905b8154815290600101906020018083116118b257829003601f168201915b505050505081565b600480546118e490612cfd565b80601f016020809104026020016040519081016040528092919081815260200182805461191090612cfd565b801561195d5780601f106119325761010080835404028352916020019161195d565b820191906000526020600020905b81548152906001019060200180831161194057829003601f168201915b505050505081565b7f000000000000000000000000000000000000000000000000000000000000000081565b6000600d60019054906101000a900473ffffffffffffffffffffffffffffffffffffffff1673ffffffffffffffffffffffffffffffffffffffff1663c4552791336040518263ffffffff1660e01b81526004016119e69190612596565b602060405180830381600087803b158015611a0057600080fd5b505af1158015611a14573d6000803e3d6000fd5b505050506040513d601f19601f82011682018060405250810190611a3891906120d9565b905080611a4457600080fd5b7f000000000000000000000000000000000000000000000000000000000000000073ffffffffffffffffffffffffffffffffffffffff16630e61295f868686866040518563ffffffff1660e01b8152600401611aa39493929190612672565b600060405180830381600087803b158015611abd57600080fd5b505af1158015611ad1573d6000803e3d6000fd5b505050505050505050565b80600d60006101000a81548160ff02191690836004811115611b0157611b00612e07565b5b0217905550806004811115611b1957611b18612e07565b5b7f9a0a9fbc5661a10573bae4de0b7535a3629b80dfd45bca03da02e07950f17c9a60405160405180910390a250565b828054611b5490612cfd565b90600052602060002090601f016020900481019282611b765760008555611bbd565b82601f10611b8f57805160ff1916838001178555611bbd565b82800160010185558215611bbd579182015b82811115611bbc578251825591602001919060010190611ba1565b5b509050611bca9190611bce565b5090565b5b80821115611be7576000816000905550600101611bcf565b5090565b6000611bfe611bf984612889565b612864565b90508083825260208201905082856020860282011115611c2157611c20612ecd565b5b60005b85811015611c515781611c378882611d91565b845260208401935060208301925050600181019050611c24565b5050509392505050565b6000611c6e611c69846128b5565b612864565b90508083825260208201905082856020860282011115611c9157611c90612ecd565b5b60005b85811015611cc15781611ca78882611ef7565b845260208401935060208301925050600181019050611c94565b5050509392505050565b6000611cde611cd9846128e1565b612864565b905082815260208101848484011115611cfa57611cf9612ed2565b5b611d05848285612cbb565b509392505050565b6000611d20611d1b846128e1565b612864565b905082815260208101848484011115611d3c57611d3b612ed2565b5b611d47848285612cca565b509392505050565b6000611d62611d5d84612912565b612864565b905082815260208101848484011115611d7e57611d7d612ed2565b5b611d89848285612cbb565b509392505050565b600081359050611da081612f2f565b92915050565b60008083601f840112611dbc57611dbb612ec8565b5b8235905067ffffffffffffffff811115611dd957611dd8612ec3565b5b602083019150836020820283011115611df557611df4612ecd565b5b9250929050565b600082601f830112611e1157611e10612ec8565b5b8135611e21848260208601611beb565b91505092915050565b600082601f830112611e3f57611e3e612ec8565b5b8135611e4f848260208601611c5b565b91505092915050565b600081519050611e6781612f46565b92915050565b600082601f830112611e8257611e81612ec8565b5b8135611e92848260208601611ccb565b91505092915050565b600082601f830112611eb057611eaf612ec8565b5b8151611ec0848260208601611d0d565b91505092915050565b600082601f830112611ede57611edd612ec8565b5b8135611eee848260208601611d4f565b91505092915050565b600081359050611f0681612f5d565b92915050565b600081519050611f1b81612f5d565b92915050565b600060208284031215611f3757611f36612edc565b5b6000611f4584828501611d91565b91505092915050565b60008060008060808587031215611f6857611f67612edc565b5b6000611f7687828801611d91565b9450506020611f8787828801611d91565b9350506040611f9887828801611ef7565b925050606085013567ffffffffffffffff811115611fb957611fb8612ed7565b5b611fc587828801611ec9565b91505092959194509250565b60008060008060608587031215611feb57611fea612edc565b5b600085013567ffffffffffffffff81111561200957612008612ed7565b5b61201587828801611da6565b9450945050602061202887828801611ef7565b925050604085013567ffffffffffffffff81111561204957612048612ed7565b5b61205587828801611e6d565b91505092959194509250565b6000806040838503121561207857612077612edc565b5b600083013567ffffffffffffffff81111561209657612095612ed7565b5b6120a285828601611dfc565b925050602083013567ffffffffffffffff8111156120c3576120c2612ed7565b5b6120cf85828601611e2a565b9150509250929050565b6000602082840312156120ef576120ee612edc565b5b60006120fd84828501611e58565b91505092915050565b60006020828403121561211c5761211b612edc565b5b600082015167ffffffffffffffff81111561213a57612139612ed7565b5b61214684828501611e9b565b91505092915050565b6000806040838503121561216657612165612edc565b5b600083013567ffffffffffffffff81111561218457612183612ed7565b5b61219085828601611ec9565b92505060206121a185828601611d91565b9150509250929050565b6000602082840312156121c1576121c0612edc565b5b60006121cf84828501611f0c565b91505092915050565b60006121e48383612220565b60208301905092915050565b60006121fc838361223e565b60208301905092915050565b60006122148383612533565b60208301905092915050565b61222981612b99565b82525050565b61223881612b99565b82525050565b61224781612b99565b82525050565b600061225983856129d5565b935061226482612943565b8060005b8581101561229d5761227a8284612a29565b61228488826121d8565b975061228f836129ae565b925050600181019050612268565b5085925050509392505050565b60006122b582612982565b6122bf81856129e6565b93506122ca8361294d565b8060005b838110156122fb5781516122e288826121f0565b97506122ed836129bb565b9250506001810190506122ce565b5085935050505092915050565b60006123138261298d565b61231d81856129f1565b93506123288361295d565b8060005b838110156123595781516123408882612208565b975061234b836129c8565b92505060018101905061232c565b5085935050505092915050565b600061237182612998565b61237b81856129fc565b935061238b818560208601612cca565b61239481612ee1565b840191505092915050565b60006123aa82612998565b6123b48185612a0d565b93506123c4818560208601612cca565b80840191505092915050565b6123d981612c19565b82525050565b6123e881612c2b565b82525050565b6123f781612c3d565b82525050565b61240681612c4f565b82525050565b61241581612c61565b82525050565b61242481612c73565b82525050565b61243381612bca565b82525050565b61244281612c85565b82525050565b6000612453826129a3565b61245d8185612a18565b935061246d818560208601612cca565b61247681612ee1565b840191505092915050565b6000815461248e81612cfd565b6124988186612a18565b945060018216600081146124b357600181146124c5576124f8565b60ff19831686526020860193506124f8565b6124ce8561296d565b60005b838110156124f0578154818901526001820191506020810190506124d1565b808801955050505b50505092915050565b600061250e6002836129fc565b915061251982612ef2565b602082019050919050565b61252d81612bf7565b82525050565b61253c81612bf7565b82525050565b61254b81612c01565b82525050565b600061255d82846122aa565b915081905092915050565b60006125748284612308565b915081905092915050565b600061258b828461239f565b915081905092915050565b60006020820190506125ab600083018461222f565b92915050565b60006080820190506125c6600083018761222f565b6125d3602083018661222f565b6125e06040830185612439565b81810360608301526125f28184612448565b905095945050505050565b6000608082019050612612600083018761222f565b61261f602083018661222f565b61262c6040830185612524565b818103606083015261263e8184612448565b905095945050505050565b600060408201905061265e600083018561222f565b61266b6020830184612524565b9392505050565b6000606082019050818103600083015261268d81868861224d565b905061269c6020830185612524565b81810360408301526126ae8184612366565b905095945050505050565b60006020820190506126ce60008301846123d0565b92915050565b60006020820190506126e960008301846123df565b92915050565b600060608201905061270460008301856123df565b81810360208301526127168184612366565b9050818103604083015261272981612501565b90509392505050565b600060208201905061274760008301846123ee565b92915050565b600060208201905061276260008301846123fd565b92915050565b600060808201905061277d60008301876123fd565b61278a602083018661222f565b612797604083018561242a565b81810360608301526127a98184612366565b905095945050505050565b60006020820190506127c9600083018461240c565b92915050565b60006020820190506127e4600083018461241b565b92915050565b600060208201905081810360008301526128048184612448565b905092915050565b600060208201905081810360008301526128268184612481565b905092915050565b60006020820190506128436000830184612524565b92915050565b600060208201905061285e6000830184612542565b92915050565b600061286e61287f565b905061287a8282612d2f565b919050565b6000604051905090565b600067ffffffffffffffff8211156128a4576128a3612e94565b5b602082029050602081019050919050565b600067ffffffffffffffff8211156128d0576128cf612e94565b5b602082029050602081019050919050565b600067ffffffffffffffff8211156128fc576128fb612e94565b5b61290582612ee1565b9050602081019050919050565b600067ffffffffffffffff82111561292d5761292c612e94565b5b61293682612ee1565b9050602081019050919050565b6000819050919050565b6000819050602082019050919050565b6000819050602082019050919050565b60008190508160005260206000209050919050565b600081519050919050565b600081519050919050565b600081519050919050565b600081519050919050565b6000602082019050919050565b6000602082019050919050565b6000602082019050919050565b600082825260208201905092915050565b600081905092915050565b600081905092915050565b600082825260208201905092915050565b600081905092915050565b600082825260208201905092915050565b6000612a386020840184611d91565b905092915050565b6000612a4b82612bca565b9150612a5683612bca565b925082612a6657612a65612dd8565b5b600160000383147fffffffffffffffffffffffffffffffffffffffff80000000000000000000000083141615612a9f57612a9e612da9565b5b828205905092915050565b6000612ab582612bca565b9150612ac083612bca565b9250826b7fffffffffffffffffffffff0482116000841360008413161615612aeb57612aea612da9565b5b817fffffffffffffffffffffffffffffffffffffffff8000000000000000000000000583126000841260008413161615612b2857612b27612da9565b5b827fffffffffffffffffffffffffffffffffffffffff8000000000000000000000000582126000841360008412161615612b6557612b64612da9565b5b826b7fffffffffffffffffffffff0582126000841260008412161615612b8e57612b8d612da9565b5b828202905092915050565b6000612ba482612bd7565b9050919050565b60008115159050919050565b6000819050612bc582612f1b565b919050565b600081600b0b9050919050565b600073ffffffffffffffffffffffffffffffffffffffff82169050919050565b6000819050919050565b60006bffffffffffffffffffffffff82169050919050565b6000612c2482612c97565b9050919050565b6000612c3682612c97565b9050919050565b6000612c4882612c97565b9050919050565b6000612c5a82612c97565b9050919050565b6000612c6c82612c97565b9050919050565b6000612c7e82612bb7565b9050919050565b6000612c9082612bf7565b9050919050565b6000612ca282612ca9565b9050919050565b6000612cb482612bd7565b9050919050565b82818337600083830152505050565b60005b83811015612ce8578082015181840152602081019050612ccd565b83811115612cf7576000848401525b50505050565b60006002820490506001821680612d1557607f821691505b60208210811415612d2957612d28612e36565b5b50919050565b612d3882612ee1565b810181811067ffffffffffffffff82111715612d5757612d56612e94565b5b80604052505050565b6000612d6b82612bf7565b91507fffffffffffffffffffffffffffffffffffffffffffffffffffffffffffffffff821415612d9e57612d9d612da9565b5b600182019050919050565b7f4e487b7100000000000000000000000000000000000000000000000000000000600052601160045260246000fd5b7f4e487b7100000000000000000000000000000000000000000000000000000000600052601260045260246000fd5b7f4e487b7100000000000000000000000000000000000000000000000000000000600052602160045260246000fd5b7f4e487b7100000000000000000000000000000000000000000000000000000000600052602260045260246000fd5b7f4e487b7100000000000000000000000000000000000000000000000000000000600052603260045260246000fd5b7f4e487b7100000000000000000000000000000000000000000000000000000000600052604160045260246000fd5b600080fd5b600080fd5b600080fd5b600080fd5b600080fd5b600080fd5b6000601f19601f8301169050919050565b7f3078000000000000000000000000000000000000000000000000000000000000600082015250565b60058110612f2c57612f2b612e07565b5b50565b612f3881612b99565b8114612f4357600080fd5b50565b612f4f81612bab565b8114612f5a57600080fd5b50565b612f6681612bf7565b8114612f7157600080fd5b5056fea2646970667358221220b49c3be895e55be10d129e8b5ccea2f94e7721c0f78514a0a3bda83e4927c31b64736f6c63430008070033",
  "linkReferences": {},
  "deployedLinkReferences": {}
}