{
  "_format": "hh-sol-artifact-1",
  "contractName": "CallForFundsLogic",
  "sourceName": "contracts/CallForFundsLogic.sol",
  "abi": [
    {
      "inputs": [],
      "stateMutability": "nonpayable",
      "type": "constructor"
    },
    {
      "anonymous": false,
      "inputs": [
        {
          "indexed": true,
          "internalType": "address",
          "name": "burner",
          "type": "address"
        },
        {
          "indexed": true,
          "internalType": "address",
          "name": "owner",
          "type": "address"
        },
        {
          "indexed": false,
          "internalType": "uint256[]",
          "name": "ids",
          "type": "uint256[]"
        },
        {
          "indexed": false,
          "internalType": "uint256[]",
          "name": "amounts",
          "type": "uint256[]"
        }
      ],
      "name": "BurnBatch",
      "type": "event"
    },
    {
      "anonymous": false,
      "inputs": [
        {
          "indexed": true,
          "internalType": "address",
          "name": "burner",
          "type": "address"
        },
        {
          "indexed": true,
          "internalType": "address",
          "name": "owner",
          "type": "address"
        },
        {
          "indexed": true,
          "internalType": "uint256",
          "name": "id",
          "type": "uint256"
        },
        {
          "indexed": false,
          "internalType": "uint256",
          "name": "amount",
          "type": "uint256"
        }
      ],
      "name": "BurnSingle",
      "type": "event"
    },
    {
      "anonymous": false,
      "inputs": [
        {
          "indexed": true,
          "internalType": "uint256",
          "name": "amountMatched",
          "type": "uint256"
        }
      ],
      "name": "CallMatched",
      "type": "event"
    },
    {
      "anonymous": false,
      "inputs": [
        {
          "indexed": true,
          "internalType": "address",
          "name": "donator",
          "type": "address"
        },
        {
          "indexed": true,
          "internalType": "uint256",
          "name": "amount",
          "type": "uint256"
        }
      ],
      "name": "ContributionReceivedETH",
      "type": "event"
    },
    {
      "anonymous": false,
      "inputs": [
        {
          "indexed": true,
          "internalType": "enum CallForFundsStorage.FundingState",
          "name": "newFundingState",
          "type": "uint8"
        }
      ],
      "name": "FundingStateChanged",
      "type": "event"
    },
    {
      "anonymous": false,
      "inputs": [
        {
          "indexed": true,
          "internalType": "address",
          "name": "minter",
          "type": "address"
        },
        {
          "indexed": true,
          "internalType": "address",
          "name": "to",
          "type": "address"
        },
        {
          "indexed": false,
          "internalType": "uint256[]",
          "name": "ids",
          "type": "uint256[]"
        },
        {
          "indexed": false,
          "internalType": "uint256[]",
          "name": "amounts",
          "type": "uint256[]"
        }
      ],
      "name": "MintBatch",
      "type": "event"
    },
    {
      "anonymous": false,
      "inputs": [
        {
          "indexed": true,
          "internalType": "address",
          "name": "minter",
          "type": "address"
        },
        {
          "indexed": true,
          "internalType": "address",
          "name": "to",
          "type": "address"
        },
        {
          "indexed": true,
          "internalType": "uint256",
          "name": "id",
          "type": "uint256"
        },
        {
          "indexed": false,
          "internalType": "uint256",
          "name": "amount",
          "type": "uint256"
        }
      ],
      "name": "MintSingle",
      "type": "event"
    },
    {
      "anonymous": false,
      "inputs": [
        {
          "indexed": true,
          "internalType": "address[]",
          "name": "addresses",
          "type": "address[]"
        },
        {
          "indexed": true,
          "internalType": "uint256[]",
          "name": "amounts",
          "type": "uint256[]"
        }
      ],
      "name": "RefundCompleted",
      "type": "event"
    },
    {
      "anonymous": false,
      "inputs": [],
      "name": "StreamStarted",
      "type": "event"
    },
    {
      "anonymous": false,
      "inputs": [
        {
          "indexed": true,
          "internalType": "uint256",
          "name": "id",
          "type": "uint256"
        },
        {
          "indexed": false,
          "internalType": "string",
          "name": "value",
          "type": "string"
        }
      ],
      "name": "URI",
      "type": "event"
    },
    {
      "anonymous": false,
      "inputs": [
        {
          "indexed": false,
          "internalType": "string",
          "name": "deliverableURI",
          "type": "string"
        }
      ],
      "name": "WorkDelivered",
      "type": "event"
    },
    {
      "inputs": [
        {
          "internalType": "address",
          "name": "account",
          "type": "address"
        },
        {
          "internalType": "uint256",
          "name": "id",
          "type": "uint256"
        }
      ],
      "name": "balanceOf",
      "outputs": [
        {
          "internalType": "uint256",
          "name": "",
          "type": "uint256"
        }
      ],
      "stateMutability": "view",
      "type": "function"
    },
    {
      "inputs": [
        {
          "internalType": "address[]",
          "name": "accounts",
          "type": "address[]"
        },
        {
          "internalType": "uint256[]",
          "name": "ids",
          "type": "uint256[]"
        }
      ],
      "name": "balanceOfBatch",
      "outputs": [
        {
          "internalType": "uint256[]",
          "name": "",
          "type": "uint256[]"
        }
      ],
      "stateMutability": "view",
      "type": "function"
    },
    {
      "inputs": [
        {
          "internalType": "address",
          "name": "from",
          "type": "address"
        },
        {
          "internalType": "uint256",
          "name": "id",
          "type": "uint256"
        },
        {
          "internalType": "uint256",
          "name": "amount",
          "type": "uint256"
        },
        {
          "internalType": "bool",
          "name": "deleteURI",
          "type": "bool"
        }
      ],
      "name": "burn",
      "outputs": [],
      "stateMutability": "nonpayable",
      "type": "function"
    },
    {
      "inputs": [
        {
          "internalType": "address",
          "name": "from",
          "type": "address"
        },
        {
          "internalType": "uint256[]",
          "name": "ids",
          "type": "uint256[]"
        },
        {
          "internalType": "uint256[]",
          "name": "amounts",
          "type": "uint256[]"
        },
        {
          "internalType": "bool",
          "name": "deleteURI",
          "type": "bool"
        }
      ],
      "name": "burnBatch",
      "outputs": [],
      "stateMutability": "nonpayable",
      "type": "function"
    },
    {
      "inputs": [],
      "name": "category",
      "outputs": [
        {
          "internalType": "string",
          "name": "",
          "type": "string"
        }
      ],
      "stateMutability": "view",
      "type": "function"
    },
    {
      "inputs": [],
      "name": "creator",
      "outputs": [
        {
          "internalType": "address",
          "name": "",
          "type": "address"
        }
      ],
      "stateMutability": "view",
      "type": "function"
    },
    {
      "inputs": [
        {
          "internalType": "string",
          "name": "deliverableURI_",
          "type": "string"
        }
      ],
      "name": "deliver",
      "outputs": [],
      "stateMutability": "nonpayable",
      "type": "function"
    },
    {
      "inputs": [],
      "name": "deliverableMedium",
      "outputs": [
        {
          "internalType": "string",
          "name": "",
          "type": "string"
        }
      ],
      "stateMutability": "view",
      "type": "function"
    },
    {
      "inputs": [],
      "name": "deliverableURI",
      "outputs": [
        {
          "internalType": "string",
          "name": "",
          "type": "string"
        }
      ],
      "stateMutability": "view",
      "type": "function"
    },
    {
      "inputs": [],
      "name": "description",
      "outputs": [
        {
          "internalType": "string",
          "name": "",
          "type": "string"
        }
      ],
      "stateMutability": "view",
      "type": "function"
    },
    {
      "inputs": [],
      "name": "fundingState",
      "outputs": [
        {
          "internalType": "enum CallForFundsStorage.FundingState",
          "name": "",
          "type": "uint8"
        }
      ],
      "stateMutability": "view",
      "type": "function"
    },
    {
      "inputs": [],
      "name": "genre",
      "outputs": [
        {
          "internalType": "string",
          "name": "",
          "type": "string"
        }
      ],
      "stateMutability": "view",
      "type": "function"
    },
    {
      "inputs": [],
      "name": "image",
      "outputs": [
        {
          "internalType": "string",
          "name": "",
          "type": "string"
        }
      ],
      "stateMutability": "view",
      "type": "function"
    },
    {
      "inputs": [],
      "name": "issuer",
      "outputs": [
        {
          "internalType": "address",
          "name": "",
          "type": "address"
        }
      ],
      "stateMutability": "view",
      "type": "function"
    },
    {
      "inputs": [],
      "name": "loudverseAdmin",
      "outputs": [
        {
          "internalType": "address",
          "name": "",
          "type": "address"
        }
      ],
      "stateMutability": "view",
      "type": "function"
    },
    {
      "inputs": [
        {
          "internalType": "uint256",
          "name": "",
          "type": "uint256"
        }
      ],
      "name": "matchCallForFunds",
      "outputs": [],
      "stateMutability": "payable",
      "type": "function"
    },
    {
      "inputs": [],
      "name": "minFundingAmount",
      "outputs": [
        {
          "internalType": "uint256",
          "name": "",
          "type": "uint256"
        }
      ],
      "stateMutability": "view",
      "type": "function"
    },
    {
      "inputs": [
        {
          "internalType": "address",
          "name": "to",
          "type": "address"
        },
        {
          "internalType": "uint256",
          "name": "id",
          "type": "uint256"
        },
        {
          "internalType": "uint256",
          "name": "amount",
          "type": "uint256"
        },
        {
          "internalType": "string",
          "name": "uri",
          "type": "string"
        },
        {
          "internalType": "bytes",
          "name": "data",
          "type": "bytes"
        }
      ],
      "name": "mint",
      "outputs": [],
      "stateMutability": "nonpayable",
      "type": "function"
    },
    {
      "inputs": [
        {
          "internalType": "address",
          "name": "to",
          "type": "address"
        },
        {
          "internalType": "uint256[]",
          "name": "ids",
          "type": "uint256[]"
        },
        {
          "internalType": "uint256[]",
          "name": "amounts",
          "type": "uint256[]"
        },
        {
          "internalType": "string[]",
          "name": "uris",
          "type": "string[]"
        },
        {
          "internalType": "bytes",
          "name": "data",
          "type": "bytes"
        }
      ],
      "name": "mintBatch",
      "outputs": [],
      "stateMutability": "nonpayable",
      "type": "function"
    },
    {
      "inputs": [
        {
          "internalType": "address",
          "name": "creator",
          "type": "address"
        },
        {
          "internalType": "uint256",
          "name": "id",
          "type": "uint256"
        },
        {
          "internalType": "uint256",
          "name": "amount",
          "type": "uint256"
        },
        {
          "internalType": "string",
          "name": "creationTitle",
          "type": "string"
        },
        {
          "internalType": "enum CryptoCredential.Skill",
          "name": "skill",
          "type": "uint8"
        },
        {
          "internalType": "string",
          "name": "totalFunding",
          "type": "string"
        },
        {
          "internalType": "string",
          "name": "totalFunders",
          "type": "string"
        }
      ],
      "name": "mintCryptoCredential",
      "outputs": [],
      "stateMutability": "nonpayable",
      "type": "function"
    },
    {
      "inputs": [
        {
          "internalType": "address[]",
          "name": "addresses",
          "type": "address[]"
        },
        {
          "internalType": "uint256[]",
          "name": "amounts",
          "type": "uint256[]"
        }
      ],
      "name": "refund",
      "outputs": [],
      "stateMutability": "nonpayable",
      "type": "function"
    },
    {
      "inputs": [
        {
          "internalType": "string",
          "name": "newBaseURI",
          "type": "string"
        }
      ],
      "name": "setBaseURI",
      "outputs": [],
      "stateMutability": "nonpayable",
      "type": "function"
    },
    {
      "inputs": [
        {
          "internalType": "address",
          "name": "newIssuer",
          "type": "address"
        }
      ],
      "name": "setIssuer",
      "outputs": [],
      "stateMutability": "nonpayable",
      "type": "function"
    },
    {
      "inputs": [],
      "name": "startStream",
      "outputs": [],
      "stateMutability": "nonpayable",
      "type": "function"
    },
    {
      "inputs": [],
      "name": "subgenre",
      "outputs": [
        {
          "internalType": "string",
          "name": "",
          "type": "string"
        }
      ],
      "stateMutability": "view",
      "type": "function"
    },
    {
      "inputs": [],
      "name": "timelineInDays",
      "outputs": [
        {
          "internalType": "uint8",
          "name": "",
          "type": "uint8"
        }
      ],
      "stateMutability": "view",
      "type": "function"
    },
    {
      "inputs": [],
      "name": "title",
      "outputs": [
        {
          "internalType": "string",
          "name": "",
          "type": "string"
        }
      ],
      "stateMutability": "view",
      "type": "function"
    },
    {
      "inputs": [
        {
          "internalType": "uint256",
          "name": "id",
          "type": "uint256"
        }
      ],
      "name": "tokenURI",
      "outputs": [
        {
          "internalType": "string",
          "name": "",
          "type": "string"
        }
      ],
      "stateMutability": "view",
      "type": "function"
    },
    {
      "stateMutability": "payable",
      "type": "receive"
    }
  ],
  "bytecode": "0x608060405234801561001057600080fd5b5073a4e987fb3808d9fc206112967477793ea838945080600360006101000a81548173ffffffffffffffffffffffffffffffffffffffff021916908373ffffffffffffffffffffffffffffffffffffffff16021790555050614846806100776000396000f3fe6080604052600436106101ba5760003560e01c80639cf0bd0d116100ec578063c091c4351161008a578063c87b56dd11610064578063c87b56dd14610601578063e68511271461063e578063ef430aa614610669578063f3ccaac01461069457610205565b8063c091c43514610584578063c3eacdc1146105ad578063c791316e146105d657610205565b8063ab115d72116100c6578063ab115d72146104ee578063b25cdccf14610519578063b574d07114610544578063b9571e841461055b57610205565b80639cf0bd0d1461047e578063a4b645eb146104a9578063a824f920146104d257610205565b80634e1273f4116101595780637284e416116101335780637284e416146103d45780638e22ce1d146103ff57806391098ee41461042a5780639699119d1461045357610205565b80634e1273f41461034557806355cc4e571461038257806355f804b3146103ab57610205565b80631d143848116101955780631d1438481461029d57806331126dd1146102c857806344893bf3146102f15780634a79d50c1461031a57610205565b8062fdd58e1461020a57806302d05d3f1461024757806317de3a411461027257610205565b3661020557343373ffffffffffffffffffffffffffffffffffffffff167f2f0f1ca72899668d93500f451ad66c0a4e9f7f3f4974f3206c27069fb2c7f2b160405160405180910390a3005b600080fd5b34801561021657600080fd5b50610231600480360381019061022c91906131e6565b6106bf565b60405161023e9190613dbb565b60405180910390f35b34801561025357600080fd5b5061025c610719565b6040516102699190613b02565b60405180910390f35b34801561027e57600080fd5b5061028761073f565b6040516102949190613c37565b60405180910390f35b3480156102a957600080fd5b506102b26107cd565b6040516102bf9190613b02565b60405180910390f35b3480156102d457600080fd5b506102ef60048036038101906102ea9190613222565b6107f3565b005b3480156102fd57600080fd5b5061031860048036038101906103139190613153565b6108ab565b005b34801561032657600080fd5b5061032f610963565b60405161033c9190613c37565b60405180910390f35b34801561035157600080fd5b5061036c60048036038101906103679190613412565b6109f1565b6040516103799190613bc3565b60405180910390f35b34801561038e57600080fd5b506103a960048036038101906103a49190613053565b610ba2565b005b3480156103b757600080fd5b506103d260048036038101906103cd91906134a7565b610ce6565b005b3480156103e057600080fd5b506103e9610d82565b6040516103f69190613c37565b60405180910390f35b34801561040b57600080fd5b50610414610e10565b6040516104219190613b02565b60405180910390f35b34801561043657600080fd5b50610451600480360381019061044c91906134a7565b610e28565b005b34801561045f57600080fd5b50610468610f6c565b6040516104759190613dd6565b60405180910390f35b34801561048a57600080fd5b50610493610f7f565b6040516104a09190613c37565b60405180910390f35b3480156104b557600080fd5b506104d060048036038101906104cb9190613285565b61100d565b005b6104ec60048036038101906104e791906134e8565b6110b1565b005b3480156104fa57600080fd5b506105036111c5565b6040516105109190613c37565b60405180910390f35b34801561052557600080fd5b5061052e611253565b60405161053b9190613c1c565b60405180910390f35b34801561055057600080fd5b50610559611266565b005b34801561056757600080fd5b50610582600480360381019061057d919061307c565b61135a565b005b34801561059057600080fd5b506105ab60048036038101906105a69190613412565b6113fe565b005b3480156105b957600080fd5b506105d460048036038101906105cf919061332c565b6115f1565b005b3480156105e257600080fd5b506105eb611655565b6040516105f89190613dbb565b60405180910390f35b34801561060d57600080fd5b50610628600480360381019061062391906134e8565b61165b565b6040516106359190613c37565b60405180910390f35b34801561064a57600080fd5b5061065361172b565b6040516106609190613c37565b60405180910390f35b34801561067557600080fd5b5061067e6117b9565b60405161068b9190613c37565b60405180910390f35b3480156106a057600080fd5b506106a9611847565b6040516106b69190613c37565b60405180910390f35b600080600083815260200190815260200160002060008473ffffffffffffffffffffffffffffffffffffffff1673ffffffffffffffffffffffffffffffffffffffff16815260200190815260200160002054905092915050565b600560009054906101000a900473ffffffffffffffffffffffffffffffffffffffff1681565b600a805461074c90614139565b80601f016020809104026020016040519081016040528092919081815260200182805461077890614139565b80156107c55780601f1061079a576101008083540402835291602001916107c5565b820191906000526020600020905b8154815290600101906020018083116107a857829003601f168201915b505050505081565b600360009054906101000a900473ffffffffffffffffffffffffffffffffffffffff1681565b600360009054906101000a900473ffffffffffffffffffffffffffffffffffffffff1673ffffffffffffffffffffffffffffffffffffffff163373ffffffffffffffffffffffffffffffffffffffff1614610883576040517f08c379a000000000000000000000000000000000000000000000000000000000815260040161087a90613c9b565b60405180910390fd5b8015610899576108948484846118d5565b6108a5565b6108a48484846118ee565b5b50505050565b600360009054906101000a900473ffffffffffffffffffffffffffffffffffffffff1673ffffffffffffffffffffffffffffffffffffffff163373ffffffffffffffffffffffffffffffffffffffff161461093b576040517f08c379a000000000000000000000000000000000000000000000000000000000815260040161093290613c9b565b60405180910390fd5b80156109515761094c848484611ac9565b61095d565b61095c848484611d9e565b5b50505050565b6006805461097090614139565b80601f016020809104026020016040519081016040528092919081815260200182805461099c90614139565b80156109e95780601f106109be576101008083540402835291602001916109e9565b820191906000526020600020905b8154815290600101906020018083116109cc57829003601f168201915b505050505081565b60608151835114610a37576040517f08c379a0000000000000000000000000000000000000000000000000000000008152600401610a2e90613d3b565b60405180910390fd5b6000835167ffffffffffffffff811115610a7a577f4e487b7100000000000000000000000000000000000000000000000000000000600052604160045260246000fd5b604051908082528060200260200182016040528015610aa85781602001602082028036833780820191505090505b50905060005b8451811015610b9757610b41858281518110610af3577f4e487b7100000000000000000000000000000000000000000000000000000000600052603260045260246000fd5b6020026020010151858381518110610b34577f4e487b7100000000000000000000000000000000000000000000000000000000600052603260045260246000fd5b60200260200101516106bf565b828281518110610b7a577f4e487b7100000000000000000000000000000000000000000000000000000000600052603260045260246000fd5b60200260200101818152505080610b909061419c565b9050610aae565b508091505092915050565b600360009054906101000a900473ffffffffffffffffffffffffffffffffffffffff1673ffffffffffffffffffffffffffffffffffffffff163373ffffffffffffffffffffffffffffffffffffffff1614610c32576040517f08c379a0000000000000000000000000000000000000000000000000000000008152600401610c2990613c9b565b60405180910390fd5b600073ffffffffffffffffffffffffffffffffffffffff168173ffffffffffffffffffffffffffffffffffffffff161415610ca2576040517f08c379a0000000000000000000000000000000000000000000000000000000008152600401610c9990613d9b565b60405180910390fd5b80600360006101000a81548173ffffffffffffffffffffffffffffffffffffffff021916908373ffffffffffffffffffffffffffffffffffffffff16021790555050565b600360009054906101000a900473ffffffffffffffffffffffffffffffffffffffff1673ffffffffffffffffffffffffffffffffffffffff163373ffffffffffffffffffffffffffffffffffffffff1614610d76576040517f08c379a0000000000000000000000000000000000000000000000000000000008152600401610d6d90613c9b565b60405180910390fd5b610d7f8161206a565b50565b60078054610d8f90614139565b80601f0160208091040260200160405190810160405280929190818152602001828054610dbb90614139565b8015610e085780601f10610ddd57610100808354040283529160200191610e08565b820191906000526020600020905b815481529060010190602001808311610deb57829003601f168201915b505050505081565b73a4e987fb3808d9fc206112967477793ea838945081565b600560009054906101000a900473ffffffffffffffffffffffffffffffffffffffff1673ffffffffffffffffffffffffffffffffffffffff163373ffffffffffffffffffffffffffffffffffffffff1614610e8257600080fd5b6003806004811115610ebd577f4e487b7100000000000000000000000000000000000000000000000000000000600052602160045260246000fd5b601060009054906101000a900460ff166004811115610f05577f4e487b7100000000000000000000000000000000000000000000000000000000600052602160045260246000fd5b14610f0f57600080fd5b81600f9080519060200190610f25929190612c5b565b50610f306004612084565b7fcb7230e908facd21b119ab7a11e0247b8d5374e49d8cc50fa9a53b7601f237c9600f604051610f609190613c59565b60405180910390a15050565b600d60009054906101000a900460ff1681565b600c8054610f8c90614139565b80601f0160208091040260200160405190810160405280929190818152602001828054610fb890614139565b80156110055780601f10610fda57610100808354040283529160200191611005565b820191906000526020600020905b815481529060010190602001808311610fe857829003601f168201915b505050505081565b600360009054906101000a900473ffffffffffffffffffffffffffffffffffffffff1673ffffffffffffffffffffffffffffffffffffffff163373ffffffffffffffffffffffffffffffffffffffff161461109d576040517f08c379a000000000000000000000000000000000000000000000000000000000815260040161109490613c9b565b60405180910390fd5b6110aa858585858561213c565b5050505050565b73a4e987fb3808d9fc206112967477793ea838945073ffffffffffffffffffffffffffffffffffffffff163373ffffffffffffffffffffffffffffffffffffffff16146110fd57600080fd5b6000806004811115611138577f4e487b7100000000000000000000000000000000000000000000000000000000600052602160045260246000fd5b601060009054906101000a900460ff166004811115611180577f4e487b7100000000000000000000000000000000000000000000000000000000600052602160045260246000fd5b1461118a57600080fd5b6111946002612084565b347f2731c7491ce2f19381bc96e6c488a4e45d345b5efa893b339dd94e549f26477c60405160405180910390a25050565b600b80546111d290614139565b80601f01602080910402602001604051908101604052809291908181526020018280546111fe90614139565b801561124b5780601f106112205761010080835404028352916020019161124b565b820191906000526020600020905b81548152906001019060200180831161122e57829003601f168201915b505050505081565b601060009054906101000a900460ff1681565b600560009054906101000a900473ffffffffffffffffffffffffffffffffffffffff1673ffffffffffffffffffffffffffffffffffffffff163373ffffffffffffffffffffffffffffffffffffffff16146112c057600080fd5b60028060048111156112fb577f4e487b7100000000000000000000000000000000000000000000000000000000600052602160045260246000fd5b601060009054906101000a900460ff166004811115611343577f4e487b7100000000000000000000000000000000000000000000000000000000600052602160045260246000fd5b1461134d57600080fd5b6113576003612084565b50565b600360009054906101000a900473ffffffffffffffffffffffffffffffffffffffff1673ffffffffffffffffffffffffffffffffffffffff163373ffffffffffffffffffffffffffffffffffffffff16146113ea576040517f08c379a00000000000000000000000000000000000000000000000000000000081526004016113e190613c9b565b60405180910390fd5b6113f78585858585612159565b5050505050565b73a4e987fb3808d9fc206112967477793ea838945073ffffffffffffffffffffffffffffffffffffffff163373ffffffffffffffffffffffffffffffffffffffff161461144a57600080fd5b6001806004811115611485577f4e487b7100000000000000000000000000000000000000000000000000000000600052602160045260246000fd5b601060009054906101000a900460ff1660048111156114cd577f4e487b7100000000000000000000000000000000000000000000000000000000600052602160045260246000fd5b146114d757600080fd5b6000600190505b8351811015611593576000611573858381518110611525577f4e487b7100000000000000000000000000000000000000000000000000000000600052603260045260246000fd5b6020026020010151858481518110611566577f4e487b7100000000000000000000000000000000000000000000000000000000600052603260045260246000fd5b60200260200101516124ef565b90508061157f57600080fd5b50808061158b9061419c565b9150506114de565b50816040516115a29190613a5d565b6040518091039020836040516115b89190613a46565b60405180910390207f598d84241bfe93913995b638c1692ad8e8d01110f5bd1af00f0c68e095044c3d60405160405180910390a3505050565b73a4e987fb3808d9fc206112967477793ea838945073ffffffffffffffffffffffffffffffffffffffff163373ffffffffffffffffffffffffffffffffffffffff161461163d57600080fd5b61164c8787878787878761256b565b50505050505050565b600e5481565b6060600060026000848152602001908152602001600020805461167d90614139565b80601f01602080910402602001604051908101604052809291908181526020018280546116a990614139565b80156116f65780601f106116cb576101008083540402835291602001916116f6565b820191906000526020600020905b8154815290600101906020018083116116d957829003601f168201915b50505050509050611706836125af565b156117145780915050611726565b600061171e6125da565b905080925050505b919050565b600f805461173890614139565b80601f016020809104026020016040519081016040528092919081815260200182805461176490614139565b80156117b15780601f10611786576101008083540402835291602001916117b1565b820191906000526020600020905b81548152906001019060200180831161179457829003601f168201915b505050505081565b600980546117c690614139565b80601f01602080910402602001604051908101604052809291908181526020018280546117f290614139565b801561183f5780601f106118145761010080835404028352916020019161183f565b820191906000526020600020905b81548152906001019060200180831161182257829003601f168201915b505050505081565b6008805461185490614139565b80601f016020809104026020016040519081016040528092919081815260200182805461188090614139565b80156118cd5780601f106118a2576101008083540402835291602001916118cd565b820191906000526020600020905b8154815290600101906020018083116118b057829003601f168201915b505050505081565b6118e08383836118ee565b6118e98261266c565b505050565b600073ffffffffffffffffffffffffffffffffffffffff168373ffffffffffffffffffffffffffffffffffffffff16141561195e576040517f08c379a000000000000000000000000000000000000000000000000000000000815260040161195590613cfb565b60405180910390fd5b600033905061196f8185858561269d565b600080600085815260200190815260200160002060008673ffffffffffffffffffffffffffffffffffffffff1673ffffffffffffffffffffffffffffffffffffffff16815260200190815260200160002054905082811015611a06576040517f08c379a00000000000000000000000000000000000000000000000000000000081526004016119fd90613cbb565b60405180910390fd5b82810360008086815260200190815260200160002060008773ffffffffffffffffffffffffffffffffffffffff1673ffffffffffffffffffffffffffffffffffffffff16815260200190815260200160002081905550838573ffffffffffffffffffffffffffffffffffffffff168373ffffffffffffffffffffffffffffffffffffffff167f995c922928fc04a31c6446db7f51f402ddb95ac41fa3dca51c98ff1fe730053186604051611aba9190613dbb565b60405180910390a45050505050565b600073ffffffffffffffffffffffffffffffffffffffff168373ffffffffffffffffffffffffffffffffffffffff161415611b39576040517f08c379a0000000000000000000000000000000000000000000000000000000008152600401611b3090613cfb565b60405180910390fd5b8051825114611b7d576040517f08c379a0000000000000000000000000000000000000000000000000000000008152600401611b7490613d5b565b60405180910390fd5b600033905060005b8351811015611d30576000848281518110611bc9577f4e487b7100000000000000000000000000000000000000000000000000000000600052603260045260246000fd5b602002602001015190506000848381518110611c0e577f4e487b7100000000000000000000000000000000000000000000000000000000600052603260045260246000fd5b60200260200101519050611c248488848461269d565b600080600084815260200190815260200160002060008973ffffffffffffffffffffffffffffffffffffffff1673ffffffffffffffffffffffffffffffffffffffff16815260200190815260200160002054905081811015611cbb576040517f08c379a0000000000000000000000000000000000000000000000000000000008152600401611cb290613cbb565b60405180910390fd5b81810360008085815260200190815260200160002060008a73ffffffffffffffffffffffffffffffffffffffff1673ffffffffffffffffffffffffffffffffffffffff16815260200190815260200160002081905550611d1a8361266c565b5050508080611d289061419c565b915050611b85565b508373ffffffffffffffffffffffffffffffffffffffff168173ffffffffffffffffffffffffffffffffffffffff167ff6d51a8d20e8b0143ca41399aa93b2a480cb0b95e39847e4ebd3144b2db8775d8585604051611d90929190613be5565b60405180910390a350505050565b600073ffffffffffffffffffffffffffffffffffffffff168373ffffffffffffffffffffffffffffffffffffffff161415611e0e576040517f08c379a0000000000000000000000000000000000000000000000000000000008152600401611e0590613cfb565b60405180910390fd5b8051825114611e52576040517f08c379a0000000000000000000000000000000000000000000000000000000008152600401611e4990613d5b565b60405180910390fd5b600033905060005b8351811015611ffc576000848281518110611e9e577f4e487b7100000000000000000000000000000000000000000000000000000000600052603260045260246000fd5b602002602001015190506000848381518110611ee3577f4e487b7100000000000000000000000000000000000000000000000000000000600052603260045260246000fd5b60200260200101519050611ef98488848461269d565b600080600084815260200190815260200160002060008973ffffffffffffffffffffffffffffffffffffffff1673ffffffffffffffffffffffffffffffffffffffff16815260200190815260200160002054905081811015611f90576040517f08c379a0000000000000000000000000000000000000000000000000000000008152600401611f8790613cbb565b60405180910390fd5b81810360008085815260200190815260200160002060008a73ffffffffffffffffffffffffffffffffffffffff1673ffffffffffffffffffffffffffffffffffffffff168152602001908152602001600020819055505050508080611ff49061419c565b915050611e5a565b508373ffffffffffffffffffffffffffffffffffffffff168173ffffffffffffffffffffffffffffffffffffffff167ff6d51a8d20e8b0143ca41399aa93b2a480cb0b95e39847e4ebd3144b2db8775d858560405161205c929190613be5565b60405180910390a350505050565b8060019080519060200190612080929190612c5b565b5050565b80601060006101000a81548160ff021916908360048111156120cf577f4e487b7100000000000000000000000000000000000000000000000000000000600052602160045260246000fd5b021790555080600481111561210d577f4e487b7100000000000000000000000000000000000000000000000000000000600052602160045260246000fd5b7f9a0a9fbc5661a10573bae4de0b7535a3629b80dfd45bca03da02e07950f17c9a60405160405180910390a250565b612148858585846126a3565b6121528483612805565b5050505050565b600073ffffffffffffffffffffffffffffffffffffffff168573ffffffffffffffffffffffffffffffffffffffff1614156121c9576040517f08c379a00000000000000000000000000000000000000000000000000000000081526004016121c090613d7b565b60405180910390fd5b825184511461220d576040517f08c379a000000000000000000000000000000000000000000000000000000000815260040161220490613d5b565b60405180910390fd5b8151845114612251576040517f08c379a000000000000000000000000000000000000000000000000000000000815260040161224890613c7b565b60405180910390fd5b600033905060005b8551811015612472576122ef82888884815181106122a0577f4e487b7100000000000000000000000000000000000000000000000000000000600052603260045260246000fd5b60200260200101518885815181106122e1577f4e487b7100000000000000000000000000000000000000000000000000000000600052603260045260246000fd5b602002602001015187612869565b61237986828151811061232b577f4e487b7100000000000000000000000000000000000000000000000000000000600052603260045260246000fd5b602002602001015185838151811061236c577f4e487b7100000000000000000000000000000000000000000000000000000000600052603260045260246000fd5b6020026020010151612805565b8481815181106123b2577f4e487b7100000000000000000000000000000000000000000000000000000000600052603260045260246000fd5b60200260200101516000808884815181106123f6577f4e487b7100000000000000000000000000000000000000000000000000000000600052603260045260246000fd5b6020026020010151815260200190815260200160002060008973ffffffffffffffffffffffffffffffffffffffff1673ffffffffffffffffffffffffffffffffffffffff16815260200190815260200160002060008282546124589190613fd6565b92505081905550808061246a9061419c565b915050612259565b508573ffffffffffffffffffffffffffffffffffffffff168173ffffffffffffffffffffffffffffffffffffffff167f5c5ac6bfb3f54a39f008d2e9be10d575012f29230716d49e92da377d748b1a8787876040516124d2929190613be5565b60405180910390a36124e78187878786612870565b505050505050565b6000808373ffffffffffffffffffffffffffffffffffffffff16836175309060405161251a90613aed565b600060405180830381858888f193505050503d8060008114612558576040519150601f19603f3d011682016040523d82523d6000602084013e61255d565b606091505b505090508091505092915050565b6000848383866040516020016125849493929190613a74565b604051602081830303815290604052905060606125a4898989858561213c565b505050505050505050565b6000806002600084815260200190815260200160002080546125d090614139565b9050119050919050565b6060600180546125e990614139565b80601f016020809104026020016040519081016040528092919081815260200182805461261590614139565b80156126625780601f1061263757610100808354040283529160200191612662565b820191906000526020600020905b81548152906001019060200180831161264557829003601f168201915b5050505050905090565b612675816125af565b1561269a576002600082815260200190815260200160002060006126999190612ce1565b5b50565b50505050565b600073ffffffffffffffffffffffffffffffffffffffff168473ffffffffffffffffffffffffffffffffffffffff161415612713576040517f08c379a000000000000000000000000000000000000000000000000000000000815260040161270a90613d7b565b60405180910390fd5b60003390506127258186868686612869565b8260008086815260200190815260200160002060008773ffffffffffffffffffffffffffffffffffffffff1673ffffffffffffffffffffffffffffffffffffffff16815260200190815260200160002060008282546127849190613fd6565b92505081905550838573ffffffffffffffffffffffffffffffffffffffff168273ffffffffffffffffffffffffffffffffffffffff167f17facb1ae55b1a0fe54049767ddeb027123cb5d0379a5a1c6f5c954287d88fb3866040516127e99190613dbb565b60405180910390a46127fe8186868686612a54565b5050505050565b8060026000848152602001908152602001600020908051906020019061282c929190612c5b565b50817f369737eac2f50072db0001f8a5c3f225ab50d5ab38d8cbdbabf885abf2ab722a8260405161285d9190613c37565b60405180910390a25050565b5050505050565b61288f8473ffffffffffffffffffffffffffffffffffffffff16612c38565b15612a4d578373ffffffffffffffffffffffffffffffffffffffff1663c0bfec68868585856040518563ffffffff1660e01b81526004016128d39493929190613b1d565b602060405180830381600087803b1580156128ed57600080fd5b505af192505050801561291e57506040513d601f19601f8201168201806040525081019061291b919061347e565b60015b6129c45761292a6142b3565b806308c379a01415612987575061293f6146e6565b8061294a5750612989565b806040517f08c379a000000000000000000000000000000000000000000000000000000000815260040161297e9190613c37565b60405180910390fd5b505b6040517f08c379a00000000000000000000000000000000000000000000000000000000081526004016129bb90613d1b565b60405180910390fd5b63c0bfec6860e01b7bffffffffffffffffffffffffffffffffffffffffffffffffffffffff1916817bffffffffffffffffffffffffffffffffffffffffffffffffffffffff191614612a4b576040517f08c379a0000000000000000000000000000000000000000000000000000000008152600401612a4290613cdb565b60405180910390fd5b505b5050505050565b612a738473ffffffffffffffffffffffffffffffffffffffff16612c38565b15612c31578373ffffffffffffffffffffffffffffffffffffffff166345ed75d5868585856040518563ffffffff1660e01b8152600401612ab79493929190613b77565b602060405180830381600087803b158015612ad157600080fd5b505af1925050508015612b0257506040513d601f19601f82011682018060405250810190612aff919061347e565b60015b612ba857612b0e6142b3565b806308c379a01415612b6b5750612b236146e6565b80612b2e5750612b6d565b806040517f08c379a0000000000000000000000000000000000000000000000000000000008152600401612b629190613c37565b60405180910390fd5b505b6040517f08c379a0000000000000000000000000000000000000000000000000000000008152600401612b9f90613d1b565b60405180910390fd5b6345ed75d560e01b7bffffffffffffffffffffffffffffffffffffffffffffffffffffffff1916817bffffffffffffffffffffffffffffffffffffffffffffffffffffffff191614612c2f576040517f08c379a0000000000000000000000000000000000000000000000000000000008152600401612c2690613cdb565b60405180910390fd5b505b5050505050565b6000808273ffffffffffffffffffffffffffffffffffffffff163b119050919050565b828054612c6790614139565b90600052602060002090601f016020900481019282612c895760008555612cd0565b82601f10612ca257805160ff1916838001178555612cd0565b82800160010185558215612cd0579182015b82811115612ccf578251825591602001919060010190612cb4565b5b509050612cdd9190612d21565b5090565b508054612ced90614139565b6000825580601f10612cff5750612d1e565b601f016020900490600052602060002090810190612d1d9190612d21565b5b50565b5b80821115612d3a576000816000905550600101612d22565b5090565b6000612d51612d4c84613e16565b613df1565b90508083825260208201905082856020860282011115612d7057600080fd5b60005b85811015612da05781612d868882612f18565b845260208401935060208301925050600181019050612d73565b5050509392505050565b6000612dbd612db884613e42565b613df1565b90508083825260208201905082856020860282011115612ddc57600080fd5b60005b85811015612e2657813567ffffffffffffffff811115612dfe57600080fd5b808601612e0b8982613014565b85526020850194506020840193505050600181019050612ddf565b5050509392505050565b6000612e43612e3e84613e6e565b613df1565b90508083825260208201905082856020860282011115612e6257600080fd5b60005b85811015612e925781612e78888261303e565b845260208401935060208301925050600181019050612e65565b5050509392505050565b6000612eaf612eaa84613e9a565b613df1565b905082815260208101848484011115612ec757600080fd5b612ed28482856140f7565b509392505050565b6000612eed612ee884613ecb565b613df1565b905082815260208101848484011115612f0557600080fd5b612f108482856140f7565b509392505050565b600081359050612f27816147a4565b92915050565b600082601f830112612f3e57600080fd5b8135612f4e848260208601612d3e565b91505092915050565b600082601f830112612f6857600080fd5b8135612f78848260208601612daa565b91505092915050565b600082601f830112612f9257600080fd5b8135612fa2848260208601612e30565b91505092915050565b600081359050612fba816147bb565b92915050565b600081519050612fcf816147d2565b92915050565b600082601f830112612fe657600080fd5b8135612ff6848260208601612e9c565b91505092915050565b60008135905061300e816147e9565b92915050565b600082601f83011261302557600080fd5b8135613035848260208601612eda565b91505092915050565b60008135905061304d816147f9565b92915050565b60006020828403121561306557600080fd5b600061307384828501612f18565b91505092915050565b600080600080600060a0868803121561309457600080fd5b60006130a288828901612f18565b955050602086013567ffffffffffffffff8111156130bf57600080fd5b6130cb88828901612f81565b945050604086013567ffffffffffffffff8111156130e857600080fd5b6130f488828901612f81565b935050606086013567ffffffffffffffff81111561311157600080fd5b61311d88828901612f57565b925050608086013567ffffffffffffffff81111561313a57600080fd5b61314688828901612fd5565b9150509295509295909350565b6000806000806080858703121561316957600080fd5b600061317787828801612f18565b945050602085013567ffffffffffffffff81111561319457600080fd5b6131a087828801612f81565b935050604085013567ffffffffffffffff8111156131bd57600080fd5b6131c987828801612f81565b92505060606131da87828801612fab565b91505092959194509250565b600080604083850312156131f957600080fd5b600061320785828601612f18565b92505060206132188582860161303e565b9150509250929050565b6000806000806080858703121561323857600080fd5b600061324687828801612f18565b94505060206132578782880161303e565b93505060406132688782880161303e565b925050606061327987828801612fab565b91505092959194509250565b600080600080600060a0868803121561329d57600080fd5b60006132ab88828901612f18565b95505060206132bc8882890161303e565b94505060406132cd8882890161303e565b935050606086013567ffffffffffffffff8111156132ea57600080fd5b6132f688828901613014565b925050608086013567ffffffffffffffff81111561331357600080fd5b61331f88828901612fd5565b9150509295509295909350565b600080600080600080600060e0888a03121561334757600080fd5b60006133558a828b01612f18565b97505060206133668a828b0161303e565b96505060406133778a828b0161303e565b955050606088013567ffffffffffffffff81111561339457600080fd5b6133a08a828b01613014565b94505060806133b18a828b01612fff565b93505060a088013567ffffffffffffffff8111156133ce57600080fd5b6133da8a828b01613014565b92505060c088013567ffffffffffffffff8111156133f757600080fd5b6134038a828b01613014565b91505092959891949750929550565b6000806040838503121561342557600080fd5b600083013567ffffffffffffffff81111561343f57600080fd5b61344b85828601612f2d565b925050602083013567ffffffffffffffff81111561346857600080fd5b61347485828601612f81565b9150509250929050565b60006020828403121561349057600080fd5b600061349e84828501612fc0565b91505092915050565b6000602082840312156134b957600080fd5b600082013567ffffffffffffffff8111156134d357600080fd5b6134df84828501613014565b91505092915050565b6000602082840312156134fa57600080fd5b60006135088482850161303e565b91505092915050565b600061351d8383613568565b60208301905092915050565b60006135358383613a0a565b60208301905092915050565b600061354d8383613a28565b60208301905092915050565b6135628161402c565b82525050565b6135718161402c565b82525050565b600061358282613f31565b61358c8185613f77565b935061359783613efc565b8060005b838110156135c85781516135af8882613511565b97506135ba83613f5d565b92505060018101905061359b565b5085935050505092915050565b60006135e082613f3c565b6135ea8185613f82565b93506135f583613f0c565b8060005b8381101561362657815161360d8882613529565b975061361883613f6a565b9250506001810190506135f9565b5085935050505092915050565b600061363e82613f3c565b6136488185613f93565b935061365383613f0c565b8060005b8381101561368457815161366b8882613541565b975061367683613f6a565b925050600181019050613657565b5085935050505092915050565b600061369c82613f47565b6136a68185613f9e565b93506136b6818560208601614106565b6136bf816142d5565b840191505092915050565b6136d3816140d3565b82525050565b6136ea6136e5826140e5565b6141e5565b82525050565b60006136fb82613f52565b6137058185613fba565b9350613715818560208601614106565b61371e816142d5565b840191505092915050565b600061373482613f52565b61373e8185613fcb565b935061374e818560208601614106565b80840191505092915050565b6000815461376781614139565b6137718186613fba565b9450600182166000811461378c576001811461379e576137d1565b60ff19831686526020860193506137d1565b6137a785613f1c565b60005b838110156137c9578154818901526001820191506020810190506137aa565b808801955050505b50505092915050565b60006137e7602583613fba565b91506137f282614300565b604082019050919050565b600061380a601783613fcb565b91506138158261434f565b601782019050919050565b600061382d600a83613fcb565b915061383882614378565b600a82019050919050565b6000613850604283613fba565b915061385b826143a1565b606082019050919050565b6000613873602483613fba565b915061387e82614416565b604082019050919050565b6000613896602883613fba565b91506138a182614465565b604082019050919050565b60006138b9602383613fba565b91506138c4826144b4565b604082019050919050565b60006138dc603483613fba565b91506138e782614503565b604082019050919050565b60006138ff601483613fcb565b915061390a82614552565b601482019050919050565b6000613922602983613fba565b915061392d8261457b565b604082019050919050565b6000613945600583613fcb565b9150613950826145ca565b600582019050919050565b6000613968600683613fcb565b9150613973826145f3565b600682019050919050565b600061398b602883613fba565b91506139968261461c565b604082019050919050565b60006139ae600083613faf565b91506139b98261466b565b600082019050919050565b60006139d1602183613fba565b91506139dc8261466e565b604082019050919050565b60006139f4601e83613fba565b91506139ff826146bd565b602082019050919050565b613a13816140bc565b82525050565b613a22816140bc565b82525050565b613a31816140bc565b82525050565b613a40816140c6565b82525050565b6000613a528284613577565b915081905092915050565b6000613a698284613633565b915081905092915050565b6000613a7f826138f2565b9150613a8b8287613729565b9150613a968261395b565b9150613aa28286613729565b9150613aad82613820565b9150613ab98285613729565b9150613ac4826137fd565b9150613ad082846136d9565b600182019150613adf82613938565b915081905095945050505050565b6000613af8826139a1565b9150819050919050565b6000602082019050613b176000830184613559565b92915050565b6000608082019050613b326000830187613559565b8181036020830152613b4481866135d5565b90508181036040830152613b5881856135d5565b90508181036060830152613b6c8184613691565b905095945050505050565b6000608082019050613b8c6000830187613559565b613b996020830186613a19565b613ba66040830185613a19565b8181036060830152613bb88184613691565b905095945050505050565b60006020820190508181036000830152613bdd81846135d5565b905092915050565b60006040820190508181036000830152613bff81856135d5565b90508181036020830152613c1381846135d5565b90509392505050565b6000602082019050613c3160008301846136ca565b92915050565b60006020820190508181036000830152613c5181846136f0565b905092915050565b60006020820190508181036000830152613c73818461375a565b905092915050565b60006020820190508181036000830152613c94816137da565b9050919050565b60006020820190508181036000830152613cb481613843565b9050919050565b60006020820190508181036000830152613cd481613866565b9050919050565b60006020820190508181036000830152613cf481613889565b9050919050565b60006020820190508181036000830152613d14816138ac565b9050919050565b60006020820190508181036000830152613d34816138cf565b9050919050565b60006020820190508181036000830152613d5481613915565b9050919050565b60006020820190508181036000830152613d748161397e565b9050919050565b60006020820190508181036000830152613d94816139c4565b9050919050565b60006020820190508181036000830152613db4816139e7565b9050919050565b6000602082019050613dd06000830184613a19565b92915050565b6000602082019050613deb6000830184613a37565b92915050565b6000613dfb613e0c565b9050613e07828261416b565b919050565b6000604051905090565b600067ffffffffffffffff821115613e3157613e30614284565b5b602082029050602081019050919050565b600067ffffffffffffffff821115613e5d57613e5c614284565b5b602082029050602081019050919050565b600067ffffffffffffffff821115613e8957613e88614284565b5b602082029050602081019050919050565b600067ffffffffffffffff821115613eb557613eb4614284565b5b613ebe826142d5565b9050602081019050919050565b600067ffffffffffffffff821115613ee657613ee5614284565b5b613eef826142d5565b9050602081019050919050565b6000819050602082019050919050565b6000819050602082019050919050565b60008190508160005260206000209050919050565b600081519050919050565b600081519050919050565b600081519050919050565b600081519050919050565b6000602082019050919050565b6000602082019050919050565b600081905092915050565b600082825260208201905092915050565b600081905092915050565b600082825260208201905092915050565b600081905092915050565b600082825260208201905092915050565b600081905092915050565b6000613fe1826140bc565b9150613fec836140bc565b9250827fffffffffffffffffffffffffffffffffffffffffffffffffffffffffffffffff03821115614021576140206141f7565b5b828201905092915050565b60006140378261409c565b9050919050565b60008115159050919050565b60007fffffffff0000000000000000000000000000000000000000000000000000000082169050919050565b60008190506140848261477c565b919050565b600081905061409782614790565b919050565b600073ffffffffffffffffffffffffffffffffffffffff82169050919050565b6000819050919050565b600060ff82169050919050565b60006140de82614076565b9050919050565b60006140f082614089565b9050919050565b82818337600083830152505050565b60005b83811015614124578082015181840152602081019050614109565b83811115614133576000848401525b50505050565b6000600282049050600182168061415157607f821691505b6020821081141561416557614164614255565b5b50919050565b614174826142d5565b810181811067ffffffffffffffff8211171561419357614192614284565b5b80604052505050565b60006141a7826140bc565b91507fffffffffffffffffffffffffffffffffffffffffffffffffffffffffffffffff8214156141da576141d96141f7565b5b600182019050919050565b60006141f0826142e6565b9050919050565b7f4e487b7100000000000000000000000000000000000000000000000000000000600052601160045260246000fd5b7f4e487b7100000000000000000000000000000000000000000000000000000000600052602160045260246000fd5b7f4e487b7100000000000000000000000000000000000000000000000000000000600052602260045260246000fd5b7f4e487b7100000000000000000000000000000000000000000000000000000000600052604160045260246000fd5b600060033d11156142d25760046000803e6142cf6000516142f3565b90505b90565b6000601f19601f8301169050919050565b60008160f81b9050919050565b60008160e01c9050919050565b7f455243313233383a2069647320616e642055524973206c656e677468206d697360008201527f6d61746368000000000000000000000000000000000000000000000000000000602082015250565b7f2066756e646572732e27207d20736b696c6c3a207b2027000000000000000000600082015250565b7f204554482066726f6d2000000000000000000000000000000000000000000000600082015250565b7f556e617574686f72697a65643a206f6e6c7920636f6e7472616374206973737560008201527f65722063616e206973737565206e65772043727970746f43726564656e74696160208201527f6c73000000000000000000000000000000000000000000000000000000000000604082015250565b7f455243313233383a206275726e20616d6f756e7420657863656564732062616c60008201527f616e636500000000000000000000000000000000000000000000000000000000602082015250565b7f455243313233383a204552433132333852656365697665722072656a6563746560008201527f6420746f6b656e73000000000000000000000000000000000000000000000000602082015250565b7f455243313233383a206275726e2066726f6d20746865207a65726f206164647260008201527f6573730000000000000000000000000000000000000000000000000000000000602082015250565b7f455243313233383a207472616e7366657220746f206e6f6e204552433132333860008201527f526563656976657220696d706c656d656e746572000000000000000000000000602082015250565b7f7b207469746c653a207b20274372656174656420000000000000000000000000600082015250565b7f455243313233383a206163636f756e747320616e6420696473206c656e67746860008201527f206d69736d617463680000000000000000000000000000000000000000000000602082015250565b7f27207d207d000000000000000000000000000000000000000000000000000000600082015250565b7f2077697468200000000000000000000000000000000000000000000000000000600082015250565b7f455243313233383a2069647320616e6420616d6f756e7473206c656e6774682060008201527f6d69736d61746368000000000000000000000000000000000000000000000000602082015250565b50565b7f455243313233383a206d696e7420746f20746865207a65726f2061646472657360008201527f7300000000000000000000000000000000000000000000000000000000000000602082015250565b7f496e76616c6964206164647265737320666f72206e6577206973737565720000600082015250565b600060443d10156146f657614779565b6146fe613e0c565b60043d036004823e80513d602482011167ffffffffffffffff82111715614726575050614779565b808201805167ffffffffffffffff8111156147445750505050614779565b80602083010160043d038501811115614761575050505050614779565b6147708260200185018661416b565b82955050505050505b90565b6005811061478d5761478c614226565b5b50565b600a81106147a1576147a0614226565b5b50565b6147ad8161402c565b81146147b857600080fd5b50565b6147c48161403e565b81146147cf57600080fd5b50565b6147db8161404a565b81146147e657600080fd5b50565b600a81106147f657600080fd5b50565b614802816140bc565b811461480d57600080fd5b5056fea26469706673582212203930cbea7df204c1a7245c765b26b252d53c8d6a5b55ee05cc8982bccd30f5df64736f6c63430008040033",
  "linkReferences": {},
  "deployedLinkReferences": {}
}