{
  "_format": "hh-sol-artifact-1",
  "contractName": "CallForFundsLogic",
  "sourceName": "contracts/CallForFundsLogic.sol",
  "abi": [
    {
      "inputs": [
        {
          "internalType": "address",
          "name": "crowdCommission_",
          "type": "address"
        },
        {
          "internalType": "address",
          "name": "smartArt_",
          "type": "address"
        }
      ],
      "stateMutability": "nonpayable",
      "type": "constructor"
    },
    {
      "anonymous": false,
      "inputs": [
        {
          "indexed": true,
          "internalType": "uint256",
          "name": "amountMatched",
          "type": "uint256"
        }
      ],
      "name": "CallMatched",
      "type": "event"
    },
    {
      "anonymous": false,
      "inputs": [
        {
          "indexed": true,
          "internalType": "address",
          "name": "donator",
          "type": "address"
        },
        {
          "indexed": false,
          "internalType": "uint256",
          "name": "amount",
          "type": "uint256"
        }
      ],
      "name": "ContributionReceivedETH",
      "type": "event"
    },
    {
      "anonymous": false,
      "inputs": [
        {
          "indexed": true,
          "internalType": "enum CallForFundsStorage.FundingState",
          "name": "newFundingState",
          "type": "uint8"
        }
      ],
      "name": "FundingStateChanged",
      "type": "event"
    },
    {
      "anonymous": false,
      "inputs": [
        {
          "indexed": true,
          "internalType": "address[]",
          "name": "addresses",
          "type": "address[]"
        },
        {
          "indexed": true,
          "internalType": "uint256[]",
          "name": "amounts",
          "type": "uint256[]"
        }
      ],
      "name": "RefundCompleted",
      "type": "event"
    },
    {
      "anonymous": false,
      "inputs": [],
      "name": "StreamStarted",
      "type": "event"
    },
    {
      "anonymous": false,
      "inputs": [
        {
          "indexed": false,
          "internalType": "string",
          "name": "deliverableURI",
          "type": "string"
        }
      ],
      "name": "WorkDelivered",
      "type": "event"
    },
    {
      "inputs": [],
      "name": "_cfa",
      "outputs": [
        {
          "internalType": "contract IConstantFlowAgreementV1",
          "name": "",
          "type": "address"
        }
      ],
      "stateMutability": "view",
      "type": "function"
    },
    {
      "inputs": [],
      "name": "_dai",
      "outputs": [
        {
          "internalType": "contract ERC20WithTokenInfo",
          "name": "",
          "type": "address"
        }
      ],
      "stateMutability": "view",
      "type": "function"
    },
    {
      "inputs": [],
      "name": "_daix",
      "outputs": [
        {
          "internalType": "contract ISuperToken",
          "name": "",
          "type": "address"
        }
      ],
      "stateMutability": "view",
      "type": "function"
    },
    {
      "inputs": [],
      "name": "_ethx",
      "outputs": [
        {
          "internalType": "contract ISETH",
          "name": "",
          "type": "address"
        }
      ],
      "stateMutability": "view",
      "type": "function"
    },
    {
      "inputs": [],
      "name": "_host",
      "outputs": [
        {
          "internalType": "contract ISuperfluid",
          "name": "",
          "type": "address"
        }
      ],
      "stateMutability": "view",
      "type": "function"
    },
    {
      "inputs": [],
      "name": "category",
      "outputs": [
        {
          "internalType": "string",
          "name": "",
          "type": "string"
        }
      ],
      "stateMutability": "view",
      "type": "function"
    },
    {
      "inputs": [],
      "name": "creator",
      "outputs": [
        {
          "internalType": "address",
          "name": "",
          "type": "address"
        }
      ],
      "stateMutability": "view",
      "type": "function"
    },
    {
      "inputs": [],
      "name": "crowdCommission",
      "outputs": [
        {
          "internalType": "address",
          "name": "",
          "type": "address"
        }
      ],
      "stateMutability": "view",
      "type": "function"
    },
    {
      "inputs": [
        {
          "internalType": "string",
          "name": "deliverableURI_",
          "type": "string"
        },
        {
          "internalType": "address",
          "name": "slicerAddress",
          "type": "address"
        }
      ],
      "name": "deliver",
      "outputs": [],
      "stateMutability": "nonpayable",
      "type": "function"
    },
    {
      "inputs": [],
      "name": "deliverableMedium",
      "outputs": [
        {
          "internalType": "string",
          "name": "",
          "type": "string"
        }
      ],
      "stateMutability": "view",
      "type": "function"
    },
    {
      "inputs": [],
      "name": "deliverableURI",
      "outputs": [
        {
          "internalType": "string",
          "name": "",
          "type": "string"
        }
      ],
      "stateMutability": "view",
      "type": "function"
    },
    {
      "inputs": [],
      "name": "description",
      "outputs": [
        {
          "internalType": "string",
          "name": "",
          "type": "string"
        }
      ],
      "stateMutability": "view",
      "type": "function"
    },
    {
      "inputs": [],
      "name": "factory",
      "outputs": [
        {
          "internalType": "address",
          "name": "",
          "type": "address"
        }
      ],
      "stateMutability": "view",
      "type": "function"
    },
    {
      "inputs": [],
      "name": "fundingState",
      "outputs": [
        {
          "internalType": "enum CallForFundsStorage.FundingState",
          "name": "",
          "type": "uint8"
        }
      ],
      "stateMutability": "view",
      "type": "function"
    },
    {
      "inputs": [],
      "name": "genre",
      "outputs": [
        {
          "internalType": "string",
          "name": "",
          "type": "string"
        }
      ],
      "stateMutability": "view",
      "type": "function"
    },
    {
      "inputs": [],
      "name": "image",
      "outputs": [
        {
          "internalType": "string",
          "name": "",
          "type": "string"
        }
      ],
      "stateMutability": "view",
      "type": "function"
    },
    {
      "inputs": [],
      "name": "loudverseAdmin",
      "outputs": [
        {
          "internalType": "address",
          "name": "",
          "type": "address"
        }
      ],
      "stateMutability": "view",
      "type": "function"
    },
    {
      "inputs": [
        {
          "internalType": "address[]",
          "name": "funders",
          "type": "address[]"
        },
        {
          "internalType": "uint256",
          "name": "id",
          "type": "uint256"
        },
        {
          "internalType": "bytes",
          "name": "data",
          "type": "bytes"
        }
      ],
      "name": "matchCallForFunds",
      "outputs": [],
      "stateMutability": "payable",
      "type": "function"
    },
    {
      "inputs": [],
      "name": "minFundingAmount",
      "outputs": [
        {
          "internalType": "uint256",
          "name": "",
          "type": "uint256"
        }
      ],
      "stateMutability": "view",
      "type": "function"
    },
    {
      "inputs": [
        {
          "internalType": "address[]",
          "name": "funders",
          "type": "address[]"
        },
        {
          "internalType": "uint256",
          "name": "id",
          "type": "uint256"
        },
        {
          "internalType": "bytes",
          "name": "data",
          "type": "bytes"
        }
      ],
      "name": "mintCrowdCommission",
      "outputs": [],
      "stateMutability": "nonpayable",
      "type": "function"
    },
    {
      "inputs": [
        {
          "internalType": "address",
          "name": "to",
          "type": "address"
        },
        {
          "internalType": "address",
          "name": "royaltyRecipient",
          "type": "address"
        },
        {
          "internalType": "uint256",
          "name": "royaltyValue",
          "type": "uint256"
        },
        {
          "internalType": "string",
          "name": "uri",
          "type": "string"
        }
      ],
      "name": "mintSmartArt",
      "outputs": [],
      "stateMutability": "nonpayable",
      "type": "function"
    },
    {
      "inputs": [
        {
          "internalType": "address[]",
          "name": "addresses",
          "type": "address[]"
        },
        {
          "internalType": "uint256[]",
          "name": "amounts",
          "type": "uint256[]"
        }
      ],
      "name": "refund",
      "outputs": [],
      "stateMutability": "nonpayable",
      "type": "function"
    },
    {
      "inputs": [
        {
          "internalType": "address",
          "name": "factoryAddress",
          "type": "address"
        }
      ],
      "name": "setFactory",
      "outputs": [],
      "stateMutability": "nonpayable",
      "type": "function"
    },
    {
      "inputs": [],
      "name": "smartArt",
      "outputs": [
        {
          "internalType": "address",
          "name": "",
          "type": "address"
        }
      ],
      "stateMutability": "view",
      "type": "function"
    },
    {
      "inputs": [],
      "name": "startStream",
      "outputs": [],
      "stateMutability": "payable",
      "type": "function"
    },
    {
      "inputs": [],
      "name": "subgenre",
      "outputs": [
        {
          "internalType": "string",
          "name": "",
          "type": "string"
        }
      ],
      "stateMutability": "view",
      "type": "function"
    },
    {
      "inputs": [],
      "name": "timelineInDays",
      "outputs": [
        {
          "internalType": "uint96",
          "name": "",
          "type": "uint96"
        }
      ],
      "stateMutability": "view",
      "type": "function"
    },
    {
      "inputs": [],
      "name": "title",
      "outputs": [
        {
          "internalType": "string",
          "name": "",
          "type": "string"
        }
      ],
      "stateMutability": "view",
      "type": "function"
    },
    {
      "inputs": [],
      "name": "videoUri",
      "outputs": [
        {
          "internalType": "string",
          "name": "",
          "type": "string"
        }
      ],
      "stateMutability": "view",
      "type": "function"
    },
    {
      "stateMutability": "payable",
      "type": "receive"
    }
  ],
  "bytecode": "0x60c06040523480156200001157600080fd5b5060405162003084380380620030848339818101604052810190620000379190620000c4565b8173ffffffffffffffffffffffffffffffffffffffff1660808173ffffffffffffffffffffffffffffffffffffffff1660601b815250508073ffffffffffffffffffffffffffffffffffffffff1660a08173ffffffffffffffffffffffffffffffffffffffff1660601b8152505050506200015e565b600081519050620000be8162000144565b92915050565b60008060408385031215620000de57620000dd6200013f565b5b6000620000ee85828601620000ad565b92505060206200010185828601620000ad565b9150509250929050565b600062000118826200011f565b9050919050565b600073ffffffffffffffffffffffffffffffffffffffff82169050919050565b600080fd5b6200014f816200010b565b81146200015b57600080fd5b50565b60805160601c60a05160601c612eec6200019860003960008181610f1d015261181b01526000818161164d01526118fa0152612eec6000f3fe6080604052600436106101c65760003560e01c80639cf0bd0d116100f7578063c791316e11610095578063ef430aa611610064578063ef430aa61461061b578063f3ccaac014610646578063f66c3ff414610671578063fe5a6fd11461069c5761021b565b8063c791316e1461056f578063d00127231461059a578063d2ac3182146105c5578063e6851127146105f05761021b565b8063b49ab7f6116100d1578063b49ab7f6146104e8578063b574d07114610511578063c091c4351461051b578063c45a0155146105445761021b565b80639cf0bd0d14610467578063ab115d7214610492578063b25cdccf146104bd5761021b565b80637284e416116101645780637e52b6ab1161013e5780637e52b6ab146103bb578063852e5a0a146103e65780638e22ce1d146104115780639699119d1461043c5761021b565b80637284e4161461033a57806377f78ad3146103655780637cb4d6d7146103905761021b565b80630e212fad116101a05780630e212fad1461029f57806317de3a41146102bb5780634a79d50c146102e65780635bb47808146103115761021b565b806302d05d3f14610220578063055268781461024b5780630abcf678146102765761021b565b3661021b573373ffffffffffffffffffffffffffffffffffffffff167f2f0f1ca72899668d93500f451ad66c0a4e9f7f3f4974f3206c27069fb2c7f2b134604051610211919061276d565b60405180910390a2005b600080fd5b34801561022c57600080fd5b506102356106c5565b60405161024291906124fe565b60405180910390f35b34801561025757600080fd5b506102606106eb565b60405161026d9190612729565b60405180910390f35b34801561028257600080fd5b5061029d6004803603810190610298919061207f565b610779565b005b6102b960048036038101906102b49190611f01565b610905565b005b3480156102c757600080fd5b506102d0610a61565b6040516102dd9190612729565b60405180910390f35b3480156102f257600080fd5b506102fb610aef565b6040516103089190612729565b60405180910390f35b34801561031d57600080fd5b5061033860048036038101906103339190611e51565b610b7d565b005b34801561034657600080fd5b5061034f610c0d565b60405161035c9190612729565b60405180910390f35b34801561037157600080fd5b5061037a610c9b565b60405161038791906125f8565b60405180910390f35b34801561039c57600080fd5b506103a5610cb3565b6040516103b29190612613565b60405180910390f35b3480156103c757600080fd5b506103d0610ccb565b6040516103dd919061268c565b60405180910390f35b3480156103f257600080fd5b506103fb610ce3565b60405161040891906126f3565b60405180910390f35b34801561041d57600080fd5b50610426610cfb565b60405161043391906124fe565b60405180910390f35b34801561044857600080fd5b50610451610d13565b60405161045e9190612788565b60405180910390f35b34801561047357600080fd5b5061047c610d31565b6040516104899190612729565b60405180910390f35b34801561049e57600080fd5b506104a7610dbf565b6040516104b49190612729565b60405180910390f35b3480156104c957600080fd5b506104d2610e4d565b6040516104df919061270e565b60405180910390f35b3480156104f457600080fd5b5061050f600480360381019061050a9190611e7e565b610e60565b005b610519610fb3565b005b34801561052757600080fd5b50610542600480360381019061053d9190611f91565b6114a2565b005b34801561055057600080fd5b50610559611607565b60405161056691906124fe565b60405180910390f35b34801561057b57600080fd5b5061058461162d565b604051610591919061276d565b60405180910390f35b3480156105a657600080fd5b506105af611633565b6040516105bc9190612671565b60405180910390f35b3480156105d157600080fd5b506105da61164b565b6040516105e791906124fe565b60405180910390f35b3480156105fc57600080fd5b5061060561166f565b6040516106129190612729565b60405180910390f35b34801561062757600080fd5b506106306116fd565b60405161063d9190612729565b60405180910390f35b34801561065257600080fd5b5061065b61178b565b6040516106689190612729565b60405180910390f35b34801561067d57600080fd5b50610686611819565b60405161069391906124fe565b60405180910390f35b3480156106a857600080fd5b506106c360048036038101906106be9190611f01565b61183d565b005b600160009054906101000a900473ffffffffffffffffffffffffffffffffffffffff1681565b600b80546106f890612c3c565b80601f016020809104026020016040519081016040528092919081815260200182805461072490612c3c565b80156107715780601f1061074657610100808354040283529160200191610771565b820191906000526020600020905b81548152906001019060200180831161075457829003601f168201915b505050505081565b600160009054906101000a900473ffffffffffffffffffffffffffffffffffffffff1673ffffffffffffffffffffffffffffffffffffffff163373ffffffffffffffffffffffffffffffffffffffff16146107d357600080fd5b60038060048111156107e8576107e7612d46565b5b600d60009054906101000a900460ff16600481111561080a57610809612d46565b5b1461081457600080fd5b82600c908051906020019061082a929190611a78565b507fcb7230e908facd21b119ab7a11e0247b8d5374e49d8cc50fa9a53b7601f237c9600c60405161085b919061274b565b60405180910390a160008054906101000a900473ffffffffffffffffffffffffffffffffffffffff1673ffffffffffffffffffffffffffffffffffffffff1663b49ab7f633846103e8876040518563ffffffff1660e01b81526004016108c49493929190612519565b600060405180830381600087803b1580156108de57600080fd5b505af11580156108f2573d6000803e3d6000fd5b505050506109006004611990565b505050565b73a4e987fb3808d9fc206112967477793ea838945073ffffffffffffffffffffffffffffffffffffffff163373ffffffffffffffffffffffffffffffffffffffff161461095157600080fd5b600080600481111561096657610965612d46565b5b600d60009054906101000a900460ff16600481111561098857610987612d46565b5b1461099257600080fd5b347f2731c7491ce2f19381bc96e6c488a4e45d345b5efa893b339dd94e549f26477c60405160405180910390a260008054906101000a900473ffffffffffffffffffffffffffffffffffffffff1673ffffffffffffffffffffffffffffffffffffffff1663fe5a6fd1868686866040518563ffffffff1660e01b8152600401610a1e94939291906125b1565b600060405180830381600087803b158015610a3857600080fd5b505af1158015610a4c573d6000803e3d6000fd5b50505050610a5a6002611990565b5050505050565b60068054610a6e90612c3c565b80601f0160208091040260200160405190810160405280929190818152602001828054610a9a90612c3c565b8015610ae75780601f10610abc57610100808354040283529160200191610ae7565b820191906000526020600020905b815481529060010190602001808311610aca57829003601f168201915b505050505081565b60028054610afc90612c3c565b80601f0160208091040260200160405190810160405280929190818152602001828054610b2890612c3c565b8015610b755780601f10610b4a57610100808354040283529160200191610b75565b820191906000526020600020905b815481529060010190602001808311610b5857829003601f168201915b505050505081565b73a4e987fb3808d9fc206112967477793ea838945073ffffffffffffffffffffffffffffffffffffffff163373ffffffffffffffffffffffffffffffffffffffff1614610bc957600080fd5b80600d60016101000a81548173ffffffffffffffffffffffffffffffffffffffff021916908373ffffffffffffffffffffffffffffffffffffffff16021790555050565b60038054610c1a90612c3c565b80601f0160208091040260200160405190810160405280929190818152602001828054610c4690612c3c565b8015610c935780601f10610c6857610100808354040283529160200191610c93565b820191906000526020600020905b815481529060010190602001808311610c7657829003601f168201915b505050505081565b7315f0ca26781c3852f8166ed2ebce5d18265cceb781565b7349e565ed1bdc17f3d220f72df0857c26fa83f87381565b735d8b4c2554aeb7e86f387b4d6c00ac33499ed01f81565b73eb796bdb90ffa0f28255275e16936d25d341860381565b73a4e987fb3808d9fc206112967477793ea838945081565b600960009054906101000a90046bffffffffffffffffffffffff1681565b60088054610d3e90612c3c565b80601f0160208091040260200160405190810160405280929190818152602001828054610d6a90612c3c565b8015610db75780601f10610d8c57610100808354040283529160200191610db7565b820191906000526020600020905b815481529060010190602001808311610d9a57829003601f168201915b505050505081565b60078054610dcc90612c3c565b80601f0160208091040260200160405190810160405280929190818152602001828054610df890612c3c565b8015610e455780601f10610e1a57610100808354040283529160200191610e45565b820191906000526020600020905b815481529060010190602001808311610e2857829003601f168201915b505050505081565b600d60009054906101000a900460ff1681565b6000600d60019054906101000a900473ffffffffffffffffffffffffffffffffffffffff1673ffffffffffffffffffffffffffffffffffffffff1663c4552791336040518263ffffffff1660e01b8152600401610ebd91906124fe565b602060405180830381600087803b158015610ed757600080fd5b505af1158015610eeb573d6000803e3d6000fd5b505050506040513d601f19601f82011682018060405250810190610f0f9190612009565b905080610f1b57600080fd5b7f000000000000000000000000000000000000000000000000000000000000000073ffffffffffffffffffffffffffffffffffffffff1663b85cbc79868686866040518563ffffffff1660e01b8152600401610f7a9493929190612565565b600060405180830381600087803b158015610f9457600080fd5b505af1158015610fa8573d6000803e3d6000fd5b505050505050505050565b600160009054906101000a900473ffffffffffffffffffffffffffffffffffffffff1673ffffffffffffffffffffffffffffffffffffffff163373ffffffffffffffffffffffffffffffffffffffff161461100d57600080fd5b600280600481111561102257611021612d46565b5b600d60009054906101000a900460ff16600481111561104457611043612d46565b5b1461104e57600080fd5b600030905060007315f0ca26781c3852f8166ed2ebce5d18265cceb773ffffffffffffffffffffffffffffffffffffffff166370a08231836040518263ffffffff1660e01b81526004016110a291906124fe565b60206040518083038186803b1580156110ba57600080fd5b505afa1580156110ce573d6000803e3d6000fd5b505050506040513d601f19601f820116820180604052508101906110f291906120db565b90506000735d8b4c2554aeb7e86f387b4d6c00ac33499ed01f73ffffffffffffffffffffffffffffffffffffffff165a83604051602401611133919061276d565b6040516020818303038152906040527f45977d03000000000000000000000000000000000000000000000000000000007bffffffffffffffffffffffffffffffffffffffffffffffffffffffff19166020820180517bffffffffffffffffffffffffffffffffffffffffffffffffffffffff83818316178352505050506040516111bd91906124d2565b60006040518083038160008787f1925050503d80600081146111fb576040519150601f19603f3d011682016040523d82523d6000602084013e611200565b606091505b505090508061120e57600080fd5b6000735d8b4c2554aeb7e86f387b4d6c00ac33499ed01f73ffffffffffffffffffffffffffffffffffffffff166370a08231856040518263ffffffff1660e01b815260040161125d91906124fe565b60206040518083038186803b15801561127557600080fd5b505afa158015611289573d6000803e3d6000fd5b505050506040513d601f19601f820116820180604052508101906112ad91906120db565b90506000819050600062015180600960009054906101000a90046bffffffffffffffffffffffff166112df91906129e9565b90506000829050600082826112f4919061297f565b905073eb796bdb90ffa0f28255275e16936d25d341860373ffffffffffffffffffffffffffffffffffffffff166339255d5b7349e565ed1bdc17f3d220f72df0857c26fa83f8736362fc305e60e01b735d8b4c2554aeb7e86f387b4d6c00ac33499ed01f3386600067ffffffffffffffff81111561137557611374612dd3565b5b6040519080825280601f01601f1916602001820160405280156113a75781602001600182028036833780820191505090505b506040516024016113bb94939291906126a7565b604051602081830303815290604052907bffffffffffffffffffffffffffffffffffffffffffffffffffffffff19166020820180517bffffffffffffffffffffffffffffffffffffffffffffffffffffffff83818316178352505050506040518363ffffffff1660e01b815260040161143592919061262e565b600060405180830381600087803b15801561144f57600080fd5b505af1158015611463573d6000803e3d6000fd5b505050506040513d6000823e3d601f19601f8201168201806040525081019061148c9190612036565b506114976003611990565b505050505050505050565b73a4e987fb3808d9fc206112967477793ea838945073ffffffffffffffffffffffffffffffffffffffff163373ffffffffffffffffffffffffffffffffffffffff16146114ee57600080fd5b600080600481111561150357611502612d46565b5b600d60009054906101000a900460ff16600481111561152557611524612d46565b5b1461152f57600080fd5b6000600190505b835181101561159f57600061157f85838151811061155757611556612da4565b5b602002602001015185848151811061157257611571612da4565b5b60200260200101516119fc565b90508061158b57600080fd5b50808061159790612c9f565b915050611536565b50816040516115ae91906124bb565b6040518091039020836040516115c491906124a4565b60405180910390207f598d84241bfe93913995b638c1692ad8e8d01110f5bd1af00f0c68e095044c3d60405160405180910390a36116026001611990565b505050565b600d60019054906101000a900473ffffffffffffffffffffffffffffffffffffffff1681565b600a5481565b7396b82b65acf7072efeb00502f45757f254c2a0d481565b7f000000000000000000000000000000000000000000000000000000000000000081565b600c805461167c90612c3c565b80601f01602080910402602001604051908101604052809291908181526020018280546116a890612c3c565b80156116f55780601f106116ca576101008083540402835291602001916116f5565b820191906000526020600020905b8154815290600101906020018083116116d857829003601f168201915b505050505081565b6005805461170a90612c3c565b80601f016020809104026020016040519081016040528092919081815260200182805461173690612c3c565b80156117835780601f1061175857610100808354040283529160200191611783565b820191906000526020600020905b81548152906001019060200180831161176657829003601f168201915b505050505081565b6004805461179890612c3c565b80601f01602080910402602001604051908101604052809291908181526020018280546117c490612c3c565b80156118115780601f106117e657610100808354040283529160200191611811565b820191906000526020600020905b8154815290600101906020018083116117f457829003601f168201915b505050505081565b7f000000000000000000000000000000000000000000000000000000000000000081565b6000600d60019054906101000a900473ffffffffffffffffffffffffffffffffffffffff1673ffffffffffffffffffffffffffffffffffffffff1663c4552791336040518263ffffffff1660e01b815260040161189a91906124fe565b602060405180830381600087803b1580156118b457600080fd5b505af11580156118c8573d6000803e3d6000fd5b505050506040513d601f19601f820116820180604052508101906118ec9190612009565b9050806118f857600080fd5b7f000000000000000000000000000000000000000000000000000000000000000073ffffffffffffffffffffffffffffffffffffffff16630e61295f868686866040518563ffffffff1660e01b815260040161195794939291906125b1565b600060405180830381600087803b15801561197157600080fd5b505af1158015611985573d6000803e3d6000fd5b505050505050505050565b80600d60006101000a81548160ff021916908360048111156119b5576119b4612d46565b5b02179055508060048111156119cd576119cc612d46565b5b7f9a0a9fbc5661a10573bae4de0b7535a3629b80dfd45bca03da02e07950f17c9a60405160405180910390a250565b6000808373ffffffffffffffffffffffffffffffffffffffff168361753090604051611a27906124e9565b600060405180830381858888f193505050503d8060008114611a65576040519150601f19603f3d011682016040523d82523d6000602084013e611a6a565b606091505b505090508091505092915050565b828054611a8490612c3c565b90600052602060002090601f016020900481019282611aa65760008555611aed565b82601f10611abf57805160ff1916838001178555611aed565b82800160010185558215611aed579182015b82811115611aec578251825591602001919060010190611ad1565b5b509050611afa9190611afe565b5090565b5b80821115611b17576000816000905550600101611aff565b5090565b6000611b2e611b29846127c8565b6127a3565b90508083825260208201905082856020860282011115611b5157611b50612e0c565b5b60005b85811015611b815781611b678882611cc1565b845260208401935060208301925050600181019050611b54565b5050509392505050565b6000611b9e611b99846127f4565b6127a3565b90508083825260208201905082856020860282011115611bc157611bc0612e0c565b5b60005b85811015611bf15781611bd78882611e27565b845260208401935060208301925050600181019050611bc4565b5050509392505050565b6000611c0e611c0984612820565b6127a3565b905082815260208101848484011115611c2a57611c29612e11565b5b611c35848285612bfa565b509392505050565b6000611c50611c4b84612820565b6127a3565b905082815260208101848484011115611c6c57611c6b612e11565b5b611c77848285612c09565b509392505050565b6000611c92611c8d84612851565b6127a3565b905082815260208101848484011115611cae57611cad612e11565b5b611cb9848285612bfa565b509392505050565b600081359050611cd081612e71565b92915050565b60008083601f840112611cec57611ceb612e07565b5b8235905067ffffffffffffffff811115611d0957611d08612e02565b5b602083019150836020820283011115611d2557611d24612e0c565b5b9250929050565b600082601f830112611d4157611d40612e07565b5b8135611d51848260208601611b1b565b91505092915050565b600082601f830112611d6f57611d6e612e07565b5b8135611d7f848260208601611b8b565b91505092915050565b600081519050611d9781612e88565b92915050565b600082601f830112611db257611db1612e07565b5b8135611dc2848260208601611bfb565b91505092915050565b600082601f830112611de057611ddf612e07565b5b8151611df0848260208601611c3d565b91505092915050565b600082601f830112611e0e57611e0d612e07565b5b8135611e1e848260208601611c7f565b91505092915050565b600081359050611e3681612e9f565b92915050565b600081519050611e4b81612e9f565b92915050565b600060208284031215611e6757611e66612e1b565b5b6000611e7584828501611cc1565b91505092915050565b60008060008060808587031215611e9857611e97612e1b565b5b6000611ea687828801611cc1565b9450506020611eb787828801611cc1565b9350506040611ec887828801611e27565b925050606085013567ffffffffffffffff811115611ee957611ee8612e16565b5b611ef587828801611df9565b91505092959194509250565b60008060008060608587031215611f1b57611f1a612e1b565b5b600085013567ffffffffffffffff811115611f3957611f38612e16565b5b611f4587828801611cd6565b94509450506020611f5887828801611e27565b925050604085013567ffffffffffffffff811115611f7957611f78612e16565b5b611f8587828801611d9d565b91505092959194509250565b60008060408385031215611fa857611fa7612e1b565b5b600083013567ffffffffffffffff811115611fc657611fc5612e16565b5b611fd285828601611d2c565b925050602083013567ffffffffffffffff811115611ff357611ff2612e16565b5b611fff85828601611d5a565b9150509250929050565b60006020828403121561201f5761201e612e1b565b5b600061202d84828501611d88565b91505092915050565b60006020828403121561204c5761204b612e1b565b5b600082015167ffffffffffffffff81111561206a57612069612e16565b5b61207684828501611dcb565b91505092915050565b6000806040838503121561209657612095612e1b565b5b600083013567ffffffffffffffff8111156120b4576120b3612e16565b5b6120c085828601611df9565b92505060206120d185828601611cc1565b9150509250929050565b6000602082840312156120f1576120f0612e1b565b5b60006120ff84828501611e3c565b91505092915050565b60006121148383612150565b60208301905092915050565b600061212c838361216e565b60208301905092915050565b60006121448383612486565b60208301905092915050565b61215981612ad8565b82525050565b61216881612ad8565b82525050565b61217781612ad8565b82525050565b60006121898385612914565b935061219482612882565b8060005b858110156121cd576121aa8284612968565b6121b48882612108565b97506121bf836128ed565b925050600181019050612198565b5085925050509392505050565b60006121e5826128c1565b6121ef8185612925565b93506121fa8361288c565b8060005b8381101561222b5781516122128882612120565b975061221d836128fa565b9250506001810190506121fe565b5085935050505092915050565b6000612243826128cc565b61224d8185612930565b93506122588361289c565b8060005b838110156122895781516122708882612138565b975061227b83612907565b92505060018101905061225c565b5085935050505092915050565b60006122a1826128d7565b6122ab818561293b565b93506122bb818560208601612c09565b6122c481612e20565b840191505092915050565b60006122da826128d7565b6122e4818561294c565b93506122f4818560208601612c09565b80840191505092915050565b61230981612b58565b82525050565b61231881612b6a565b82525050565b61232781612b7c565b82525050565b61233681612b8e565b82525050565b61234581612ba0565b82525050565b61235481612bb2565b82525050565b61236381612b09565b82525050565b61237281612bc4565b82525050565b6000612383826128e2565b61238d8185612957565b935061239d818560208601612c09565b6123a681612e20565b840191505092915050565b600081546123be81612c3c565b6123c88186612957565b945060018216600081146123e357600181146123f557612428565b60ff1983168652602086019350612428565b6123fe856128ac565b60005b8381101561242057815481890152600182019150602081019050612401565b808801955050505b50505092915050565b600061243e60028361293b565b915061244982612e31565b602082019050919050565b600061246160008361294c565b915061246c82612e5a565b600082019050919050565b61248081612b36565b82525050565b61248f81612b36565b82525050565b61249e81612b40565b82525050565b60006124b082846121da565b915081905092915050565b60006124c78284612238565b915081905092915050565b60006124de82846122cf565b915081905092915050565b60006124f482612454565b9150819050919050565b6000602082019050612513600083018461215f565b92915050565b600060808201905061252e600083018761215f565b61253b602083018661215f565b6125486040830185612369565b818103606083015261255a8184612378565b905095945050505050565b600060808201905061257a600083018761215f565b612587602083018661215f565b6125946040830185612477565b81810360608301526125a68184612378565b905095945050505050565b600060608201905081810360008301526125cc81868861217d565b90506125db6020830185612477565b81810360408301526125ed8184612296565b905095945050505050565b600060208201905061260d6000830184612300565b92915050565b6000602082019050612628600083018461230f565b92915050565b6000606082019050612643600083018561230f565b81810360208301526126558184612296565b9050818103604083015261266881612431565b90509392505050565b6000602082019050612686600083018461231e565b92915050565b60006020820190506126a1600083018461232d565b92915050565b60006080820190506126bc600083018761232d565b6126c9602083018661215f565b6126d6604083018561235a565b81810360608301526126e88184612296565b905095945050505050565b6000602082019050612708600083018461233c565b92915050565b6000602082019050612723600083018461234b565b92915050565b600060208201905081810360008301526127438184612378565b905092915050565b6000602082019050818103600083015261276581846123b1565b905092915050565b60006020820190506127826000830184612477565b92915050565b600060208201905061279d6000830184612495565b92915050565b60006127ad6127be565b90506127b98282612c6e565b919050565b6000604051905090565b600067ffffffffffffffff8211156127e3576127e2612dd3565b5b602082029050602081019050919050565b600067ffffffffffffffff82111561280f5761280e612dd3565b5b602082029050602081019050919050565b600067ffffffffffffffff82111561283b5761283a612dd3565b5b61284482612e20565b9050602081019050919050565b600067ffffffffffffffff82111561286c5761286b612dd3565b5b61287582612e20565b9050602081019050919050565b6000819050919050565b6000819050602082019050919050565b6000819050602082019050919050565b60008190508160005260206000209050919050565b600081519050919050565b600081519050919050565b600081519050919050565b600081519050919050565b6000602082019050919050565b6000602082019050919050565b6000602082019050919050565b600082825260208201905092915050565b600081905092915050565b600081905092915050565b600082825260208201905092915050565b600081905092915050565b600082825260208201905092915050565b60006129776020840184611cc1565b905092915050565b600061298a82612b09565b915061299583612b09565b9250826129a5576129a4612d17565b5b600160000383147fffffffffffffffffffffffffffffffffffffffff800000000000000000000000831416156129de576129dd612ce8565b5b828205905092915050565b60006129f482612b09565b91506129ff83612b09565b9250826b7fffffffffffffffffffffff0482116000841360008413161615612a2a57612a29612ce8565b5b817fffffffffffffffffffffffffffffffffffffffff8000000000000000000000000583126000841260008413161615612a6757612a66612ce8565b5b827fffffffffffffffffffffffffffffffffffffffff8000000000000000000000000582126000841360008412161615612aa457612aa3612ce8565b5b826b7fffffffffffffffffffffff0582126000841260008412161615612acd57612acc612ce8565b5b828202905092915050565b6000612ae382612b16565b9050919050565b60008115159050919050565b6000819050612b0482612e5d565b919050565b600081600b0b9050919050565b600073ffffffffffffffffffffffffffffffffffffffff82169050919050565b6000819050919050565b60006bffffffffffffffffffffffff82169050919050565b6000612b6382612bd6565b9050919050565b6000612b7582612bd6565b9050919050565b6000612b8782612bd6565b9050919050565b6000612b9982612bd6565b9050919050565b6000612bab82612bd6565b9050919050565b6000612bbd82612af6565b9050919050565b6000612bcf82612b36565b9050919050565b6000612be182612be8565b9050919050565b6000612bf382612b16565b9050919050565b82818337600083830152505050565b60005b83811015612c27578082015181840152602081019050612c0c565b83811115612c36576000848401525b50505050565b60006002820490506001821680612c5457607f821691505b60208210811415612c6857612c67612d75565b5b50919050565b612c7782612e20565b810181811067ffffffffffffffff82111715612c9657612c95612dd3565b5b80604052505050565b6000612caa82612b36565b91507fffffffffffffffffffffffffffffffffffffffffffffffffffffffffffffffff821415612cdd57612cdc612ce8565b5b600182019050919050565b7f4e487b7100000000000000000000000000000000000000000000000000000000600052601160045260246000fd5b7f4e487b7100000000000000000000000000000000000000000000000000000000600052601260045260246000fd5b7f4e487b7100000000000000000000000000000000000000000000000000000000600052602160045260246000fd5b7f4e487b7100000000000000000000000000000000000000000000000000000000600052602260045260246000fd5b7f4e487b7100000000000000000000000000000000000000000000000000000000600052603260045260246000fd5b7f4e487b7100000000000000000000000000000000000000000000000000000000600052604160045260246000fd5b600080fd5b600080fd5b600080fd5b600080fd5b600080fd5b600080fd5b6000601f19601f8301169050919050565b7f3078000000000000000000000000000000000000000000000000000000000000600082015250565b50565b60058110612e6e57612e6d612d46565b5b50565b612e7a81612ad8565b8114612e8557600080fd5b50565b612e9181612aea565b8114612e9c57600080fd5b50565b612ea881612b36565b8114612eb357600080fd5b5056fea264697066735822122044708ba6af08789e1acd20b57d4bba2b8bc9ddef9268a127a47728bfdcd672e464736f6c63430008070033",
  "linkReferences": {},
  "deployedLinkReferences": {}
}