{
  "_format": "hh-sol-artifact-1",
  "contractName": "CallForFundsLogic",
  "sourceName": "contracts/CallForFundsLogic.sol",
  "abi": [
    {
      "inputs": [],
      "stateMutability": "nonpayable",
      "type": "constructor"
    },
    {
      "anonymous": false,
      "inputs": [
        {
          "indexed": true,
          "internalType": "address",
          "name": "burner",
          "type": "address"
        },
        {
          "indexed": true,
          "internalType": "address",
          "name": "owner",
          "type": "address"
        },
        {
          "indexed": false,
          "internalType": "uint256[]",
          "name": "ids",
          "type": "uint256[]"
        },
        {
          "indexed": false,
          "internalType": "uint256[]",
          "name": "amounts",
          "type": "uint256[]"
        }
      ],
      "name": "BurnBatch",
      "type": "event"
    },
    {
      "anonymous": false,
      "inputs": [
        {
          "indexed": true,
          "internalType": "address",
          "name": "burner",
          "type": "address"
        },
        {
          "indexed": true,
          "internalType": "address",
          "name": "owner",
          "type": "address"
        },
        {
          "indexed": true,
          "internalType": "uint256",
          "name": "id",
          "type": "uint256"
        },
        {
          "indexed": false,
          "internalType": "uint256",
          "name": "amount",
          "type": "uint256"
        }
      ],
      "name": "BurnSingle",
      "type": "event"
    },
    {
      "anonymous": false,
      "inputs": [
        {
          "indexed": true,
          "internalType": "uint256",
          "name": "amountMatched",
          "type": "uint256"
        }
      ],
      "name": "CallMatched",
      "type": "event"
    },
    {
      "anonymous": false,
      "inputs": [
        {
          "indexed": true,
          "internalType": "address",
          "name": "donator",
          "type": "address"
        },
        {
          "indexed": false,
          "internalType": "uint256",
          "name": "amount",
          "type": "uint256"
        }
      ],
      "name": "ContributionReceivedETH",
      "type": "event"
    },
    {
      "anonymous": false,
      "inputs": [
        {
          "indexed": true,
          "internalType": "enum CallForFundsStorage.FundingState",
          "name": "newFundingState",
          "type": "uint8"
        }
      ],
      "name": "FundingStateChanged",
      "type": "event"
    },
    {
      "anonymous": false,
      "inputs": [
        {
          "indexed": true,
          "internalType": "address",
          "name": "minter",
          "type": "address"
        },
        {
          "indexed": true,
          "internalType": "address",
          "name": "to",
          "type": "address"
        },
        {
          "indexed": false,
          "internalType": "uint256[]",
          "name": "ids",
          "type": "uint256[]"
        },
        {
          "indexed": false,
          "internalType": "uint256[]",
          "name": "amounts",
          "type": "uint256[]"
        }
      ],
      "name": "MintBatch",
      "type": "event"
    },
    {
      "anonymous": false,
      "inputs": [
        {
          "indexed": true,
          "internalType": "address",
          "name": "minter",
          "type": "address"
        },
        {
          "indexed": true,
          "internalType": "address",
          "name": "to",
          "type": "address"
        },
        {
          "indexed": true,
          "internalType": "uint256",
          "name": "id",
          "type": "uint256"
        },
        {
          "indexed": false,
          "internalType": "uint256",
          "name": "amount",
          "type": "uint256"
        }
      ],
      "name": "MintSingle",
      "type": "event"
    },
    {
      "anonymous": false,
      "inputs": [
        {
          "indexed": true,
          "internalType": "address[]",
          "name": "addresses",
          "type": "address[]"
        },
        {
          "indexed": true,
          "internalType": "uint256[]",
          "name": "amounts",
          "type": "uint256[]"
        }
      ],
      "name": "RefundCompleted",
      "type": "event"
    },
    {
      "anonymous": false,
      "inputs": [],
      "name": "StreamStarted",
      "type": "event"
    },
    {
      "anonymous": false,
      "inputs": [
        {
          "indexed": true,
          "internalType": "uint256",
          "name": "id",
          "type": "uint256"
        },
        {
          "indexed": false,
          "internalType": "string",
          "name": "value",
          "type": "string"
        }
      ],
      "name": "URI",
      "type": "event"
    },
    {
      "anonymous": false,
      "inputs": [
        {
          "indexed": false,
          "internalType": "string",
          "name": "deliverableURI",
          "type": "string"
        }
      ],
      "name": "WorkDelivered",
      "type": "event"
    },
    {
      "inputs": [
        {
          "internalType": "address",
          "name": "account",
          "type": "address"
        },
        {
          "internalType": "uint256",
          "name": "id",
          "type": "uint256"
        }
      ],
      "name": "balanceOf",
      "outputs": [
        {
          "internalType": "uint256",
          "name": "",
          "type": "uint256"
        }
      ],
      "stateMutability": "view",
      "type": "function"
    },
    {
      "inputs": [
        {
          "internalType": "address[]",
          "name": "accounts",
          "type": "address[]"
        },
        {
          "internalType": "uint256[]",
          "name": "ids",
          "type": "uint256[]"
        }
      ],
      "name": "balanceOfBatch",
      "outputs": [
        {
          "internalType": "uint256[]",
          "name": "",
          "type": "uint256[]"
        }
      ],
      "stateMutability": "view",
      "type": "function"
    },
    {
      "inputs": [
        {
          "internalType": "address",
          "name": "from",
          "type": "address"
        },
        {
          "internalType": "uint256",
          "name": "id",
          "type": "uint256"
        },
        {
          "internalType": "uint256",
          "name": "amount",
          "type": "uint256"
        },
        {
          "internalType": "bool",
          "name": "deleteURI",
          "type": "bool"
        }
      ],
      "name": "burn",
      "outputs": [],
      "stateMutability": "nonpayable",
      "type": "function"
    },
    {
      "inputs": [
        {
          "internalType": "address",
          "name": "from",
          "type": "address"
        },
        {
          "internalType": "uint256[]",
          "name": "ids",
          "type": "uint256[]"
        },
        {
          "internalType": "uint256[]",
          "name": "amounts",
          "type": "uint256[]"
        },
        {
          "internalType": "bool",
          "name": "deleteURI",
          "type": "bool"
        }
      ],
      "name": "burnBatch",
      "outputs": [],
      "stateMutability": "nonpayable",
      "type": "function"
    },
    {
      "inputs": [],
      "name": "category",
      "outputs": [
        {
          "internalType": "string",
          "name": "",
          "type": "string"
        }
      ],
      "stateMutability": "view",
      "type": "function"
    },
    {
      "inputs": [],
      "name": "creator",
      "outputs": [
        {
          "internalType": "address",
          "name": "",
          "type": "address"
        }
      ],
      "stateMutability": "view",
      "type": "function"
    },
    {
      "inputs": [
        {
          "internalType": "string",
          "name": "deliverableURI_",
          "type": "string"
        }
      ],
      "name": "deliver",
      "outputs": [],
      "stateMutability": "nonpayable",
      "type": "function"
    },
    {
      "inputs": [],
      "name": "deliverableMedium",
      "outputs": [
        {
          "internalType": "string",
          "name": "",
          "type": "string"
        }
      ],
      "stateMutability": "view",
      "type": "function"
    },
    {
      "inputs": [],
      "name": "deliverableURI",
      "outputs": [
        {
          "internalType": "string",
          "name": "",
          "type": "string"
        }
      ],
      "stateMutability": "view",
      "type": "function"
    },
    {
      "inputs": [],
      "name": "description",
      "outputs": [
        {
          "internalType": "string",
          "name": "",
          "type": "string"
        }
      ],
      "stateMutability": "view",
      "type": "function"
    },
    {
      "inputs": [],
      "name": "fundingState",
      "outputs": [
        {
          "internalType": "enum CallForFundsStorage.FundingState",
          "name": "",
          "type": "uint8"
        }
      ],
      "stateMutability": "view",
      "type": "function"
    },
    {
      "inputs": [],
      "name": "genre",
      "outputs": [
        {
          "internalType": "string",
          "name": "",
          "type": "string"
        }
      ],
      "stateMutability": "view",
      "type": "function"
    },
    {
      "inputs": [],
      "name": "image",
      "outputs": [
        {
          "internalType": "string",
          "name": "",
          "type": "string"
        }
      ],
      "stateMutability": "view",
      "type": "function"
    },
    {
      "inputs": [],
      "name": "issuer",
      "outputs": [
        {
          "internalType": "address",
          "name": "",
          "type": "address"
        }
      ],
      "stateMutability": "view",
      "type": "function"
    },
    {
      "inputs": [],
      "name": "loudverseAdmin",
      "outputs": [
        {
          "internalType": "address",
          "name": "",
          "type": "address"
        }
      ],
      "stateMutability": "view",
      "type": "function"
    },
    {
      "inputs": [
        {
          "internalType": "uint256",
          "name": "",
          "type": "uint256"
        }
      ],
      "name": "matchCallForFunds",
      "outputs": [],
      "stateMutability": "payable",
      "type": "function"
    },
    {
      "inputs": [],
      "name": "minFundingAmount",
      "outputs": [
        {
          "internalType": "uint256",
          "name": "",
          "type": "uint256"
        }
      ],
      "stateMutability": "view",
      "type": "function"
    },
    {
      "inputs": [
        {
          "internalType": "address",
          "name": "to",
          "type": "address"
        },
        {
          "internalType": "uint256",
          "name": "id",
          "type": "uint256"
        },
        {
          "internalType": "uint256",
          "name": "amount",
          "type": "uint256"
        },
        {
          "internalType": "string",
          "name": "uri",
          "type": "string"
        },
        {
          "internalType": "bytes",
          "name": "data",
          "type": "bytes"
        }
      ],
      "name": "mint",
      "outputs": [],
      "stateMutability": "nonpayable",
      "type": "function"
    },
    {
      "inputs": [
        {
          "internalType": "address",
          "name": "to",
          "type": "address"
        },
        {
          "internalType": "uint256[]",
          "name": "ids",
          "type": "uint256[]"
        },
        {
          "internalType": "uint256[]",
          "name": "amounts",
          "type": "uint256[]"
        },
        {
          "internalType": "string[]",
          "name": "uris",
          "type": "string[]"
        },
        {
          "internalType": "bytes",
          "name": "data",
          "type": "bytes"
        }
      ],
      "name": "mintBatch",
      "outputs": [],
      "stateMutability": "nonpayable",
      "type": "function"
    },
    {
      "inputs": [
        {
          "internalType": "address",
          "name": "creator",
          "type": "address"
        },
        {
          "internalType": "uint256",
          "name": "id",
          "type": "uint256"
        },
        {
          "internalType": "uint256",
          "name": "amount",
          "type": "uint256"
        },
        {
          "internalType": "string",
          "name": "creationTitle",
          "type": "string"
        },
        {
          "internalType": "enum CryptoCredential.Skill",
          "name": "skill",
          "type": "uint8"
        },
        {
          "internalType": "string",
          "name": "totalFunding",
          "type": "string"
        },
        {
          "internalType": "string",
          "name": "totalFunders",
          "type": "string"
        }
      ],
      "name": "mintCryptoCredential",
      "outputs": [],
      "stateMutability": "nonpayable",
      "type": "function"
    },
    {
      "inputs": [
        {
          "internalType": "address[]",
          "name": "addresses",
          "type": "address[]"
        },
        {
          "internalType": "uint256[]",
          "name": "amounts",
          "type": "uint256[]"
        }
      ],
      "name": "refund",
      "outputs": [],
      "stateMutability": "nonpayable",
      "type": "function"
    },
    {
      "inputs": [
        {
          "internalType": "string",
          "name": "newBaseURI",
          "type": "string"
        }
      ],
      "name": "setBaseURI",
      "outputs": [],
      "stateMutability": "nonpayable",
      "type": "function"
    },
    {
      "inputs": [
        {
          "internalType": "address",
          "name": "newIssuer",
          "type": "address"
        }
      ],
      "name": "setIssuer",
      "outputs": [],
      "stateMutability": "nonpayable",
      "type": "function"
    },
    {
      "inputs": [],
      "name": "startStream",
      "outputs": [],
      "stateMutability": "nonpayable",
      "type": "function"
    },
    {
      "inputs": [],
      "name": "subgenre",
      "outputs": [
        {
          "internalType": "string",
          "name": "",
          "type": "string"
        }
      ],
      "stateMutability": "view",
      "type": "function"
    },
    {
      "inputs": [],
      "name": "timelineInDays",
      "outputs": [
        {
          "internalType": "uint8",
          "name": "",
          "type": "uint8"
        }
      ],
      "stateMutability": "view",
      "type": "function"
    },
    {
      "inputs": [],
      "name": "title",
      "outputs": [
        {
          "internalType": "string",
          "name": "",
          "type": "string"
        }
      ],
      "stateMutability": "view",
      "type": "function"
    },
    {
      "inputs": [
        {
          "internalType": "uint256",
          "name": "id",
          "type": "uint256"
        }
      ],
      "name": "tokenURI",
      "outputs": [
        {
          "internalType": "string",
          "name": "",
          "type": "string"
        }
      ],
      "stateMutability": "view",
      "type": "function"
    },
    {
      "stateMutability": "payable",
      "type": "receive"
    }
  ],
  "bytecode": "0x608060405234801561001057600080fd5b5073a4e987fb3808d9fc206112967477793ea838945080600360006101000a81548173ffffffffffffffffffffffffffffffffffffffff021916908373ffffffffffffffffffffffffffffffffffffffff16021790555050614850806100776000396000f3fe6080604052600436106101ba5760003560e01c80639cf0bd0d116100ec578063c091c4351161008a578063c87b56dd11610064578063c87b56dd1461060b578063e685112714610648578063ef430aa614610673578063f3ccaac01461069e5761020f565b8063c091c4351461058e578063c3eacdc1146105b7578063c791316e146105e05761020f565b8063ab115d72116100c6578063ab115d72146104f8578063b25cdccf14610523578063b574d0711461054e578063b9571e84146105655761020f565b80639cf0bd0d14610488578063a4b645eb146104b3578063a824f920146104dc5761020f565b80634e1273f4116101595780637284e416116101335780637284e416146103de5780638e22ce1d1461040957806391098ee4146104345780639699119d1461045d5761020f565b80634e1273f41461034f57806355cc4e571461038c57806355f804b3146103b55761020f565b80631d143848116101955780631d143848146102a757806331126dd1146102d257806344893bf3146102fb5780634a79d50c146103245761020f565b8062fdd58e1461021457806302d05d3f1461025157806317de3a411461027c5761020f565b3661020f573373ffffffffffffffffffffffffffffffffffffffff167f2f0f1ca72899668d93500f451ad66c0a4e9f7f3f4974f3206c27069fb2c7f2b1346040516102059190613dc5565b60405180910390a2005b600080fd5b34801561022057600080fd5b5061023b600480360381019061023691906131f0565b6106c9565b6040516102489190613dc5565b60405180910390f35b34801561025d57600080fd5b50610266610723565b6040516102739190613b0c565b60405180910390f35b34801561028857600080fd5b50610291610749565b60405161029e9190613c41565b60405180910390f35b3480156102b357600080fd5b506102bc6107d7565b6040516102c99190613b0c565b60405180910390f35b3480156102de57600080fd5b506102f960048036038101906102f4919061322c565b6107fd565b005b34801561030757600080fd5b50610322600480360381019061031d919061315d565b6108b5565b005b34801561033057600080fd5b5061033961096d565b6040516103469190613c41565b60405180910390f35b34801561035b57600080fd5b506103766004803603810190610371919061341c565b6109fb565b6040516103839190613bcd565b60405180910390f35b34801561039857600080fd5b506103b360048036038101906103ae919061305d565b610bac565b005b3480156103c157600080fd5b506103dc60048036038101906103d791906134b1565b610cf0565b005b3480156103ea57600080fd5b506103f3610d8c565b6040516104009190613c41565b60405180910390f35b34801561041557600080fd5b5061041e610e1a565b60405161042b9190613b0c565b60405180910390f35b34801561044057600080fd5b5061045b600480360381019061045691906134b1565b610e32565b005b34801561046957600080fd5b50610472610f76565b60405161047f9190613de0565b60405180910390f35b34801561049457600080fd5b5061049d610f89565b6040516104aa9190613c41565b60405180910390f35b3480156104bf57600080fd5b506104da60048036038101906104d5919061328f565b611017565b005b6104f660048036038101906104f191906134f2565b6110bb565b005b34801561050457600080fd5b5061050d6111cf565b60405161051a9190613c41565b60405180910390f35b34801561052f57600080fd5b5061053861125d565b6040516105459190613c26565b60405180910390f35b34801561055a57600080fd5b50610563611270565b005b34801561057157600080fd5b5061058c60048036038101906105879190613086565b611364565b005b34801561059a57600080fd5b506105b560048036038101906105b0919061341c565b611408565b005b3480156105c357600080fd5b506105de60048036038101906105d99190613336565b6115fb565b005b3480156105ec57600080fd5b506105f561165f565b6040516106029190613dc5565b60405180910390f35b34801561061757600080fd5b50610632600480360381019061062d91906134f2565b611665565b60405161063f9190613c41565b60405180910390f35b34801561065457600080fd5b5061065d611735565b60405161066a9190613c41565b60405180910390f35b34801561067f57600080fd5b506106886117c3565b6040516106959190613c41565b60405180910390f35b3480156106aa57600080fd5b506106b3611851565b6040516106c09190613c41565b60405180910390f35b600080600083815260200190815260200160002060008473ffffffffffffffffffffffffffffffffffffffff1673ffffffffffffffffffffffffffffffffffffffff16815260200190815260200160002054905092915050565b600560009054906101000a900473ffffffffffffffffffffffffffffffffffffffff1681565b600a805461075690614143565b80601f016020809104026020016040519081016040528092919081815260200182805461078290614143565b80156107cf5780601f106107a4576101008083540402835291602001916107cf565b820191906000526020600020905b8154815290600101906020018083116107b257829003601f168201915b505050505081565b600360009054906101000a900473ffffffffffffffffffffffffffffffffffffffff1681565b600360009054906101000a900473ffffffffffffffffffffffffffffffffffffffff1673ffffffffffffffffffffffffffffffffffffffff163373ffffffffffffffffffffffffffffffffffffffff161461088d576040517f08c379a000000000000000000000000000000000000000000000000000000000815260040161088490613ca5565b60405180910390fd5b80156108a35761089e8484846118df565b6108af565b6108ae8484846118f8565b5b50505050565b600360009054906101000a900473ffffffffffffffffffffffffffffffffffffffff1673ffffffffffffffffffffffffffffffffffffffff163373ffffffffffffffffffffffffffffffffffffffff1614610945576040517f08c379a000000000000000000000000000000000000000000000000000000000815260040161093c90613ca5565b60405180910390fd5b801561095b57610956848484611ad3565b610967565b610966848484611da8565b5b50505050565b6006805461097a90614143565b80601f01602080910402602001604051908101604052809291908181526020018280546109a690614143565b80156109f35780601f106109c8576101008083540402835291602001916109f3565b820191906000526020600020905b8154815290600101906020018083116109d657829003601f168201915b505050505081565b60608151835114610a41576040517f08c379a0000000000000000000000000000000000000000000000000000000008152600401610a3890613d45565b60405180910390fd5b6000835167ffffffffffffffff811115610a84577f4e487b7100000000000000000000000000000000000000000000000000000000600052604160045260246000fd5b604051908082528060200260200182016040528015610ab25781602001602082028036833780820191505090505b50905060005b8451811015610ba157610b4b858281518110610afd577f4e487b7100000000000000000000000000000000000000000000000000000000600052603260045260246000fd5b6020026020010151858381518110610b3e577f4e487b7100000000000000000000000000000000000000000000000000000000600052603260045260246000fd5b60200260200101516106c9565b828281518110610b84577f4e487b7100000000000000000000000000000000000000000000000000000000600052603260045260246000fd5b60200260200101818152505080610b9a906141a6565b9050610ab8565b508091505092915050565b600360009054906101000a900473ffffffffffffffffffffffffffffffffffffffff1673ffffffffffffffffffffffffffffffffffffffff163373ffffffffffffffffffffffffffffffffffffffff1614610c3c576040517f08c379a0000000000000000000000000000000000000000000000000000000008152600401610c3390613ca5565b60405180910390fd5b600073ffffffffffffffffffffffffffffffffffffffff168173ffffffffffffffffffffffffffffffffffffffff161415610cac576040517f08c379a0000000000000000000000000000000000000000000000000000000008152600401610ca390613da5565b60405180910390fd5b80600360006101000a81548173ffffffffffffffffffffffffffffffffffffffff021916908373ffffffffffffffffffffffffffffffffffffffff16021790555050565b600360009054906101000a900473ffffffffffffffffffffffffffffffffffffffff1673ffffffffffffffffffffffffffffffffffffffff163373ffffffffffffffffffffffffffffffffffffffff1614610d80576040517f08c379a0000000000000000000000000000000000000000000000000000000008152600401610d7790613ca5565b60405180910390fd5b610d8981612074565b50565b60078054610d9990614143565b80601f0160208091040260200160405190810160405280929190818152602001828054610dc590614143565b8015610e125780601f10610de757610100808354040283529160200191610e12565b820191906000526020600020905b815481529060010190602001808311610df557829003601f168201915b505050505081565b73a4e987fb3808d9fc206112967477793ea838945081565b600560009054906101000a900473ffffffffffffffffffffffffffffffffffffffff1673ffffffffffffffffffffffffffffffffffffffff163373ffffffffffffffffffffffffffffffffffffffff1614610e8c57600080fd5b6003806004811115610ec7577f4e487b7100000000000000000000000000000000000000000000000000000000600052602160045260246000fd5b601060009054906101000a900460ff166004811115610f0f577f4e487b7100000000000000000000000000000000000000000000000000000000600052602160045260246000fd5b14610f1957600080fd5b81600f9080519060200190610f2f929190612c65565b50610f3a600461208e565b7fcb7230e908facd21b119ab7a11e0247b8d5374e49d8cc50fa9a53b7601f237c9600f604051610f6a9190613c63565b60405180910390a15050565b600d60009054906101000a900460ff1681565b600c8054610f9690614143565b80601f0160208091040260200160405190810160405280929190818152602001828054610fc290614143565b801561100f5780601f10610fe45761010080835404028352916020019161100f565b820191906000526020600020905b815481529060010190602001808311610ff257829003601f168201915b505050505081565b600360009054906101000a900473ffffffffffffffffffffffffffffffffffffffff1673ffffffffffffffffffffffffffffffffffffffff163373ffffffffffffffffffffffffffffffffffffffff16146110a7576040517f08c379a000000000000000000000000000000000000000000000000000000000815260040161109e90613ca5565b60405180910390fd5b6110b48585858585612146565b5050505050565b73a4e987fb3808d9fc206112967477793ea838945073ffffffffffffffffffffffffffffffffffffffff163373ffffffffffffffffffffffffffffffffffffffff161461110757600080fd5b6000806004811115611142577f4e487b7100000000000000000000000000000000000000000000000000000000600052602160045260246000fd5b601060009054906101000a900460ff16600481111561118a577f4e487b7100000000000000000000000000000000000000000000000000000000600052602160045260246000fd5b1461119457600080fd5b61119e600261208e565b347f2731c7491ce2f19381bc96e6c488a4e45d345b5efa893b339dd94e549f26477c60405160405180910390a25050565b600b80546111dc90614143565b80601f016020809104026020016040519081016040528092919081815260200182805461120890614143565b80156112555780601f1061122a57610100808354040283529160200191611255565b820191906000526020600020905b81548152906001019060200180831161123857829003601f168201915b505050505081565b601060009054906101000a900460ff1681565b600560009054906101000a900473ffffffffffffffffffffffffffffffffffffffff1673ffffffffffffffffffffffffffffffffffffffff163373ffffffffffffffffffffffffffffffffffffffff16146112ca57600080fd5b6002806004811115611305577f4e487b7100000000000000000000000000000000000000000000000000000000600052602160045260246000fd5b601060009054906101000a900460ff16600481111561134d577f4e487b7100000000000000000000000000000000000000000000000000000000600052602160045260246000fd5b1461135757600080fd5b611361600361208e565b50565b600360009054906101000a900473ffffffffffffffffffffffffffffffffffffffff1673ffffffffffffffffffffffffffffffffffffffff163373ffffffffffffffffffffffffffffffffffffffff16146113f4576040517f08c379a00000000000000000000000000000000000000000000000000000000081526004016113eb90613ca5565b60405180910390fd5b6114018585858585612163565b5050505050565b73a4e987fb3808d9fc206112967477793ea838945073ffffffffffffffffffffffffffffffffffffffff163373ffffffffffffffffffffffffffffffffffffffff161461145457600080fd5b600180600481111561148f577f4e487b7100000000000000000000000000000000000000000000000000000000600052602160045260246000fd5b601060009054906101000a900460ff1660048111156114d7577f4e487b7100000000000000000000000000000000000000000000000000000000600052602160045260246000fd5b146114e157600080fd5b6000600190505b835181101561159d57600061157d85838151811061152f577f4e487b7100000000000000000000000000000000000000000000000000000000600052603260045260246000fd5b6020026020010151858481518110611570577f4e487b7100000000000000000000000000000000000000000000000000000000600052603260045260246000fd5b60200260200101516124f9565b90508061158957600080fd5b508080611595906141a6565b9150506114e8565b50816040516115ac9190613a67565b6040518091039020836040516115c29190613a50565b60405180910390207f598d84241bfe93913995b638c1692ad8e8d01110f5bd1af00f0c68e095044c3d60405160405180910390a3505050565b73a4e987fb3808d9fc206112967477793ea838945073ffffffffffffffffffffffffffffffffffffffff163373ffffffffffffffffffffffffffffffffffffffff161461164757600080fd5b61165687878787878787612575565b50505050505050565b600e5481565b6060600060026000848152602001908152602001600020805461168790614143565b80601f01602080910402602001604051908101604052809291908181526020018280546116b390614143565b80156117005780601f106116d557610100808354040283529160200191611700565b820191906000526020600020905b8154815290600101906020018083116116e357829003601f168201915b50505050509050611710836125b9565b1561171e5780915050611730565b60006117286125e4565b905080925050505b919050565b600f805461174290614143565b80601f016020809104026020016040519081016040528092919081815260200182805461176e90614143565b80156117bb5780601f10611790576101008083540402835291602001916117bb565b820191906000526020600020905b81548152906001019060200180831161179e57829003601f168201915b505050505081565b600980546117d090614143565b80601f01602080910402602001604051908101604052809291908181526020018280546117fc90614143565b80156118495780601f1061181e57610100808354040283529160200191611849565b820191906000526020600020905b81548152906001019060200180831161182c57829003601f168201915b505050505081565b6008805461185e90614143565b80601f016020809104026020016040519081016040528092919081815260200182805461188a90614143565b80156118d75780601f106118ac576101008083540402835291602001916118d7565b820191906000526020600020905b8154815290600101906020018083116118ba57829003601f168201915b505050505081565b6118ea8383836118f8565b6118f382612676565b505050565b600073ffffffffffffffffffffffffffffffffffffffff168373ffffffffffffffffffffffffffffffffffffffff161415611968576040517f08c379a000000000000000000000000000000000000000000000000000000000815260040161195f90613d05565b60405180910390fd5b6000339050611979818585856126a7565b600080600085815260200190815260200160002060008673ffffffffffffffffffffffffffffffffffffffff1673ffffffffffffffffffffffffffffffffffffffff16815260200190815260200160002054905082811015611a10576040517f08c379a0000000000000000000000000000000000000000000000000000000008152600401611a0790613cc5565b60405180910390fd5b82810360008086815260200190815260200160002060008773ffffffffffffffffffffffffffffffffffffffff1673ffffffffffffffffffffffffffffffffffffffff16815260200190815260200160002081905550838573ffffffffffffffffffffffffffffffffffffffff168373ffffffffffffffffffffffffffffffffffffffff167f995c922928fc04a31c6446db7f51f402ddb95ac41fa3dca51c98ff1fe730053186604051611ac49190613dc5565b60405180910390a45050505050565b600073ffffffffffffffffffffffffffffffffffffffff168373ffffffffffffffffffffffffffffffffffffffff161415611b43576040517f08c379a0000000000000000000000000000000000000000000000000000000008152600401611b3a90613d05565b60405180910390fd5b8051825114611b87576040517f08c379a0000000000000000000000000000000000000000000000000000000008152600401611b7e90613d65565b60405180910390fd5b600033905060005b8351811015611d3a576000848281518110611bd3577f4e487b7100000000000000000000000000000000000000000000000000000000600052603260045260246000fd5b602002602001015190506000848381518110611c18577f4e487b7100000000000000000000000000000000000000000000000000000000600052603260045260246000fd5b60200260200101519050611c2e848884846126a7565b600080600084815260200190815260200160002060008973ffffffffffffffffffffffffffffffffffffffff1673ffffffffffffffffffffffffffffffffffffffff16815260200190815260200160002054905081811015611cc5576040517f08c379a0000000000000000000000000000000000000000000000000000000008152600401611cbc90613cc5565b60405180910390fd5b81810360008085815260200190815260200160002060008a73ffffffffffffffffffffffffffffffffffffffff1673ffffffffffffffffffffffffffffffffffffffff16815260200190815260200160002081905550611d2483612676565b5050508080611d32906141a6565b915050611b8f565b508373ffffffffffffffffffffffffffffffffffffffff168173ffffffffffffffffffffffffffffffffffffffff167ff6d51a8d20e8b0143ca41399aa93b2a480cb0b95e39847e4ebd3144b2db8775d8585604051611d9a929190613bef565b60405180910390a350505050565b600073ffffffffffffffffffffffffffffffffffffffff168373ffffffffffffffffffffffffffffffffffffffff161415611e18576040517f08c379a0000000000000000000000000000000000000000000000000000000008152600401611e0f90613d05565b60405180910390fd5b8051825114611e5c576040517f08c379a0000000000000000000000000000000000000000000000000000000008152600401611e5390613d65565b60405180910390fd5b600033905060005b8351811015612006576000848281518110611ea8577f4e487b7100000000000000000000000000000000000000000000000000000000600052603260045260246000fd5b602002602001015190506000848381518110611eed577f4e487b7100000000000000000000000000000000000000000000000000000000600052603260045260246000fd5b60200260200101519050611f03848884846126a7565b600080600084815260200190815260200160002060008973ffffffffffffffffffffffffffffffffffffffff1673ffffffffffffffffffffffffffffffffffffffff16815260200190815260200160002054905081811015611f9a576040517f08c379a0000000000000000000000000000000000000000000000000000000008152600401611f9190613cc5565b60405180910390fd5b81810360008085815260200190815260200160002060008a73ffffffffffffffffffffffffffffffffffffffff1673ffffffffffffffffffffffffffffffffffffffff168152602001908152602001600020819055505050508080611ffe906141a6565b915050611e64565b508373ffffffffffffffffffffffffffffffffffffffff168173ffffffffffffffffffffffffffffffffffffffff167ff6d51a8d20e8b0143ca41399aa93b2a480cb0b95e39847e4ebd3144b2db8775d8585604051612066929190613bef565b60405180910390a350505050565b806001908051906020019061208a929190612c65565b5050565b80601060006101000a81548160ff021916908360048111156120d9577f4e487b7100000000000000000000000000000000000000000000000000000000600052602160045260246000fd5b0217905550806004811115612117577f4e487b7100000000000000000000000000000000000000000000000000000000600052602160045260246000fd5b7f9a0a9fbc5661a10573bae4de0b7535a3629b80dfd45bca03da02e07950f17c9a60405160405180910390a250565b612152858585846126ad565b61215c848361280f565b5050505050565b600073ffffffffffffffffffffffffffffffffffffffff168573ffffffffffffffffffffffffffffffffffffffff1614156121d3576040517f08c379a00000000000000000000000000000000000000000000000000000000081526004016121ca90613d85565b60405180910390fd5b8251845114612217576040517f08c379a000000000000000000000000000000000000000000000000000000000815260040161220e90613d65565b60405180910390fd5b815184511461225b576040517f08c379a000000000000000000000000000000000000000000000000000000000815260040161225290613c85565b60405180910390fd5b600033905060005b855181101561247c576122f982888884815181106122aa577f4e487b7100000000000000000000000000000000000000000000000000000000600052603260045260246000fd5b60200260200101518885815181106122eb577f4e487b7100000000000000000000000000000000000000000000000000000000600052603260045260246000fd5b602002602001015187612873565b612383868281518110612335577f4e487b7100000000000000000000000000000000000000000000000000000000600052603260045260246000fd5b6020026020010151858381518110612376577f4e487b7100000000000000000000000000000000000000000000000000000000600052603260045260246000fd5b602002602001015161280f565b8481815181106123bc577f4e487b7100000000000000000000000000000000000000000000000000000000600052603260045260246000fd5b6020026020010151600080888481518110612400577f4e487b7100000000000000000000000000000000000000000000000000000000600052603260045260246000fd5b6020026020010151815260200190815260200160002060008973ffffffffffffffffffffffffffffffffffffffff1673ffffffffffffffffffffffffffffffffffffffff16815260200190815260200160002060008282546124629190613fe0565b925050819055508080612474906141a6565b915050612263565b508573ffffffffffffffffffffffffffffffffffffffff168173ffffffffffffffffffffffffffffffffffffffff167f5c5ac6bfb3f54a39f008d2e9be10d575012f29230716d49e92da377d748b1a8787876040516124dc929190613bef565b60405180910390a36124f1818787878661287a565b505050505050565b6000808373ffffffffffffffffffffffffffffffffffffffff16836175309060405161252490613af7565b600060405180830381858888f193505050503d8060008114612562576040519150601f19603f3d011682016040523d82523d6000602084013e612567565b606091505b505090508091505092915050565b60008483838660405160200161258e9493929190613a7e565b604051602081830303815290604052905060606125ae8989898585612146565b505050505050505050565b6000806002600084815260200190815260200160002080546125da90614143565b9050119050919050565b6060600180546125f390614143565b80601f016020809104026020016040519081016040528092919081815260200182805461261f90614143565b801561266c5780601f106126415761010080835404028352916020019161266c565b820191906000526020600020905b81548152906001019060200180831161264f57829003601f168201915b5050505050905090565b61267f816125b9565b156126a4576002600082815260200190815260200160002060006126a39190612ceb565b5b50565b50505050565b600073ffffffffffffffffffffffffffffffffffffffff168473ffffffffffffffffffffffffffffffffffffffff16141561271d576040517f08c379a000000000000000000000000000000000000000000000000000000000815260040161271490613d85565b60405180910390fd5b600033905061272f8186868686612873565b8260008086815260200190815260200160002060008773ffffffffffffffffffffffffffffffffffffffff1673ffffffffffffffffffffffffffffffffffffffff168152602001908152602001600020600082825461278e9190613fe0565b92505081905550838573ffffffffffffffffffffffffffffffffffffffff168273ffffffffffffffffffffffffffffffffffffffff167f17facb1ae55b1a0fe54049767ddeb027123cb5d0379a5a1c6f5c954287d88fb3866040516127f39190613dc5565b60405180910390a46128088186868686612a5e565b5050505050565b80600260008481526020019081526020016000209080519060200190612836929190612c65565b50817f369737eac2f50072db0001f8a5c3f225ab50d5ab38d8cbdbabf885abf2ab722a826040516128679190613c41565b60405180910390a25050565b5050505050565b6128998473ffffffffffffffffffffffffffffffffffffffff16612c42565b15612a57578373ffffffffffffffffffffffffffffffffffffffff1663c0bfec68868585856040518563ffffffff1660e01b81526004016128dd9493929190613b27565b602060405180830381600087803b1580156128f757600080fd5b505af192505050801561292857506040513d601f19601f820116820180604052508101906129259190613488565b60015b6129ce576129346142bd565b806308c379a0141561299157506129496146f0565b806129545750612993565b806040517f08c379a00000000000000000000000000000000000000000000000000000000081526004016129889190613c41565b60405180910390fd5b505b6040517f08c379a00000000000000000000000000000000000000000000000000000000081526004016129c590613d25565b60405180910390fd5b63c0bfec6860e01b7bffffffffffffffffffffffffffffffffffffffffffffffffffffffff1916817bffffffffffffffffffffffffffffffffffffffffffffffffffffffff191614612a55576040517f08c379a0000000000000000000000000000000000000000000000000000000008152600401612a4c90613ce5565b60405180910390fd5b505b5050505050565b612a7d8473ffffffffffffffffffffffffffffffffffffffff16612c42565b15612c3b578373ffffffffffffffffffffffffffffffffffffffff166345ed75d5868585856040518563ffffffff1660e01b8152600401612ac19493929190613b81565b602060405180830381600087803b158015612adb57600080fd5b505af1925050508015612b0c57506040513d601f19601f82011682018060405250810190612b099190613488565b60015b612bb257612b186142bd565b806308c379a01415612b755750612b2d6146f0565b80612b385750612b77565b806040517f08c379a0000000000000000000000000000000000000000000000000000000008152600401612b6c9190613c41565b60405180910390fd5b505b6040517f08c379a0000000000000000000000000000000000000000000000000000000008152600401612ba990613d25565b60405180910390fd5b6345ed75d560e01b7bffffffffffffffffffffffffffffffffffffffffffffffffffffffff1916817bffffffffffffffffffffffffffffffffffffffffffffffffffffffff191614612c39576040517f08c379a0000000000000000000000000000000000000000000000000000000008152600401612c3090613ce5565b60405180910390fd5b505b5050505050565b6000808273ffffffffffffffffffffffffffffffffffffffff163b119050919050565b828054612c7190614143565b90600052602060002090601f016020900481019282612c935760008555612cda565b82601f10612cac57805160ff1916838001178555612cda565b82800160010185558215612cda579182015b82811115612cd9578251825591602001919060010190612cbe565b5b509050612ce79190612d2b565b5090565b508054612cf790614143565b6000825580601f10612d095750612d28565b601f016020900490600052602060002090810190612d279190612d2b565b5b50565b5b80821115612d44576000816000905550600101612d2c565b5090565b6000612d5b612d5684613e20565b613dfb565b90508083825260208201905082856020860282011115612d7a57600080fd5b60005b85811015612daa5781612d908882612f22565b845260208401935060208301925050600181019050612d7d565b5050509392505050565b6000612dc7612dc284613e4c565b613dfb565b90508083825260208201905082856020860282011115612de657600080fd5b60005b85811015612e3057813567ffffffffffffffff811115612e0857600080fd5b808601612e15898261301e565b85526020850194506020840193505050600181019050612de9565b5050509392505050565b6000612e4d612e4884613e78565b613dfb565b90508083825260208201905082856020860282011115612e6c57600080fd5b60005b85811015612e9c5781612e828882613048565b845260208401935060208301925050600181019050612e6f565b5050509392505050565b6000612eb9612eb484613ea4565b613dfb565b905082815260208101848484011115612ed157600080fd5b612edc848285614101565b509392505050565b6000612ef7612ef284613ed5565b613dfb565b905082815260208101848484011115612f0f57600080fd5b612f1a848285614101565b509392505050565b600081359050612f31816147ae565b92915050565b600082601f830112612f4857600080fd5b8135612f58848260208601612d48565b91505092915050565b600082601f830112612f7257600080fd5b8135612f82848260208601612db4565b91505092915050565b600082601f830112612f9c57600080fd5b8135612fac848260208601612e3a565b91505092915050565b600081359050612fc4816147c5565b92915050565b600081519050612fd9816147dc565b92915050565b600082601f830112612ff057600080fd5b8135613000848260208601612ea6565b91505092915050565b600081359050613018816147f3565b92915050565b600082601f83011261302f57600080fd5b813561303f848260208601612ee4565b91505092915050565b60008135905061305781614803565b92915050565b60006020828403121561306f57600080fd5b600061307d84828501612f22565b91505092915050565b600080600080600060a0868803121561309e57600080fd5b60006130ac88828901612f22565b955050602086013567ffffffffffffffff8111156130c957600080fd5b6130d588828901612f8b565b945050604086013567ffffffffffffffff8111156130f257600080fd5b6130fe88828901612f8b565b935050606086013567ffffffffffffffff81111561311b57600080fd5b61312788828901612f61565b925050608086013567ffffffffffffffff81111561314457600080fd5b61315088828901612fdf565b9150509295509295909350565b6000806000806080858703121561317357600080fd5b600061318187828801612f22565b945050602085013567ffffffffffffffff81111561319e57600080fd5b6131aa87828801612f8b565b935050604085013567ffffffffffffffff8111156131c757600080fd5b6131d387828801612f8b565b92505060606131e487828801612fb5565b91505092959194509250565b6000806040838503121561320357600080fd5b600061321185828601612f22565b925050602061322285828601613048565b9150509250929050565b6000806000806080858703121561324257600080fd5b600061325087828801612f22565b945050602061326187828801613048565b935050604061327287828801613048565b925050606061328387828801612fb5565b91505092959194509250565b600080600080600060a086880312156132a757600080fd5b60006132b588828901612f22565b95505060206132c688828901613048565b94505060406132d788828901613048565b935050606086013567ffffffffffffffff8111156132f457600080fd5b6133008882890161301e565b925050608086013567ffffffffffffffff81111561331d57600080fd5b61332988828901612fdf565b9150509295509295909350565b600080600080600080600060e0888a03121561335157600080fd5b600061335f8a828b01612f22565b97505060206133708a828b01613048565b96505060406133818a828b01613048565b955050606088013567ffffffffffffffff81111561339e57600080fd5b6133aa8a828b0161301e565b94505060806133bb8a828b01613009565b93505060a088013567ffffffffffffffff8111156133d857600080fd5b6133e48a828b0161301e565b92505060c088013567ffffffffffffffff81111561340157600080fd5b61340d8a828b0161301e565b91505092959891949750929550565b6000806040838503121561342f57600080fd5b600083013567ffffffffffffffff81111561344957600080fd5b61345585828601612f37565b925050602083013567ffffffffffffffff81111561347257600080fd5b61347e85828601612f8b565b9150509250929050565b60006020828403121561349a57600080fd5b60006134a884828501612fca565b91505092915050565b6000602082840312156134c357600080fd5b600082013567ffffffffffffffff8111156134dd57600080fd5b6134e98482850161301e565b91505092915050565b60006020828403121561350457600080fd5b600061351284828501613048565b91505092915050565b60006135278383613572565b60208301905092915050565b600061353f8383613a14565b60208301905092915050565b60006135578383613a32565b60208301905092915050565b61356c81614036565b82525050565b61357b81614036565b82525050565b600061358c82613f3b565b6135968185613f81565b93506135a183613f06565b8060005b838110156135d25781516135b9888261351b565b97506135c483613f67565b9250506001810190506135a5565b5085935050505092915050565b60006135ea82613f46565b6135f48185613f8c565b93506135ff83613f16565b8060005b838110156136305781516136178882613533565b975061362283613f74565b925050600181019050613603565b5085935050505092915050565b600061364882613f46565b6136528185613f9d565b935061365d83613f16565b8060005b8381101561368e578151613675888261354b565b975061368083613f74565b925050600181019050613661565b5085935050505092915050565b60006136a682613f51565b6136b08185613fa8565b93506136c0818560208601614110565b6136c9816142df565b840191505092915050565b6136dd816140dd565b82525050565b6136f46136ef826140ef565b6141ef565b82525050565b600061370582613f5c565b61370f8185613fc4565b935061371f818560208601614110565b613728816142df565b840191505092915050565b600061373e82613f5c565b6137488185613fd5565b9350613758818560208601614110565b80840191505092915050565b6000815461377181614143565b61377b8186613fc4565b9450600182166000811461379657600181146137a8576137db565b60ff19831686526020860193506137db565b6137b185613f26565b60005b838110156137d3578154818901526001820191506020810190506137b4565b808801955050505b50505092915050565b60006137f1602583613fc4565b91506137fc8261430a565b604082019050919050565b6000613814601783613fd5565b915061381f82614359565b601782019050919050565b6000613837600a83613fd5565b915061384282614382565b600a82019050919050565b600061385a604283613fc4565b9150613865826143ab565b606082019050919050565b600061387d602483613fc4565b915061388882614420565b604082019050919050565b60006138a0602883613fc4565b91506138ab8261446f565b604082019050919050565b60006138c3602383613fc4565b91506138ce826144be565b604082019050919050565b60006138e6603483613fc4565b91506138f18261450d565b604082019050919050565b6000613909601483613fd5565b91506139148261455c565b601482019050919050565b600061392c602983613fc4565b915061393782614585565b604082019050919050565b600061394f600583613fd5565b915061395a826145d4565b600582019050919050565b6000613972600683613fd5565b915061397d826145fd565b600682019050919050565b6000613995602883613fc4565b91506139a082614626565b604082019050919050565b60006139b8600083613fb9565b91506139c382614675565b600082019050919050565b60006139db602183613fc4565b91506139e682614678565b604082019050919050565b60006139fe601e83613fc4565b9150613a09826146c7565b602082019050919050565b613a1d816140c6565b82525050565b613a2c816140c6565b82525050565b613a3b816140c6565b82525050565b613a4a816140d0565b82525050565b6000613a5c8284613581565b915081905092915050565b6000613a73828461363d565b915081905092915050565b6000613a89826138fc565b9150613a958287613733565b9150613aa082613965565b9150613aac8286613733565b9150613ab78261382a565b9150613ac38285613733565b9150613ace82613807565b9150613ada82846136e3565b600182019150613ae982613942565b915081905095945050505050565b6000613b02826139ab565b9150819050919050565b6000602082019050613b216000830184613563565b92915050565b6000608082019050613b3c6000830187613563565b8181036020830152613b4e81866135df565b90508181036040830152613b6281856135df565b90508181036060830152613b76818461369b565b905095945050505050565b6000608082019050613b966000830187613563565b613ba36020830186613a23565b613bb06040830185613a23565b8181036060830152613bc2818461369b565b905095945050505050565b60006020820190508181036000830152613be781846135df565b905092915050565b60006040820190508181036000830152613c0981856135df565b90508181036020830152613c1d81846135df565b90509392505050565b6000602082019050613c3b60008301846136d4565b92915050565b60006020820190508181036000830152613c5b81846136fa565b905092915050565b60006020820190508181036000830152613c7d8184613764565b905092915050565b60006020820190508181036000830152613c9e816137e4565b9050919050565b60006020820190508181036000830152613cbe8161384d565b9050919050565b60006020820190508181036000830152613cde81613870565b9050919050565b60006020820190508181036000830152613cfe81613893565b9050919050565b60006020820190508181036000830152613d1e816138b6565b9050919050565b60006020820190508181036000830152613d3e816138d9565b9050919050565b60006020820190508181036000830152613d5e8161391f565b9050919050565b60006020820190508181036000830152613d7e81613988565b9050919050565b60006020820190508181036000830152613d9e816139ce565b9050919050565b60006020820190508181036000830152613dbe816139f1565b9050919050565b6000602082019050613dda6000830184613a23565b92915050565b6000602082019050613df56000830184613a41565b92915050565b6000613e05613e16565b9050613e118282614175565b919050565b6000604051905090565b600067ffffffffffffffff821115613e3b57613e3a61428e565b5b602082029050602081019050919050565b600067ffffffffffffffff821115613e6757613e6661428e565b5b602082029050602081019050919050565b600067ffffffffffffffff821115613e9357613e9261428e565b5b602082029050602081019050919050565b600067ffffffffffffffff821115613ebf57613ebe61428e565b5b613ec8826142df565b9050602081019050919050565b600067ffffffffffffffff821115613ef057613eef61428e565b5b613ef9826142df565b9050602081019050919050565b6000819050602082019050919050565b6000819050602082019050919050565b60008190508160005260206000209050919050565b600081519050919050565b600081519050919050565b600081519050919050565b600081519050919050565b6000602082019050919050565b6000602082019050919050565b600081905092915050565b600082825260208201905092915050565b600081905092915050565b600082825260208201905092915050565b600081905092915050565b600082825260208201905092915050565b600081905092915050565b6000613feb826140c6565b9150613ff6836140c6565b9250827fffffffffffffffffffffffffffffffffffffffffffffffffffffffffffffffff0382111561402b5761402a614201565b5b828201905092915050565b6000614041826140a6565b9050919050565b60008115159050919050565b60007fffffffff0000000000000000000000000000000000000000000000000000000082169050919050565b600081905061408e82614786565b919050565b60008190506140a18261479a565b919050565b600073ffffffffffffffffffffffffffffffffffffffff82169050919050565b6000819050919050565b600060ff82169050919050565b60006140e882614080565b9050919050565b60006140fa82614093565b9050919050565b82818337600083830152505050565b60005b8381101561412e578082015181840152602081019050614113565b8381111561413d576000848401525b50505050565b6000600282049050600182168061415b57607f821691505b6020821081141561416f5761416e61425f565b5b50919050565b61417e826142df565b810181811067ffffffffffffffff8211171561419d5761419c61428e565b5b80604052505050565b60006141b1826140c6565b91507fffffffffffffffffffffffffffffffffffffffffffffffffffffffffffffffff8214156141e4576141e3614201565b5b600182019050919050565b60006141fa826142f0565b9050919050565b7f4e487b7100000000000000000000000000000000000000000000000000000000600052601160045260246000fd5b7f4e487b7100000000000000000000000000000000000000000000000000000000600052602160045260246000fd5b7f4e487b7100000000000000000000000000000000000000000000000000000000600052602260045260246000fd5b7f4e487b7100000000000000000000000000000000000000000000000000000000600052604160045260246000fd5b600060033d11156142dc5760046000803e6142d96000516142fd565b90505b90565b6000601f19601f8301169050919050565b60008160f81b9050919050565b60008160e01c9050919050565b7f455243313233383a2069647320616e642055524973206c656e677468206d697360008201527f6d61746368000000000000000000000000000000000000000000000000000000602082015250565b7f2066756e646572732e27207d20736b696c6c3a207b2027000000000000000000600082015250565b7f204554482066726f6d2000000000000000000000000000000000000000000000600082015250565b7f556e617574686f72697a65643a206f6e6c7920636f6e7472616374206973737560008201527f65722063616e206973737565206e65772043727970746f43726564656e74696160208201527f6c73000000000000000000000000000000000000000000000000000000000000604082015250565b7f455243313233383a206275726e20616d6f756e7420657863656564732062616c60008201527f616e636500000000000000000000000000000000000000000000000000000000602082015250565b7f455243313233383a204552433132333852656365697665722072656a6563746560008201527f6420746f6b656e73000000000000000000000000000000000000000000000000602082015250565b7f455243313233383a206275726e2066726f6d20746865207a65726f206164647260008201527f6573730000000000000000000000000000000000000000000000000000000000602082015250565b7f455243313233383a207472616e7366657220746f206e6f6e204552433132333860008201527f526563656976657220696d706c656d656e746572000000000000000000000000602082015250565b7f7b207469746c653a207b20274372656174656420000000000000000000000000600082015250565b7f455243313233383a206163636f756e747320616e6420696473206c656e67746860008201527f206d69736d617463680000000000000000000000000000000000000000000000602082015250565b7f27207d207d000000000000000000000000000000000000000000000000000000600082015250565b7f2077697468200000000000000000000000000000000000000000000000000000600082015250565b7f455243313233383a2069647320616e6420616d6f756e7473206c656e6774682060008201527f6d69736d61746368000000000000000000000000000000000000000000000000602082015250565b50565b7f455243313233383a206d696e7420746f20746865207a65726f2061646472657360008201527f7300000000000000000000000000000000000000000000000000000000000000602082015250565b7f496e76616c6964206164647265737320666f72206e6577206973737565720000600082015250565b600060443d101561470057614783565b614708613e16565b60043d036004823e80513d602482011167ffffffffffffffff82111715614730575050614783565b808201805167ffffffffffffffff81111561474e5750505050614783565b80602083010160043d03850181111561476b575050505050614783565b61477a82602001850186614175565b82955050505050505b90565b6005811061479757614796614230565b5b50565b600a81106147ab576147aa614230565b5b50565b6147b781614036565b81146147c257600080fd5b50565b6147ce81614048565b81146147d957600080fd5b50565b6147e581614054565b81146147f057600080fd5b50565b600a811061480057600080fd5b50565b61480c816140c6565b811461481757600080fd5b5056fea2646970667358221220cbbdaf650def3369f82b0a2fa0c8d9652bb8c18f2274eb95240e600ecee3941164736f6c63430008040033",
  "linkReferences": {},
  "deployedLinkReferences": {}
}