{
  "_format": "hh-sol-artifact-1",
  "contractName": "CallForFundsLogic",
  "sourceName": "contracts/CallForFundsLogic.sol",
  "abi": [
    {
      "inputs": [
        {
          "internalType": "address",
          "name": "crowdCommission_",
          "type": "address"
        },
        {
          "internalType": "address",
          "name": "smartArt_",
          "type": "address"
        }
      ],
      "stateMutability": "nonpayable",
      "type": "constructor"
    },
    {
      "anonymous": false,
      "inputs": [
        {
          "indexed": true,
          "internalType": "uint256",
          "name": "amountMatched",
          "type": "uint256"
        }
      ],
      "name": "CallMatched",
      "type": "event"
    },
    {
      "anonymous": false,
      "inputs": [
        {
          "indexed": true,
          "internalType": "address",
          "name": "donator",
          "type": "address"
        },
        {
          "indexed": false,
          "internalType": "uint256",
          "name": "amount",
          "type": "uint256"
        }
      ],
      "name": "ContributionReceivedETH",
      "type": "event"
    },
    {
      "anonymous": false,
      "inputs": [
        {
          "indexed": true,
          "internalType": "enum CallForFundsStorage.FundingState",
          "name": "newFundingState",
          "type": "uint8"
        }
      ],
      "name": "FundingStateChanged",
      "type": "event"
    },
    {
      "anonymous": false,
      "inputs": [
        {
          "indexed": true,
          "internalType": "address[]",
          "name": "addresses",
          "type": "address[]"
        },
        {
          "indexed": true,
          "internalType": "uint256[]",
          "name": "amounts",
          "type": "uint256[]"
        }
      ],
      "name": "RefundCompleted",
      "type": "event"
    },
    {
      "anonymous": false,
      "inputs": [],
      "name": "StreamStarted",
      "type": "event"
    },
    {
      "anonymous": false,
      "inputs": [
        {
          "indexed": false,
          "internalType": "string",
          "name": "deliverableURI",
          "type": "string"
        }
      ],
      "name": "WorkDelivered",
      "type": "event"
    },
    {
      "inputs": [],
      "name": "_cfa",
      "outputs": [
        {
          "internalType": "contract IConstantFlowAgreementV1",
          "name": "",
          "type": "address"
        }
      ],
      "stateMutability": "view",
      "type": "function"
    },
    {
      "inputs": [],
      "name": "_ethx",
      "outputs": [
        {
          "internalType": "contract ISETH",
          "name": "",
          "type": "address"
        }
      ],
      "stateMutability": "view",
      "type": "function"
    },
    {
      "inputs": [],
      "name": "_host",
      "outputs": [
        {
          "internalType": "contract ISuperfluid",
          "name": "",
          "type": "address"
        }
      ],
      "stateMutability": "view",
      "type": "function"
    },
    {
      "inputs": [],
      "name": "category",
      "outputs": [
        {
          "internalType": "string",
          "name": "",
          "type": "string"
        }
      ],
      "stateMutability": "view",
      "type": "function"
    },
    {
      "inputs": [],
      "name": "creator",
      "outputs": [
        {
          "internalType": "address",
          "name": "",
          "type": "address"
        }
      ],
      "stateMutability": "view",
      "type": "function"
    },
    {
      "inputs": [],
      "name": "crowdCommission",
      "outputs": [
        {
          "internalType": "address",
          "name": "",
          "type": "address"
        }
      ],
      "stateMutability": "view",
      "type": "function"
    },
    {
      "inputs": [
        {
          "internalType": "string",
          "name": "deliverableURI_",
          "type": "string"
        },
        {
          "internalType": "address",
          "name": "slicerAddress",
          "type": "address"
        }
      ],
      "name": "deliver",
      "outputs": [],
      "stateMutability": "nonpayable",
      "type": "function"
    },
    {
      "inputs": [],
      "name": "deliverableMedium",
      "outputs": [
        {
          "internalType": "string",
          "name": "",
          "type": "string"
        }
      ],
      "stateMutability": "view",
      "type": "function"
    },
    {
      "inputs": [],
      "name": "deliverableURI",
      "outputs": [
        {
          "internalType": "string",
          "name": "",
          "type": "string"
        }
      ],
      "stateMutability": "view",
      "type": "function"
    },
    {
      "inputs": [],
      "name": "description",
      "outputs": [
        {
          "internalType": "string",
          "name": "",
          "type": "string"
        }
      ],
      "stateMutability": "view",
      "type": "function"
    },
    {
      "inputs": [],
      "name": "factory",
      "outputs": [
        {
          "internalType": "address",
          "name": "",
          "type": "address"
        }
      ],
      "stateMutability": "view",
      "type": "function"
    },
    {
      "inputs": [],
      "name": "fundingState",
      "outputs": [
        {
          "internalType": "enum CallForFundsStorage.FundingState",
          "name": "",
          "type": "uint8"
        }
      ],
      "stateMutability": "view",
      "type": "function"
    },
    {
      "inputs": [],
      "name": "genre",
      "outputs": [
        {
          "internalType": "string",
          "name": "",
          "type": "string"
        }
      ],
      "stateMutability": "view",
      "type": "function"
    },
    {
      "inputs": [],
      "name": "image",
      "outputs": [
        {
          "internalType": "string",
          "name": "",
          "type": "string"
        }
      ],
      "stateMutability": "view",
      "type": "function"
    },
    {
      "inputs": [],
      "name": "loudverseAdmin",
      "outputs": [
        {
          "internalType": "address",
          "name": "",
          "type": "address"
        }
      ],
      "stateMutability": "view",
      "type": "function"
    },
    {
      "inputs": [
        {
          "internalType": "address[]",
          "name": "funders",
          "type": "address[]"
        },
        {
          "internalType": "uint256",
          "name": "id",
          "type": "uint256"
        },
        {
          "internalType": "bytes",
          "name": "data",
          "type": "bytes"
        }
      ],
      "name": "matchCallForFunds",
      "outputs": [],
      "stateMutability": "payable",
      "type": "function"
    },
    {
      "inputs": [],
      "name": "minFundingAmount",
      "outputs": [
        {
          "internalType": "uint256",
          "name": "",
          "type": "uint256"
        }
      ],
      "stateMutability": "view",
      "type": "function"
    },
    {
      "inputs": [
        {
          "internalType": "address[]",
          "name": "funders",
          "type": "address[]"
        },
        {
          "internalType": "uint256",
          "name": "id",
          "type": "uint256"
        },
        {
          "internalType": "bytes",
          "name": "data",
          "type": "bytes"
        }
      ],
      "name": "mintCrowdCommission",
      "outputs": [],
      "stateMutability": "nonpayable",
      "type": "function"
    },
    {
      "inputs": [
        {
          "internalType": "address",
          "name": "to",
          "type": "address"
        },
        {
          "internalType": "address",
          "name": "royaltyRecipient",
          "type": "address"
        },
        {
          "internalType": "uint256",
          "name": "royaltyValue",
          "type": "uint256"
        },
        {
          "internalType": "string",
          "name": "uri",
          "type": "string"
        }
      ],
      "name": "mintSmartArt",
      "outputs": [],
      "stateMutability": "nonpayable",
      "type": "function"
    },
    {
      "inputs": [
        {
          "internalType": "address[]",
          "name": "addresses",
          "type": "address[]"
        },
        {
          "internalType": "uint256[]",
          "name": "amounts",
          "type": "uint256[]"
        }
      ],
      "name": "refund",
      "outputs": [],
      "stateMutability": "nonpayable",
      "type": "function"
    },
    {
      "inputs": [
        {
          "internalType": "address",
          "name": "factoryAddress",
          "type": "address"
        }
      ],
      "name": "setFactory",
      "outputs": [],
      "stateMutability": "nonpayable",
      "type": "function"
    },
    {
      "inputs": [],
      "name": "smartArt",
      "outputs": [
        {
          "internalType": "address",
          "name": "",
          "type": "address"
        }
      ],
      "stateMutability": "view",
      "type": "function"
    },
    {
      "inputs": [],
      "name": "startStream",
      "outputs": [],
      "stateMutability": "payable",
      "type": "function"
    },
    {
      "inputs": [],
      "name": "subgenre",
      "outputs": [
        {
          "internalType": "string",
          "name": "",
          "type": "string"
        }
      ],
      "stateMutability": "view",
      "type": "function"
    },
    {
      "inputs": [],
      "name": "timelineInDays",
      "outputs": [
        {
          "internalType": "uint96",
          "name": "",
          "type": "uint96"
        }
      ],
      "stateMutability": "view",
      "type": "function"
    },
    {
      "inputs": [],
      "name": "title",
      "outputs": [
        {
          "internalType": "string",
          "name": "",
          "type": "string"
        }
      ],
      "stateMutability": "view",
      "type": "function"
    },
    {
      "stateMutability": "payable",
      "type": "receive"
    }
  ],
  "bytecode": "0x60c06040523480156200001157600080fd5b5060405162002fcb38038062002fcb8339818101604052810190620000379190620000c4565b8173ffffffffffffffffffffffffffffffffffffffff1660808173ffffffffffffffffffffffffffffffffffffffff1660601b815250508073ffffffffffffffffffffffffffffffffffffffff1660a08173ffffffffffffffffffffffffffffffffffffffff1660601b8152505050506200015e565b600081519050620000be8162000144565b92915050565b60008060408385031215620000de57620000dd6200013f565b5b6000620000ee85828601620000ad565b92505060206200010185828601620000ad565b9150509250929050565b600062000118826200011f565b9050919050565b600073ffffffffffffffffffffffffffffffffffffffff82169050919050565b600080fd5b6200014f816200010b565b81146200015b57600080fd5b50565b60805160601c60a05160601c612e336200019860003960008181610d9d015261173d01526000818161156f015261181c0152612e336000f3fe6080604052600436106101855760003560e01c8063b25cdccf116100d1578063d00127231161008a578063ef430aa611610064578063ef430aa614610559578063f3ccaac014610584578063f66c3ff4146105af578063fe5a6fd1146105da576101da565b8063d0012723146104d8578063d2ac318214610503578063e68511271461052e576101da565b8063b25cdccf146103fb578063b49ab7f614610426578063b574d0711461044f578063c091c43514610459578063c45a015514610482578063c791316e146104ad576101da565b80637284e4161161013e5780638e22ce1d116101185780638e22ce1d1461034f5780639699119d1461037a5780639cf0bd0d146103a5578063ab115d72146103d0576101da565b80637284e416146102ce5780637cb4d6d7146102f9578063852e5a0a14610324576101da565b806302d05d3f146101df5780630abcf6781461020a5780630e212fad1461023357806317de3a411461024f5780634a79d50c1461027a5780635bb47808146102a5576101da565b366101da573373ffffffffffffffffffffffffffffffffffffffff167f2f0f1ca72899668d93500f451ad66c0a4e9f7f3f4974f3206c27069fb2c7f2b1346040516101d091906126b7565b60405180910390a2005b600080fd5b3480156101eb57600080fd5b506101f4610603565b604051610201919061247e565b60405180910390f35b34801561021657600080fd5b50610231600480360381019061022c919061201d565b610629565b005b61024d60048036038101906102489190611e38565b6107b5565b005b34801561025b57600080fd5b50610264610911565b6040516102719190612673565b60405180910390f35b34801561028657600080fd5b5061028f61099f565b60405161029c9190612673565b60405180910390f35b3480156102b157600080fd5b506102cc60048036038101906102c79190611d88565b610a2d565b005b3480156102da57600080fd5b506102e3610abd565b6040516102f09190612673565b60405180910390f35b34801561030557600080fd5b5061030e610b4b565b60405161031b9190612578565b60405180910390f35b34801561033057600080fd5b50610339610b63565b604051610346919061263d565b60405180910390f35b34801561035b57600080fd5b50610364610b7b565b604051610371919061247e565b60405180910390f35b34801561038657600080fd5b5061038f610b93565b60405161039c91906126d2565b60405180910390f35b3480156103b157600080fd5b506103ba610bb1565b6040516103c79190612673565b60405180910390f35b3480156103dc57600080fd5b506103e5610c3f565b6040516103f29190612673565b60405180910390f35b34801561040757600080fd5b50610410610ccd565b60405161041d9190612658565b60405180910390f35b34801561043257600080fd5b5061044d60048036038101906104489190611db5565b610ce0565b005b610457610e33565b005b34801561046557600080fd5b50610480600480360381019061047b9190611ec8565b6113c4565b005b34801561048e57600080fd5b50610497611529565b6040516104a4919061247e565b60405180910390f35b3480156104b957600080fd5b506104c261154f565b6040516104cf91906126b7565b60405180910390f35b3480156104e457600080fd5b506104ed611555565b6040516104fa91906125d6565b60405180910390f35b34801561050f57600080fd5b5061051861156d565b604051610525919061247e565b60405180910390f35b34801561053a57600080fd5b50610543611591565b6040516105509190612673565b60405180910390f35b34801561056557600080fd5b5061056e61161f565b60405161057b9190612673565b60405180910390f35b34801561059057600080fd5b506105996116ad565b6040516105a69190612673565b60405180910390f35b3480156105bb57600080fd5b506105c461173b565b6040516105d1919061247e565b60405180910390f35b3480156105e657600080fd5b5061060160048036038101906105fc9190611e38565b61175f565b005b600160009054906101000a900473ffffffffffffffffffffffffffffffffffffffff1681565b600160009054906101000a900473ffffffffffffffffffffffffffffffffffffffff1673ffffffffffffffffffffffffffffffffffffffff163373ffffffffffffffffffffffffffffffffffffffff161461068357600080fd5b600380600481111561069857610697612c76565b5b600c60009054906101000a900460ff1660048111156106ba576106b9612c76565b5b146106c457600080fd5b82600b90805190602001906106da92919061199a565b507fcb7230e908facd21b119ab7a11e0247b8d5374e49d8cc50fa9a53b7601f237c9600b60405161070b9190612695565b60405180910390a160008054906101000a900473ffffffffffffffffffffffffffffffffffffffff1673ffffffffffffffffffffffffffffffffffffffff1663b49ab7f633846103e8876040518563ffffffff1660e01b81526004016107749493929190612499565b600060405180830381600087803b15801561078e57600080fd5b505af11580156107a2573d6000803e3d6000fd5b505050506107b060046118b2565b505050565b73a4e987fb3808d9fc206112967477793ea838945073ffffffffffffffffffffffffffffffffffffffff163373ffffffffffffffffffffffffffffffffffffffff161461080157600080fd5b600080600481111561081657610815612c76565b5b600c60009054906101000a900460ff16600481111561083857610837612c76565b5b1461084257600080fd5b347f2731c7491ce2f19381bc96e6c488a4e45d345b5efa893b339dd94e549f26477c60405160405180910390a260008054906101000a900473ffffffffffffffffffffffffffffffffffffffff1673ffffffffffffffffffffffffffffffffffffffff1663fe5a6fd1868686866040518563ffffffff1660e01b81526004016108ce9493929190612531565b600060405180830381600087803b1580156108e857600080fd5b505af11580156108fc573d6000803e3d6000fd5b5050505061090a60026118b2565b5050505050565b6006805461091e90612b6c565b80601f016020809104026020016040519081016040528092919081815260200182805461094a90612b6c565b80156109975780601f1061096c57610100808354040283529160200191610997565b820191906000526020600020905b81548152906001019060200180831161097a57829003601f168201915b505050505081565b600280546109ac90612b6c565b80601f01602080910402602001604051908101604052809291908181526020018280546109d890612b6c565b8015610a255780601f106109fa57610100808354040283529160200191610a25565b820191906000526020600020905b815481529060010190602001808311610a0857829003601f168201915b505050505081565b73a4e987fb3808d9fc206112967477793ea838945073ffffffffffffffffffffffffffffffffffffffff163373ffffffffffffffffffffffffffffffffffffffff1614610a7957600080fd5b80600c60016101000a81548173ffffffffffffffffffffffffffffffffffffffff021916908373ffffffffffffffffffffffffffffffffffffffff16021790555050565b60038054610aca90612b6c565b80601f0160208091040260200160405190810160405280929190818152602001828054610af690612b6c565b8015610b435780601f10610b1857610100808354040283529160200191610b43565b820191906000526020600020905b815481529060010190602001808311610b2657829003601f168201915b505050505081565b73f4c5310e51f6079f601a5fb7120bc72a70b96e2a81565b73ed5b5b32110c3ded02a07c8b8e97513fafb883b681565b73a4e987fb3808d9fc206112967477793ea838945081565b600960009054906101000a90046bffffffffffffffffffffffff1681565b60088054610bbe90612b6c565b80601f0160208091040260200160405190810160405280929190818152602001828054610bea90612b6c565b8015610c375780601f10610c0c57610100808354040283529160200191610c37565b820191906000526020600020905b815481529060010190602001808311610c1a57829003601f168201915b505050505081565b60078054610c4c90612b6c565b80601f0160208091040260200160405190810160405280929190818152602001828054610c7890612b6c565b8015610cc55780601f10610c9a57610100808354040283529160200191610cc5565b820191906000526020600020905b815481529060010190602001808311610ca857829003601f168201915b505050505081565b600c60009054906101000a900460ff1681565b6000600c60019054906101000a900473ffffffffffffffffffffffffffffffffffffffff1673ffffffffffffffffffffffffffffffffffffffff1663c4552791336040518263ffffffff1660e01b8152600401610d3d919061247e565b602060405180830381600087803b158015610d5757600080fd5b505af1158015610d6b573d6000803e3d6000fd5b505050506040513d601f19601f82011682018060405250810190610d8f9190611f40565b905080610d9b57600080fd5b7f000000000000000000000000000000000000000000000000000000000000000073ffffffffffffffffffffffffffffffffffffffff1663b85cbc79868686866040518563ffffffff1660e01b8152600401610dfa94939291906124e5565b600060405180830381600087803b158015610e1457600080fd5b505af1158015610e28573d6000803e3d6000fd5b505050505050505050565b600160009054906101000a900473ffffffffffffffffffffffffffffffffffffffff1673ffffffffffffffffffffffffffffffffffffffff163373ffffffffffffffffffffffffffffffffffffffff1614610e8d57600080fd5b6002806004811115610ea257610ea1612c76565b5b600c60009054906101000a900460ff166004811115610ec457610ec3612c76565b5b14610ece57600080fd5b6000479050600073a623b2dd931c5162b7a0b25852f4024db48bb1a073ffffffffffffffffffffffffffffffffffffffff16825a906040516024016040516020818303038152906040527fcf81464b000000000000000000000000000000000000000000000000000000007bffffffffffffffffffffffffffffffffffffffffffffffffffffffff19166020820180517bffffffffffffffffffffffffffffffffffffffffffffffffffffffff8381831617835250505050604051610f939190612452565b600060405180830381858888f193505050503d8060008114610fd1576040519150601f19603f3d011682016040523d82523d6000602084013e610fd6565b606091505b5050905080610fe457600080fd5b6000309050600073a623b2dd931c5162b7a0b25852f4024db48bb1a073ffffffffffffffffffffffffffffffffffffffff166370a08231836040518263ffffffff1660e01b8152600401611038919061247e565b60206040518083038186803b15801561105057600080fd5b505afa158015611064573d6000803e3d6000fd5b505050506040513d601f19601f820116820180604052508101906110889190612079565b9050600073a623b2dd931c5162b7a0b25852f4024db48bb1a073ffffffffffffffffffffffffffffffffffffffff166370a08231846040518263ffffffff1660e01b81526004016110d9919061247e565b60206040518083038186803b1580156110f157600080fd5b505afa158015611105573d6000803e3d6000fd5b505050506040513d601f19601f820116820180604052508101906111299190612079565b9050600073a623b2dd931c5162b7a0b25852f4024db48bb1a073ffffffffffffffffffffffffffffffffffffffff16632ec8eec7856040518263ffffffff1660e01b815260040161117a919061247e565b60806040518083038186803b15801561119257600080fd5b505afa1580156111a6573d6000803e3d6000fd5b505050506040513d601f19601f820116820180604052508101906111ca9190611fb6565b50505090506000829050600062015180600960009054906101000a90046bffffffffffffffffffffffff166111ff9190612933565b905060008290506000828261121491906128c9565b905073ed5b5b32110c3ded02a07c8b8e97513fafb883b673ffffffffffffffffffffffffffffffffffffffff166339255d5b73f4c5310e51f6079f601a5fb7120bc72a70b96e2a6362fc305e60e01b73a623b2dd931c5162b7a0b25852f4024db48bb1a03386600067ffffffffffffffff81111561129557611294612d03565b5b6040519080825280601f01601f1916602001820160405280156112c75781602001600182028036833780820191505090505b506040516024016112db94939291906125f1565b604051602081830303815290604052907bffffffffffffffffffffffffffffffffffffffffffffffffffffffff19166020820180517bffffffffffffffffffffffffffffffffffffffffffffffffffffffff83818316178352505050506040518363ffffffff1660e01b8152600401611355929190612593565b600060405180830381600087803b15801561136f57600080fd5b505af1158015611383573d6000803e3d6000fd5b505050506040513d6000823e3d601f19601f820116820180604052508101906113ac9190611f6d565b506113b760036118b2565b5050505050505050505050565b73a4e987fb3808d9fc206112967477793ea838945073ffffffffffffffffffffffffffffffffffffffff163373ffffffffffffffffffffffffffffffffffffffff161461141057600080fd5b600080600481111561142557611424612c76565b5b600c60009054906101000a900460ff16600481111561144757611446612c76565b5b1461145157600080fd5b6000600190505b83518110156114c15760006114a185838151811061147957611478612cd4565b5b602002602001015185848151811061149457611493612cd4565b5b602002602001015161191e565b9050806114ad57600080fd5b5080806114b990612bcf565b915050611458565b50816040516114d0919061243b565b6040518091039020836040516114e69190612424565b60405180910390207f598d84241bfe93913995b638c1692ad8e8d01110f5bd1af00f0c68e095044c3d60405160405180910390a361152460016118b2565b505050565b600c60019054906101000a900473ffffffffffffffffffffffffffffffffffffffff1681565b600a5481565b73a623b2dd931c5162b7a0b25852f4024db48bb1a081565b7f000000000000000000000000000000000000000000000000000000000000000081565b600b805461159e90612b6c565b80601f01602080910402602001604051908101604052809291908181526020018280546115ca90612b6c565b80156116175780601f106115ec57610100808354040283529160200191611617565b820191906000526020600020905b8154815290600101906020018083116115fa57829003601f168201915b505050505081565b6005805461162c90612b6c565b80601f016020809104026020016040519081016040528092919081815260200182805461165890612b6c565b80156116a55780601f1061167a576101008083540402835291602001916116a5565b820191906000526020600020905b81548152906001019060200180831161168857829003601f168201915b505050505081565b600480546116ba90612b6c565b80601f01602080910402602001604051908101604052809291908181526020018280546116e690612b6c565b80156117335780601f1061170857610100808354040283529160200191611733565b820191906000526020600020905b81548152906001019060200180831161171657829003601f168201915b505050505081565b7f000000000000000000000000000000000000000000000000000000000000000081565b6000600c60019054906101000a900473ffffffffffffffffffffffffffffffffffffffff1673ffffffffffffffffffffffffffffffffffffffff1663c4552791336040518263ffffffff1660e01b81526004016117bc919061247e565b602060405180830381600087803b1580156117d657600080fd5b505af11580156117ea573d6000803e3d6000fd5b505050506040513d601f19601f8201168201806040525081019061180e9190611f40565b90508061181a57600080fd5b7f000000000000000000000000000000000000000000000000000000000000000073ffffffffffffffffffffffffffffffffffffffff16630e61295f868686866040518563ffffffff1660e01b81526004016118799493929190612531565b600060405180830381600087803b15801561189357600080fd5b505af11580156118a7573d6000803e3d6000fd5b505050505050505050565b80600c60006101000a81548160ff021916908360048111156118d7576118d6612c76565b5b02179055508060048111156118ef576118ee612c76565b5b7f9a0a9fbc5661a10573bae4de0b7535a3629b80dfd45bca03da02e07950f17c9a60405160405180910390a250565b6000808373ffffffffffffffffffffffffffffffffffffffff16836175309060405161194990612469565b600060405180830381858888f193505050503d8060008114611987576040519150601f19603f3d011682016040523d82523d6000602084013e61198c565b606091505b505090508091505092915050565b8280546119a690612b6c565b90600052602060002090601f0160209004810192826119c85760008555611a0f565b82601f106119e157805160ff1916838001178555611a0f565b82800160010185558215611a0f579182015b82811115611a0e5782518255916020019190600101906119f3565b5b509050611a1c9190611a20565b5090565b5b80821115611a39576000816000905550600101611a21565b5090565b6000611a50611a4b84612712565b6126ed565b90508083825260208201905082856020860282011115611a7357611a72612d3c565b5b60005b85811015611aa35781611a898882611be3565b845260208401935060208301925050600181019050611a76565b5050509392505050565b6000611ac0611abb8461273e565b6126ed565b90508083825260208201905082856020860282011115611ae357611ae2612d3c565b5b60005b85811015611b135781611af98882611d5e565b845260208401935060208301925050600181019050611ae6565b5050509392505050565b6000611b30611b2b8461276a565b6126ed565b905082815260208101848484011115611b4c57611b4b612d41565b5b611b57848285612b2a565b509392505050565b6000611b72611b6d8461276a565b6126ed565b905082815260208101848484011115611b8e57611b8d612d41565b5b611b99848285612b39565b509392505050565b6000611bb4611baf8461279b565b6126ed565b905082815260208101848484011115611bd057611bcf612d41565b5b611bdb848285612b2a565b509392505050565b600081359050611bf281612da1565b92915050565b60008083601f840112611c0e57611c0d612d37565b5b8235905067ffffffffffffffff811115611c2b57611c2a612d32565b5b602083019150836020820283011115611c4757611c46612d3c565b5b9250929050565b600082601f830112611c6357611c62612d37565b5b8135611c73848260208601611a3d565b91505092915050565b600082601f830112611c9157611c90612d37565b5b8135611ca1848260208601611aad565b91505092915050565b600081519050611cb981612db8565b92915050565b600082601f830112611cd457611cd3612d37565b5b8135611ce4848260208601611b1d565b91505092915050565b600082601f830112611d0257611d01612d37565b5b8151611d12848260208601611b5f565b91505092915050565b600081519050611d2a81612dcf565b92915050565b600082601f830112611d4557611d44612d37565b5b8135611d55848260208601611ba1565b91505092915050565b600081359050611d6d81612de6565b92915050565b600081519050611d8281612de6565b92915050565b600060208284031215611d9e57611d9d612d4b565b5b6000611dac84828501611be3565b91505092915050565b60008060008060808587031215611dcf57611dce612d4b565b5b6000611ddd87828801611be3565b9450506020611dee87828801611be3565b9350506040611dff87828801611d5e565b925050606085013567ffffffffffffffff811115611e2057611e1f612d46565b5b611e2c87828801611d30565b91505092959194509250565b60008060008060608587031215611e5257611e51612d4b565b5b600085013567ffffffffffffffff811115611e7057611e6f612d46565b5b611e7c87828801611bf8565b94509450506020611e8f87828801611d5e565b925050604085013567ffffffffffffffff811115611eb057611eaf612d46565b5b611ebc87828801611cbf565b91505092959194509250565b60008060408385031215611edf57611ede612d4b565b5b600083013567ffffffffffffffff811115611efd57611efc612d46565b5b611f0985828601611c4e565b925050602083013567ffffffffffffffff811115611f2a57611f29612d46565b5b611f3685828601611c7c565b9150509250929050565b600060208284031215611f5657611f55612d4b565b5b6000611f6484828501611caa565b91505092915050565b600060208284031215611f8357611f82612d4b565b5b600082015167ffffffffffffffff811115611fa157611fa0612d46565b5b611fad84828501611ced565b91505092915050565b60008060008060808587031215611fd057611fcf612d4b565b5b6000611fde87828801611d1b565b9450506020611fef87828801611d73565b935050604061200087828801611d73565b925050606061201187828801611d73565b91505092959194509250565b6000806040838503121561203457612033612d4b565b5b600083013567ffffffffffffffff81111561205257612051612d46565b5b61205e85828601611d30565b925050602061206f85828601611be3565b9150509250929050565b60006020828403121561208f5761208e612d4b565b5b600061209d84828501611d73565b91505092915050565b60006120b283836120ee565b60208301905092915050565b60006120ca838361210c565b60208301905092915050565b60006120e28383612406565b60208301905092915050565b6120f781612a22565b82525050565b61210681612a22565b82525050565b61211581612a22565b82525050565b6000612127838561285e565b9350612132826127cc565b8060005b8581101561216b5761214882846128b2565b61215288826120a6565b975061215d83612837565b925050600181019050612136565b5085925050509392505050565b60006121838261280b565b61218d818561286f565b9350612198836127d6565b8060005b838110156121c95781516121b088826120be565b97506121bb83612844565b92505060018101905061219c565b5085935050505092915050565b60006121e182612816565b6121eb818561287a565b93506121f6836127e6565b8060005b8381101561222757815161220e88826120d6565b975061221983612851565b9250506001810190506121fa565b5085935050505092915050565b600061223f82612821565b6122498185612885565b9350612259818560208601612b39565b61226281612d50565b840191505092915050565b600061227882612821565b6122828185612896565b9350612292818560208601612b39565b80840191505092915050565b6122a781612aac565b82525050565b6122b681612abe565b82525050565b6122c581612ad0565b82525050565b6122d481612ae2565b82525050565b6122e381612a5d565b82525050565b6122f281612af4565b82525050565b60006123038261282c565b61230d81856128a1565b935061231d818560208601612b39565b61232681612d50565b840191505092915050565b6000815461233e81612b6c565b61234881866128a1565b945060018216600081146123635760018114612375576123a8565b60ff19831686526020860193506123a8565b61237e856127f6565b60005b838110156123a057815481890152600182019150602081019050612381565b808801955050505b50505092915050565b60006123be600283612885565b91506123c982612d61565b602082019050919050565b60006123e1600083612896565b91506123ec82612d8a565b600082019050919050565b61240081612a8a565b82525050565b61240f81612a8a565b82525050565b61241e81612a94565b82525050565b60006124308284612178565b915081905092915050565b600061244782846121d6565b915081905092915050565b600061245e828461226d565b915081905092915050565b6000612474826123d4565b9150819050919050565b600060208201905061249360008301846120fd565b92915050565b60006080820190506124ae60008301876120fd565b6124bb60208301866120fd565b6124c860408301856122e9565b81810360608301526124da81846122f8565b905095945050505050565b60006080820190506124fa60008301876120fd565b61250760208301866120fd565b61251460408301856123f7565b818103606083015261252681846122f8565b905095945050505050565b6000606082019050818103600083015261254c81868861211b565b905061255b60208301856123f7565b818103604083015261256d8184612234565b905095945050505050565b600060208201905061258d600083018461229e565b92915050565b60006060820190506125a8600083018561229e565b81810360208301526125ba8184612234565b905081810360408301526125cd816123b1565b90509392505050565b60006020820190506125eb60008301846122ad565b92915050565b600060808201905061260660008301876122ad565b61261360208301866120fd565b61262060408301856122da565b81810360608301526126328184612234565b905095945050505050565b600060208201905061265260008301846122bc565b92915050565b600060208201905061266d60008301846122cb565b92915050565b6000602082019050818103600083015261268d81846122f8565b905092915050565b600060208201905081810360008301526126af8184612331565b905092915050565b60006020820190506126cc60008301846123f7565b92915050565b60006020820190506126e76000830184612415565b92915050565b60006126f7612708565b90506127038282612b9e565b919050565b6000604051905090565b600067ffffffffffffffff82111561272d5761272c612d03565b5b602082029050602081019050919050565b600067ffffffffffffffff82111561275957612758612d03565b5b602082029050602081019050919050565b600067ffffffffffffffff82111561278557612784612d03565b5b61278e82612d50565b9050602081019050919050565b600067ffffffffffffffff8211156127b6576127b5612d03565b5b6127bf82612d50565b9050602081019050919050565b6000819050919050565b6000819050602082019050919050565b6000819050602082019050919050565b60008190508160005260206000209050919050565b600081519050919050565b600081519050919050565b600081519050919050565b600081519050919050565b6000602082019050919050565b6000602082019050919050565b6000602082019050919050565b600082825260208201905092915050565b600081905092915050565b600081905092915050565b600082825260208201905092915050565b600081905092915050565b600082825260208201905092915050565b60006128c16020840184611be3565b905092915050565b60006128d482612a5d565b91506128df83612a5d565b9250826128ef576128ee612c47565b5b600160000383147fffffffffffffffffffffffffffffffffffffffff8000000000000000000000008314161561292857612927612c18565b5b828205905092915050565b600061293e82612a5d565b915061294983612a5d565b9250826b7fffffffffffffffffffffff048211600084136000841316161561297457612973612c18565b5b817fffffffffffffffffffffffffffffffffffffffff80000000000000000000000005831260008412600084131616156129b1576129b0612c18565b5b827fffffffffffffffffffffffffffffffffffffffff80000000000000000000000005821260008413600084121616156129ee576129ed612c18565b5b826b7fffffffffffffffffffffff0582126000841260008412161615612a1757612a16612c18565b5b828202905092915050565b6000612a2d82612a6a565b9050919050565b60008115159050919050565b6000819050612a4e82612d8d565b919050565b6000819050919050565b600081600b0b9050919050565b600073ffffffffffffffffffffffffffffffffffffffff82169050919050565b6000819050919050565b60006bffffffffffffffffffffffff82169050919050565b6000612ab782612b06565b9050919050565b6000612ac982612b06565b9050919050565b6000612adb82612b06565b9050919050565b6000612aed82612a40565b9050919050565b6000612aff82612a8a565b9050919050565b6000612b1182612b18565b9050919050565b6000612b2382612a6a565b9050919050565b82818337600083830152505050565b60005b83811015612b57578082015181840152602081019050612b3c565b83811115612b66576000848401525b50505050565b60006002820490506001821680612b8457607f821691505b60208210811415612b9857612b97612ca5565b5b50919050565b612ba782612d50565b810181811067ffffffffffffffff82111715612bc657612bc5612d03565b5b80604052505050565b6000612bda82612a8a565b91507fffffffffffffffffffffffffffffffffffffffffffffffffffffffffffffffff821415612c0d57612c0c612c18565b5b600182019050919050565b7f4e487b7100000000000000000000000000000000000000000000000000000000600052601160045260246000fd5b7f4e487b7100000000000000000000000000000000000000000000000000000000600052601260045260246000fd5b7f4e487b7100000000000000000000000000000000000000000000000000000000600052602160045260246000fd5b7f4e487b7100000000000000000000000000000000000000000000000000000000600052602260045260246000fd5b7f4e487b7100000000000000000000000000000000000000000000000000000000600052603260045260246000fd5b7f4e487b7100000000000000000000000000000000000000000000000000000000600052604160045260246000fd5b600080fd5b600080fd5b600080fd5b600080fd5b600080fd5b600080fd5b6000601f19601f8301169050919050565b7f3078000000000000000000000000000000000000000000000000000000000000600082015250565b50565b60058110612d9e57612d9d612c76565b5b50565b612daa81612a22565b8114612db557600080fd5b50565b612dc181612a34565b8114612dcc57600080fd5b50565b612dd881612a53565b8114612de357600080fd5b50565b612def81612a8a565b8114612dfa57600080fd5b5056fea2646970667358221220e2b0dc100cd8ba8797ab9a58d3f70770c982863d4ead71b70cd6a11a61f7148364736f6c63430008070033",
  "linkReferences": {},
  "deployedLinkReferences": {}
}