{
  "_format": "hh-sol-artifact-1",
  "contractName": "CrowdCommission",
  "sourceName": "contracts/CrowdCommission.sol",
  "abi": [
    {
      "inputs": [],
      "stateMutability": "nonpayable",
      "type": "constructor"
    },
    {
      "anonymous": false,
      "inputs": [
        {
          "indexed": true,
          "internalType": "address",
          "name": "account",
          "type": "address"
        },
        {
          "indexed": true,
          "internalType": "address",
          "name": "operator",
          "type": "address"
        },
        {
          "indexed": false,
          "internalType": "bool",
          "name": "approved",
          "type": "bool"
        }
      ],
      "name": "ApprovalForAll",
      "type": "event"
    },
    {
      "anonymous": false,
      "inputs": [
        {
          "indexed": true,
          "internalType": "address",
          "name": "previousOwner",
          "type": "address"
        },
        {
          "indexed": true,
          "internalType": "address",
          "name": "newOwner",
          "type": "address"
        }
      ],
      "name": "OwnershipTransferred",
      "type": "event"
    },
    {
      "anonymous": false,
      "inputs": [
        {
          "indexed": true,
          "internalType": "address",
          "name": "operator",
          "type": "address"
        },
        {
          "indexed": true,
          "internalType": "address",
          "name": "from",
          "type": "address"
        },
        {
          "indexed": true,
          "internalType": "address",
          "name": "to",
          "type": "address"
        },
        {
          "indexed": false,
          "internalType": "uint256[]",
          "name": "ids",
          "type": "uint256[]"
        },
        {
          "indexed": false,
          "internalType": "uint256[]",
          "name": "values",
          "type": "uint256[]"
        }
      ],
      "name": "TransferBatch",
      "type": "event"
    },
    {
      "anonymous": false,
      "inputs": [
        {
          "indexed": true,
          "internalType": "address",
          "name": "operator",
          "type": "address"
        },
        {
          "indexed": true,
          "internalType": "address",
          "name": "from",
          "type": "address"
        },
        {
          "indexed": true,
          "internalType": "address",
          "name": "to",
          "type": "address"
        },
        {
          "indexed": false,
          "internalType": "uint256",
          "name": "id",
          "type": "uint256"
        },
        {
          "indexed": false,
          "internalType": "uint256",
          "name": "value",
          "type": "uint256"
        }
      ],
      "name": "TransferSingle",
      "type": "event"
    },
    {
      "anonymous": false,
      "inputs": [
        {
          "indexed": false,
          "internalType": "string",
          "name": "value",
          "type": "string"
        },
        {
          "indexed": true,
          "internalType": "uint256",
          "name": "id",
          "type": "uint256"
        }
      ],
      "name": "URI",
      "type": "event"
    },
    {
      "inputs": [
        {
          "internalType": "address",
          "name": "account",
          "type": "address"
        },
        {
          "internalType": "uint256",
          "name": "id",
          "type": "uint256"
        }
      ],
      "name": "balanceOf",
      "outputs": [
        {
          "internalType": "uint256",
          "name": "",
          "type": "uint256"
        }
      ],
      "stateMutability": "view",
      "type": "function"
    },
    {
      "inputs": [
        {
          "internalType": "address[]",
          "name": "accounts",
          "type": "address[]"
        },
        {
          "internalType": "uint256[]",
          "name": "ids",
          "type": "uint256[]"
        }
      ],
      "name": "balanceOfBatch",
      "outputs": [
        {
          "internalType": "uint256[]",
          "name": "",
          "type": "uint256[]"
        }
      ],
      "stateMutability": "view",
      "type": "function"
    },
    {
      "inputs": [
        {
          "internalType": "address",
          "name": "account",
          "type": "address"
        },
        {
          "internalType": "uint256",
          "name": "id",
          "type": "uint256"
        },
        {
          "internalType": "uint256",
          "name": "value",
          "type": "uint256"
        }
      ],
      "name": "burn",
      "outputs": [],
      "stateMutability": "nonpayable",
      "type": "function"
    },
    {
      "inputs": [
        {
          "internalType": "address",
          "name": "account",
          "type": "address"
        },
        {
          "internalType": "uint256[]",
          "name": "ids",
          "type": "uint256[]"
        },
        {
          "internalType": "uint256[]",
          "name": "values",
          "type": "uint256[]"
        }
      ],
      "name": "burnBatch",
      "outputs": [],
      "stateMutability": "nonpayable",
      "type": "function"
    },
    {
      "inputs": [
        {
          "internalType": "uint256",
          "name": "id",
          "type": "uint256"
        }
      ],
      "name": "exists",
      "outputs": [
        {
          "internalType": "bool",
          "name": "",
          "type": "bool"
        }
      ],
      "stateMutability": "view",
      "type": "function"
    },
    {
      "inputs": [
        {
          "internalType": "address",
          "name": "account",
          "type": "address"
        },
        {
          "internalType": "address",
          "name": "operator",
          "type": "address"
        }
      ],
      "name": "isApprovedForAll",
      "outputs": [
        {
          "internalType": "bool",
          "name": "",
          "type": "bool"
        }
      ],
      "stateMutability": "view",
      "type": "function"
    },
    {
      "inputs": [
        {
          "internalType": "address",
          "name": "to",
          "type": "address"
        },
        {
          "internalType": "uint256[]",
          "name": "ids",
          "type": "uint256[]"
        },
        {
          "internalType": "uint256[]",
          "name": "amounts",
          "type": "uint256[]"
        },
        {
          "internalType": "bytes",
          "name": "data",
          "type": "bytes"
        }
      ],
      "name": "mintBatchToSingleUser",
      "outputs": [],
      "stateMutability": "nonpayable",
      "type": "function"
    },
    {
      "inputs": [
        {
          "internalType": "address[]",
          "name": "funders",
          "type": "address[]"
        },
        {
          "internalType": "uint256",
          "name": "id",
          "type": "uint256"
        },
        {
          "internalType": "bytes",
          "name": "data",
          "type": "bytes"
        }
      ],
      "name": "mintCrowdCommissions",
      "outputs": [],
      "stateMutability": "nonpayable",
      "type": "function"
    },
    {
      "inputs": [
        {
          "internalType": "address",
          "name": "account",
          "type": "address"
        },
        {
          "internalType": "uint256",
          "name": "id",
          "type": "uint256"
        },
        {
          "internalType": "uint256",
          "name": "amount",
          "type": "uint256"
        },
        {
          "internalType": "bytes",
          "name": "data",
          "type": "bytes"
        }
      ],
      "name": "mintSingle",
      "outputs": [],
      "stateMutability": "nonpayable",
      "type": "function"
    },
    {
      "inputs": [],
      "name": "name",
      "outputs": [
        {
          "internalType": "string",
          "name": "",
          "type": "string"
        }
      ],
      "stateMutability": "view",
      "type": "function"
    },
    {
      "inputs": [],
      "name": "owner",
      "outputs": [
        {
          "internalType": "address",
          "name": "",
          "type": "address"
        }
      ],
      "stateMutability": "view",
      "type": "function"
    },
    {
      "inputs": [],
      "name": "renounceOwnership",
      "outputs": [],
      "stateMutability": "nonpayable",
      "type": "function"
    },
    {
      "inputs": [
        {
          "internalType": "address",
          "name": "from",
          "type": "address"
        },
        {
          "internalType": "address",
          "name": "to",
          "type": "address"
        },
        {
          "internalType": "uint256[]",
          "name": "ids",
          "type": "uint256[]"
        },
        {
          "internalType": "uint256[]",
          "name": "amounts",
          "type": "uint256[]"
        },
        {
          "internalType": "bytes",
          "name": "data",
          "type": "bytes"
        }
      ],
      "name": "safeBatchTransferFrom",
      "outputs": [],
      "stateMutability": "nonpayable",
      "type": "function"
    },
    {
      "inputs": [
        {
          "internalType": "address",
          "name": "from",
          "type": "address"
        },
        {
          "internalType": "address",
          "name": "to",
          "type": "address"
        },
        {
          "internalType": "uint256",
          "name": "id",
          "type": "uint256"
        },
        {
          "internalType": "uint256",
          "name": "amount",
          "type": "uint256"
        },
        {
          "internalType": "bytes",
          "name": "data",
          "type": "bytes"
        }
      ],
      "name": "safeTransferFrom",
      "outputs": [],
      "stateMutability": "nonpayable",
      "type": "function"
    },
    {
      "inputs": [
        {
          "internalType": "address",
          "name": "operator",
          "type": "address"
        },
        {
          "internalType": "bool",
          "name": "approved",
          "type": "bool"
        }
      ],
      "name": "setApprovalForAll",
      "outputs": [],
      "stateMutability": "nonpayable",
      "type": "function"
    },
    {
      "inputs": [
        {
          "internalType": "string",
          "name": "newuri",
          "type": "string"
        }
      ],
      "name": "setURI",
      "outputs": [],
      "stateMutability": "nonpayable",
      "type": "function"
    },
    {
      "inputs": [
        {
          "internalType": "bytes4",
          "name": "interfaceId",
          "type": "bytes4"
        }
      ],
      "name": "supportsInterface",
      "outputs": [
        {
          "internalType": "bool",
          "name": "",
          "type": "bool"
        }
      ],
      "stateMutability": "view",
      "type": "function"
    },
    {
      "inputs": [],
      "name": "symbol",
      "outputs": [
        {
          "internalType": "string",
          "name": "",
          "type": "string"
        }
      ],
      "stateMutability": "view",
      "type": "function"
    },
    {
      "inputs": [
        {
          "internalType": "uint256",
          "name": "id",
          "type": "uint256"
        }
      ],
      "name": "totalSupply",
      "outputs": [
        {
          "internalType": "uint256",
          "name": "",
          "type": "uint256"
        }
      ],
      "stateMutability": "view",
      "type": "function"
    },
    {
      "inputs": [
        {
          "internalType": "address",
          "name": "newOwner",
          "type": "address"
        }
      ],
      "name": "transferOwnership",
      "outputs": [],
      "stateMutability": "nonpayable",
      "type": "function"
    },
    {
      "inputs": [
        {
          "internalType": "uint256",
          "name": "",
          "type": "uint256"
        }
      ],
      "name": "uri",
      "outputs": [
        {
          "internalType": "string",
          "name": "",
          "type": "string"
        }
      ],
      "stateMutability": "view",
      "type": "function"
    }
  ],
  "bytecode": "0x60806040526040518060400160405280601081526020017f43726f77642d436f6d6d697373696f6e000000000000000000000000000000008152506005908051906020019062000051929190620001e0565b506040518060400160405280600581526020017f43524f5744000000000000000000000000000000000000000000000000000000815250600690805190602001906200009f929190620001e0565b50348015620000ad57600080fd5b5060405180602001604052806000815250620000cf81620000f660201b60201c565b50620000f0620000e46200011260201b60201c565b6200011a60201b60201c565b620002f5565b80600290805190602001906200010e929190620001e0565b5050565b600033905090565b6000600360009054906101000a900473ffffffffffffffffffffffffffffffffffffffff16905081600360006101000a81548173ffffffffffffffffffffffffffffffffffffffff021916908373ffffffffffffffffffffffffffffffffffffffff1602179055508173ffffffffffffffffffffffffffffffffffffffff168173ffffffffffffffffffffffffffffffffffffffff167f8be0079c531659141344cd1fd0a4f28419497f9722a3daafe3b4186f6b6457e060405160405180910390a35050565b828054620001ee9062000290565b90600052602060002090601f0160209004810192826200021257600085556200025e565b82601f106200022d57805160ff19168380011785556200025e565b828001600101855582156200025e579182015b828111156200025d57825182559160200191906001019062000240565b5b5090506200026d919062000271565b5090565b5b808211156200028c57600081600090555060010162000272565b5090565b60006002820490506001821680620002a957607f821691505b60208210811415620002c057620002bf620002c6565b5b50919050565b7f4e487b7100000000000000000000000000000000000000000000000000000000600052602260045260246000fd5b61365b80620003056000396000f3fe608060405234801561001057600080fd5b50600436106101365760003560e01c80636f31dc6e116100b8578063bd85b0391161007c578063bd85b03914610337578063e985e9c514610367578063eabd8c3c14610397578063f242432a146103b3578063f2fde38b146103cf578063f5298aca146103eb57610136565b80636f31dc6e146102b9578063715018a6146102d55780638da5cb5b146102df57806395d89b41146102fd578063a22cb4651461031b57610136565b80630e89341c116100ff5780630e89341c146101f15780632eb2c2d6146102215780634e1273f41461023d5780634f558e791461026d5780636b20c4541461029d57610136565b8062fdd58e1461013b57806301ffc9a71461016b57806302fe53051461019b57806306fdde03146101b75780630e61295f146101d5575b600080fd5b610155600480360381019061015091906124fe565b610407565b6040516101629190612d5f565b60405180910390f35b61018560048036038101906101809190612717565b6104d0565b6040516101929190612bc2565b60405180910390f35b6101b560048036038101906101b09190612771565b6105b2565b005b6101bf61063a565b6040516101cc9190612bdd565b60405180910390f35b6101ef60048036038101906101ea919061268c565b6106c8565b005b61020b600480360381019061020691906127ba565b610794565b6040516102189190612bdd565b60405180910390f35b61023b60048036038101906102369190612212565b610828565b005b61025760048036038101906102529190612614565b61082f565b6040516102649190612b69565b60405180910390f35b610287600480360381019061028291906127ba565b610948565b6040516102949190612bc2565b60405180910390f35b6102b760048036038101906102b29190612378565b61095c565b005b6102d360048036038101906102ce9190612403565b6109f9565b005b6102dd610a87565b005b6102e7610b0f565b6040516102f49190612a8c565b60405180910390f35b610305610b39565b6040516103129190612bdd565b60405180910390f35b610335600480360381019061033091906124be565b610bc7565b005b610351600480360381019061034c91906127ba565b610bcb565b60405161035e9190612d5f565b60405180910390f35b610381600480360381019061037c91906121d2565b610be8565b60405161038e9190612bc2565b60405180910390f35b6103b160048036038101906103ac9190612591565b610c7c565b005b6103cd60048036038101906103c891906122e1565b610d0a565b005b6103e960048036038101906103e491906121a5565b610d11565b005b6104056004803603810190610400919061253e565b610e09565b005b60008073ffffffffffffffffffffffffffffffffffffffff168373ffffffffffffffffffffffffffffffffffffffff161415610478576040517f08c379a000000000000000000000000000000000000000000000000000000000815260040161046f90612c3f565b60405180910390fd5b60008083815260200190815260200160002060008473ffffffffffffffffffffffffffffffffffffffff1673ffffffffffffffffffffffffffffffffffffffff16815260200190815260200160002054905092915050565b60007fd9b67a26000000000000000000000000000000000000000000000000000000007bffffffffffffffffffffffffffffffffffffffffffffffffffffffff1916827bffffffffffffffffffffffffffffffffffffffffffffffffffffffff1916148061059b57507f0e89341c000000000000000000000000000000000000000000000000000000007bffffffffffffffffffffffffffffffffffffffffffffffffffffffff1916827bffffffffffffffffffffffffffffffffffffffffffffffffffffffff1916145b806105ab57506105aa82610ea6565b5b9050919050565b6105ba610f10565b73ffffffffffffffffffffffffffffffffffffffff166105d8610b0f565b73ffffffffffffffffffffffffffffffffffffffff161461062e576040517f08c379a000000000000000000000000000000000000000000000000000000000815260040161062590612cdf565b60405180910390fd5b61063781610f18565b50565b6005805461064790613033565b80601f016020809104026020016040519081016040528092919081815260200182805461067390613033565b80156106c05780601f10610695576101008083540402835291602001916106c0565b820191906000526020600020905b8154815290600101906020018083116106a357829003601f168201915b505050505081565b6106d0610f10565b73ffffffffffffffffffffffffffffffffffffffff166106ee610b0f565b73ffffffffffffffffffffffffffffffffffffffff1614610744576040517f08c379a000000000000000000000000000000000000000000000000000000000815260040161073b90612cdf565b60405180910390fd5b6000600190505b835181101561078e5761077b84828151811061076a5761076961313d565b5b602002602001015184600185610f32565b808061078690613096565b91505061074b565b50505050565b6060600280546107a390613033565b80601f01602080910402602001604051908101604052809291908181526020018280546107cf90613033565b801561081c5780601f106107f15761010080835404028352916020019161081c565b820191906000526020600020905b8154815290600101906020018083116107ff57829003601f168201915b50505050509050919050565b5050505050565b60608151835114610875576040517f08c379a000000000000000000000000000000000000000000000000000000000815260040161086c90612cff565b60405180910390fd5b6000835167ffffffffffffffff8111156108925761089161316c565b5b6040519080825280602002602001820160405280156108c05781602001602082028036833780820191505090505b50905060005b845181101561093d5761090d8582815181106108e5576108e461313d565b5b6020026020010151858381518110610900576108ff61313d565b5b6020026020010151610407565b8282815181106109205761091f61313d565b5b6020026020010181815250508061093690613096565b90506108c6565b508091505092915050565b60008061095483610bcb565b119050919050565b610964610f10565b73ffffffffffffffffffffffffffffffffffffffff168373ffffffffffffffffffffffffffffffffffffffff1614806109aa57506109a9836109a4610f10565b610be8565b5b6109e9576040517f08c379a00000000000000000000000000000000000000000000000000000000081526004016109e090612c9f565b60405180910390fd5b6109f48383836110c8565b505050565b610a01610f10565b73ffffffffffffffffffffffffffffffffffffffff16610a1f610b0f565b73ffffffffffffffffffffffffffffffffffffffff1614610a75576040517f08c379a0000000000000000000000000000000000000000000000000000000008152600401610a6c90612cdf565b60405180910390fd5b610a8184848484611379565b50505050565b610a8f610f10565b73ffffffffffffffffffffffffffffffffffffffff16610aad610b0f565b73ffffffffffffffffffffffffffffffffffffffff1614610b03576040517f08c379a0000000000000000000000000000000000000000000000000000000008152600401610afa90612cdf565b60405180910390fd5b610b0d6000611597565b565b6000600360009054906101000a900473ffffffffffffffffffffffffffffffffffffffff16905090565b60068054610b4690613033565b80601f0160208091040260200160405190810160405280929190818152602001828054610b7290613033565b8015610bbf5780601f10610b9457610100808354040283529160200191610bbf565b820191906000526020600020905b815481529060010190602001808311610ba257829003601f168201915b505050505081565b5050565b600060046000838152602001908152602001600020549050919050565b6000600160008473ffffffffffffffffffffffffffffffffffffffff1673ffffffffffffffffffffffffffffffffffffffff16815260200190815260200160002060008373ffffffffffffffffffffffffffffffffffffffff1673ffffffffffffffffffffffffffffffffffffffff16815260200190815260200160002060009054906101000a900460ff16905092915050565b610c84610f10565b73ffffffffffffffffffffffffffffffffffffffff16610ca2610b0f565b73ffffffffffffffffffffffffffffffffffffffff1614610cf8576040517f08c379a0000000000000000000000000000000000000000000000000000000008152600401610cef90612cdf565b60405180910390fd5b610d0484848484610f32565b50505050565b5050505050565b610d19610f10565b73ffffffffffffffffffffffffffffffffffffffff16610d37610b0f565b73ffffffffffffffffffffffffffffffffffffffff1614610d8d576040517f08c379a0000000000000000000000000000000000000000000000000000000008152600401610d8490612cdf565b60405180910390fd5b600073ffffffffffffffffffffffffffffffffffffffff168173ffffffffffffffffffffffffffffffffffffffff161415610dfd576040517f08c379a0000000000000000000000000000000000000000000000000000000008152600401610df490612c5f565b60405180910390fd5b610e0681611597565b50565b610e11610f10565b73ffffffffffffffffffffffffffffffffffffffff168373ffffffffffffffffffffffffffffffffffffffff161480610e575750610e5683610e51610f10565b610be8565b5b610e96576040517f08c379a0000000000000000000000000000000000000000000000000000000008152600401610e8d90612c9f565b60405180910390fd5b610ea183838361165d565b505050565b60007f01ffc9a7000000000000000000000000000000000000000000000000000000007bffffffffffffffffffffffffffffffffffffffffffffffffffffffff1916827bffffffffffffffffffffffffffffffffffffffffffffffffffffffff1916149050919050565b600033905090565b8060029080519060200190610f2e929190611e7d565b5050565b600073ffffffffffffffffffffffffffffffffffffffff168473ffffffffffffffffffffffffffffffffffffffff161415610fa2576040517f08c379a0000000000000000000000000000000000000000000000000000000008152600401610f9990612d3f565b60405180910390fd5b6000610fac610f10565b9050610fcd81600087610fbe8861187a565b610fc78861187a565b876118f4565b8260008086815260200190815260200160002060008773ffffffffffffffffffffffffffffffffffffffff1673ffffffffffffffffffffffffffffffffffffffff168152602001908152602001600020600082825461102c9190612ef3565b925050819055508473ffffffffffffffffffffffffffffffffffffffff16600073ffffffffffffffffffffffffffffffffffffffff168273ffffffffffffffffffffffffffffffffffffffff167fc3d58168c5ae7397731d063d5bbf3d657854427343f4c083240f7aacaa2d0f6287876040516110aa929190612d7a565b60405180910390a46110c18160008787878761190a565b5050505050565b600073ffffffffffffffffffffffffffffffffffffffff168373ffffffffffffffffffffffffffffffffffffffff161415611138576040517f08c379a000000000000000000000000000000000000000000000000000000000815260040161112f90612cbf565b60405180910390fd5b805182511461117c576040517f08c379a000000000000000000000000000000000000000000000000000000000815260040161117390612d1f565b60405180910390fd5b6000611186610f10565b90506111a6818560008686604051806020016040528060008152506118f4565b60005b83518110156112f35760008482815181106111c7576111c661313d565b5b6020026020010151905060008483815181106111e6576111e561313d565b5b60200260200101519050600080600084815260200190815260200160002060008973ffffffffffffffffffffffffffffffffffffffff1673ffffffffffffffffffffffffffffffffffffffff16815260200190815260200160002054905081811015611287576040517f08c379a000000000000000000000000000000000000000000000000000000000815260040161127e90612c7f565b60405180910390fd5b81810360008085815260200190815260200160002060008a73ffffffffffffffffffffffffffffffffffffffff1673ffffffffffffffffffffffffffffffffffffffff1681526020019081526020016000208190555050505080806112eb90613096565b9150506111a9565b50600073ffffffffffffffffffffffffffffffffffffffff168473ffffffffffffffffffffffffffffffffffffffff168273ffffffffffffffffffffffffffffffffffffffff167f4a39dc06d4c0dbc64b70af90fd698a233a518aa5d07e595d983b8c0526c8f7fb868660405161136b929190612b8b565b60405180910390a450505050565b600073ffffffffffffffffffffffffffffffffffffffff168473ffffffffffffffffffffffffffffffffffffffff1614156113e9576040517f08c379a00000000000000000000000000000000000000000000000000000000081526004016113e090612d3f565b60405180910390fd5b815183511461142d576040517f08c379a000000000000000000000000000000000000000000000000000000000815260040161142490612d1f565b60405180910390fd5b6000611437610f10565b9050611448816000878787876118f4565b60005b8451811015611501578381815181106114675761146661313d565b5b60200260200101516000808784815181106114855761148461313d565b5b6020026020010151815260200190815260200160002060008873ffffffffffffffffffffffffffffffffffffffff1673ffffffffffffffffffffffffffffffffffffffff16815260200190815260200160002060008282546114e79190612ef3565b9250508190555080806114f990613096565b91505061144b565b508473ffffffffffffffffffffffffffffffffffffffff16600073ffffffffffffffffffffffffffffffffffffffff168273ffffffffffffffffffffffffffffffffffffffff167f4a39dc06d4c0dbc64b70af90fd698a233a518aa5d07e595d983b8c0526c8f7fb8787604051611579929190612b8b565b60405180910390a461159081600087878787611af1565b5050505050565b6000600360009054906101000a900473ffffffffffffffffffffffffffffffffffffffff16905081600360006101000a81548173ffffffffffffffffffffffffffffffffffffffff021916908373ffffffffffffffffffffffffffffffffffffffff1602179055508173ffffffffffffffffffffffffffffffffffffffff168173ffffffffffffffffffffffffffffffffffffffff167f8be0079c531659141344cd1fd0a4f28419497f9722a3daafe3b4186f6b6457e060405160405180910390a35050565b600073ffffffffffffffffffffffffffffffffffffffff168373ffffffffffffffffffffffffffffffffffffffff1614156116cd576040517f08c379a00000000000000000000000000000000000000000000000000000000081526004016116c490612cbf565b60405180910390fd5b60006116d7610f10565b9050611707818560006116e98761187a565b6116f28761187a565b604051806020016040528060008152506118f4565b600080600085815260200190815260200160002060008673ffffffffffffffffffffffffffffffffffffffff1673ffffffffffffffffffffffffffffffffffffffff1681526020019081526020016000205490508281101561179e576040517f08c379a000000000000000000000000000000000000000000000000000000000815260040161179590612c7f565b60405180910390fd5b82810360008086815260200190815260200160002060008773ffffffffffffffffffffffffffffffffffffffff1673ffffffffffffffffffffffffffffffffffffffff16815260200190815260200160002081905550600073ffffffffffffffffffffffffffffffffffffffff168573ffffffffffffffffffffffffffffffffffffffff168373ffffffffffffffffffffffffffffffffffffffff167fc3d58168c5ae7397731d063d5bbf3d657854427343f4c083240f7aacaa2d0f62878760405161186b929190612d7a565b60405180910390a45050505050565b60606000600167ffffffffffffffff8111156118995761189861316c565b5b6040519080825280602002602001820160405280156118c75781602001602082028036833780820191505090505b50905082816000815181106118df576118de61313d565b5b60200260200101818152505080915050919050565b611902868686868686611cd8565b505050505050565b6119298473ffffffffffffffffffffffffffffffffffffffff16611e52565b15611ae9578373ffffffffffffffffffffffffffffffffffffffff1663f23a6e6187878686866040518663ffffffff1660e01b815260040161196f959493929190612b0f565b602060405180830381600087803b15801561198957600080fd5b505af19250505080156119ba57506040513d601f19601f820116820180604052508101906119b79190612744565b60015b611a60576119c661319b565b806308c379a01415611a2357506119db613533565b806119e65750611a25565b806040517f08c379a0000000000000000000000000000000000000000000000000000000008152600401611a1a9190612bdd565b60405180910390fd5b505b6040517f08c379a0000000000000000000000000000000000000000000000000000000008152600401611a5790612bff565b60405180910390fd5b63f23a6e6160e01b7bffffffffffffffffffffffffffffffffffffffffffffffffffffffff1916817bffffffffffffffffffffffffffffffffffffffffffffffffffffffff191614611ae7576040517f08c379a0000000000000000000000000000000000000000000000000000000008152600401611ade90612c1f565b60405180910390fd5b505b505050505050565b611b108473ffffffffffffffffffffffffffffffffffffffff16611e52565b15611cd0578373ffffffffffffffffffffffffffffffffffffffff1663bc197c8187878686866040518663ffffffff1660e01b8152600401611b56959493929190612aa7565b602060405180830381600087803b158015611b7057600080fd5b505af1925050508015611ba157506040513d601f19601f82011682018060405250810190611b9e9190612744565b60015b611c4757611bad61319b565b806308c379a01415611c0a5750611bc2613533565b80611bcd5750611c0c565b806040517f08c379a0000000000000000000000000000000000000000000000000000000008152600401611c019190612bdd565b60405180910390fd5b505b6040517f08c379a0000000000000000000000000000000000000000000000000000000008152600401611c3e90612bff565b60405180910390fd5b63bc197c8160e01b7bffffffffffffffffffffffffffffffffffffffffffffffffffffffff1916817bffffffffffffffffffffffffffffffffffffffffffffffffffffffff191614611cce576040517f08c379a0000000000000000000000000000000000000000000000000000000008152600401611cc590612c1f565b60405180910390fd5b505b505050505050565b611ce6868686868686611e75565b600073ffffffffffffffffffffffffffffffffffffffff168573ffffffffffffffffffffffffffffffffffffffff161415611d985760005b8351811015611d9657828181518110611d3a57611d3961313d565b5b602002602001015160046000868481518110611d5957611d5861313d565b5b602002602001015181526020019081526020016000206000828254611d7e9190612ef3565b9250508190555080611d8f90613096565b9050611d1e565b505b600073ffffffffffffffffffffffffffffffffffffffff168473ffffffffffffffffffffffffffffffffffffffff161415611e4a5760005b8351811015611e4857828181518110611dec57611deb61313d565b5b602002602001015160046000868481518110611e0b57611e0a61313d565b5b602002602001015181526020019081526020016000206000828254611e309190612f49565b9250508190555080611e4190613096565b9050611dd0565b505b505050505050565b6000808273ffffffffffffffffffffffffffffffffffffffff163b119050919050565b505050505050565b828054611e8990613033565b90600052602060002090601f016020900481019282611eab5760008555611ef2565b82601f10611ec457805160ff1916838001178555611ef2565b82800160010185558215611ef2579182015b82811115611ef1578251825591602001919060010190611ed6565b5b509050611eff9190611f03565b5090565b5b80821115611f1c576000816000905550600101611f04565b5090565b6000611f33611f2e84612dc8565b612da3565b90508083825260208201905082856020860282011115611f5657611f556131c2565b5b60005b85811015611f865781611f6c8882612084565b845260208401935060208301925050600181019050611f59565b5050509392505050565b6000611fa3611f9e84612df4565b612da3565b90508083825260208201905082856020860282011115611fc657611fc56131c2565b5b60005b85811015611ff65781611fdc8882612190565b845260208401935060208301925050600181019050611fc9565b5050509392505050565b600061201361200e84612e20565b612da3565b90508281526020810184848401111561202f5761202e6131c7565b5b61203a848285612ff1565b509392505050565b600061205561205084612e51565b612da3565b905082815260208101848484011115612071576120706131c7565b5b61207c848285612ff1565b509392505050565b600081359050612093816135c9565b92915050565b600082601f8301126120ae576120ad6131bd565b5b81356120be848260208601611f20565b91505092915050565b600082601f8301126120dc576120db6131bd565b5b81356120ec848260208601611f90565b91505092915050565b600081359050612104816135e0565b92915050565b600081359050612119816135f7565b92915050565b60008151905061212e816135f7565b92915050565b600082601f830112612149576121486131bd565b5b8135612159848260208601612000565b91505092915050565b600082601f830112612177576121766131bd565b5b8135612187848260208601612042565b91505092915050565b60008135905061219f8161360e565b92915050565b6000602082840312156121bb576121ba6131d1565b5b60006121c984828501612084565b91505092915050565b600080604083850312156121e9576121e86131d1565b5b60006121f785828601612084565b925050602061220885828601612084565b9150509250929050565b600080600080600060a0868803121561222e5761222d6131d1565b5b600061223c88828901612084565b955050602061224d88828901612084565b945050604086013567ffffffffffffffff81111561226e5761226d6131cc565b5b61227a888289016120c7565b935050606086013567ffffffffffffffff81111561229b5761229a6131cc565b5b6122a7888289016120c7565b925050608086013567ffffffffffffffff8111156122c8576122c76131cc565b5b6122d488828901612134565b9150509295509295909350565b600080600080600060a086880312156122fd576122fc6131d1565b5b600061230b88828901612084565b955050602061231c88828901612084565b945050604061232d88828901612190565b935050606061233e88828901612190565b925050608086013567ffffffffffffffff81111561235f5761235e6131cc565b5b61236b88828901612134565b9150509295509295909350565b600080600060608486031215612391576123906131d1565b5b600061239f86828701612084565b935050602084013567ffffffffffffffff8111156123c0576123bf6131cc565b5b6123cc868287016120c7565b925050604084013567ffffffffffffffff8111156123ed576123ec6131cc565b5b6123f9868287016120c7565b9150509250925092565b6000806000806080858703121561241d5761241c6131d1565b5b600061242b87828801612084565b945050602085013567ffffffffffffffff81111561244c5761244b6131cc565b5b612458878288016120c7565b935050604085013567ffffffffffffffff811115612479576124786131cc565b5b612485878288016120c7565b925050606085013567ffffffffffffffff8111156124a6576124a56131cc565b5b6124b287828801612134565b91505092959194509250565b600080604083850312156124d5576124d46131d1565b5b60006124e385828601612084565b92505060206124f4858286016120f5565b9150509250929050565b60008060408385031215612515576125146131d1565b5b600061252385828601612084565b925050602061253485828601612190565b9150509250929050565b600080600060608486031215612557576125566131d1565b5b600061256586828701612084565b935050602061257686828701612190565b925050604061258786828701612190565b9150509250925092565b600080600080608085870312156125ab576125aa6131d1565b5b60006125b987828801612084565b94505060206125ca87828801612190565b93505060406125db87828801612190565b925050606085013567ffffffffffffffff8111156125fc576125fb6131cc565b5b61260887828801612134565b91505092959194509250565b6000806040838503121561262b5761262a6131d1565b5b600083013567ffffffffffffffff811115612649576126486131cc565b5b61265585828601612099565b925050602083013567ffffffffffffffff811115612676576126756131cc565b5b612682858286016120c7565b9150509250929050565b6000806000606084860312156126a5576126a46131d1565b5b600084013567ffffffffffffffff8111156126c3576126c26131cc565b5b6126cf86828701612099565b93505060206126e086828701612190565b925050604084013567ffffffffffffffff811115612701576127006131cc565b5b61270d86828701612134565b9150509250925092565b60006020828403121561272d5761272c6131d1565b5b600061273b8482850161210a565b91505092915050565b60006020828403121561275a576127596131d1565b5b60006127688482850161211f565b91505092915050565b600060208284031215612787576127866131d1565b5b600082013567ffffffffffffffff8111156127a5576127a46131cc565b5b6127b184828501612162565b91505092915050565b6000602082840312156127d0576127cf6131d1565b5b60006127de84828501612190565b91505092915050565b60006127f38383612a6e565b60208301905092915050565b61280881612f7d565b82525050565b600061281982612e92565b6128238185612ec0565b935061282e83612e82565b8060005b8381101561285f57815161284688826127e7565b975061285183612eb3565b925050600181019050612832565b5085935050505092915050565b61287581612f8f565b82525050565b600061288682612e9d565b6128908185612ed1565b93506128a0818560208601613000565b6128a9816131d6565b840191505092915050565b60006128bf82612ea8565b6128c98185612ee2565b93506128d9818560208601613000565b6128e2816131d6565b840191505092915050565b60006128fa603483612ee2565b9150612905826131f4565b604082019050919050565b600061291d602883612ee2565b915061292882613243565b604082019050919050565b6000612940602b83612ee2565b915061294b82613292565b604082019050919050565b6000612963602683612ee2565b915061296e826132e1565b604082019050919050565b6000612986602483612ee2565b915061299182613330565b604082019050919050565b60006129a9602983612ee2565b91506129b48261337f565b604082019050919050565b60006129cc602383612ee2565b91506129d7826133ce565b604082019050919050565b60006129ef602083612ee2565b91506129fa8261341d565b602082019050919050565b6000612a12602983612ee2565b9150612a1d82613446565b604082019050919050565b6000612a35602883612ee2565b9150612a4082613495565b604082019050919050565b6000612a58602183612ee2565b9150612a63826134e4565b604082019050919050565b612a7781612fe7565b82525050565b612a8681612fe7565b82525050565b6000602082019050612aa160008301846127ff565b92915050565b600060a082019050612abc60008301886127ff565b612ac960208301876127ff565b8181036040830152612adb818661280e565b90508181036060830152612aef818561280e565b90508181036080830152612b03818461287b565b90509695505050505050565b600060a082019050612b2460008301886127ff565b612b3160208301876127ff565b612b3e6040830186612a7d565b612b4b6060830185612a7d565b8181036080830152612b5d818461287b565b90509695505050505050565b60006020820190508181036000830152612b83818461280e565b905092915050565b60006040820190508181036000830152612ba5818561280e565b90508181036020830152612bb9818461280e565b90509392505050565b6000602082019050612bd7600083018461286c565b92915050565b60006020820190508181036000830152612bf781846128b4565b905092915050565b60006020820190508181036000830152612c18816128ed565b9050919050565b60006020820190508181036000830152612c3881612910565b9050919050565b60006020820190508181036000830152612c5881612933565b9050919050565b60006020820190508181036000830152612c7881612956565b9050919050565b60006020820190508181036000830152612c9881612979565b9050919050565b60006020820190508181036000830152612cb88161299c565b9050919050565b60006020820190508181036000830152612cd8816129bf565b9050919050565b60006020820190508181036000830152612cf8816129e2565b9050919050565b60006020820190508181036000830152612d1881612a05565b9050919050565b60006020820190508181036000830152612d3881612a28565b9050919050565b60006020820190508181036000830152612d5881612a4b565b9050919050565b6000602082019050612d746000830184612a7d565b92915050565b6000604082019050612d8f6000830185612a7d565b612d9c6020830184612a7d565b9392505050565b6000612dad612dbe565b9050612db98282613065565b919050565b6000604051905090565b600067ffffffffffffffff821115612de357612de261316c565b5b602082029050602081019050919050565b600067ffffffffffffffff821115612e0f57612e0e61316c565b5b602082029050602081019050919050565b600067ffffffffffffffff821115612e3b57612e3a61316c565b5b612e44826131d6565b9050602081019050919050565b600067ffffffffffffffff821115612e6c57612e6b61316c565b5b612e75826131d6565b9050602081019050919050565b6000819050602082019050919050565b600081519050919050565b600081519050919050565b600081519050919050565b6000602082019050919050565b600082825260208201905092915050565b600082825260208201905092915050565b600082825260208201905092915050565b6000612efe82612fe7565b9150612f0983612fe7565b9250827fffffffffffffffffffffffffffffffffffffffffffffffffffffffffffffffff03821115612f3e57612f3d6130df565b5b828201905092915050565b6000612f5482612fe7565b9150612f5f83612fe7565b925082821015612f7257612f716130df565b5b828203905092915050565b6000612f8882612fc7565b9050919050565b60008115159050919050565b60007fffffffff0000000000000000000000000000000000000000000000000000000082169050919050565b600073ffffffffffffffffffffffffffffffffffffffff82169050919050565b6000819050919050565b82818337600083830152505050565b60005b8381101561301e578082015181840152602081019050613003565b8381111561302d576000848401525b50505050565b6000600282049050600182168061304b57607f821691505b6020821081141561305f5761305e61310e565b5b50919050565b61306e826131d6565b810181811067ffffffffffffffff8211171561308d5761308c61316c565b5b80604052505050565b60006130a182612fe7565b91507fffffffffffffffffffffffffffffffffffffffffffffffffffffffffffffffff8214156130d4576130d36130df565b5b600182019050919050565b7f4e487b7100000000000000000000000000000000000000000000000000000000600052601160045260246000fd5b7f4e487b7100000000000000000000000000000000000000000000000000000000600052602260045260246000fd5b7f4e487b7100000000000000000000000000000000000000000000000000000000600052603260045260246000fd5b7f4e487b7100000000000000000000000000000000000000000000000000000000600052604160045260246000fd5b600060033d11156131ba5760046000803e6131b76000516131e7565b90505b90565b600080fd5b600080fd5b600080fd5b600080fd5b600080fd5b6000601f19601f8301169050919050565b60008160e01c9050919050565b7f455243313135353a207472616e7366657220746f206e6f6e204552433131353560008201527f526563656976657220696d706c656d656e746572000000000000000000000000602082015250565b7f455243313135353a204552433131353552656365697665722072656a6563746560008201527f6420746f6b656e73000000000000000000000000000000000000000000000000602082015250565b7f455243313135353a2062616c616e636520717565727920666f7220746865207a60008201527f65726f2061646472657373000000000000000000000000000000000000000000602082015250565b7f4f776e61626c653a206e6577206f776e657220697320746865207a65726f206160008201527f6464726573730000000000000000000000000000000000000000000000000000602082015250565b7f455243313135353a206275726e20616d6f756e7420657863656564732062616c60008201527f616e636500000000000000000000000000000000000000000000000000000000602082015250565b7f455243313135353a2063616c6c6572206973206e6f74206f776e6572206e6f7260008201527f20617070726f7665640000000000000000000000000000000000000000000000602082015250565b7f455243313135353a206275726e2066726f6d20746865207a65726f206164647260008201527f6573730000000000000000000000000000000000000000000000000000000000602082015250565b7f4f776e61626c653a2063616c6c6572206973206e6f7420746865206f776e6572600082015250565b7f455243313135353a206163636f756e747320616e6420696473206c656e67746860008201527f206d69736d617463680000000000000000000000000000000000000000000000602082015250565b7f455243313135353a2069647320616e6420616d6f756e7473206c656e6774682060008201527f6d69736d61746368000000000000000000000000000000000000000000000000602082015250565b7f455243313135353a206d696e7420746f20746865207a65726f2061646472657360008201527f7300000000000000000000000000000000000000000000000000000000000000602082015250565b600060443d1015613543576135c6565b61354b612dbe565b60043d036004823e80513d602482011167ffffffffffffffff821117156135735750506135c6565b808201805167ffffffffffffffff81111561359157505050506135c6565b80602083010160043d0385018111156135ae5750505050506135c6565b6135bd82602001850186613065565b82955050505050505b90565b6135d281612f7d565b81146135dd57600080fd5b50565b6135e981612f8f565b81146135f457600080fd5b50565b61360081612f9b565b811461360b57600080fd5b50565b61361781612fe7565b811461362257600080fd5b5056fea26469706673582212203f9667b774aa8a130a20cd8292c9087395f06eed650e7d0203ba5a007d659ab064736f6c63430008070033",
  "linkReferences": {},
  "deployedLinkReferences": {}
}